:020000040800F2
:10000000B005002005010008E11F0008A91B000839
:10001000691F0008B5080008F72400080000000068
:100020000000000000000000000000001121000896
:10003000B7080008000000000F2100081321000885
:100040001F0100081F0100081F0100081F01000810
:100050001F0100081F0100081F0100081F01000800
:100060001F0100081F010008C10800081F01000847
:100070001F0100081F0100081F0100081F010008E0
:100080001F0100081F0100081F0100081F010008D0
:100090001F0100081F0100081F0100081F010008C0
:1000A0001F010008752100081F0100081F0100083A
:1000B000812100081F0100088D2100081F01000890
:1000C0001F0100081F0100081F0100081F01000890
:1000D0001F0100081F0100081F0100081F01000880
:1000E000B90800081F0100081F010008DFF810D040
:1000F00000F06AFB00480047BD2E0008AFF3008007
:10010000B00500200648804706480047FEE7FEE7A6
:10011000FEE7FEE7FEE7FEE7FEE7FEE7FEE7FEE7B7
:1001200073210008ED000008202A04DB203A21FAA0
:1001300002F00021704721FA02F3D040C2F1200200
:100140009140084319467047D2B201E000F8012BF4
:10015000491EFBD270470022F6E710B513460A4647
:1001600004461946FFF7F0FF204610BD80EA010261
:1001700010B502F00043400022D04A001FD0010E0B
:1001800001EB1261C0F35600C2F3560240F40000C6
:1001900042F40002A0FB022000047F39140400D0C6
:1001A000401C50EA124001D44000491EC2B20C0665
:1001B00004EBD010401C4008802A02D003E000204D
:1001C00010BD20F00100002900DA0020184310BD06
:1001D0002DE9F04D81EA030404F0004B21F00045C5
:1001E00014464FF0000A23F0004150EA050220D0E7
:1001F00054EA01021DD0C5F30A570246C5F31303A2
:10020000C1F31300C1F30A5640F4801543F4801380
:10021000A7EB0608101BD64608F2FD3873EB050065
:1002200002D308F1010801E092185B41B8F1000F18
:1002300003DA00200146BDE8F08D00204FF4801164
:10024000064684460EE0171B73EB050705D3121B09
:1002500063EB050306434CEA010C49084FEA300002
:1002600092185B4150EA0107EDD152EA030012D027
:1002700082EA040083EA0501084305D0101BAB4164
:1002800006D20122002306E000224FF0004302E0E4
:100290006FF0010253101AEB06004CEB085110EB03
:1002A0000A0041EB0B01BDE8F04D00F0E6B870B577
:1002B00021F0004303430CD0C1F30A550024D5EBD1
:1002C000040564EB0403D617AD1AB34102DB00202A
:1002D000014670BD201841EB025170BDC10F80EA8C
:1002E000E0700844CA079623002100F098B800F097
:1002F000004220F00040C10DC0F3160040F40000A1
:100300007F2901DA00207047962903DCC1F19601AC
:10031000C84001E096398840002AF4D04042704736
:1003200000F0004230F000400AD0C10D01F56071CC
:10033000C0F3160042EA0151C2084007114370475A
:1003400000200146704701F0004330B421F0004125
:1003500050EA010206D00A0DA2F56072C1F3130142
:10036000002A02DC30BC00207047440F44EAC1047C
:10037000C100E01830BC00EBC25000F047B830B507
:100380000B46014600202022012409E021FA02F553
:100390009D4205D303FA02F5491B04FA02F52844ED
:1003A000151EA2F10102F1DC30BD2DE9F05F05461A
:1003B000002092469B4688460646814640241BE024
:1003C0002846414647462246FFF7AEFE53465A4668
:1003D000C01A914110D311461846224600F006FA81
:1003E0002D1A67EB01084F4622460120002100F03C
:1003F000FDF917EB00094E41201EA4F10104DFDCDA
:10040000484631462A464346BDE8F09F0029A8BF2A
:100410007047401C490008BF20F00100704710B42D
:10042000B0FA80FC00FA0CF050EA010404BF10BCE2
:10043000704749B1CCF1200421FA04F411FA0CF10F
:1004400018BF012121430843A3EB0C01CB1D4FEA48
:1004500000614FEA102042BF002010BC704700EB43
:10046000C35010440029A4BF10BC7047401C490071
:1004700008BF20F0010010BC704710B5141E73F1C6
:10048000000408DA401C41F1000192185B411A4354
:1004900001D120F0010010BD2DE9F04D92469B46A0
:1004A00011B1B1FA81F202E0B0FA80F22032904646
:1004B00000F09CF904460F4640EA0A0041EA0B01AD
:1004C00053465A46084313D0114653EA010019D047
:1004D000C8F140025046FFF727FE05460E4650463B
:1004E0005946424600F082F9084305D0012004E055
:1004F00020463946BDE8F08D0020054346EAE07607
:100500002C4337430A986305E40AA0EB0800002255
:10051000FD0A44EA47540A3002D500200146E9E7C3
:10052000010510196941DDE9084500196941BDE877
:10053000F04DA2E72DE9FE4F804681EA0300C00F8F
:100540000C46009021F0004123F00045B8EB02007A
:10055000A94105D24046214690461C460B4602461C
:1005600023F00040104347D0270DC7F30A00C3F320
:100570000A510290401A019040286BDAC3F313002D
:1005800040F4801B0098924620B10023D2EB030A6E
:1005900063EB0B0B01985946C0F14002504600F046
:1005A00025F906460D4650465946019A00F02DF9A8
:1005B00010EB08006141002487EA115284EAE773D6
:1005C0001A4340D0009A62B3019A012A4FEA0752B7
:1005D00015DC001B61EB02014FF0004202EA0752FA
:1005E000CDE90042001C41F5801132462B46FFF751
:1005F00053FF03B0BDE8F08F40462146F9E7001BEA
:1006000061EB0201001C41F5801300185B412018CA
:10061000A2F5001747EB030140EAD570B6196D410A
:1006200011E06D084FEA360645EAC0754FEA0752F9
:10063000001B61EB0201001C41F5801149084FEAE3
:1006400030000019514132462B4603B0BDE8F04F4F
:10065000FFF713BF0098012240000023D0EB0202F5
:1006600063EBE073009821464FEAE074B8EB0000BA
:1006700061EB0401E9E783F000435BE781F00041AF
:1006800058E72DE9FE4F81EA030404F0004421F00D
:10069000004100944FF0000B23F0004350EA0104A6
:1006A0005ED052EA03045BD0C3F30A54C1F30A5587
:1006B0002C44A4F2F3340194A0FB0254C1F31301BF
:1006C00041F48011C3F3130343F4801301FB02448C
:1006D00000FB034E840A970A44EA815447EA835791
:1006E000A4FB076802958D0A05FB07854FEA932C4A
:1006F00004FB0C542705029D4FEA065847EA1637BB
:10070000B5EB08056EEB070C870E920E47EA8117D2
:1007100042EA8312A7FB0201B6EB0B0164EB000473
:100720002B0D43EA0C335E1844EB1C50DA4651465D
:10073000E7FB0201C5F313044FEA0B3343EA1453FA
:100740004FEA0432019C43EA0603A4F10C0402942C
:10075000009CCDE900B4FFF79FFE03B0BDE8F08F29
:1007600000200146F9E7C1F30A52C1F3130140F238
:10077000FF3341F480119A4202DA002001467047AB
:1007800040F233439A42A2F2334202DC5242FFF774
:10079000CBBC00F02BB8000030B5041E71F1000492
:1007A00004DB4FF00044404264EB0101141E73F17E
:1007B000000405DB1C464FF00043524263EB040388
:1007C000994208BF904230BD064C074D06E0E068F4
:1007D00040F0010394E8070098471034AC42F6D388
:1007E000FFF788FC3430000854300008202A04DB6E
:1007F000203A00FA02F1002070479140C2F1200334
:1008000020FA03F3194390407047202A06DBCB17E8
:10081000203A41FA02F043EAE07306E041FA02F3BB
:10082000D040C2F1200291400843194670470000B1
:10083000FFB41E4BAA2208251A70FF225A70F2221A
:100840009A70DD709DF800201A719DF801205A7190
:100850009DF804209A719DF80520DA719DF8082012
:100860001A729DF809205A729DF80C209A72002184
:100870009DF80D20DA720C220C4608462D1D06E06C
:100880001E5C401C3144C9B20C44E4B2C0B2854283
:10089000F6D89954521C05499C5404B04FF6FF7386
:1008A000F0BC0348521C01F027B9000048010020A9
:1008B00004010020FEE770474FF4805000F026B896
:1008C000102000F023B872B6FEE7000070B50446B1
:1008D00000F01CF90546601C02D00448007804446E
:1008E00000F014F9401BA042FAD370BD180000209C
:1008F000054A4FF40051102802D0B0F5805F02D1B4
:10090000104600F0F5B8704700100140044910B5DA
:100910000A68024202D00860FFF7EAFF10BD00003B
:10092000140401402DE9F84FDFF8A491002409F1E7
:10093000040A0AF1040B23464FF00F080BF1040ED2
:10094000BEE00127A7403A40BA4272D1DFF884C125
:100950004D68A5EB0C0665452BD00DDC032D34D07E
:1009600005DC35B3012D19D0022D2FD11BE0112D3F
:1009700016D0122D2AD119E0B6F5881F19D006DC41
:10098000B6F5803F15D0B6F5801F1FD111E0B6F542
:10099000001F0ED0B6F5041F18D10AE0CB6815E091
:1009A000CB681B1D12E0CB6808330FE0CB680C331B
:1009B0000CE08B682BB1012B4FF0080303D047618B
:1009C00004E0042302E0076100E00023FF2A01D8CD
:1009D000064601E000F104064FEA840501D9A5F1BD
:1009E0002005376808FA05FC27EA0C0703FA05F525
:1009F00047EA050737604D68ED0060D5364DAE69B2
:100A000046F00106AE61AD6924F0030605F001056C
:100A10000095324D7719BE68A5072D0F08FA05FC21
:100A200026EA0C06DFF8B8C0604503D14FF0000C91
:100A300017E044E0DFF8ACC0604502D14FF0010C94
:100A40000FE0DFF8A4C0604502D14FF0020C08E0CF
:100A5000DFF898C0604502D14FF0030C01E04FF081
:100A6000040C0CFA05FC4CEA060CC7F808C04D68EB
:100A7000D9F80060ED034D4601D5164300E09643DA
:100A80002E604D68DAF80060AD03554601D5164377
:100A900000E096432E604D68DBF80060ED025D4695
:100AA00001D5164300E096432E604D68DEF80060E5
:100AB000AD02754601D5164300E096432E60641CD6
:100AC0000A6832FA04F57FF43CAFBDE8F88F000005
:100AD000000401400000111000100240000001401D
:100AE00000080140000C01400010014000140140CA
:100AF000C26821EA02030A4043EA024101617047E9
:100B00000AB1016170470904FBE7000001488068F1
:100B100070470000180000200248816802781144E4
:100B20008160704718000020074810B5016841F047
:100B300010010160032000F075F80F2000F006F8A6
:100B400000F024F8002010BD0020024070B50D4DCB
:100B500004464FF47A712878B1FBF0F00A4909682D
:100B6000B1FBF0F000F0EEFA48B9102C07D20022E9
:100B70002146501E00F036F800206C6070BD012048
:100B800070BD000018000020240000200C4808B5AB
:100B9000816941F001018161816901F001010091E8
:100BA000C16941F08051C161C069064900F08050BF
:100BB0000090486820F0E06040F00070486008BD98
:100BC0000010024000000140002809DB00F01F0275
:100BD000012191404009800000F1E020C0F800119F
:100BE00070470000F0B40E4B1B68C3F30223C3F13F
:100BF0000704042C00D904241D1D072D01D2002355
:100C000000E0DB1E012606FA04F56D1E0D409D4036
:100C10009E40761E164045EA0601F0BC01F0DCBCA1
:100C20000CED00E0064A00F0070110684FF6FF03E4
:100C3000184040EA01200349084310607047000053
:100C40000CED00E00000FA052DE9F0470D46040028
:100C500067D0DFF81881D8F8000000F00700A8423C
:100C60000CD2D8F8001021F007012943C8F8001071
:100C7000D8F8000000F00700A84252D120683C4E8E
:100C8000810712D5400703D5706840F4E0607060BA
:100C90002078000703D5706840F460507060706879
:100CA000A16820F0F000084370602078C00727D0CA
:100CB0006068012810D03168022810D08907002907
:100CC0002FDA716821F0030101437160FFF71EFF05
:100CD000074641F288390CE031688903EFE7890162
:100CE000EDE7FFF713FFC11B494502D90320BDE81B
:100CF000F0877068616800F00C00B0EB810FF0D1F4
:100D0000D8F80010404601F00701A9420BD901684C
:100D100021F0070129430160006800F00700A842A4
:100D200001D00120E3E72078400705D57068E1682D
:100D300020F4E060084370602078000706D57068F2
:100D4000216920F4605040EAC100706000F038F87A
:100D50007168084AC1F30311515CC8400649086034
:100D600006480068FFF7F2FE0020C0E700200240BE
:100D7000001002401C300008240000201C0000204D
:100D80000448054900684968044AC1F30221515CDE
:100D9000C840704724000020001002402C3000089A
:100DA0000448054900684968044AC1F3C221515CFE
:100DB000C840704724000020001002402C3000087A
:100DC00012A085B00FC88DE80F0014A0144B006866
:100DD00004905968134801F00C02042A10D0082A24
:100DE0000ED1C1F38342C9031DF802000AD5596828
:100DF00004AAC1F34041515C0A4A5043B0FBF1F0F0
:100E000005B0704708494843FAE7000002030405AB
:100E1000060708090A0B0C0D0E0F10100102000046
:100E20000010024000127A0000093D002DE9F84F41
:100E300004006FD02078BE4DC00747D06868C0F36B
:100E40008100012807D06868C0F38100022809D119
:100E50006868C00306D52868800337D56068002815
:100E6000E7D033E06068B0F5803F0BD010B1B0F54B
:100E7000A02F11D0286820F480302860286820F442
:100E8000802002E0286840F480302860606888B1E3
:100E9000FFF73CFE064609E0286840F48020286001
:100EA000F0E7FFF733FE801B642873D828688003BF
:100EB000F7D50BE0FFF72AFE064604E0FFF726FE13
:100EC000801B6428F1D828688003F7D42078DFF8E5
:100ED000648280074FF0010A4FF0000939D5686835
:100EE00010F00C0F07D06868C0F38100022809D108
:100EF0006868C00306D42868800714D520690128D3
:100F000008D110E02069B0B1C8F800A0FFF7FEFDDD
:100F1000064605E007E1FFF7F9FD801B0228C4D86B
:100F200028688007F7D52868616920F0F80040EA52
:100F3000C10028600DE0C8F80090FFF7E7FD064605
:100F400004E0FFF7E3FD801B022823D82868800710
:100F5000F7D4207800072CD57748A169D9B1C0F81B
:100F600000A0FFF7D3FD064604E0FFF7CFFD801B8E
:100F700002280FD8686A8007F7D570484FF4FA51F5
:100F80000068B0FBF1F0009000BF0098411E009196
:100F9000FAD20EE07CE0C0F80090FFF7B7FD0646FD
:100FA00004E0FFF7B3FD801B022871D8686A800750
:100FB000F7D4207840075BD5E8690027C00008D443
:100FC000E86940F08050E861E869012700F080504E
:100FD00000905B480168C90511D40168834641F45B
:100FE00080710160FFF792FD064604E0FFF78EFD79
:100FF000801B64284CD8DBF80000C005F6D5E068FB
:1010000001280AD008B1052813D0286A20F0010071
:101010002862286A20F0040002E0286A40F00100FB
:101020002862E06841F2883B88B1FFF76FFD064611
:1010300009E0286A40F004002862EEE7FFF766FD49
:10104000811B59455BD8286A8007F7D50BE0FFF76D
:101050005DFD064604E0FFF759FD811B59454ED85A
:10106000286A8007F7D41FB1E86920F08050E86152
:10107000E069A8B36968C1F38101022946D002285A
:10108000484606D0C8F86000FFF740FD044639E046
:1010900035E04746C8F86000FFF738FD064604E033
:1010A000FFF734FD801B022829D828688001F7D477
:1010B000206AB0F5803F05D16868A16820F400304F
:1010C00008436860D4E908010843696821F4741191
:1010D00008436860C7F860A0FFF718FD044605E004
:1010E00023E0FFF713FD001B022808D828688001C1
:1010F000F7D51AE0FFF70AFD001B022802D90320EA
:10110000BDE8F88F28688001F4D40EE00128F7D0FC
:101110006868226A00F48031914204D1616A00F467
:101120007010884201D00120EAE70020E8E70000C3
:10113000001002400000424280044242240000208D
:101140000070004010B5401EB0F1807F01D3012037
:1011500010BD4FF0E02460610F21601701F03CFAF0
:101160000020A06107202061002010BD704770475B
:1011700010B590F83C20012A22D0012280F83C20B2
:10118000CA688C6822F4407222434C6822F4806260
:1011900022430C6822F4006222430C6922F480523C
:1011A00022434C6922F400522243C969002322F4ED
:1011B00080420A4301684A6480F83C30002010BD38
:1011C000022010BD70B590F83C20012A26D00125E0
:1011D00080F83C50022280F83D20026853689468F1
:1011E00023F070060B68334353600D4B02689A423C
:1011F00008D0B2F1804F05D00A4B9A4202D00A4B78
:101200009A4204D1496824F080031943916080F820
:101210003D50002180F83C10084670BD022070BD92
:10122000002C0140000400400008004010B50400FC
:1012300003D094F83D0010B107E0012010BD00205C
:1012400084F83C00204600F01FF8022084F83D009E
:10125000211D206800F0A0FF012084F8460084F8DA
:101260003E0084F83F0084F8400084F8410084F890
:10127000420084F8430084F8440084F8450084F870
:101280003D00002010BD000008B500680B498842F1
:1012900012D10B48816941F40061816180690022AB
:1012A00000F40060009011461920FFF79BFCBDE898
:1012B00008401920FFF788BC08BD0000002C014041
:1012C0000010024090F83D10012901D00120704724
:1012D000022180F83D100168CA6842F00102CA602C
:1012E00000680B49884208D0B0F1804F05D0094909
:1012F000884202D00849884204D1816801F0070180
:10130000062903D0016841F0010101600020704707
:10131000002C0140000400400008004070B5044665
:1013200090F83C00012817D0012584F83C50022099
:1013300084F83D002068826822F0770222F47F4220
:1013400082600868502830D00DDC20284DD005DCA4
:1013500098B310283BD148E0022070BD302844D01B
:10136000402834D139E0602828D0702806D0B0F564
:10137000805F2CD0B0F5005F29D10AE0CB68D1E9BD
:101380000121206800F04BFF2068816841F077015F
:1013900009E0CB68D1E90121206800F040FF206816
:1013A000816841F48041816011E0CA684968206821
:1013B00000F0F0FF5021206807E016E0CA68496895
:1013C000206800F0F8FF6021206800F032FF84F808
:1013D0003D50002084F83C0070BDCA684968206810
:1013E00000F0D8FF40212068EFE722680146104650
:1013F000EBE72DE9F0410D46040003D094F83D00E1
:1014000018B108E00120BDE8F081002084F83C001C
:10141000204600F041F8022084F83D0020688168F1
:1014200044F2070291438160211D206800F0B4FE60
:10143000206881688269066A2B68AF690B4340F2B5
:1014400003318A4342EA0722A968EF6911434FF644
:10145000FC429143EA6841EA07210A4329692F6A5D
:10146000090141EA073111436A686D6926F02206D5
:1014700046EA05152A4383602068816154F8460BCB
:101480000262012004F81F09E0752076E0762077DB
:10149000A0750020B7E7000000B585B000210091DD
:1014A000019102910391016823480122B1F1804F1B
:1014B00023D0224B99421ED1C16941F00401C16180
:1014C000C16901F004010491816941F00801816161
:1014D0008069694600F008000490C02000900292E4
:1014E0001748FFF71FFA002211461E20FFF77AFB6C
:1014F0001E20FFF769FB05B000BDC16941F0010185
:10150000C161C16901F001010491816941F00401E7
:1015100081618069694600F0040004900320009016
:1015200002920848FFF7FEF9002211461C20FFF73F
:1015300059FB1C20DDE700000010024000080040BD
:10154000000C01400008014070B590F83E50044680
:1015500090F83F3090F8422090F84300022621B1E5
:1015600004290BD0012D16D10FE0012D13D1012A32
:1015700011D184F83E6084F8426016E0012B0AD154
:10158000012808D184F83F600DE0012B03D1012A26
:1015900001D1012801D0012070BD84F83E6084F89B
:1015A0003F6084F8426084F8436091B1042904D01C
:1015B00001220021206800F025FE0122042120687C
:1015C00000F020FE2068016841F001010160002068
:1015D00070BD012200212068F2E7704770B5044613
:1015E000006801694FF00005C943890715D4C16837
:1015F000C943890711D4E91E0161012020772068C1
:1016000080698007204602D0FFF7E7FF04E000F082
:10161000BFF8204600F04EF9257720680169C943DC
:10162000490717D4C168C943490713D46FF00401AF
:101630000161022020772068806910F4407F2046F5
:1016400002D0FFF7CAFF04E000F0A2F8204600F045
:1016500031F9257720680169C943090716D4C168A3
:10166000C943090712D46FF00801016104202077F3
:101670002068C0698007204602D0FFF7AEFF04E073
:1016800000F086F8204600F015F9257720680169FA
:10169000C943C90617D4C168C943C90613D46FF03A
:1016A00010010161082020772068C06910F4407F94
:1016B000204602D0FFF791FF04E000F069F82046D1
:1016C00000F0F8F8257720680169C943C90708D1F7
:1016D000C168C943C90704D1891E0161204600F0D1
:1016E0003BF920680169C943090609D4C168C943A7
:1016F000090605D46FF0800101612046FFF736FD31
:1017000020680169C943490609D4C168C94349062B
:1017100005D46FF040010161204600F083F9206894
:101720000169C94389060BD4C168C943890607D436
:101730006FF0200101612046BDE87040FFF717BD42
:1017400070BD000000B585B00021009101910291AB
:10175000039100680B49884212D10B48816941F01E
:10176000040181618069694600F0040004904FF42F
:10177000106000900220019003900448FFF7D2F817
:1017800005B000BD002C01400010024000080140DF
:10179000704770B5044690F83C000D4601280AD009
:1017A000012084F83C0042B1042A18D0082A2AD02B
:1017B0000C2A4DD139E0022070BD206800F042FDB6
:1017C0002068816941F0080181612068816921F008
:1017D00004018161206881692A69114311E0206850
:1017E00000F05CFD2068816941F40061816120683E
:1017F000816921F480618161206881692A6941EAF7
:101800000221816124E0206800F076FD2068C16932
:1018100041F00801C1612068C16921F00401C16182
:101820002068C1692A69114311E0206800F090FD29
:101830002068C16941F40061C1612068C16921F477
:101840008061C1612068C1692A6941EA0221C161E0
:10185000002084F83C0070BD10B5040003D094F85B
:101860003D0010B107E0012010BD002084F83C00CD
:10187000204600F01EF8022084F83D00211D20685B
:1018800000F08AFC012084F8460084F83E0084F8C9
:101890003F0084F8400084F8410084F8420084F856
:1018A000430084F8440084F8450084F83D0000209B
:1018B00010BD70477047000010B5044649B10429B7
:1018C0000AD008290BD094F8410001280AD0012041
:1018D00010BD94F83E00F8E794F83F00F5E794F85F
:1018E0004000F2E7022041B3042929D008292AD078
:1018F00084F841000122206800F084FC134920682C
:10190000884203D1426C42F400424264206888421B
:1019100008D0B0F1804F05D00D49884202D00D4962
:10192000884204D1816801F00701062903D00168CB
:1019300041F001010160002010BD84F83E00D9E7AC
:1019400084F83F00D6E784F84000D3E7002C01403C
:1019500000040040000800402DE9F05F2A49884259
:101960004FD12A4C0521A088401C80B2B0FBF1F277
:10197000A08001FB1200002843D125480168486A75
:10198000244A404200B2208013685B6A00251EB2E0
:1019900066804D6211684D62FEF7A0FC1E4F39460D
:1019A000FEF7E4FBFEF7BCFCDFF870904FF0333835
:1019B00042464B46FEF70CFCDFF864A0002253467B
:1019C000FEF706FC6FF0010B5A46FEF770FCFEF7BF
:1019D000BAFCA0603046FEF781FC3946FEF7C6FB34
:1019E000FEF79EFC42464B46FEF7F2FB00225346B2
:1019F000FEF7EEFB5A46FEF75AFCFEF7A4FCE06049
:101A0000A580BDE8F09F00002C0000200800002009
:101A1000BC000020740000200000C8423333234083
:101A200000002640704770B5040004D094F83D00D3
:101A3000002510B106E0012070BD84F83C5020461E
:101A400000F022F8242084F83D002068C16821F4C9
:101A50000051C160204600F0C1FC2068016921F4FA
:101A6000904101612068416921F02A0141612068AB
:101A7000C16841F40051C1602564202084F83D0014
:101A800084F83E00002070BD30B585B0002400947D
:101A900001940294039400681449884224D11448A4
:101AA000816941F480418161816901F4804104913F
:101AB000816941F00401816180690E4D00F00400EC
:101AC00004904FF4007000900220019003200390D6
:101AD00069462846FEF726FF2815CDE90004694629
:101AE00028460294FEF71EFF05B030BD00380140C5
:101AF00000100240000801402DE9F843044690F828
:101B00003D001F4615460E4620284BD1C6B1BDB13B
:101B100094F83C00012845D0012084F83C004FF0A7
:101B20000008C4F84080212084F83D00FEF7EEFF55
:101B3000A5848146E584A068B0F5805F03D004E009
:101B40000120BDE8F883206920B13546002684F8DD
:101B50003C800EE00025FAE78021204600F09AFC48
:101B6000A0B9ADB115F8010B21684860E08C401EAA
:101B7000E084E08C4B464FF0000200970028EBD148
:101B80004FF04001204600F085FC30B10320D8E73B
:101B900036F8020BC0F30800E6E7202084F83D0089
:101BA0000020CEE70220CCE7FEE700002DE9F0415F
:101BB00001220C4DD40321462846FEF7A1FF012245
:101BC000094F160331463846FEF79AFF0022314688
:101BD0003846FEF795FF21462846BDE8F041002231
:101BE000FEF78EBF00080140000C014070B50122D5
:101BF000D1030948FEF784FF084D4FF480540022BA
:101C000021462846FEF77CFF21462846BDE8704065
:101C10000122FEF775BF000000080140000C0140E2
:101C200070B50122064DD40321462846FEF768FF11
:101C300021462846BDE870400022FEF761BF000043
:101C4000000801402DE9F04F85B00024454800947C
:101C5000019402940394816941F0100181618169CA
:101C600001F010010491816941F0200181618169D5
:101C700001F020010491816941F0040181618169D1
:101C800001F004010491816941F0080181618069DA
:101C9000DFF8D4A000F008004FF4005504900022B3
:101CA00029465046FEF72CFF0122170339462F48DC
:101CB000FEF726FF42F20808002241462B48FEF7B5
:101CC0001FFFDFF8ACB04FF40049012249465846E7
:101CD000FEF716FF0095022601250396CDE9015473
:101CE00069465046FEF71EFECDE90075CDE9025665
:101CF00069461E48FEF716FECDF800800396CDE932
:101D0000015469461948FEF70DFE1A480097CDE9BF
:101D1000010569465846FEF705FECDE90095CDE977
:101D2000025669465846FEF7FDFD10200090124805
:101D3000CDE9010669460D48FEF7F4FD0022114683
:101D40000A20FEF74FFF0A20FEF73EFF0022114651
:101D50002820FEF747FF2820FEF736FF05B0BDE834
:101D6000F08F00000010024000100140000C014004
:101D700000080140000021100000111010B596B0BD
:101D800000240F9410941194129413941C2168460B
:101D90001494FEF7E0F9202107A8FEF7DCF92D489E
:101DA0002B49016040F29F51C0E901146321C0E951
:101DB00003148021C0E90541FFF738FA08B1FEF7A6
:101DC00082FD4FF480500F900FA92248FFF7A6FA2A
:101DD00008B1FEF778FD1F48FFF73EFD08B1FEF79A
:101DE00072FD139413A91B481494FFF7EBF908B183
:101DF000FEF769FD602000903220CDE901040394D4
:101E0000049405940022694612480694FFF7C1FC29
:101E100008B1FEF758FD0C2269460E48FFF7B9FCE1
:101E200008B1FEF750FD0794089409944FF4005050
:101E30000A94CDE90B4007A906480E94FFF798F9DC
:101E400008B1FEF740FD0348FFF77CFC16B010BD5B
:101E5000002C01402C00002010B58CB024216846D5
:101E6000FEF779F90024164809944FF080410A944E
:101E7000C0E900144FF6FF71C0E9024104618461BA
:101E80000320CDE900040120CDE9020406210491DC
:101E9000CDE90540CDE9074169460948FFF7A9FAB0
:101EA00008B1FEF710FD099409A905480A94FFF747
:101EB00089F9002801D0FEF706FD0CB010BD000026
:101EC0007400002010B58CB024216846FEF743F959
:101ED00000241648099414490A94C0E900144FF6E6
:101EE000FF71C0E90241046184610320CDE900046F
:101EF0000120CDE9020406210491CDE90540CDE998
:101F0000074169460948FFF774FA08B1FEF7DBFCA0
:101F1000099409A905480A94FFF754F9002801D04B
:101F2000FEF7D1FC0CB010BD00080040BC00002042
:101F30000C4810B50A4901604FF4E13141600021BD
:101F400081600C22C160C0E904128161C161FFF7A8
:101F50006AFD002803D0BDE81040FEF7B4BC10BDF8
:101F60000038014004010020FEE7000070B51A4E61
:101F70004542C1F1000401D5012200E00022082100
:101F80003046FEF7BDFD4FF40051002C01DA01226E
:101F900000E000223046FEF7B3FD10486FF062010A
:101FA000002D05DA8D4200DA0D466435026803E043
:101FB000632D00DD632502685563002C05DA8C4231
:101FC00000DA0C460068643403E0632C00DD63240F
:101FD0000068046470BD0000000C01402C0000206B
:101FE000FEE770B50025002105F1B00000F089F88A
:101FF0000021084600F085F80021102000F081F84B
:1020000000240121002000F07CF8641CE4B2802C44
:10201000F7D36D1CEDB2082DE5D370BD10B54FF4AC
:102020004870FEF753FC0021AE2000F06AF8002152
:10203000084600F066F80021102000F062F8002148
:10204000402000F05EF80021B02000F05AF8002196
:10205000812000F056F80021FF2000F052F8002106
:10206000A12000F04EF80021A62000F04AF800213F
:10207000A82000F046F800213F2000F042F800219F
:10208000C82000F03EF80021D32000F03AF80021EB
:10209000084600F036F80021D52000F032F8002183
:1020A000802000F02EF80021D82000F02AF800212E
:1020B000052000F026F80021D92000F022F80021A8
:1020C000F12000F01EF80021DA2000F01AF80021BB
:1020D000122000F016F80021DB2000F012F8002199
:1020E000302000F00EF800218D2000F00AF80021C9
:1020F000142000F006F80021BDE81040AF20AFF337
:102100000080C0B209B100F040BA00F027BA7047B1
:102110007047FEF701BD30B58FB028216846FEF745
:102120001AF814210AA8FEF716F801200104002469
:102130008DE8130004904FF4E010CDE9081002255B
:1021400007956846FEF772FE08B172B6FEE70F20EB
:10215000CDE90A054FF48060CDE90C4002210AA8C0
:102160000E94FEF771FD002801D072B6FEE70FB0A5
:1021700030BD70470148FFF731BA00002C00002045
:102180000148FFF72BBA0000740000200148FFF758
:1021900025BA0000BC000020F0B50268164C174DAF
:1021A000174E4FF08047A04205D0B84203D0A84256
:1021B00001D0B04203D122F070034A681A43A04212
:1021C00005D0B84203D0A84201D0B04203D122F4D6
:1021D0004073CA681A434B6922F080021A430260B6
:1021E0008A68C2620A688262A04201D109690163F9
:1021F00001214161F0BD0000002C014000040040BD
:102200000008004010B501F01F010123046A8B4053
:102210009C430462036A8A401343036210BD10B5F5
:10222000846842EA032224F47F440A432243826002
:1022300010BD826822F070020A4342F007018160FB
:102240007047000030B5026A22F001020262036AA0
:102250004268846924F073050C682C4323F002055E
:102260008B682B430C4DA84206D123F00805CB68A0
:1022700043EA050323F0040307D14D6922F44072B9
:1022800045EA02058A6942EA0502426084614968BA
:102290004163036230BD0000002C014030B5026A8A
:1022A00022F010020262026A436884690D6824F415
:1022B000E64444EA05248D6822F0200242EA051231
:1022C0000C4DA84206D1CD6822F0800242EA0512E8
:1022D00022F0400207D14D6923F4406343EA8503AD
:1022E0008D6943EA850343608461496881630262C2
:1022F00030BD0000002C014030B5026A22F480722B
:102300000262036A4268C46923F4007324F073050F
:102310000C682C438D6843EA05230C4DA84206D176
:10232000CD6823F4006343EA052323F4806307D1D7
:102330004D6922F4405242EA05128D6942EA0512C3
:102340004260C4614968C163036230BD002C014032
:1023500030B5026A22F480520262036A4268C4699C
:102360000D6824F4E64444EA05248D6823F4005300
:1023700043EA0533064DA84204D14D6922F4804258
:1023800042EA85124260C46149680164036230BD5B
:10239000002C014010B5046A036A23F001030362B4
:1023A000836923F0F00343EA021324F00A020A438C
:1023B0008361026210BD10B5036A23F0100303624B
:1023C0008469036A24F4704444EA023223F0A003CF
:1023D00043EA01118261016210BD000070B504463C
:1023E00000680169E26821F4405111430161A1686C
:1023F00020690143606901432068C26841F20C63AF
:102400009A430A43C26020684169A26921F440717D
:10241000114341611E492068884202D1FEF7C0FC89
:1024200001E0FEF7ADFC00EBC00101EB00116068BC
:1024300064228000B1FBF0F3B3FBF2F36FF01806F7
:102440007343B1FBF0F5B1FBF0F605EB83053223E6
:1024500003EB0515B5FBF2F5B6FBF2F605F0F0055A
:1024600005EB0615B1FBF0F6B1FBF0F0B0FBF2F0B6
:102470006FF01801484306EB800003EB0010B0FB3F
:10248000F2F0216800F00F002844886070BD000061
:10249000003801402DE9F0411E46174688460446A3
:1024A000069D1CE0681C1AD025B1FEF72FFB801B8F
:1024B000A84214D92068C16821F4D071C160206895
:1024C000416921F001014161202084F83D0084F838
:1024D0003E00002084F83C000320BDE8F081206825
:1024E000016838EA010004D00020B842DAD00020A8
:1024F000F3E70120F9E7FEE72DE9F047154F044621
:102500004FF40046002231463846FEF7F9FADFF86C
:10251000489000254FF4805804F08000802816D0A1
:10252000002241464846FEF7EBFA6006040E0122FF
:1025300031463846FEF7E4FA002231463846FEF7C7
:10254000DFFA6D1CEDB2082DE6D3BDE8F08701225D
:10255000E7E7000000080140000C014010B5044608
:10256000FFF724FB7820FFF7C7FFFFF759FB002098
:10257000FFF7C2FFFFF754FB2046FFF7BDFFFFF751
:102580004FFBBDE81040FFF731BB10B50446FFF725
:102590000DFB7820FFF7B0FFFFF742FB4020FFF76D
:1025A000ABFFFFF73DFB2046FFF7A6FFFFF738FB29
:1025B000BDE81040FFF71ABB0FB4054B10B503A9D7
:1025C000044A029800F0EAF810BC5DF814FB000021
:1025D000A52E0008280000200907090E002804DBAA
:1025E00000F1E02080F80014704700F00F0000F1C7
:1025F000E02080F8141D704702E008C8121F08C1CF
:10260000002AFAD170477047002001E001C1121F73
:10261000002AFBD1704700002DE9FF5F82B0002146
:10262000DDE90430020DDDF840B0034318D044F674
:102630001050A2F2FF3242431514119801281FD006
:10264000A5EB0B00401C5FEA000A4FF000064E4F5E
:10265000DFF83891B046504615D5CAF1000413E0B2
:10266000119801244AA3012801D16FEA0B010298B5
:10267000119AC0E90031C0E9024206B0BDE8F09FFE
:10268000CBF10000DFE704460021404A491842EB45
:102690000450CDE9001012E0E00707D032463B4677
:1026A00040464946FDF7EDFF8046894632463B46A7
:1026B00010461946FDF7E5FF06460F466410002C4C
:1026C000EAD1DDE90401DDE90023BAF1000F06DA01
:1026D000FDF7D7FF42464B46FDF7D3FF05E0FDF778
:1026E00077FD42464B46FDF773FD04460E46002239
:1026F000284BFEF751F803D84FF0FF30014607E0B2
:102700000022254B20463146FDF714FFFEF72BF83B
:10271000102409E0002C0ADB0A220023FDF745FE05
:10272000039B30321A55641E50EA0102F2D1641C38
:10273000039AC4F111031444119A012A03D001220F
:1027400008430DD10AE0084304D000204FF0110BDC
:10275000119072E7A3EB0B056D1E0DE05B4504DDE8
:102760004FF0000205F1010504E003DA4FF000022A
:10277000A5F10105002AECD002981199C0E90231B7
:10278000C0E9004579E70000000014400000F03F78
:10279000300000000000F0430000E03F2DE9FF4F53
:1027A00095B09A46884606460025EEE1252877D161
:1027B00000242746F94A0121039400E0044316F857
:1027C000013F203B01FA03F01042F7D130782A286C
:1027D00011D06FF02F033078A0F13002092A16D8FB
:1027E000039A44F0020402EB820203EB420210441B
:1027F000761C0390EFE758F8042B0392002A03DAC3
:10280000504244F40054039044F00204761C3078A3
:102810002E2816D116F8010F44F004042A280DD0F2
:102820006FF02F023078A0F13003092B09D807EBA5
:10283000870302EB4303C718761CF3E758F8047BC1
:10284000761C30786C280FD006DC4C2817D068280E
:102850000DD06A2814D104E0742810D07A280FD142
:102860000DE044F400140AE044F4801401E044F460
:1028700040147278824202D104F58014761C761CD2
:10288000307866280BD013DC582877D009DC002874
:1028900075D04528F6D04628F4D047281AD193E1C0
:1028A00018E0632835D0642879D0652812D18BE1EF
:1028B000702873D008DC6728F1D069286FD06E28A3
:1028C0000DD06F2806D1ACE073282CD0752874D0B9
:1028D000782853D05246179990476D1C54E1C4F3A1
:1028E0000250022809D003280DD0D8F8001004287F
:1028F0000DD00D6008F1040846E1D8F80010EA1781
:10290000C1E90052F6E7D8F800100D80F2E70D702B
:10291000F0E718F8041B8DF8001000208DF8010076
:10292000EB46012003E058F804BB4FF0FF3061078D
:102930004FF0000102D40DE009F101018946B942CE
:102940000FDA8145F8DB1BF809100029F4D108E003
:1029500009F1010189468142FADB1BF809100029BF
:10296000F6D103985346A0EB090721463846179A3B
:1029700000F080FA284400EB090507E044E008E194
:102980000DE01BF8010B524617999047B9F1010968
:10299000F7D2534621463846179AF2E039E00A2129
:1029A000C4F302524FF0000B0091022A06D058F8EF
:1029B000040BC117032A09D00AE023E008F107003D
:1029C00020F00702F2E80201904605E000B2C117CC
:1029D000042A01D140B2C117002906DA0A460021B3
:1029E000404261EB02012D2202E0220504D52B2298
:1029F0008DF80420012203E0E20701D02022F7E74E
:102A0000914657E00A2100E010214FF0000B0091A1
:102A10000BE010214FF0000B44F004040827009154
:102A200003E008204FF0000B0090C4F30252022A8A
:102A300005D058F8040B0021032A08D008E008F15B
:102A4000070020F00702F2E80201904603E080B29E
:102A5000042A00D1C0B24FF0000922072AD53278EB
:102A6000702A07D0DDF800C08CF0100C5CEA0B0C6B
:102A700005D00EE040228DF80420012208E050EA43
:102A8000010306D030238DF804308DF80520022292
:102A90009146009B83F0080353EA0B030AD150EAE6
:102AA000010201D1620705D530228DF804204FF0D4
:102AB00001097F1E3278582A04D039A20C920CAA40
:102AC00002920BE03BA2F9E75B46009AFDF76DFC32
:102AD0000C9B9B5C029A521E0292137050EA0102F8
:102AE000F2D1029804A9081A00F1200B600702D560
:102AF00024F4803400E001275F4502DDA7EB0B00E2
:102B000000E0002000EB0B01009003984944401ABC
:102B10000390E00306D453462146179A039800F029
:102B2000A9F90544002706E001A85246C05D17999F
:102B300090476D1C7F1C4F45F6DBE0030CD55346D8
:102B40002146179A039800F095F9054404E03020D7
:102B50005246179990476D1C0099481E0090002915
:102B6000F5DC08E00298029952460078491C02916F
:102B7000179990476D1CBBF10001ABF1010BF1DC23
:102B80005BE100F065F90544761C307800287FF49D
:102B90000DAE19B02846BDE8F08F000009280100ED
:102BA00030313233343536373839616263646566C3
:102BB0000000000030313233343536373839414285
:102BC0004344454600000000600700D4062708F192
:102BD000070020F00700F0E80223804603F0004CD5
:102BE0005FEA0C0001D097A009E0200501D596A06E
:102BF00005E0E00701D095A001E0AFF24C00139092
:102C0000307823F0004365280CD006DC452809D035
:102C100046281DD047287FD13BE0662818D067287A
:102C20007AD136E00021112F01DB112000E0781C61
:102C3000CDE9000104A90CA8FFF7EEFCDDE90D01C8
:102C40000C9A4FF0000B07F10109109200914EE031
:102C50004FF000400097CDE9011004A90CA8FFF740
:102C6000DBFCDDE90D020C9B0F994FF0000B914648
:102C70001093009211B9791C00EB0109B7EB090020
:102C800003D4C0F1FF3B07F10109A9EB0700019054
:102C900042E0012F00DA01270021112F01DD112070
:102CA00000E03846CDE9000104A90CA8FFF7B4FC08
:102CB000DDE90D010C9A00914FF0000BB94610921E
:102CC00021070FD4009A4A4503DA914601E0A9F1A1
:102CD0000109B9F1010F05DD109AA9F10101515C5B
:102CE0003029F4D0B84202DA10F1040F03DA0121DE
:102CF000CDE9011010E0002803DC8344A9EB0001BA
:102D000002E0411C494500DD8946A0EB0B00401C58
:102D100001904FF000400290200705D401984845EB
:102D200002DB4FF0FF30019000208DF84B0002983D
:102D30000DF14B07B0F1004F25D002200C902B2055
:102D40000D90029800280CDA404202902D200D9040
:102D500007E00A210298FDF712FB3031029007F8D4
:102D6000011D0C99481E0C900029F2DC02980028E5
:102D7000EFD1791E0D980870307800F0200040F0F7
:102D8000450007F8020D11A8C01BC01D0290139842
:102D9000007800B1012000EB0901019801EBE0711E
:102DA000029801440398401A401E0390E00306D4A1
:102DB00053462146179A039800F05CF8054413988F
:102DC000007818B15246179990476D1CE00323D53F
:102DD00053462146179A039800F04CF805441BE02F
:102DE000BBF1000F07DB0098584504DD10981799D8
:102DF00010F80B0001E017993020524690470198D7
:102E00000BF1010B401E05F10105019004D12E20AC
:102E10005246179990476D1CB9F10001A9F10109BB
:102E2000DEDC05E017F8010B5246179990476D1C40
:102E30000299481E02900029F4DC53462146179A55
:102E400003989EE62D0000002B00000020000000EB
:102E50002DE9F041044600251E461746880404D497
:102E600005E039462020B0476D1C641EF9D5284680
:102E7000BDE8F0812DE9F041044600251E4690464C
:102E8000C80301D5302700E02027880404D505E0D9
:102E900041463846B0476D1C641EF9D52846BDE84A
:102EA000F081000013B54FF6FF7301226946024816
:102EB000FEF722FE00981CBD0401002008B5FDF7B6
:102EC00033FEFFF728F9FEF7BDFEFFF731F8FEF7F6
:102ED00055FFFEF7C1FFFEF7F5FFFFF79FF8FFF77D
:102EE00080F800213448FEF7E7FC0C213248FEF759
:102EF000E3FC3C213148FEF727FB3C213048FEF73C
:102F000023FB2E48FEF7DEF92D48FEF7DBF92A48B1
:102F1000FEF7D8F9DFF8AC90DFF8ACA02B4D2C4CC5
:102F2000DFF8B0802C4F4FF4967B2868484502DAD2
:102F30002268521C2260504502DD2068401E20603D
:102F4000D8F800004646484502DA6168491C6160CD
:102F5000504502DD6068401E6060D4E90001FFF763
:102F600005F82868FDF7DCF92268009202460B4656
:102F70001AA0FFF721FB3068FDF7D2F962680092D2
:102F800002460B461DA0FFF717FB0A20FDF79EFC2B
:102F900039463068FDF7EAF8FDF7A9F906B2394677
:102FA0002868FDF7E3F8FDF7A2F900B259465B4641
:102FB0003246FDF73DFCB8E72C00002074000020ED
:102FC000BC0000209A9939406666464010000020F7
:102FD00000000020140000200000C8424D6F746FF4
:102FE000723153706565643A252E3266204D6F74D8
:102FF0006F723150776D3A25640D0A004D6F746F12
:10300000723253706565643A252E3266204D6F74B6
:103010006F723250776D3A25640D0A00000000008F
:103020000000000001020304060708090000000078
:103030000102030454300008000000202C000000AE
:10304000F8250008803000082C00002084050000CE
:10305000082600080000000000000000000000003A
:10306000000000000000000000000000010000005F
:1030700010000000000000000024F4000000000028
:04000005080000ED02
:00000001FF
