:020000040800F2
:100000006013002005010008953100080D2D00083F
:100010001D310008BD0F00088139000800000000F4
:100020000000000000000000000000004134000853
:10003000BF0F0008000000003F34000843340008F0
:100040001F0100081F0100081F0100081F01000810
:100050001F0100081F0100081F0100081F01000800
:100060001F0100081F010008C90F00081F01000838
:100070001F0100081F0100081F0100081F010008E0
:100080001F0100081F0100081F0100081F010008D0
:100090001F0100081F0100081F0100081F010008C0
:1000A0001F010008C53400081F0100081F010008D7
:1000B000D13400081F010008DD3400081F010008CA
:1000C0001F0100081F0100081F0100081F01000890
:1000D0001F0100083D3900081F0100081F0100082A
:1000E000C10F00081F0100081F010008DFF810D031
:1000F00000F090FE0048004725470008AFF300805D
:10010000601300200648804706480047FEE7FEE7E8
:10011000FEE7FEE7FEE7FEE7FEE7FEE7FEE7FEE7B7
:10012000C1340008ED000008202A04DB203A21FA3F
:1001300002F00021704721FA02F3D040C2F1200200
:100140009140084319467047A0F14101192900D890
:100150002030704740EA01039B0703D009E008C93B
:10016000121F08C0042AFAD203E011F8013B00F87C
:10017000013B521EF9D27047D2B201E000F8012BC8
:10018000491EFBD270470022F6E710B513460A4617
:1001900004461946FFF7F0FF204610BD421C10F838
:1001A000011B0029FBD1801A704710B5002200E026
:1001B000521C835C8C5CA34201D1002BF8D1D8B2D5
:1001C000E1B2401A10BD30B505460020034600E0FC
:1001D0005B1C934205D2EC5CC85C201A01D1002C58
:1001E000F6D130BD2DE9FF4F087883B09946FF283E
:1001F00005D0491C2D2804D00024002008E0002050
:100200000BE00124F9E700EB800003EB4000491C00
:100210000B78FF2BF7D104B14042002302931478EE
:1002200019461D462D2C01D02B2C04D1521C2D2CEF
:1002300013D000240294AA461478FF2C0FD00A256C
:10024000A3FB057801FB05814FF0000C03FB0C11AB
:10025000521CE3194AEB0101EEE70124EAE781446D
:1002600053EA010002D019F5C87F06DA039800218D
:10027000C0E9001107B0BDE8F08F0025AE4E2F4653
:10028000DFF8B882184600F0A1FDCDE90001B9F110
:10029000000002DAC9F1000400E004460023A74A86
:1002A0001AEB030B42EB045A12E0E00707D02A4690
:1002B00033463846414600F082FA074688462A46C9
:1002C00033461046194600F07AFA05460E46641089
:1002D000002CEAD1DDE90001B9F1000F5A4653467E
:1002E00006DA00F0DEFA3A46434600F0DAFA05E0B4
:1002F00000F065FA3A46434600F061FA029A0AB104
:1003000081F00041039AC2E90001B3E72DE9FF4FF4
:100310001F468DB0D7E901464FF0FF382E204546E5
:100320004FF000090B90B9696D1C0E988847396A27
:10033000824688470028F6D1BAF1FF3F0AD024F45C
:10034000D064002E11DDBAF12B0F08D0BAF12D0FB9
:100350000BD102E0404611B08DE744F48064B969E6
:100360006D1C0E9888478246761E6946600501D549
:100370002D2000E02B208DF8000001F1010B0DF184
:10038000200809E0B9696D1C0E98884782460F98CD
:1003900044F40074761E0560002E02DDBAF1300FC1
:1003A000F0D00B998A453ED144F0800406E00F99C5
:1003B000681CA9F1010944F400740860B9696D1C56
:1003C000761E0E98884782463028F0D02BE00B9995
:1003D0008A4505D1200603D444F08004761E18E037
:1003E000504603F0A3FC08B30DF11301761E44F44C
:1003F00000748B4508D2AAF130000BF8010B2006DF
:1004000007D5A9F1010003E0200602D409F101009B
:100410008146A00502D50F99681C0860B9696D1C5A
:100420000E9888478246002ED1DC53E0002E51DD25
:10043000BAF1650F02D0BAF1450F4BD1A00549D5ED
:10044000B9696D1C24F44074761E0E988847824664
:10045000002E0CDD2B2804D0BAF12D0F07D144F467
:100460008074B9696D1C0E9888478246761EE00537
:1004700001D52D2100E02B2108F8011BCDF82C809F
:1004800021E00DF12901761E44F4007488450CD258
:10049000AAF1300010F0FF0088F8000002D10B999B
:1004A000884509D908F1010806E0E00501D524488E
:1004B00001E042F20F708146B9696D1C0E988847C1
:1004C00082460F980560002E04DD504603F02EFC96
:1004D0000028D6D1F9690E988847FF208BF80000D4
:1004E00088F800000020069007904B466A4608A94D
:1004F00006A8FFF777FEA00502D46FF001002AE7F7
:1005000014F0240F0AD0E00714D1DDE90612386890
:10051000031D3B600068C0E900120BE0DDE9060145
:1005200000F0CEFA0146E00704D13868021D3A60B7
:100530000068016028460EE7000014400000F03F0C
:10054000F1D8FFFFF0B480EA0102D40F4200B2EB11
:10055000410F02D20246084611464A0042D0C30D5E
:10056000DDB2C1F3C752AD1A202D35DAC1F3160141
:1005700041F4000204B15242C5F1200602FA06F12C
:100580002A411044B3EBD05F23D0C4B1012DA0EBBE
:10059000C35009DCF0BC4FF0004202EAC352DBB2A8
:1005A00000F5000000F087BB400000F1807000EB18
:1005B000C350A0F1807040EAD170490009E04908B9
:1005C00041EAC071A0EBC35000F50000400800EB09
:1005D000C350F0BC00F066BB6142012202EB410156
:1005E000001BF6E7F0BC704781F00041AAE780F0FD
:1005F0000040A7E780EA010210B502F00043400086
:1006000022D04A001FD0010E01EB1261C0F3560048
:10061000C2F3560240F4000042F40002A0FB0220A4
:1006200000047F39140400D0401C50EA124001D469
:100630004000491EC2B20C0604EBD010401C40081A
:10064000802A02D003E0002010BD20F00100002924
:1006500000DA0020184310BD420005D0C0F3C75295
:100660005242914201DC0020704700EBC1507047BC
:100670002DE9FE4F804681EA0300C00F0C46009032
:1006800021F0004123F00045B8EB0200A94105D25A
:100690004046214690461C460B46024623F0004049
:1006A000104347D0270DC7F30A00C3F30A51029045
:1006B000401A019040286BDAC3F3130040F4801B0A
:1006C0000098924620B10023D2EB030A63EB0B0B98
:1006D00001985946C0F14002504600F054FA0646CF
:1006E0000D4650465946019A00F05CFA10EB08009E
:1006F0006141002487EA115284EAE7731A4340D02B
:10070000009A62B3019A012A4FEA075215DC001BD6
:1007100061EB02014FF0004202EA0752CDE90042CC
:10072000001C41F5801132462B4600F001FB03B05E
:10073000BDE8F08F40462146F9E7001B61EB02015E
:10074000001C41F5801300185B412018A2F500172A
:1007500047EB030140EAD570B6196D4111E06D0811
:100760004FEA360645EAC0754FEA0752001B61EBB7
:100770000201001C41F5801149084FEA30000019C0
:10078000514132462B4603B0BDE8F04F00F0C1BAEC
:100790000098012240000023D0EB020263EBE073DB
:1007A000009821464FEAE074B8EB000061EB0401C9
:1007B000E9E783F000435BE781F0004158E72DE96A
:1007C000FE4F81EA030404F0004421F0004100944C
:1007D0004FF0000B23F0004350EA01045ED052EAD0
:1007E00003045BD0C3F30A54C1F30A552C44A4F2AA
:1007F000F3340194A0FB0254C1F3130141F48011BE
:10080000C3F3130343F4801301FB024400FB034EC4
:10081000840A970A44EA815447EA8357A4FB07688D
:1008200002958D0A05FB07854FEA932C04FB0C54B7
:100830002705029D4FEA065847EA1637B5EB08052B
:100840006EEB070C870E920E47EA811742EA83127D
:10085000A7FB0201B6EB0B0164EB00042B0D43EA8E
:100860000C335E1844EB1C50DA465146E7FB02019C
:10087000C5F313044FEA0B3343EA14534FEA04322F
:10088000019C43EA0603A4F10C040294009CCDE908
:1008900000B400F04DFA03B0BDE8F08F002001462F
:1008A000F9E72DE9F04D81EA030404F0004B21F053
:1008B000004514464FF0000A23F0004150EA0502BB
:1008C00020D054EA01021DD0C5F30A570246C5F3F1
:1008D0001303C1F31300C1F30A5640F4801543F427
:1008E0008013A7EB0608101BD64608F2FD3873EB01
:1008F000050002D308F1010801E092185B41B8F14C
:10090000000F03DA00200146BDE8F08D00204FF40F
:100910008011064684460EE0171B73EB050705D3CE
:10092000121B63EB050306434CEA010C49084FEA2E
:10093000300092185B4150EA0107EDD152EA030002
:1009400012D082EA040083EA0501084305D0101B97
:10095000AB4106D20122002306E000224FF0004303
:1009600002E06FF0010253101AEB06004CEB085145
:1009700010EB0A0041EB0B01BDE8F04D00F0C9B9E6
:1009800070B521F0004303430CD0C1F30A55002495
:10099000D5EB040564EB0403D617AD1AB34102DBB3
:1009A0000020014670BD201841EB025170BDC10FFF
:1009B00080EAE0700844CA079623002100F07BB962
:1009C00096230022114600F076B900F0004220F094
:1009D0000040C10DC0F3160040F400007F2901DA89
:1009E00000207047962903DCC1F19601C84001E060
:1009F00096398840002AF4D04042704770B5C1F360
:100A00000A5201F000450024C1F3130140F2FF3304
:100A100041F480119A4201DA002070BD40F2334364
:100A20009A42A2F2334203DC5242FFF77DFB00E020
:100A300090402C43F1D0404270BD00F0004230F0B5
:100A400000400AD0C10D01F56071C0F3160042EA02
:100A50000151C2084007114370470020014670470A
:100A600030B5041E71F1000404DB4FF00044404235
:100A700064EB0101141E73F1000405DB1C464FF00A
:100A80000043524263EB04038B4208BF824230BDF5
:100A900030B5041E71F1000404DB4FF00044404205
:100AA00064EB0101141E73F1000405DB1C464FF0DA
:100AB0000043524263EB0403994208BF904230BDA9
:100AC00001F0004330B421F0004150EA010206D0A9
:100AD0000A0DA2F56072C1F31301002A02DC30BCDA
:100AE00000207047440F44EAC104C100E01830BC44
:100AF00000EBC25000F0D6B830B50B4601460020DE
:100B00002022012409E021FA02F59D4205D303FACF
:100B100002F5491B04FA02F52844151EA2F1010250
:100B2000F1DC30BD2DE9F05F0546002092469B4682
:100B300088460646814640241BE0284641464746F3
:100B40002246FFF7F1FA53465A46C01A914110D394
:100B500011461846224600F016F82D1A67EB0108D8
:100B60004F4622460120002100F00DF817EB000946
:100B70004E41201EA4F10104DFDC484631462A46DE
:100B80004346BDE8F09F202A04DB203A00FA02F138
:100B9000002070479140C2F1200320FA03F319436B
:100BA00090407047202A06DBCB17203A41FA02F02A
:100BB00043EAE07306E041FA02F3D040C2F12002BA
:100BC0009140084319467047426842B1016811F8E4
:100BD000013B23B1521EC0E90012184670470121A3
:100BE000C160881E704742685AB1C368016843B942
:100BF00083688B4205D0491E521CC0E900120020B8
:100C000070474FF0FF3070470FB4002300B589B034
:100C10000CA900910B996FF00042CB601E4B06931C
:100C20001E4B07930423CDE901321D4A0892024668
:100C30006B460020FFF76AFB09B05DF814FB70B546
:100C400086B006464FF0FF300091CDE9010100204B
:100C500015460C4604903246694604A8FFF7D4FFB7
:100C600002460498211825B108B1084600E0204644
:100C70002860049800280DD0002A02DD00988842E0
:100C800008D0081B0094CDE901043246694604A847
:100C9000FFF7BAFF06B070BDC90B0008E70B0008EC
:100CA000390E00080029A8BF7047401C490008BF42
:100CB00020F00100704710B4B0FA80FC00FA0CF08C
:100CC00050EA010404BF10BC704749B1CCF12004C4
:100CD00021FA04F411FA0CF118BF01212143084351
:100CE000A3EB0C01CB1D4FEA00614FEA102042BF7D
:100CF000002010BC704700EBC35010440029A4BF73
:100D000010BC7047401C490008BF20F0010010BC17
:100D1000704710B5141E73F1000408DA401C41F14D
:100D2000000192185B411A4301D120F0010010BD6F
:100D30002DE9F04D92469B4611B1B1FA81F202E0E5
:100D4000B0FA80F220329046FFF71DFF04460F46AE
:100D500040EA0A0041EA0B0153465A46084313D0C1
:100D6000114653EA010019D0C8F140025046FFF77E
:100D7000DBF905460E46504659464246FFF703FF4B
:100D8000084305D0012004E020463946BDE8F08D37
:100D90000020054346EAE0762C4337430A98630572
:100DA000E40AA0EB08000022FD0A44EA47540A3096
:100DB00002D500200146E9E7010510196941DDE986
:100DC000084500196941BDE8F04DA2E70EB540F2B3
:100DD000334202920022CDE900221346FFF7A8FF1A
:100DE00003B000BDC1F30A52C1F3130140F2FF3357
:100DF00041F480119A4202DA00200146704740F225
:100E000033439A42A2F2334202DC5242FFF78CB9DA
:100E1000FFF7B9BE064C074D06E0E06840F001035D
:100E200094E8070098471034AC42F6D3FFF762F914
:100E30001059000830590008C0B24FF4F05100F0CA
:100E400001B800007F2801D9002208E0064A02EB21
:100E50005002C007127800D1120902F00F020120DF
:100E60009040084070470000D058000870B5044614
:100E700000688168C943C90716D1816821F0010162
:100E8000816000F071FC054609E000F06DFC401B3C
:100E9000022804D920688068C043C00706D02068B3
:100EA0008068C043C007F0D0002070BDA06A40F049
:100EB0001000A062E06A40F00100E062012070BD15
:100EC000F8B500260446009600688168C943C90742
:100ED0002CD0816841F001018160154815490068F6
:100EE000B0FBF1F000E0401E00900028FBD100F0C4
:100EF0003BFC054615E000F037FC401B022810D9EA
:100F000020688068C043C0070BD0A06A40F0100082
:100F1000A062E06A40F00100E06284F824600120F1
:100F2000F8BD20688068C043C007E4D10020F8BD48
:100F30003800002040420F00FFB41E4BAA220825B3
:100F40001A70FF225A70F2229A70DD709DF800200C
:100F50001A719DF801205A719DF804209A719DF82C
:100F60000520DA719DF808201A729DF809205A723E
:100F70009DF80C209A7200219DF80D20DA720C2247
:100F80000C4608462D1D06E01E5C401C3144C9B2CB
:100F90000C44E4B2C0B28542F6D89954521C0549BB
:100FA0009C5404B04FF6FF73F0BC0348521C01F090
:100FB00054BE0000BC02002078010020FEE770470C
:100FC0004FF4805000F0D0BA102000F0CDBA72B6C5
:100FD000FEE70000F8B50023009390F824201C469B
:100FE000012A12D0012280F824204A681F26072AED
:100FF0000DD205686F6B521E02EB82029640B7431A
:101000000E68964037436F6319E00220F8BD05680B
:101010000D2A0AD22F6BD21F02EB82029640B743F1
:101020000E68964037432F6309E0EF6A0D3A02EBF2
:1010300082029640B7430E6896403743EF620A68D3
:10104000072605680A2A0AD3EF680A3A02EB420229
:101050009640B7438E6896403743EF6008E02F69AB
:1010600002EB42029640B7438E68964037432F61A9
:101070000A68102A01D0112A20D1124D0268AA4212
:1010800017D195682D0219D4956845F4000595602F
:101090000968102912D10C490C4A0968B1FBF2F118
:1010A00001EB8101490000E0491E00910029FBD1BC
:1010B00004E0816A41F020018162012380F824402C
:1010C0001846F8BD002401403800002040420F00BF
:1010D0000068C06C704700002DE9F0414FF0000639
:1010E000040035467DD0A06A002728B9E76284F85D
:1010F0002470204600F07EF82046FFF7B7FEA16A74
:10110000C90600D420B1A06A40F01000A06268E0D7
:10111000A16A21F4885141F00201A1626268E1698B
:10112000237B0A4346EA43010A43A1684FF48076D1
:10113000B14208D0012906D0002194F814C0BCF1B6
:10114000010F02D00AE03146F7E7F3B1A36A43F09A
:101150002003A362E36A43F00103E3622368D3F848
:1011600004C02CF4694C4CEA010CC3F804C021689B
:101170008B68DFF874C003EA0C0313438B60A1682B
:10118000B1420BD0012909D00CE0DFF860C0A3699F
:101190000CEB43330B4343F40061DFE7218A0D0579
:1011A000A5F580152168CB6A23F470032B43CB622D
:1011B000216889680E4B1940914208D1E762A16A03
:1011C00021F0020141F00101A162BDE8F081A06AB5
:1011D00020F0020040F01000A062E06A40F0010040
:1011E000E0620120F1E70000FDF7E1FF00E0FFFF12
:1011F000FE0E1FFF00B585B0002100910191029104
:10120000039100680E49884218D10E48816941F463
:1012100080618161816901F480610491816941F09B
:10122000040181618069694600F004000490102087
:10123000009003200190044800F0A2F905B000BD21
:101240000028014000100240000801402DE9F84349
:101250004FF000080D460446CDF8008000F084FAF7
:10126000074620688168C90508D5A06A40F02000BB
:10127000A06284F824800120BDE8F8834168C90594
:1012800003D4C06A10F4700F29D0022000F00AFBCA
:101290003A490968B1FBF0F620680169384A114201
:1012A0004FEA62024FEAA2131ED1C1684FEA621CE4
:1012B00011EA0C0F18D10169114224D1C0681842FB
:1012C00021D1142022E0681C09D025B100F04CFA8D
:1012D000C01BA84203D920680068800724D5206875
:1012E00000688007EFD52CE00169114202D1C16886
:1012F000194206D0026923490A4206D1C068084251
:1013000003D1542002E0292000E0FC20464300984D
:1013100015E0681C10D025B100F026FAC01BA842C9
:101320000AD90098B04207D2A06A40F00400A06237
:1013300084F8248003209FE70098401C0090B0426E
:10134000E7D321686FF012000860A06A40F40070D3
:10135000A06220688068C0F3424007280CD1207B3F
:1013600050B9A06A20F48070A062A06AC00403D4BF
:10137000A06A40F00100A06200207DE73800002054
:10138000244992244992240070B5044690F8240020
:1013900001280DD0012084F824002046FFF790FD9D
:1013A00001004FF0000205D084F82420084670BDEB
:1013B000022070BDA06A40F20123984340F480707F
:1013C000A0621F4D20681F4BA84218D11E6816F45A
:1013D000702F14D0A66A46F48016A6621E687605A1
:1013E00005D5A66A26F4005646F48056A662A66A7B
:1013F000F6040AD5E66A26F00606E66206E0A66A64
:1014000026F48016A6624668E9E7E26284F82420A2
:101410006FF00202026020688268C2F34242072A2B
:1014200005D1A84208D11A6812F4702F04D082683E
:1014300042F480128260B9E7826842F4A002F9E7C0
:10144000002801400424014010B590F8211000222A
:10145000022905D00421816380F82020012010BDDD
:1014600001680B6823F00E030B6001680B6823F022
:1014700001030B6090F84030012404FA03F1C36BC0
:10148000596080F8214080F82020104610BD0000EF
:1014900010B590F821100024022903D004218163A3
:1014A00001243DE001680A6822F00E020A6001682A
:1014B0000A6822F001020A601A4A0168914201D1C9
:1014C000012121E0174A1432914201D110211BE081
:1014D000144A2832914201D1891515E0114A3C3253
:1014E000914201D189140FE00E4A5032914202D14B
:1014F0004FF4803108E00B4A6432914202D14FF43C
:10150000801101E04FF08071064A083A51600121D4
:1015100080F82110002180F82010416B01B188472C
:10152000204610BD0800024070B5044600F01CF9CA
:101530000546601C02D004480078044400F014F909
:10154000401BA042FAD370BD2C000020054A4FF486
:101550000051102802D0B0F5805F02D1104600F093
:10156000F5B8704700100140044910B50A680242FE
:1015700002D00860FFF7EAFF10BD0000140401402C
:101580002DE9F84FDFF8A491002409F1040A0AF1CB
:10159000040B23464FF00F080BF1040EBEE00127A9
:1015A000A7403A40BA4272D1DFF884C14D68A5EB3A
:1015B0000C0665452BD00DDC032D34D005DC35B38E
:1015C000012D19D0022D2FD11BE0112D16D0122D77
:1015D0002AD119E0B6F5881F19D006DCB6F5803F90
:1015E00015D0B6F5801F1FD111E0B6F5001F0ED043
:1015F000B6F5041F18D10AE0CB6815E0CB681B1DB7
:1016000012E0CB6808330FE0CB680C330CE08B683A
:101610002BB1012B4FF0080303D0476104E00423F2
:1016200002E0076100E00023FF2A01D8064601E03E
:1016300000F104064FEA840501D9A5F120053768B9
:1016400008FA05FC27EA0C0703FA05F547EA05073F
:1016500037604D68ED0060D5364DAE6946F0010645
:10166000AE61AD6924F0030605F001050095324D29
:101670007719BE68A5072D0F08FA05FC26EA0C06A7
:10168000DFF8B8C0604503D14FF0000C17E044E02C
:10169000DFF8ACC0604502D14FF0010C0FE0DFF87D
:1016A000A4C0604502D14FF0020C08E0DFF898C0FA
:1016B000604502D14FF0030C01E04FF0040C0CFA2E
:1016C00005FC4CEA060CC7F808C04D68D9F8006064
:1016D000ED034D4601D5164300E096432E604D685C
:1016E000DAF80060AD03554601D5164300E0964395
:1016F0002E604D68DBF80060ED025D4601D51643B3
:1017000000E096432E604D68DEF80060AD0275463D
:1017100001D5164300E096432E60641C0A6832FA35
:1017200004F57FF43CAFBDE8F88F000000040140F1
:1017300000001110001002400000014000080140AC
:10174000000C01400010014000140140C26821EA71
:1017500002030A4043EA0241016170470AB1016194
:1017600070470904FBE700000148806870470000EB
:101770002C00002002488168027811448160704783
:101780002C000020074810B5016841F010010160ED
:10179000032000F075F80F2000F006F800F024F8A0
:1017A000002010BD0020024070B50D4D04464FF4DE
:1017B0007A712878B1FBF0F00A490968B1FBF0F0C2
:1017C00000F0C4FB48B9102C07D200222146501E5D
:1017D00000F036F800206C6070BD012070BD000084
:1017E0002C000020380000200C4808B5816941F029
:1017F00001018161816901F001010091C16941F03C
:101800008051C161C069064900F08050009048686D
:1018100020F0E06040F00070486008BD0010024019
:1018200000000140002809DB00F01F020121914067
:101830004009800000F1E020C0F80011704700006E
:10184000F0B40E4B1B68C3F30223C3F10704042C4E
:1018500000D904241D1D072D01D2002300E0DB1E4A
:10186000012606FA04F56D1E0D409D409E40761E31
:10187000164045EA0601F0BC02F020B90CED00E08C
:10188000064A00F0070110684FF6FF03184040EACF
:101890000120034908431060704700000CED00E090
:1018A0000000FA0510B5014627A086B01DC88DE8D6
:1018B0001D0029A0294C006804900020012922D095
:1018C000022939D010291CD161682268D20118D5AB
:1018D000C1F38342C9031DF8020009D5616804AA57
:1018E000C1F34041515C1E4AB2FBF1F1484301E0B3
:1018F0001C4948436168490203D440000321B0FBFE
:10190000F1F006B010BD216AC1F30122012A03D112
:10191000890701D5D003F4E7022A05D1616A890756
:1019200002D549F64040ECE7032AEAD12168890351
:10193000E7D54FF22440E4E700F036F96168C1F3DF
:101940008131491C4900DAE702030405060708094A
:101950000A0B0C0D0E0F10100102000000100240C7
:1019600000127A0000093D002DE9F8430446007892
:10197000344FC00752D0F8690025C00008D4F86978
:1019800040F08050F861F869012500F08050009027
:101990002D480168C90511D40168804641F4807161
:1019A0000160FFF7E1FE064604E0FFF7DDFE801B65
:1019B000642822D8D8F80000C005F6D5386A10F49B
:1019C000407020D0A18801F4407181421BD0386A58
:1019D0001E49012220F440700A6000220A60386229
:1019E000C00710D0FFF7C0FE064641F2883807E076
:1019F000FFF7BAFE811B414502D90320BDE8F883F9
:101A0000386A8007F4D5386A616820F4407008436A
:101A100038621DB1F86920F08050F86120788007A5
:101A200005D57868A16820F44040084378602078A4
:101A3000C00605D57868E16820F480000843786026
:101A40000020DBE7001002400070004040044242EA
:101A50002DE9F0470D46040067D0DFF81881D8F86B
:101A6000000000F00700A8420CD2D8F8001021F0C6
:101A700007012943C8F80010D8F8000000F007005B
:101A8000A84252D120683C4E810712D5400703D5A9
:101A9000706840F4E06070602078000703D57068DB
:101AA00040F4605070607068A16820F0F000084356
:101AB00070602078C00727D06068012810D0316896
:101AC000022810D0890700292FDA716821F003015C
:101AD00001437160FFF748FE074641F288390CE088
:101AE00031688903EFE78901EDE7FFF73DFEC11B90
:101AF000494502D90320BDE8F0877068616800F0AD
:101B00000C00B0EB810FF0D1D8F80010404601F086
:101B10000701A9420BD9016821F00701294301609F
:101B2000006800F00700A84201D00120E3E7207818
:101B3000400705D57068E16820F4E06008437060F4
:101B40002078000706D57068216920F4605040EACB
:101B5000C100706000F038F87168084AC1F30311E1
:101B6000515CC8400649086006480068FFF71CFE43
:101B70000020C0E70020024000100240A0500008F2
:101B800038000020300000200448054900684968FA
:101B9000044AC1F30221515CC8407047380000205C
:101BA00000100240B0500008044805490068496828
:101BB000044AC1F3C221515CC8407047380000207C
:101BC00000100240B050000812A085B00FC88DE888
:101BD0000F0014A0144B006804905968134801F0DA
:101BE0000C02042A10D0082A0ED1C1F38342C90383
:101BF0001DF802000AD5596804AAC1F34041515C9E
:101C00000A4A5043B0FBF1F005B070470849484319
:101C1000FAE7000002030405060708090A0B0C0D89
:101C20000E0F1010010200000010024000127A0096
:101C300000093D002DE9F84F04006FD02078BE4D1B
:101C4000C00747D06868C0F38100012807D06868E2
:101C5000C0F38100022809D16868C00306D528684E
:101C6000800337D560680028E7D033E06068B0F5BE
:101C7000803F0BD010B1B0F5A02F11D0286820F410
:101C800080302860286820F4802002E0286840F432
:101C900080302860606888B1FFF766FD064609E07D
:101CA000286840F480202860F0E7FFF75DFD801B86
:101CB000642873D828688003F7D50BE0FFF754FD3C
:101CC000064604E0FFF750FD801B6428F1D8286821
:101CD0008003F7D42078DFF8648280074FF0010A90
:101CE0004FF0000939D5686810F00C0F07D068680C
:101CF000C0F38100022809D16868C00306D42868AF
:101D0000800714D52069012808D110E02069B0B1FE
:101D1000C8F800A0FFF728FD064605E007E1FFF739
:101D200023FD801B0228C4D828688007F7D52868BF
:101D3000616920F0F80040EAC10028600DE0C8F8B1
:101D40000090FFF711FD064604E0FFF70DFD801B34
:101D5000022823D828688007F7D4207800072CD5DC
:101D60007748A169D9B1C0F800A0FFF7FDFC06468D
:101D700004E0FFF7F9FC801B02280FD8686A80078F
:101D8000F7D570484FF4FA510068B0FBF1F00090BD
:101D900000BF0098411E0091FAD20EE07CE0C0F82E
:101DA0000090FFF7E1FC064604E0FFF7DDFC801B36
:101DB000022871D8686A8007F7D4207840075BD57D
:101DC000E8690027C00008D4E86940F08050E86165
:101DD000E869012700F0805000905B480168C90560
:101DE00011D40168834641F480710160FFF7BCFCA7
:101DF000064604E0FFF7B8FC801B64284CD8DBF8EB
:101E00000000C005F6D5E06801280AD008B1052811
:101E100013D0286A20F001002862286A20F004000C
:101E200002E0286A40F001002862E06841F2883B45
:101E300088B1FFF799FC064609E0286A40F00400E3
:101E40002862EEE7FFF790FC811B59455BD8286AB2
:101E50008007F7D50BE0FFF787FC064604E0FFF7A5
:101E600083FC811B59454ED8286A8007F7D41FB1DF
:101E7000E86920F08050E861E069A8B36968C1F3BF
:101E80008101022946D00228484606D0C8F86000E1
:101E9000FFF76AFC044639E035E04746C8F86000C1
:101EA000FFF762FC064604E0FFF75EFC801B022899
:101EB00029D828688001F7D4206AB0F5803F05D181
:101EC0006868A16820F4003008436860D4E908011C
:101ED0000843696821F4741108436860C7F860A07A
:101EE000FFF742FC044605E023E0FFF73DFC001B42
:101EF000022808D828688001F7D51AE0FFF734FCDB
:101F0000001B022802D90320BDE8F88F2868800151
:101F1000F4D40EE00128F7D06868226A00F480311A
:101F2000914204D1616A00F47010884201D001200E
:101F3000EAE70020E8E7000000100240000042420B
:101F400080044242380000200070004010B5401E5E
:101F5000B0F1807F01D3012010BD4FF0E02460611B
:101F60000F21601701F0AAFD0020A0610720206169
:101F7000002010BD7047704710B590F83C20012A32
:101F800022D0012280F83C20CA688C6822F440727A
:101F900022434C6822F4806222430C6822F40062DF
:101FA00022430C6922F4805222434C6922F40052ED
:101FB0002243C969002322F480420A4301684A642B
:101FC00080F83C30002010BD022010BD70B590F8A4
:101FD0003C20012A26D0012580F83C50022280F8BE
:101FE0003D2002685368946823F070060B68334301
:101FF00053600D4B02689A4208D0B2F1804F05D071
:102000000A4B9A4202D00A4B9A4204D1496824F002
:1020100080031943916080F83D50002180F83C1006
:10202000084670BD022070BD002C01400004004035
:102030000008004010B5040003D094F83D0010B132
:1020400007E0012010BD002084F83C00204600F08D
:102050001FF8022084F83D00211D206801F044FA99
:10206000012084F8460084F83E0084F83F0084F89C
:10207000400084F8410084F8420084F8430084F86A
:10208000440084F8450084F83D00002010BD0000A5
:1020900008B500680B49884212D10B48816941F4A8
:1020A000006181618069002200F4006000901146A7
:1020B0001920FFF7C5FBBDE808401920FFF7B2BBA8
:1020C00008BD0000002C01400010024090F83D10B7
:1020D000012901D001207047022180F83D100168DC
:1020E000CA6842F00102CA6000680B49884208D001
:1020F000B0F1804F05D00949884202D00849884292
:1021000004D1816801F00701062903D0016841F07C
:102110000101016000207047002C014000040040D4
:102120000008004070B5044690F83C00012817D024
:10213000012584F83C50022084F83D002068826824
:1021400022F0770222F47F4282600868502830D063
:102150000DDC20284DD005DC98B310283BD148E099
:10216000022070BD302844D0402834D139E06028A6
:1021700028D0702806D0B0F5805F2CD0B0F5005F75
:1021800029D10AE0CB68D1E90121206801F0EFF9FB
:102190002068816841F0770109E0CB68D1E901212D
:1021A000206801F0E4F92068816841F48041816091
:1021B00011E0CA684968206801F094FA502120684B
:1021C00007E016E0CA684968206801F09CFA6021BF
:1021D000206801F0D6F984F83D50002084F83C00D6
:1021E00070BDCA684968206801F07CFA4021206807
:1021F000EFE7226801461046EBE72DE9F0410D4676
:10220000040003D094F83D0018B108E00120BDE8B7
:10221000F081002084F83C00204600F041F80220C4
:1022200084F83D002068816844F207029143816090
:10223000211D206801F058F9206881688269066ACA
:102240002B68AF690B4340F203318A4342EA07220D
:10225000A968EF6911434FF6FC429143EA6841EAED
:1022600007210A4329692F6A090141EA073111430D
:102270006A686D6926F0220646EA05152A438360DE
:102280002068816154F8460B0262012004F81F099E
:10229000E0752076E0762077A0750020B7E7000093
:1022A00000B585B000210091019102910391016870
:1022B00023480122B1F1804F23D0224B99421ED1F5
:1022C000C16941F00401C161C16901F004010491D7
:1022D000816941F0080181618069694600F0080068
:1022E0000490C020009002921748FFF749F900229D
:1022F00011461E20FFF7A4FA1E20FFF793FA05B03F
:1023000000BDC16941F00101C161C16901F0010174
:102310000491816941F0040181618069694600F09E
:10232000040004900320009002920848FFF728F967
:10233000002211461C20FFF783FA1C20DDE7000075
:102340000010024000080040000C0140000801405D
:1023500070B590F83E50044690F83F3090F8422017
:1023600090F84300022621B104290BD0012D16D18B
:102370000FE0012D13D1012A11D184F83E6084F8B9
:10238000426016E0012B0AD1012808D184F83F6091
:102390000DE0012B03D1012A01D1012801D0012038
:1023A00070BD84F83E6084F83F6084F8426084F831
:1023B000436091B1042904D001220021206801F07A
:1023C000C9F801220421206801F0C4F820680168DE
:1023D00041F001010160002070BD01220021206850
:1023E000F2E7704770B50446006801694FF00005D8
:1023F000C943890715D4C168C943890711D4E91EA7
:10240000016101202077206880698007204602D082
:10241000FFF7E7FF04E000F0BFF8204600F04EF9B8
:10242000257720680169C943490717D4C168C943A2
:10243000490713D46FF0040101610220207720685E
:10244000806910F4407F204602D0FFF7CAFF04E005
:1024500000F0A2F8204600F031F9257720680169E4
:10246000C943090716D4C168C943090712D46FF0DC
:1024700008010161042020772068C0698007204698
:1024800002D0FFF7AEFF04E000F086F8204600F02F
:1024900015F9257720680169C943C90617D4C168B1
:1024A000C943C90613D46FF01001016108202077D9
:1024B0002068C06910F4407F204602D0FFF791FFEA
:1024C00004E000F069F8204600F0F8F8257720686D
:1024D0000169C943C90708D1C168C943C90704D103
:1024E000891E0161204600F03BF920680169C9435B
:1024F000090609D4C168C943090605D46FF08001F3
:1025000001612046FFF736FD20680169C94349068D
:1025100009D4C168C943490605D46FF0400101617F
:10252000204600F0BBF920680169C94389060BD435
:10253000C168C943890607D46FF0200101612046B4
:10254000BDE87040FFF717BD70BD000000B585B055
:102550000021009101910291039100680B4988428A
:1025600012D10B48816941F004018161806969469B
:1025700000F0040004904FF41060009002200190DD
:1025800003900448FEF7FCFF05B000BD002C01409D
:102590000010024000080140704770B5044690F8F2
:1025A0003C000D4601280AD0012084F83C0042B1CD
:1025B000042A18D0082A2AD00C2A4DD139E002204A
:1025C00070BD206800F0E6FF2068816941F00801D5
:1025D00081612068816921F004018161206881693D
:1025E0002A69114311E0206801F000F82068816930
:1025F00041F4006181612068816921F48061816119
:10260000206881692A6941EA0221816124E0206809
:1026100001F01AF82068C16941F00801C161206821
:10262000C16921F00401C1612068C1692A691143AF
:1026300011E0206801F034F82068C16941F40061BC
:10264000C1612068C16921F48061C1612068C169EC
:102650002A6941EA0221C161002084F83C0070BD72
:1026600010B5040003D094F83D0010B107E001203C
:1026700010BD002084F83C00204600F01EF8022027
:1026800084F83D00211D206800F02EFF012084F811
:10269000460084F83E0084F83F0084F8400084F847
:1026A000410084F8420084F8430084F8440084F830
:1026B000450084F83D00002010BD704770470000C1
:1026C00010B5044649B104290AD008290BD094F862
:1026D000410001280AD0012010BD94F83E00F8E71F
:1026E00094F83F00F5E794F84000F2E7022041B388
:1026F000042929D008292AD084F841000122206821
:1027000000F028FF13492068884203D1426C42F44C
:10271000004242642068884208D0B0F1804F05D062
:102720000D49884202D00D49884204D1816801F0E8
:102730000701062903D0016841F001010160002072
:1027400010BD84F83E00D9E784F83F00D6E784F84E
:102750004000D3E7002C0140000400400008004086
:102760002DE9F05F414988427DD1414DE888401C08
:1027700084B20520B4FBF0F100FB1140EC80002690
:10278000F0BB3C480168486A3B4A404200B268805E
:1027900013685B6A1FB2AF804E6211684E62FEF72B
:1027A00006F9DFF8D8A05146FDF724FFFEF745F9FA
:1027B000DFF8CC804FF0333B5A464346FEF771F8C2
:1027C000DFF8C09000224B46FEF76BF8B21EFEF712
:1027D000D7F8FEF775F9A8603846FEF7E8F85146D5
:1027E000FDF708FFFEF729F95A464346FEF759F868
:1027F00000224B46FEF755F8B21EFEF7C1F800E086
:1028000002E0FEF75DF9E8600A20B4FBF0F100FB9E
:102810001140002827D1A868FEF70FF91A4A1B4B70
:10282000FDF7CDFF00221A4BFDF7C9FF04460F4606
:102830002869FEF702F922463B46FDF719FFFEF72D
:102840003FF928611348E96800F0D0FDFEF7BDF8B4
:1028500004461148A96800F0C9FDFEF7B6F8214604
:1028600000F05EFCEE80BDE8F09F0000A0000020BC
:102870001800002030010020E80000200000C842BD
:1028800033332340000026407B14AE47E17A943F67
:1028900000003640400300202003002070477047AE
:1028A00070470000F8B5026804461068D1685369A3
:1028B00010F00F0F4FF0000553D003F0010601F4A4
:1028C000907737435FD0C20705D0CA0503D5226C85
:1028D00042F001022264420705D5DA0703D0226CD8
:1028E00042F002022264820705D5DA0703D0226C87
:1028F00042F004022264020707D501F020023243AD
:1029000003D0226C42F008022264226C002A34D0E8
:10291000800604D5880602D5204600F026FF2068F0
:102920004069216CC0F38010090700D430B3204601
:1029300000F003FF2068416949061BD5416921F079
:1029400040014161A06BA8B158494163A06BFEF7FB
:102950009FFD002811D0A06B416B01B0BDE8F04095
:10296000084783060FD58B060DD52046BDE8F840F5
:1029700000F0FBBE2046FFF793FFF8BD2046FFF7AF
:102980008FFF2564F8BD266B2023012E52D1C60689
:1029900050D5CE064ED5106850680090506940065C
:1029A0002AD5A16B086840680004000CEAD0A68D07
:1029B0008642E7D9E0858869202818D0D06820F4BD
:1029C0008070D0602068416921F001014161206878
:1029D000416921F04001416184F83E30256320685F
:1029E000C16821F01001C160A06BFEF72DFDA08D24
:1029F000E18D401A81B219E0A08DE18D401A81B2BB
:102A0000E08D0028BED00029BCD0D06820F49070A2
:102A1000D0602068426922F00102426184F83E30B1
:102A200025632068C26822F01002C2602046FFF7CA
:102A300036FFF8BD05062BD50D0629D594F83D00C7
:102A40002128F6D1A068B0F5805F01D12069B0B12E
:102A5000206A411C2162216800784860E08C401E99
:102A60000004000CE084E4D12068C16821F08001FA
:102A7000C1602068C16841F04001C160F8BD206AB2
:102A80000088C0F308005060206A801C2062E5E7DF
:102A90004006F3D54806F1D5D168204621F0400123
:102AA000D16084F83D3000F030F9F8BD2B370008D4
:102AB00070B5040004D094F83D00002510B106E084
:102AC000012070BD84F83C50204600F023F82420FB
:102AD00084F83D002068C16821F40051C16020469F
:102AE00000F09EFE2068016921F490410161206898
:102AF000416921F02A0141612068C16841F4005117
:102B0000C1602564202084F83D0084F83E00002048
:102B100070BD000030B585B000240094019402948B
:102B200003940068184988422CD11848816941F4FF
:102B300080418161816901F480410491816941F0A2
:102B4000040181618069124D00F0040004904FF48B
:102B500000700090022001900320039069462846EF
:102B6000FEF70EFD2815CDE90004694628460294BB
:102B7000FEF706FD002211462520FEF761FE252006
:102B8000FEF750FE05B030BD003801400010024095
:102B9000000801402DE9F84F044690F83E009846A1
:102BA00015460E46202855D10EB305B394F83C00C7
:102BB00001284FD0012084F83C004FF00009C4F8F0
:102BC0004090222184F83E10C4F83090FEF7CCFDEE
:102BD000A5858246E585A0684FF48057B84201D1AB
:102BE000206938B13546002684F83C9027E0012062
:102BF000BDE8F88F0025F7E7534600222021204644
:102C0000CDF8008000F068FE08B10320F0E725B1A0
:102C1000A068B8421BD038B108E020684068C0F313
:102C2000080026F8020B07E0206980B120684068A0
:102C300000F07F0005F8010BE08D401EE085E08D7F
:102C40000028D9D1202084F83E000020D0E7206859
:102C50004068EFE70220CBE770472DE9F8430446D0
:102C600090F83D001F4615460E4620284BD1C6B1B0
:102C7000BDB194F83C00012845D0012084F83C0007
:102C80004FF00008C4F84080212084F83D00FEF792
:102C90006BFDA5848146E584A068B0F5805F03D014
:102CA00004E00120BDE8F883206920B13546002604
:102CB00084F83C800EE00025FAE78021204600F0F1
:102CC0000BFEA0B9ADB115F8010B21684860E08C8E
:102CD000401EE084E08C4B464FF000020097002835
:102CE000EBD14FF04001204600F0F6FD30B103205B
:102CF000D8E736F8020BC0F30800E6E7202084F896
:102D00003D000020CEE70220CCE77047FEE7000040
:102D10002DE9F04101220C4DD40321462846FEF74F
:102D20001DFD0122094F160331463846FEF716FDF8
:102D3000002231463846FEF711FD21462846BDE8FF
:102D4000F0410022FEF70ABD00080140000C0140DE
:102D500070B50122D1030948FEF700FD084D4FF47C
:102D60008054002221462846FEF7F8FC21462846DA
:102D7000BDE870400122FEF7F1BC000000080140F0
:102D8000000C014070B50122064DD40321462846AF
:102D9000FEF7E4FC21462846BDE870400022FEF71D
:102DA000DDBC0000000801403EB500211148009143
:102DB00001910F4A02910260816001730175012443
:102DC0004FF460220461C2614160FEF785F908B1E9
:102DD000FEF7FDF80420CDE90004022002906946C8
:102DE0000448FEF7F7F8002801D0FEF7F0F83EBDE2
:102DF00000280140700000202DE9F04F85B000242C
:102E000045480094019402940394816941F01001B3
:102E10008161816901F010010491816941F0200113
:102E20008161816901F020010491816941F004010F
:102E30008161816901F004010491816941F0080117
:102E400081618069DFF8D4A000F008004FF40055DC
:102E50000490002229465046FEF780FC0122170309
:102E600039462F48FEF77AFC42F208080022414614
:102E70002B48FEF773FCDFF8ACB04FF40049012299
:102E800049465846FEF76AFC00950226012503963E
:102E9000CDE9015469465046FEF772FBCDE9007555
:102EA000CDE9025669461E48FEF76AFBCDF8008060
:102EB0000396CDE9015469461948FEF761FB1A48AB
:102EC0000097CDE9010569465846FEF759FBCDE963
:102ED0000095CDE9025669465846FEF751FB102091
:102EE00000901248CDE9010669460D48FEF748FBFF
:102EF000002211460A20FEF7A3FC0A20FEF792FCEE
:102F0000002211462820FEF79BFC2820FEF78AFCB1
:102F100005B0BDE8F08F0000001002400010014035
:102F2000000C0140000801400000211000001110B9
:102F300010B596B000240F94109411941294139429
:102F40001C2168461494FDF71EF9202107A8FDF7FF
:102F50001AF92D482B49016040F29F51C0E9011434
:102F60006321C0E903148021C0E90541FFF762F83D
:102F700008B1FEF72CF84FF480500F900FA92248AB
:102F8000FFF7D0F808B1FEF722F81F48FFF768FBFB
:102F900008B1FEF71CF8139413A91B481494FFF70B
:102FA00015F808B1FEF713F8602000903220CDE943
:102FB000010403940494059400226946124806947F
:102FC000FFF7EBFA08B1FEF702F80C2269460E484B
:102FD000FFF7E3FA08B1FDF7FAFF079408940994A4
:102FE0004FF400500A94CDE90B4007A906480E940F
:102FF000FEF7C2FF08B1FDF7EAFF0348FFF7A6FAA4
:1030000016B010BD002C0140A000002010B58CB0FF
:1030100024216846FDF7B7F80024164809944FF0BC
:1030200080410A94C0E900144FF6FF71C0E90241E3
:10303000046184610320CDE900040120CDE902048C
:1030400006210491CDE90540CDE9074169460948CB
:10305000FFF7D3F808B1FDF7BAFF099409A90548AD
:103060000A94FEF7B3FF002801D0FDF7B0FF0CB0C3
:1030700010BD0000E800002010B58CB02421684687
:10308000FDF781F800241648099414490A94C0E910
:1030900000144FF6FF71C0E902410461846103200E
:1030A000CDE900040120CDE9020406210491CDE917
:1030B0000540CDE9074169460948FFF79EF808B188
:1030C000FDF785FF099409A905480A94FEF77EFFDC
:1030D000002801D0FDF77BFF0CB010BD00080040B8
:1030E000300100200C4810B50A4901604FF4E1316D
:1030F0004160002181600C22C160C0E9041281613D
:10310000C161FFF7D5FC002803D0BDE81040FDF7F2
:103110005EBF10BD0038014078010020FEE70000CE
:1031200070B51A4E4542C1F1000401D5012200E0FC
:10313000002208213046FEF711FB4FF40051002C0D
:1031400001DA012200E000223046FEF707FB1048BA
:103150006FF06201002D05DA8D4200DA0D4664350C
:10316000026803E0632D00DD632502685563002CCF
:1031700005DA8C4200DA0C460068643403E0632C04
:1031800000DD63240068046470BD0000000C014091
:10319000A0000020FEE770B50025002105F1B00079
:1031A00000F0FDF80021084600F0F9F80021102099
:1031B00000F0F5F800240121002000F0F0F8641C74
:1031C000E4B2802CF7D36D1CEDB2082DE5D370BDB1
:1031D00010B54FF44870FEF7A7F90021AE2000F0BB
:1031E000DEF80021084600F0DAF80021102000F097
:1031F000D6F80021402000F0D2F80021B02000F0E5
:10320000CEF80021812000F0CAF80021FF2000F054
:10321000C6F80021A12000F0C2F80021A62000F08D
:10322000BEF80021A82000F0BAF800213F2000F0ED
:10323000B6F80021C82000F0B2F80021D32000F039
:10324000AEF80021084600F0AAF80021D52000F0D1
:10325000A6F80021802000F0A2F80021D82000F07C
:103260009EF80021052000F09AF80021D92000F0F6
:1032700096F80021F12000F092F80021DA2000F009
:103280008EF80021122000F08AF80021DB2000F0E7
:1032900086F80021302000F082F800218D2000F017
:1032A0007EF80021142000F07AF80021BDE81040DB
:1032B000AF2000F074B810B50A460446002102F1B0
:1032C000B00000F06CF8102040EA1410002100F06B
:1032D00066F804F00F00BDE81040002100F05FB870
:1032E0002DE9F041203A00240F468046D5B27F28D0
:1032F00003D900208F1C8046FFB2102B394610D016
:10330000FFF7D9FF164905EB450001EB4005012108
:10331000285D00F044F8641CE4B2062CF7D3BDE845
:10332000F081FFF7C8FF0F4E04EB05100121305C60
:1033300000F035F8641CE4B2082CF5D37F1CF9B218
:103340004046FFF7B8FF002404EB0510304401218C
:10335000007A00F024F8641CE4B2082CF4D3DEE711
:10336000B8500008E05200082DE9F0419846174691
:103370000E46044600250DE0434631462046FFF741
:10338000AFFF0834E4B2782C02D90024B61CF6B2A0
:103390006D1CEDB27A5D002AEED1BDE8F081C0B2BD
:1033A00009B100F050BB00F037BB000010B50B496D
:1033B00000200B4BC1E9003088600A4CC860C1E9AD
:1033C0000404094AC1E906202031C1E900308860BF
:1033D000C860C1E90404C1E9062010BD2003002033
:1033E00000004040000070410000A0402DE9F04185
:1033F00004460068FDF7F8F80546A06029462069F4
:10340000FDF7A0F8206107462846E168FDF7ECF8D3
:10341000E169FDF7EFF806463946A069FDF7EAF8DD
:10342000074629466069FDF7E5F83946FDF78AF851
:103430003146FDF787F8E5606060BDE8F0817047D0
:103440007047FEF797B930B593B028216846FCF76E
:103450009AFE14210AA8FCF796FE002401210F947D
:1034600010940804CDE900101194129402940225DE
:103470000491CDE907504FF4E01009906846FEF73B
:10348000D9FB08B172B6FEE70F20CDE90A054FF46B
:103490008060CDE90C4002210AA80E94FEF7D8FA0C
:1034A00008B172B6FEE74FF4004011900F950FA8D7
:1034B000FEF75AFA002801D072B6FEE713B030BD0D
:1034C000704700000148FEF78DBF0000A0000020FB
:1034D0000148FEF787BF0000E80000200148FEF722
:1034E00081BF000030010020F0B50268164C174D76
:1034F000174E4FF08047A04205D0B84203D0A842F3
:1035000001D0B04203D122F070034A681A43A042AE
:1035100005D0B84203D0A84201D0B04203D122F472
:103520004073CA681A434B6922F080021A43026052
:103530008A68C2620A688262A04201D10969016395
:1035400001214161F0BD0000002C01400004004059
:103550000008004010B501F01F010123046A8B40F0
:103560009C430462036A8A401343036210BD10B592
:10357000846842EA032224F47F440A43224382609F
:1035800010BD826822F070020A4342F00701816098
:103590007047000030B5026A22F001020262036A3D
:1035A0004268846924F073050C682C4323F00205FB
:1035B0008B682B430C4DA84206D123F00805CB683D
:1035C00043EA050323F0040307D14D6922F4407256
:1035D00045EA02058A6942EA050242608461496857
:1035E0004163036230BD0000002C014030B5026A27
:1035F00022F010020262026A436884690D6824F4B2
:10360000E64444EA05248D6822F0200242EA0512CD
:103610000C4DA84206D1CD6822F0800242EA051284
:1036200022F0400207D14D6923F4406343EA850349
:103630008D6943EA8503436084614968816302625E
:1036400030BD0000002C014030B5026A22F48072C7
:103650000262036A4268C46923F4007324F07305AC
:103660000C682C438D6843EA05230C4DA84206D113
:10367000CD6823F4006343EA052323F4806307D174
:103680004D6922F4405242EA05128D6942EA051260
:103690004260C4614968C163036230BD002C0140CF
:1036A00030B5026A22F480520262036A4268C46939
:1036B0000D6824F4E64444EA05248D6823F400539D
:1036C00043EA0533064DA84204D14D6922F48042F5
:1036D00042EA85124260C46149680164036230BDF8
:1036E000002C014010B5046A036A23F00103036251
:1036F000836923F0F00343EA021324F00A020A4329
:103700008361026210BD10B5036A23F010030362E7
:103710008469036A24F4704444EA023223F0A0036B
:1037200043EA01118261016210BD10B5406A0021B7
:10373000C185C184FFF7B4F810BD0168CA6822F4DE
:103740009072CA6001684A6922F001024A61016B05
:10375000012904D10168CA6822F01002CA60202140
:1037600080F83E1000210163704708B590F83E10C4
:10377000222901D0022008BD81684FF4805399426C
:1037800001D1026922B1826A99421BD049B10AE093
:103790000268816A5268C2F308020A80816A891C41
:1037A00008E0016971B10168496801F07F01117099
:1037B000816A491C8162C18D491E0904090CC185B9
:1037C00003D019E001684968F1E70168CA6822F08E
:1037D0002002CA600168CA6822F48072CA60016867
:1037E0004A6922F001024A61202180F83E10016BF3
:1037F000012903D0FFF730FA002008BD0021016342
:103800000168CA6822F01002CA6001680A68D2061C
:1038100002D50A6849680091818DFFF740F8EBE70F
:1038200070B5044600680169E26821F44051114313
:103830000161A16820690143606901432068C26891
:1038400041F20C639A430A43C26020684169A2694D
:1038500021F44071114341611E492068884202D120
:10386000FEF7A2F901E0FEF78FF900EBC00101EBD2
:103870000011606864228000B1FBF0F3B3FBF2F347
:103880006FF018067343B1FBF0F5B1FBF0F605EBF2
:103890008305322303EB0515B5FBF2F5B6FBF2F613
:1038A00005F0F00505EB0615B1FBF0F6B1FBF0F005
:1038B000B0FBF2F06FF01801484306EB800003EB19
:1038C0000010B0FBF2F0216800F00F00284488607F
:1038D00070BD0000003801402DE9F0411E4617463A
:1038E00088460446069D1CE0681C1AD025B1FDF7E9
:1038F0003BFF801BA84214D92068C16821F4D07115
:10390000C1602068416921F001014161202084F8F3
:103910003D0084F83E00002084F83C000320BDE810
:10392000F0812068016838EA010004D00020B84224
:10393000DAD00020F3E70120F9E700000D4810B5C8
:1039400000680068800610D50B4A1078FF2801D364
:10395000002010700949C0B20144401C10704FF49F
:103960007A7301220348FFF715F9BDE810400148BA
:10397000FEF798BF7801002018000020BC0100204D
:10398000FEE70000094A10B510780949002330B15C
:103990000C88A04206D113700B80002010BD0B8054
:1039A000012010BD0880022010BD0000180000207A
:1039B000140000202DE9F047154F04464FF400464F
:1039C000002231463846FDF7C9FEDFF84890002551
:1039D0004FF4805804F08000802816D00022414621
:1039E0004846FDF7BBFE6006040E0122314638460C
:1039F000FDF7B4FE002231463846FDF7AFFE6D1CE0
:103A0000EDB2082DE6D3BDE8F0870122E7E700001C
:103A100000080140000C014010B50446FFF778F99A
:103A20007820FFF7C7FFFFF7ADF90020FFF7C2FFCF
:103A3000FFF7A8F92046FFF7BDFFFFF7A3F9BDE8A0
:103A40001040FFF785B910B50446FFF761F97820FB
:103A5000FFF7B0FFFFF796F94020FFF7ABFFFFF746
:103A600091F92046FFF7A6FFFFF78CF9BDE810405B
:103A7000FFF76EB90FB4054B10B503A9044A0298BD
:103A800000F05CF910BC5DF814FB00004146000832
:103A9000500000200FB4084B10B504A902AA0398E7
:103AA00000F04CF9044602A9002000F0CAFC2046B0
:103AB00010BC5DF814FB0000434400080907090E20
:103AC000002804DB00F1E02080F80014704700F0CB
:103AD0000F0000F1E02080F8141D704730B528B1C8
:103AE000144C031F002021680A4605E0084630BD3B
:103AF0009A4203D810465268002AF9D1002800D013
:103B000041680BD00468A3EB0005A54204D11B68F3
:103B10001C440346046002E0436000E023603AB1C5
:103B20001C68D51AA54203D115682C441C60526844
:103B30005A6030BD540000202DE9F04782460F4CFA
:103B400010480D4E0E4F001B4FF0000820F00705E7
:103B50004FF0010900221146504600F0BBFD00283D
:103B600002D1306810B10020BDE8F0873C60C4E9A4
:103B70000058C6F80090EDE75800002064030020CC
:103B800054000020600B002002E008C8121F08C18A
:103B9000002AFAD170477047002001E001C1121FCE
:103BA000002AFBD1704700002DE9FF5F82B00021A1
:103BB000DDE90430020DDDF840B0034318D044F6CF
:103BC0001050A2F2FF3242431514119801281FD061
:103BD000A5EB0B00401C5FEA000A4FF000064E4FB9
:103BE000DFF83891B046504615D5CAF1000413E00D
:103BF000119801244AA3012801D16FEA0B01029810
:103C0000119AC0E90031C0E9024206B0BDE8F09F58
:103C1000CBF10000DFE704460021404A491842EB9F
:103C20000450CDE9001012E0E00707D032463B46D1
:103C300040464946FCF7C3FD8046894632463B462E
:103C400010461946FCF7BBFD06460F466410002CD3
:103C5000EAD1DDE90401DDE90023BAF1000F06DA5B
:103C6000FCF7ADFD42464B46FCF7A9FD05E0FCF72D
:103C700018FE42464B46FCF714FE04460E46002250
:103C8000284BFCF705FF03D84FF0FF30014607E053
:103C90000022254B20463146FCF7EAFCFDF7A2F84E
:103CA000102409E0002C0ADB0A220023FCF73AFF6B
:103CB000039B30321A55641E50EA0102F2D1641C93
:103CC000039AC4F111031444119A012A03D001226A
:103CD00008430DD10AE0084304D000204FF0110B37
:103CE000119072E7A3EB0B056D1E0DE05B4504DD43
:103CF0004FF0000205F1010504E003DA4FF0000285
:103D0000A5F10105002AECD002981199C0E9023111
:103D1000C0E9004579E70000000014400000F03FD2
:103D2000300000000000F0430000E03F30380A2877
:103D300001D2012070470020704700002DE9FF4F9D
:103D400095B09A46884606460025EEE1252877D1AB
:103D500000242746F94A0121039400E0044316F8A1
:103D6000013F203B01FA03F01042F7D130782A28B6
:103D700011D06FF02F033078A0F13002092A16D845
:103D8000039A44F0020402EB820203EB4202104465
:103D9000761C0390EFE758F8042B0392002A03DA0D
:103DA000504244F40054039044F00204761C3078EE
:103DB0002E2816D116F8010F44F004042A280DD03D
:103DC0006FF02F023078A0F13003092B09D807EBF0
:103DD000870302EB4303C718761CF3E758F8047B0C
:103DE000761C30786C280FD006DC4C2817D0682859
:103DF0000DD06A2814D104E0742810D07A280FD18D
:103E00000DE044F400140AE044F4801401E044F4AA
:103E100040147278824202D104F58014761C761C1C
:103E2000307866280BD013DC582877D009DC0028BE
:103E300075D04528F6D04628F4D047281AD193E10A
:103E400018E0632835D0642879D0652812D18BE139
:103E5000702873D008DC6728F1D069286FD06E28ED
:103E60000DD06F2806D1ACE073282CD0752874D003
:103E7000782853D05246179990476D1C54E1C4F3EB
:103E80000250022809D003280DD0D8F800100428C9
:103E90000DD00D6008F1040846E1D8F80010EA17CB
:103EA000C1E90052F6E7D8F800100D80F2E70D7076
:103EB000F0E718F8041B8DF8001000208DF80100C1
:103EC000EB46012003E058F804BB4FF0FF306107D8
:103ED0004FF0000102D40DE009F101018946B94219
:103EE0000FDA8145F8DB1BF809100029F4D108E04E
:103EF00009F1010189468142FADB1BF8091000290A
:103F0000F6D103985346A0EB090721463846179A85
:103F100000F080FA284400EB090507E044E008E1DE
:103F20000DE01BF8010B524617999047B9F10109B2
:103F3000F7D2534621463846179AF2E039E00A2173
:103F4000C4F302524FF0000B0091022A06D058F839
:103F5000040BC117032A09D00AE023E008F1070087
:103F600020F00702F2E80201904605E000B2C11716
:103F7000042A01D140B2C117002906DA0A460021FD
:103F8000404261EB02012D2202E0220504D52B22E2
:103F90008DF80420012203E0E20701D02022F7E798
:103FA000914657E00A2100E010214FF0000B0091EC
:103FB0000BE010214FF0000B44F00404082700919F
:103FC00003E008204FF0000B0090C4F30252022AD5
:103FD00005D058F8040B0021032A08D008E008F1A6
:103FE000070020F00702F2E80201904603E080B2E9
:103FF000042A00D1C0B24FF0000922072AD5327836
:10400000702A07D0DDF800C08CF0100C5CEA0B0CB5
:1040100005D00EE040228DF80420012208E050EA8D
:10402000010306D030238DF804308DF805200222DC
:104030009146009B83F0080353EA0B030AD150EA30
:10404000010201D1620705D530228DF804204FF01E
:1040500001097F1E3278582A04D039A20C920CAA8A
:1040600002920BE03BA2F9E75B46009AFCF75AFD8F
:104070000C9B9B5C029A521E0292137050EA010242
:10408000F2D1029804A9081A00F1200B600702D5AA
:1040900024F4803400E001275F4502DDA7EB0B002C
:1040A00000E0002000EB0B01009003984944401A07
:1040B0000390E00306D453462146179A039800F074
:1040C000A9F90544002706E001A85246C05D1799EA
:1040D00090476D1C7F1C4F45F6DBE0030CD5534623
:1040E0002146179A039800F095F9054404E0302022
:1040F0005246179990476D1C0099481E0090002960
:10410000F5DC08E00298029952460078491C0291B9
:10411000179990476D1CBBF10001ABF1010BF1DC6D
:104120005BE100F065F90544761C307800287FF4E7
:104130000DAE19B02846BDE8F08F00000928010037
:10414000303132333435363738396162636465660D
:1041500000000000303132333435363738394142CF
:104160004344454600000000600700D4062708F1DC
:10417000070020F00700F0E80223804603F0004C1F
:104180005FEA0C0001D097A009E0200501D596A0B8
:1041900005E0E00701D095A001E0AFF24C001390DC
:1041A000307823F0004365280CD006DC452809D080
:1041B00046281DD047287FD13BE0662818D06728C5
:1041C0007AD136E00021112F01DB112000E0781CAC
:1041D000CDE9000104A90CA8FFF7E6FCDDE90D011B
:1041E0000C9A4FF0000B07F10109109200914EE07C
:1041F0004FF000400097CDE9011004A90CA8FFF78B
:10420000D3FCDDE90D020C9B0F994FF0000B91469A
:104210001093009211B9791C00EB0109B7EB09006A
:1042200003D4C0F1FF3B07F10109A9EB070001909E
:1042300042E0012F00DA01270021112F01DD1120BA
:1042400000E03846CDE9000104A90CA8FFF7ACFC5A
:10425000DDE90D010C9A00914FF0000BB946109268
:1042600021070FD4009A4A4503DA914601E0A9F1EB
:104270000109B9F1010F05DD109AA9F10101515CA5
:104280003029F4D0B84202DA10F1040F03DA012128
:10429000CDE9011010E0002803DC8344A9EB000104
:1042A00002E0411C494500DD8946A0EB0B00401CA3
:1042B00001904FF000400290200705D40198484536
:1042C00002DB4FF0FF30019000208DF84B00029888
:1042D0000DF14B07B0F1004F25D002200C902B20A0
:1042E0000D90029800280CDA404202902D200D908B
:1042F00007E00A210298FCF7FFFB3031029007F833
:10430000011D0C99481E0C900029F2DC029800282F
:10431000EFD1791E0D980870307800F0200040F041
:10432000450007F8020D11A8C01BC01D029013988C
:10433000007800B1012000EB0901019801EBE07168
:10434000029801440398401A401E0390E00306D4EB
:1043500053462146179A039800F05CF805441398D9
:10436000007818B15246179990476D1CE00323D589
:1043700053462146179A039800F04CF805441BE079
:10438000BBF1000F07DB0098584504DD1098179922
:1043900010F80B0001E01799302052469047019821
:1043A0000BF1010B401E05F10105019004D12E20F7
:1043B0005246179990476D1CB9F10001A9F1010906
:1043C000DEDC05E017F8010B5246179990476D1C8B
:1043D0000299481E02900029F4DC53462146179AA0
:1043E00003989EE62D0000002B0000002000000036
:1043F0002DE9F041044600251E461746880404D4E2
:1044000005E039462020B0476D1C641EF9D52846CA
:10441000BDE8F0812DE9F041044600251E46904696
:10442000C80301D5302700E02027880404D505E023
:1044300041463846B0476D1C641EF9D52846BDE894
:10444000F0810A68531C0B601070704710B511485A
:10445000FCF79AFF32210F48FCF7F8FE08B10E482E
:1044600010BD0C48FCF734FEFCF7AAFA6FF00B0104
:10447000FCF7F2F8FCF7E1FA4FF06632074BFCF775
:104480009EF90022064BFCF79AF9BDE81040FCF7B4
:1044900017BB000070000020000080BF66660A4065
:1044A0000000144010B530B1036823B1D0E90121F8
:1044B000914201D204E0002010BD491C816020B16E
:1044C000914202D25C5C202CF7D99142F4D1491E72
:1044D000816010BD70B504460F4E19E0A0892568B3
:1044E000C0050AD4A06820B1FFF7F4FFA089C00579
:1044F00003D4206908B171688847A089800503D476
:10450000206A08B1716888477168204688472C4640
:10451000002CE3D170BD000044000020002200F018
:104520009BB810B5016828208847040002D02821D4
:10453000FBF729FE204610BD0022114600F06EB8A0
:104540002DE9F04788B00F4606469A4615461C21CD
:104550006846FBF718FE2F480024002E04604460D4
:1045600055D08146E7B30096CDE90174D9E902122E
:10457000D9F810000491CDE9052009F10800FFF7F2
:10458000D0FF5FEA00082BD000986F4608B1029870
:1045900008B100200CE00198042808D903221EA1CC
:1045A0000098FBF710FE10B90298C01C0290384624
:1045B000FFF778FF0146404600F048FC68B1BAF1C9
:1045C000000F13D06846FFF76DFFDDE9010181425E
:1045D00003D202990098405C40B14046FFF77AFF51
:1045E000DDE9011088420AD204460BE01DB10299B0
:1045F000009808442860404608B0BDE8F087081ECF
:1046000000D0441E0DB130192860C9E900640020B3
:10461000F2E700003C000020EFBBBF0070B515467C
:104620000E46040009D0FBF7B9FD411C2B4632466B
:104630002046BDE87040FFF783BF002070BD00003A
:1046400013B54FF6FF73012269460248FEF705FBDA
:1046500000981CBD780100202DE9F0418846A8B3E0
:10466000B8F1000F33D085680AB90AE02D686DB340
:10467000296A59B34046FBF798FD0028F6D120E09F
:104680002D681DB32E6A5FEA0804F9D0002EF7D01A
:10469000B44218D002E098B1641C761C2078FBF775
:1046A00053FD07463078FBF74FFD87422078F2D064
:1046B000FBF74AFD04463078FBF746FD8442DFD124
:1046C00025B1286A10B12846BDE8F081FFE7002037
:1046D000FAE700002DE9F0410B3020F00706104DFD
:1046E00019E02068B04215D3B0420AD9871B201DBB
:1046F000D4F80480FBF72EFDA019C0E900782860EB
:1047000004E060682860201DFBF724FD201D266062
:10471000BDE8F081251D2C68002CE2D10020F7E7D0
:104720005400002086B0FDF72DF8FEF78CFEFEF752
:1047300063FBFEF7D7FCFEF7FBFBFEF767FCFEF71B
:104740009BFCFEF731FBFEF743FDFEF724FD002145
:104750007D48FDF7B5FF0C217B48FDF7B1FF3C21FB
:104760007A48FDF7F5FD3C217948FDF7F1FD7748E2
:10477000FDF7ACFC7648FDF7A9FC7348FDF7A6FCF5
:1047800074480068C16841F02001C160FEF70EFE68
:10479000714D724C0A20FCF7C7FE4FF07E50014667
:1047A00000F01AF9DFF8B881D8F80000FCF745F9F5
:1047B000DFF8B09106460F46D9F80000FCF73DF946
:1047C0000B46024668A16C48CDE90067FFF762F925
:1047D00000210C23684A0846FEF7C6FD67480068BA
:1047E000FCF72BF902460B4665A16348FFF752F927
:1047F0000C23614A01210020FEF7B6FDFFF726FEDB
:10480000FCF71BF902460B4661A15B48FFF742F932
:104810000C23594A02210020FEF7A6FD5E4FD8F86E
:1048200000003946FBF7E6FEFCF7CFF806B2394642
:10483000D9F80000FBF7DEFEFCF7C7F84FF49671DD
:1048400000B20B463246FCF777FBFFF79BF80028D7
:1048500060D15248FFF770FE064651A1FFF75EFE99
:1048600058B14FA13046FFF759FED0E9061208466D
:104870001146FCF725F9206068614AA13046FFF730
:104880004DFE58B147A13046FFF748FED0E9061269
:1048900008461146FCF714F96060A86142A1304651
:1048A000FFF73CFE58B140A13046FFF737FED0E994
:1048B000061208461146FCF703F9A060E8613BA127
:1048C0003046FFF72BFE58B138A13046FFF726FEE1
:1048D000D0E9061208461146FCF7F2F8E0602860BD
:1048E00033A13046FFF71AFE60B131A13046FFF721
:1048F00015FED0E9061208461146FCF7E1F82D49ED
:104900002061086016B13046FFF7E4FDFF2123481F
:10491000FBF739FCE068FCF790F882468B46A0680C
:10492000FCF78BF8804689466068FCF786F80646F7
:104930000F462068FCF781F88DE8C00F02460B4651
:104940001DA0FFF797F825E7A0000020E800002051
:10495000300100207801002020030020000000200A
:10496000240000202000002056313A252E326656C1
:10497000323A252E326600005C000020280000201C
:104980004D696C656167653A252E3266000000004E
:10499000553A252E326656000000C842BC01002060
:1049A0007000000069000000640000006100000069
:1049B0006200000040030020503A252E336620207C
:1049C000493A252E33662020443A252E336620416D
:1049D0003A252E33660D0A000C4A10B510600C48BB
:1049E00001600C4801680A48FEF700FDFBF7EDFF87
:1049F0000446094801680548FEF7F8FCFBF7E5FFA7
:104A00002146BDE81040FEF78BBB000020030020CC
:104A10004003002024000020200000202DE9F04168
:104A200007460026C8680C463546B0F57A7F5BD24B
:104A3000401CE0602168A068095C5B2954D1401CDF
:104A4000A0602046FFF72EFD4CB1D4E9011088424A
:104A500003D22268125C5D2A33D0884203D3A06857
:104A6000401EA06040E0401E04F11008A0604046D7
:104A7000FFF757FD98B30EB3286045600546A06860
:104A8000401CA0602046FFF70DFD2146284600F09F
:104A9000DDF930B32046FFF705FD14B3D4E901106A
:104AA000884203D22168095C2C29E0D062689042D8
:104AB00017D22168085C5D2813D102E0064635460E
:104AC000DDE7E068401EE06006B175602020C7E9C0
:104AD0000260A068401CA0600120BDE8F081FFE7F3
:104AE00016B13046FFF7F6FC0020F6E7034610B596
:104AF00000200246995CA1F13004092C01D830381D
:104B00000AE0A1F14104052C01D8373804E0A1F1F5
:104B10006104052C08D857380844032A00D2000144
:104B2000521C042AE6D310BD002010BD2DE9F0412F
:104B300092B04FF000070C0005464FF02E063B46A2
:104B400010973CD02068D0B3694627E02268104413
:104B50001A5C342A1BD00ADCA2F12B00092823D2CC
:104B6000DFE800F015221517221515151500382A53
:104B70000DD006DC352A0AD0362A08D0372A13D1C0
:104B800005E0392A03D0452A01D0652A0CD1CA5440
:104B900000E0CE545B1C3F2B06D22CB1A068D4F8A9
:104BA00004C0C2186245D1D38846CF54404610A9EC
:104BB00000F000FA0F4610990646884503D1002000
:104BC00012B0BDE8F081124A124B30463946C5E9B1
:104BD0000667FBF75DFF02D86FF000400DE0002292
:104BE0000D4B30463946FBF73BFF02D84FF00040F3
:104BF00003E030463946FBF701FF68610820E860B2
:104C0000109AA168A2EB08000844A0600120D7E731
:104C10000000C0FFFFFFDF410000E0C12DE9F041CF
:104C200007460026C8680C463546B0F57A7F78D22C
:104C3000401CE060002C74D0D4E90110884270D28E
:104C40002168095C7B296CD1401CA0602046FFF7DD
:104C500029FCD4E90110884203D22268125C7D2A23
:104C60004CD08842A0F10100A0605AD204F1100893
:104C70004046FFF756FCE8B3F6B1286045600546AC
:104C8000A068401CA0602046FFF70CFC2146284687
:104C900000F049F878B32046FFF704FC2869286241
:104CA000002028613CB3D4E90110884236D2216843
:104CB000095C3A2932D102E006463546E0E7401C5D
:104CC000A0602046FFF7EEFB2146284600F0BEF824
:104CD00088B12046FFF7E6FBD4E90110884203D2F1
:104CE0002168095C2C29C3D06268904216D22168E1
:104CF000085C01E011E011E07D280FD1E068401E62
:104D0000E06006B175604020C7E90260A068401C01
:104D1000A0600120BDE8F08103E016B13046FFF746
:104D2000D9FB0020F6E72DE9F84F8146D1F808803D
:104D300008684FF0000ACDF800A0D1F800C000EBE1
:104D40000804651C1CF80800641C0E4657462228FF
:104D500076D10021706807E05C2B04D1521C82429E
:104D60006AD2491C641C641CA4EB0C02824202D26D
:104D70002378222BF0D1A4EB0C0282425CD2207863
:104D8000222859D10CEB0800201A401A3169401C26
:104D90008847070054D000973DE029785C2905D06A
:104DA00000986D1C00F8011B009034E00221601B8C
:104DB000012841DB6878662814D008DC22281DD041
:104DC0002F281BD05C2819D0622835D108E06E2826
:104DD0000ED072280ED074280ED075282CD112E077
:104DE000082200E00C22009800F8012B009011E04E
:104DF0000A22F8E70D22F6E70922F4E7009A02F802
:104E0000010B009206E06A462146284600F0E0F8D1
:104E1000010011D00D44A542BFD3009981F800A034
:104E20001021C9E903173068201A401CB060012026
:104E3000BDE8F88F04E0FFE717B17169384688478D
:104E400015B13068281AB0600020F1E770B50C0089
:104E500005465ED0216800295BD0A0686368021D0A
:104E60009A4205D80844042231A1FBF7ACF978B383
:104E7000A0686268411D0126914206D8216805227A
:104E800008442DA1FBF79FF928B3A0686268011DB3
:104E9000914206D821680422084429A1FBF793F91E
:104EA000E8B1D4E90101814203D22268525C222A8E
:104EB0001DD0814221D22268525C2D2A02D0303A84
:104EC000092A1AD821462846BDE87040FFF72EBEB1
:104ED0000420E86006E0EE60A068401D04E00220C7
:104EE0006E61E860A068001DA060012070BD2146D1
:104EF0002846BDE87040FFF716BF814203D2226802
:104F0000525C5B2A07D0814203D22068405C7B2838
:104F100007D0002070BD21462846BDE87040FFF74D
:104F20007DBD21462846BDE87040FFF777BE0000F2
:104F30006E756C6C0000000066616C7365000000AB
:104F400074727565000000002DE9F04704008A4680
:104F500016D054F8047CD4F800903E1F564500D972
:104F600056462046FEF7BAFD05468846324621469B
:104F70005046FFF7AFFB40B1C0F80090BDE8F087A6
:104F8000BDE8F0470846FEF7D7BD44E9017955B1C1
:104F900029686A18211F8A4202D9611B091F2960EA
:104FA000C5F80480EAE7024AC2F80080E6E700009C
:104FB0005400002000B583B00A460021CDE900115D
:104FC00001466846FBF73BFEDDE9000103B000BD8A
:104FD0002DE9F04707460026C81B144689460628D7
:104FE0005CDBB81CFFF782FD0546A0F55C404FF482
:104FF0008061884252D3A5F558408A4650451AD25E
:10500000B81DA9EB00014FF00C08062946DB01781A
:105010005C2943D14178752940D1801CFFF766FD9A
:10502000A0F55C41514539D2C5F3090161F39F20D8
:1050300000F5803002E04FF006082846802801D2B3
:10504000012210E0B0F5006F02D20222C0260AE071
:10505000B0F5803F02D20322E02604E0B0F5881FBD
:105060001CD20422F026511E07E000F0BF03256881
:1050700043F0800380096B54491E11F0FF01F4D105
:10508000012A01D9304301E000F07F002168087057
:105090002068104420604046BDE8F0870020FBE710
:1050A00000000000000000000102030406070809D8
:1050B00000000000010203040000000000000000E6
:1050C000002F000000000700070000147F147F1469
:1050D00000242A7F2A1200626408132300364955EF
:1050E000225000000503000000001C2241000000C7
:1050F00041221C000014083E08140008083E08085D
:10510000000000A0600000080808080800006060B7
:105110000000002010080402003E5149453E0000F6
:10512000427F4000004261514946002141454B31D8
:10513000001814127F10002745454539003C4A49A4
:105140004930000171090503003649494936000616
:105150004949291E0000363600000000563600007E
:1051600000081422410000141414141400004122F9
:10517000140800020151090600324959513E007CD1
:105180001211127C007F49494936003E41414122BB
:10519000007F4141221C007F49494941007F0909A4
:1051A0000901003E4149497A007F0808087F000054
:1051B000417F4100002040413F01007F081422410F
:1051C000007F40404040007F020C027F007F0408C7
:1051D000107F003E4141413E007F09090906003E23
:1051E0004151215E007F091929460046494949314C
:1051F0000001017F0101003F4040403F001F20406F
:10520000201F003F4038403F00631408146300072C
:105210000870080700615149454300007F41410083
:1052200000552A552A55000041417F000004020123
:105230000204004040404040000001020400002001
:1052400054545478007F484444380038444444203F
:1052500000384444487F00385454541800087E09EC
:1052600001020018A4A4A47C007F080404780000B4
:10527000447D4000004080847D00007F1028440071
:105280000000417F4000007C04180478007C080482
:10529000047800384444443800FC242424180018BE
:1052A000242418FC007C08040408004854545420AA
:1052B00000043F444020003C4040207C001C204033
:1052C000201C003C4030403C004428102844001C76
:1052D000A0A0A07C004464544C441414141414146E
:1052E00000000000000000000000000000000000BE
:1052F000000000F800000000000000333000000053
:1053000000100C06100C0600000000000000000059
:1053100040C07840C0784000043F04043F040400CB
:10532000007088FC08300000001820FF211E0000DB
:10533000F008F000E018000000211C031E211E00F0
:1053400000F00888700000001E2123241927211076
:1053500010160E0000000000000000000000000019
:10536000000000E0180402000000000718204000C0
:1053700000020418E00000000040201807000000B0
:10538000404080F0804040000202010F0102020014
:10539000000000F0000000000101011F01010100F8
:1053A000000000000000000080B07000000000005D
:1053B00000000000000000000001010101010101E6
:1053C000000000000000000000303000000000007D
:1053D0000000000080601804006018060100000052
:1053E00000E010080810E000000F102020100F004F
:1053F000001010F8000000000020203F20200000D6
:10540000007008080888700000302824222130002D
:1054100000300888884830000018202020110E0035
:105420000000C02010F8000000070424243F2400DE
:1054300000F80888880808000019212020110E00B3
:1054400000E0108888180000000F112020110E00C5
:1054500000380808C83808000000003F00000000BD
:105460000070880808887000001C222121221C007E
:1054700000E010080810E0000000312222110F00A7
:10548000000000C0C000000000000030300000003C
:1054900000000080000000000000806000000000AC
:1054A00000008040201008000001020408102000C5
:1054B0004040404040404000040404040404040010
:1054C00000081020408000000020100804020100A5
:1054D000007048080808F0000000003036010000A5
:1054E000C030C828E810E0000718272423140B0058
:1054F0000000C038E0000000203C230202273820D2
:1055000008F8888888700000203F202020110E00B5
:10551000C0300808080838000718202020100800AC
:1055200008F808080810E000203F202020100F0095
:1055300008F88888E8081000203F20202320180061
:1055400008F88888E8081000203F200003000000C9
:10555000C03008080838000007182020221E02006A
:1055600008F808000008F808203F210101213F2029
:10557000000808F8080800000020203F2020000054
:1055800000000808F8080800C08080807F00000044
:1055900008F888C028180800203F2001263820007D
:1055A00008F8080000000000203F202020203000E4
:1055B00008F8F800F8F80800203F003F003F2000FE
:1055C00008F830C00008F808203F200007183F0006
:1055D000E01008080810E0000F10202020100F0035
:1055E00008F808080808F000203F21010101000028
:1055F000E01008080810E0000F18242438504F006D
:1056000008F8888888887000203F2000030C30202C
:1056100000708808080838000038202121221C006A
:10562000180808F8080818000000203F20000000B3
:1056300008F808000008F808001F202020201F009C
:105640000878880000C83808000007380E010000FC
:10565000F80800F80008F800033C0700073C0300C6
:10566000081868808068180820302C03032C30202C
:105670000838C800C83808000000203F200000009B
:1056800010080808C83808002038262120201800F3
:10569000000000FE020202000000007F40404000C7
:1056A000000C30C000000000000000010638C000FF
:1056B00000020202FE000000004040407F000000A7
:1056C00000000402020204000000000000000000CC
:1056D00000000000000000008080808080808080CA
:1056E00000020204000000000000000000000000B2
:1056F00000008080808000000019242222223F20A8
:1057000008F8008080000000003F112020110E00EA
:105710000000008080800000000E11202020110079
:10572000000000808088F800000E112020103F202B
:105730000000808080800000001F222222221300AF
:10574000008080F0888888180020203F20200000FA
:105750000000808080808000006B949494936000AF
:1057600008F8008080800000203F210000203F20BA
:1057700000809898000000000020203F20200000BA
:10578000000000809898000000C08080807F0000AA
:1057900008F8000080808000203F24022D30200087
:1057A000000808F8000000000020203F2020000032
:1057B0008080808080808000203F20003F20003F4C
:1057C0008080008080800000203F210000203F205A
:1057D0000000808080800000001F202020201F000B
:1057E000808000808000000080FFA12020110E003A
:1057F0000000008080808000000E112020A0FF802B
:10580000808080008080800020203F2120000100D7
:10581000000080808080800000332424242419002C
:10582000008080E0808000000000001F2020000039
:105830008080000000808000001F202020103F207A
:10584000808080000080808000010E30080601000A
:1058500080800080008080800F300C030C300F00AF
:1058600000808000808080000020312E0E312000DA
:10587000808080000080808080818E70180601000A
:1058800000808080808080000021302C2221300028
:1058900000000000807C020200000000003F404049
:1058A00000000000FF00000000000000FF000000FA
:1058B0000002027C800000000040403F0000000029
:1058C00000060101020204040000000000000000C4
:1058D000DDDDDDDDDCBBBBDDDDDDDDDDDDDDDDDD3D
:1058E000988888888888888877777777778888887D
:1058F0008555555666666666666666666668888815
:105900008333333222222222222222222228888D0D
:1059100030590008000000205C000000883B0008AF
:105920008C5900085C00002004130000983B00081C
:105930000000000000000000000000000000000067
:105940000000000000000000000000000000000057
:105950000000000000000000000000000100000046
:1059600010000000000000000024F400000000000F
:1059700000000000393B0008DD3A0008494F0008EC
:0C5980000000000000000000000000001B
:04000005080000ED02
:00000001FF
