:020000040800F2
:100000002008002005010008B3110008F10E0008C7
:10001000B1110008C7010008B71600080000000071
:100020000000000000000000000000005F13000856
:10003000C9010008000000005D13000861130008FA
:100040001F0100081F0100081F0100081F01000810
:100050001F0100081F0100081F0100081F01000800
:100060001F0100081F010008D30100081F0100083C
:100070001F0100081F0100081F0100081F010008E0
:100080001F0100081F0100081F0100081F010008D0
:100090001F0100081F0100081F0100081F010008C0
:1000A0001F0100081F0100081F0100081F010008B0
:1000B0001F0100081F0100081F0100081F010008A0
:1000C0001F0100081F0100081F0100081F01000890
:1000D0001F0100081F0100081F0100081F01000880
:1000E000CB0100081F0100081F010008DFF810D035
:1000F00000F02CF80048004701180008AFF300801A
:10010000200800200648804706480047FEE7FEE733
:10011000FEE7FEE7FEE7FEE7FEE7FEE7FEE7FEE7B7
:10012000C1130008ED000008D2B201E000F8012B75
:10013000491EFBD270470022F6E710B513460A4667
:1001400004461946FFF7F0FF204610BD064C074D48
:1001500006E0E06840F0010394E807009847103497
:10016000AC42F6D3FFF7C6FFF418000814190008D4
:1001700070B58C1810F8015B15F0070301D110F869
:10018000013B2A1106D110F8012B03E010F8016B96
:1001900001F8016B5B1EF9D12B0705D40023521E19
:1001A0000DD401F8013BFAE710F8013BCB1A921C81
:1001B00003E013F8015B01F8015B521EF9D5A1427F
:1001C000D8D3002070BDFEE770474FF4805000F098
:1001D00025B8102000F022B872B6FEE770B50446CC
:1001E00000F01CF90546601C02D004480078044465
:1001F00000F014F9401BA042FAD370BD00000020AB
:10020000054A4FF40051102802D0B0F5805F02D1AA
:10021000104600F0F5B8704700100140044910B5D1
:100220000A68024202D00860FFF7EAFF10BD000032
:10023000140401402DE9F84FDFF8A491002409F1DE
:10024000040A0AF1040B23464FF00F080BF1040EC9
:10025000BEE00127A7403A40BA4272D1DFF884C11C
:100260004D68A5EB0C0665452BD00DDC032D34D075
:1002700005DC35B3012D19D0022D2FD11BE0112D36
:1002800016D0122D2AD119E0B6F5881F19D006DC38
:10029000B6F5803F15D0B6F5801F1FD111E0B6F539
:1002A000001F0ED0B6F5041F18D10AE0CB6815E088
:1002B000CB681B1D12E0CB6808330FE0CB680C3312
:1002C0000CE08B682BB1012B4FF0080303D0476182
:1002D00004E0042302E0076100E00023FF2A01D8C4
:1002E000064601E000F104064FEA840501D9A5F1B4
:1002F0002005376808FA05FC27EA0C0703FA05F51C
:1003000047EA050737604D68ED0060D5364DAE69A8
:1003100046F00106AE61AD6924F0030605F0010563
:100320000095324D7719BE68A5072D0F08FA05FC18
:1003300026EA0C06DFF8B8C0604503D14FF0000C88
:1003400017E044E0DFF8ACC0604502D14FF0010C8B
:100350000FE0DFF8A4C0604502D14FF0020C08E0C6
:10036000DFF898C0604502D14FF0030C01E04FF078
:10037000040C0CFA05FC4CEA060CC7F808C04D68E2
:10038000D9F80060ED034D4601D5164300E09643D1
:100390002E604D68DAF80060AD03554601D516436E
:1003A00000E096432E604D68DBF80060ED025D468C
:1003B00001D5164300E096432E604D68DEF80060DC
:1003C000AD02754601D5164300E096432E60641CCD
:1003D0000A6832FA04F57FF43CAFBDE8F88F0000FC
:1003E0000004014000001110001002400000014014
:1003F00000080140000C01400010014000140140C1
:10040000C26821EA02030A4043EA024101617047DF
:100410000AB1016170470904FBE7000001488068E8
:1004200070470000000000200248816802781144F3
:100430008160704700000020074810B5016841F056
:1004400010010160032000F075F80F2000F006F89D
:1004500000F024F8002010BD0020024070B50D4DC2
:1004600004464FF47A712878B1FBF0F00A49096824
:10047000B1FBF0F000F0EEFA48B9102C07D20022E0
:100480002146501E00F036F800206C6070BD01203F
:1004900070BD0000000000200C0000200C4808B5D2
:1004A000816941F001018161816901F001010091DF
:1004B000C16941F08051C161C069064900F08050B6
:1004C0000090486820F0E06040F00070486008BD8F
:1004D0000010024000000140002809DB00F01F026C
:1004E000012191404009800000F1E020C0F8001196
:1004F00070470000F0B40E4B1B68C3F30223C3F136
:100500000704042C00D904241D1D072D01D200234B
:1005100000E0DB1E012606FA04F56D1E0D409D402D
:100520009E40761E164045EA0601F0BC01F02CB94B
:100530000CED00E0064A00F0070110684FF6FF03DB
:10054000184040EA0120034908431060704700004A
:100550000CED00E00000FA052DE9F0470D4604001F
:1005600067D0DFF81881D8F8000000F00700A84233
:100570000CD2D8F8001021F007012943C8F8001068
:10058000D8F8000000F00700A84252D120683C4E85
:10059000810712D5400703D5706840F4E0607060B1
:1005A0002078000703D5706840F460507060706870
:1005B000A16820F0F000084370602078C00727D0C1
:1005C0006068012810D03168022810D089070029FE
:1005D0002FDA716821F0030101437160FFF71EFFFC
:1005E000074641F288390CE031688903EFE7890159
:1005F000EDE7FFF713FFC11B494502D90320BDE812
:10060000F0877068616800F00C00B0EB810FF0D1EA
:10061000D8F80010404601F00701A9420BD9016843
:1006200021F0070129430160006800F00700A8429B
:1006300001D00120E3E72078400705D57068E16824
:1006400020F4E060084370602078000706D57068E9
:10065000216920F4605040EAC100706000F038F871
:100660007168084AC1F30311515CC840064908602B
:1006700006480068FFF7F2FE0020C0E700200240B5
:1006800000100240DC1800080C00002004000020CC
:100690000448054900684968044AC1F30221515CD5
:1006A000C84070470C00002000100240EC18000801
:1006B0000448054900684968044AC1F3C221515CF5
:1006C000C84070470C00002000100240EC180008E1
:1006D00012A085B00FC88DE80F0014A0144B00685D
:1006E00004905968134801F00C02042A10D0082A1B
:1006F0000ED1C1F38342C9031DF802000AD559681F
:1007000004AAC1F34041515C0A4A5043B0FBF1F0E6
:1007100005B0704708494843FAE7000002030405A2
:10072000060708090A0B0C0D0E0F1010010200003D
:100730000010024000127A0000093D002DE9F84F38
:1007400004006FD02078BE4DC00747D06868C0F362
:100750008100012807D06868C0F38100022809D110
:100760006868C00306D52868800337D5606800280C
:10077000E7D033E06068B0F5803F0BD010B1B0F542
:10078000A02F11D0286820F480302860286820F439
:10079000802002E0286840F480302860606888B1DA
:1007A000FFF73CFE064609E0286840F480202860F8
:1007B000F0E7FFF733FE801B642873D828688003B6
:1007C000F7D50BE0FFF72AFE064604E0FFF726FE0A
:1007D000801B6428F1D828688003F7D42078DFF8DC
:1007E000648280074FF0010A4FF0000939D568682C
:1007F00010F00C0F07D06868C0F38100022809D1FF
:100800006868C00306D42868800714D520690128C9
:1008100008D110E02069B0B1C8F800A0FFF7FEFDD4
:10082000064605E007E1FFF7F9FD801B0228C4D862
:1008300028688007F7D52868616920F0F80040EA49
:10084000C10028600DE0C8F80090FFF7E7FD0646FC
:1008500004E0FFF7E3FD801B022823D82868800707
:10086000F7D4207800072CD57748A169D9B1C0F812
:1008700000A0FFF7D3FD064604E0FFF7CFFD801B85
:1008800002280FD8686A8007F7D570484FF4FA51EC
:100890000068B0FBF1F0009000BF0098411E00918D
:1008A000FAD20EE07CE0C0F80090FFF7B7FD0646F4
:1008B00004E0FFF7B3FD801B022871D8686A800747
:1008C000F7D4207840075BD5E8690027C00008D43A
:1008D000E86940F08050E861E869012700F0805045
:1008E00000905B480168C90511D40168834641F452
:1008F00080710160FFF792FD064604E0FFF78EFD70
:10090000801B64284CD8DBF80000C005F6D5E068F1
:1009100001280AD008B1052813D0286A20F0010068
:100920002862286A20F0040002E0286A40F00100F2
:100930002862E06841F2883B88B1FFF76FFD064608
:1009400009E0286A40F004002862EEE7FFF766FD40
:10095000811B59455BD8286A8007F7D50BE0FFF764
:100960005DFD064604E0FFF759FD811B59454ED851
:10097000286A8007F7D41FB1E86920F08050E86149
:10098000E069A8B36968C1F38101022946D0022851
:10099000484606D0C8F86000FFF740FD044639E03D
:1009A00035E04746C8F86000FFF738FD064604E02A
:1009B000FFF734FD801B022829D828688001F7D46E
:1009C000206AB0F5803F05D16868A16820F4003046
:1009D00008436860D4E908010843696821F4741188
:1009E00008436860C7F860A0FFF718FD044605E0FB
:1009F00023E0FFF713FD001B022808D828688001B8
:100A0000F7D51AE0FFF70AFD001B022802D90320E0
:100A1000BDE8F88F28688001F4D40EE00128F7D0F3
:100A20006868226A00F48031914204D1616A00F45E
:100A30007010884201D00120EAE70020E8E70000BA
:100A40000010024000004242800442420C0000209C
:100A50000070004010B5401EB0F1807F01D301202E
:100A600010BD4FF0E02460610F21601700F08CFE94
:100A70000020A06107202061002010BD10B590F873
:100A80003C20012A22D0012280F83C20CA688C68D0
:100A900022F4407222434C6822F4806222430C68A4
:100AA00022F4006222430C6922F4805222434C69F2
:100AB00022F400522243C969002322F480420A43EF
:100AC00001684A6480F83C30002010BD022010BD4F
:100AD00070B590F83C20012A26D0012580F83C50C2
:100AE000022280F83D2002685368946823F0700663
:100AF0000B68334353600D4B02689A4208D0B2F141
:100B0000804F05D00A4B9A4202D00A4B9A4204D138
:100B1000496824F080031943916080F83D5000211A
:100B200080F83C10084670BD022070BD002C0140CA
:100B3000000400400008004000B585B0002100918D
:100B400001910291039100680B49884212D10B4830
:100B5000816941F0040181618069694600F0040007
:100B600004904FF41060009002200190039004481C
:100B7000FFF760FB05B000BD002C014000100240F3
:100B80000008014070B5044690F83C000D4601286D
:100B90000AD0012084F83C0042B1042A18D0082A67
:100BA0002AD00C2A4DD139E0022070BD206800F017
:100BB0004DFC2068816941F00801816120688169EC
:100BC00021F004018161206881692A69114311E0E3
:100BD000206800F067FC2068816941F40061816150
:100BE0002068816921F480618161206881692A69B6
:100BF00041EA0221816124E0206800F081FC206844
:100C0000C16941F00801C1612068C16921F0040196
:100C1000C1612068C1692A69114311E0206800F0B0
:100C20009BFC2068C16941F40061C1612068C16911
:100C300021F48061C1612068C1692A6941EA022109
:100C4000C161002084F83C0070BD10B5040003D0E1
:100C500094F83D0010B107E0012010BD002084F899
:100C60003C00204600F01EF8022084F83D00211DC3
:100C7000206800F0A7FB012084F8460084F83E00BD
:100C800084F83F0084F8400084F8410084F8420072
:100C900084F8430084F8440084F8450084F83D005B
:100CA000002010BD08B500680649884208D10648F2
:100CB000816941F400618161806900F40060009005
:100CC00008BD0000002C01400010024010B5044691
:100CD00049B104290AD008290BD094F84100012811
:100CE0000AD0012010BD94F83E00F8E794F83F00C8
:100CF000F5E794F84000F2E7022041B3042929D037
:100D000008292AD084F841000122206800F090FBD5
:100D100013492068884203D1426C42F40042426485
:100D20002068884208D0B0F1804F05D00D49884234
:100D300002D00D49884204D1816801F007010629DB
:100D400003D0016841F001010160002010BD84F86A
:100D50003E00D9E784F83F00D6E784F84000D3E7A7
:100D6000002C0140000400400008004070B5040061
:100D700004D094F83D00002510B106E0012070BDBC
:100D800084F83C50204600F023F8242084F83D00ED
:100D90002068C16821F40051C160204600F0FEFBCC
:100DA0002068016921F4904101612068416921F0C6
:100DB0002A0141612068C16841F40051C160256485
:100DC000202084F83D0084F83E00002070BD000023
:100DD00030B585B000240094019402940394006817
:100DE0001449884224D11448816941F480418161C9
:100DF000816901F480410491816941F004018161BC
:100E000080690E4D00F0040004904FF400700090D3
:100E1000022001900320039069462846FFF70AFA52
:100E20002815CDE90004694628460294FFF702FA26
:100E300005B030BD003801400010024000080140FC
:100E40002DE9F843044690F83D001F4615460E462E
:100E500020284BD1C6B1BDB194F83C00012845D043
:100E6000012084F83C004FF00008C4F840802120A5
:100E700084F83D00FFF7D2FAA5848146E584A06896
:100E8000B0F5805F03D004E00120BDE8F88320695D
:100E900020B13546002684F83C800EE00025FAE7B4
:100EA0008021204600F0D6FBA0B9ADB115F8010BAA
:100EB00021684860E08C401EE084E08C4B464FF097
:100EC000000200970028EBD14FF04001204600F0CF
:100ED000C1FB30B10320D8E736F8020BC0F308009D
:100EE000E6E7202084F83D000020CEE70220CCE792
:100EF000FEE700002DE9F04101220C4DD40321460C
:100F00002846FFF785FA0122094F16033146384675
:100F1000FFF77EFA002231463846FFF779FA21467C
:100F20002846BDE8F0410022FFF772BA00080140F0
:100F3000000C014070B50122D1030948FFF768FA9F
:100F4000084D4FF48054002221462846FFF760FAEE
:100F500021462846BDE870400122FFF759BA00003B
:100F600000080140000C014070B50122064DD40379
:100F700021462846FFF74CFA21462846BDE8704036
:100F80000022FFF745BA0000000801402DE9F04FAC
:100F900085B000244548009401940294039481692B
:100FA00041F010018161816901F0100104918169B2
:100FB00041F020018161816901F020010491816982
:100FC00041F008018161816901F0080104918169A2
:100FD00041F0040181618069DFF8D4A000F00400D1
:100FE0004FF400550490002229465046FFF710FAAE
:100FF0000122170339462F48FFF70AFA42F2080880
:10100000002241462B48FFF703FADFF8ACB04FF45B
:101010000049012249465846FFF7FAF90095022691
:1010200001250396CDE9015469465046FFF702F9C0
:10103000CDE90075CDE9025669461E48FFF7FAF87A
:10104000CDF800800396CDE9015469461948FFF7B1
:10105000F1F81A480097CDE9010569465846FFF7AF
:10106000E9F8CDE90095CDE9025669465846FFF703
:10107000E1F8102000901248CDE9010669460D48BC
:10108000FFF7D8F8002211460A20FFF733FA0A20AA
:10109000FFF722FA002211462820FFF72BFA28201A
:1010A000FFF71AFA05B0BDE8F08F0000001002400B
:1010B00000100140000C0140000801400000211018
:1010C0000000111010B592B000240F941C21684646
:1010D0001094FFF730F8202107A8FFF72CF82548D7
:1010E0002349016040F29F51C0E901146321C0E926
:1010F000031444618461FFF7A8FD08B1FFF76CF8A1
:101100000F940FA91B481094FFF7E2FC08B1FFF7FA
:1011100063F8602000903220CDE901040394049428
:1011200005940022694613480694FFF72BFD08B189
:10113000FFF752F80C2269460E48FFF723FD08B16D
:10114000FFF74AF80794089409944FF400500A9462
:10115000CDE90B4007A907480E94FFF78FFC08B1B3
:10116000FFF73AF80348FFF7E7FC12B010BD0000A4
:10117000002C0140940300200C4810B50A4901607E
:101180004FF4E1314160002181600C22C160C0E96F
:1011900004128161C161FFF7E9FD002803D0BDE8B9
:1011A0001040FFF719B810BD00380140DC030020E3
:1011B000FEE7FEE770B50025002105F1B00000F064
:1011C000C7F80021084600F0C3F80021102000F005
:1011D000BFF800240121002000F0BAF8641CE4B23A
:1011E000802CF7D36D1CEDB2082DE5D370BD10B582
:1011F0004FF44870FEF7F2FF0021AE2000F0A8F88F
:101200000021084600F0A4F80021102000F0A0F80A
:101210000021402000F09CF80021B02000F098F858
:101220000021812000F094F80021FF2000F090F8C8
:101230000021A12000F08CF80021A62000F088F801
:101240000021A82000F084F800213F2000F080F861
:101250000021C82000F07CF80021D32000F078F8AD
:101260000021084600F074F80021D52000F070F845
:101270000021802000F06CF80021D82000F068F8F0
:101280000021052000F064F80021D92000F060F86A
:101290000021F12000F05CF80021DA2000F058F87D
:1012A0000021122000F054F80021DB2000F050F85B
:1012B0000021302000F04CF800218D2000F048F88B
:1012C0000021142000F044F80021BDE81040AF20B8
:1012D00000F03EB810B50A460446002102F1B00005
:1012E00000F036F8102040EA1410002100F030F829
:1012F00004F00F00BDE81040002100F029B8000004
:101300002DE9F04115460E460746FFF7E3FF0F486B
:10131000002400EB85150121285D00F019F8641CFC
:10132000E4B2102CF7D3761CF1B23846FFF7D2FFA7
:1013300000242819012190F8200000F009F8641C0D
:10134000E4B2102CF5D3BDE8F081000010000020BD
:10135000C0B209B100F0F9B900F0E0B970477047C8
:10136000FFF762B830B58FB028216846FEF7E3FE7C
:1013700014210AA8FEF7DFFE0120010400248DE8F5
:10138000130004904FF4E010CDE9081002250795F2
:101390006846FFF7D3F908B172B6FEE70F20CDE932
:1013A0000A054FF48060CDE90C4002210AA80E9492
:1013B000FFF7D2F8002801D072B6FEE70FB030BDBB
:1013C00070470000F0B50268164C174D174E4FF0ED
:1013D0008047A04205D0B84203D0A84201D0B04215
:1013E00003D122F070034A681A43A04205D0B842E4
:1013F00003D0A84201D0B04203D122F44073CA689E
:101400001A434B6922F080021A4302608A68C26262
:101410000A688262A04201D1096901630121416128
:10142000F0BD0000002C0140000400400008004016
:1014300010B501F01F010123046A8B409C43046234
:10144000036A8A401343036210BD000030B5026A8C
:1014500022F001020262036A4268846924F0730583
:101460000C682C4323F002058B682B430C4DA842DB
:1014700006D123F00805CB6843EA050323F00403F3
:1014800007D14D6922F4407245EA02058A6942EAB1
:1014900005024260846149684163036230BD000017
:1014A000002C014030B5026A22F010020262026A8A
:1014B000436884690D6824F4E64444EA05248D6891
:1014C00022F0200242EA05120C4DA84206D1CD6856
:1014D00022F0800242EA051222F0400207D14D6953
:1014E00023F4406343EA85038D6943EA850343603F
:1014F000846149688163026230BD0000002C0140B4
:1015000030B5026A22F480720262036A4268C469DA
:1015100023F4007324F073050C682C438D6843EAB0
:1015200005230C4DA84206D1CD6823F4006343EA9D
:10153000052323F4806307D14D6922F4405242EA27
:1015400005128D6942EA05124260C4614968C163AF
:10155000036230BD002C014030B5026A22F4805293
:101560000262036A4268C4690D6824F4E64444EAEE
:1015700005248D6823F4005343EA0533064DA84241
:1015800004D14D6922F4804242EA85124260C4616E
:1015900049680164036230BD002C014070B5044607
:1015A00000680169E26821F4405111430161A168BA
:1015B00020690143606901432068C26841F20C63FD
:1015C0009A430A43C26020684169A26921F44071CC
:1015D000114341611E492068884202D1FFF768F833
:1015E00001E0FFF755F800EBC00101EB0011606866
:1015F00064228000B1FBF0F3B3FBF2F36FF0180646
:101600007343B1FBF0F5B1FBF0F605EB8305322334
:1016100003EB0515B5FBF2F5B6FBF2F605F0F005A8
:1016200005EB0615B1FBF0F6B1FBF0F0B0FBF2F004
:101630006FF01801484306EB800003EB0010B0FB8D
:10164000F2F0216800F00F002844886070BD0000AF
:10165000003801402DE9F0411E46174688460446F1
:10166000069D1CE0681C1AD025B1FEF7D7FE801B32
:10167000A84214D92068C16821F4D071C1602068E3
:10168000416921F001014161202084F83D0084F886
:101690003E00002084F83C000320BDE8F081206873
:1016A000016838EA010004D00020B842DAD00020F6
:1016B000F3E70120F9E7FEE72DE9F047154F04466F
:1016C0004FF40046002231463846FEF7A1FEDFF80F
:1016D000489000254FF4805804F08000802816D0F0
:1016E000002241464846FEF793FE6006040E0122A2
:1016F00031463846FEF78CFE002231463846FEF76A
:1017000087FE6D1CEDB2082DE6D3BDE8F0870122FF
:10171000E7E7000000080140000C014010B5044656
:10172000FFF7E8FB7820FFF7C7FFFFF71DFC00205D
:10173000FFF7C2FFFFF718FC2046FFF7BDFFFFF7DA
:1017400013FCBDE81040FFF7F5BB10B50446FFF7EA
:10175000D1FB7820FFF7B0FFFFF706FC4020FFF732
:10176000ABFFFFF701FC2046FFF7A6FFFFF7FCFBEE
:10177000BDE81040FFF7DEBB014A024900F023B884
:10178000E9170008900300200907090E002804DB70
:1017900000F1E02080F80014704700F00F0000F125
:1017A000E02080F8141D704702E008C8121F08C12D
:1017B000002AFAD170477047002001E001C1121FD2
:1017C000002AFBD170472DE9F04116460F4604462A
:1017D000002503E03946B047641C6D1C20780028C2
:1017E000F8D12846BDE8F08113B54FF6FF7301220A
:1017F00069460248FFF724FB00981CBDDC0300206B
:10180000FEF71AFEFFF7AEFDFFF7C0FBFFF7B4FCD3
:10181000FFF758FCFFF7EBFCFFF7CCFC0021274853
:10182000FFF754FA0C212548FFF750FA234C244DBA
:101830004FF000085A274FF47A764FF00A09002239
:1018400011461046FFF75CFD012200211220FFF730
:1018500057FD022200212420FFF752FD0322002120
:101860003620FFF74DFD042200214820FFF748FDF8
:10187000052200215A20FFF743FD062200216C209B
:10188000FFF73EFD2168C1F84080206847630022D1
:1018900008212846FEF7BCFD3046FEF79FFC216874
:1018A000C1F83490012208212846FEF7B1FD3046E8
:1018B000FEF794FC03A0FFF75FFFC0E7940300204E
:1018C000000C01407072696E74663ABAC3BCD2BB38
:1018D000EF564343B2E2CAD40D0A000000000000F4
:1018E00000000000010203040607080900000000D0
:1018F00001020304141900080000002094030000F2
:1019000070010008841A0008940300208C04000071
:10191000B8170008320182103324F41BF010012A9A
:10192000FF050215F01B0F04012AFF0502130F1813
:10193000094040405F55555575041A5F0C09112147
:10194000080C11200F094989790909090F201F1175
:101950002FFE02424ACA4A0304134202FE000E143A
:10196000FF40504C4340404F50505C40FF1BF888B4
:10197000012AFF050215F81B1F08012A7F200B1002
:101980009F80E23B808201000916E2A2928A868251
:101990008080041840807F172424A4FEA3221B22E9
:1019A000CCAA011415080601FF2B0104010511FF43
:1019B0000202025808101010FF109008C30211080C
:1019C000080F100444827F01808040432C10284679
:1019D00081A018094040484848C8784F0605154876
:1019E0004840400009150312122222528A063C1078
:1019F0006080BA19040B11C030FB1E404043407F89
:101A0000061C7F424106094FC02941080B1110D026
:101A100030FF30D0121C10101F3D080402019E0D33
:101A20001101020408211116FE222222FE0712FED5
:101A3000828292A29E100880601F0242827F0F1154
:101A4000FF402F102C438011000B1490884C57A49A
:101A50002454548C84180801018042221A07441D22
:101A6000423E01018AF9E1000D14E4242CB425263C
:101A700024B42C24E404180AFF02011E1212121EC0
:041A80004186011684
:04000005080000ED02
:00000001FF
