:020000040800F2
:100000003013002005010008352A0008FD250008EE
:10001000BD290008D10E00080132000800000000D0
:10002000000000000000000000000000E12C0008BB
:10003000D30E000800000000DF2C0008E32C0008AD
:100040001F0100081F0100081F0100081F01000810
:100050001F0100081F0100081F0100081F01000800
:100060001F0100081F010008DD0E00081F01000825
:100070001F0100081F0100081F0100081F010008E0
:100080001F0100081F0100081F0100081F010008D0
:100090001F0100081F0100081F0100081F010008C0
:1000A0001F010008452D00081F0100081F0100085E
:1000B000512D00081F0100085D2D00081F010008D8
:1000C0001F0100081F0100081F0100081F01000890
:1000D0001F010008BD3100081F0100081F010008B2
:1000E000D50E00081F0100081F010008DFF810D01E
:1000F00000F080FE004800474D3F0008AFF300804D
:10010000301300200648804706480047FEE7FEE718
:10011000FEE7FEE7FEE7FEE7FEE7FEE7FEE7FEE7B7
:10012000432D0008ED000008202A04DB203A21FAC4
:1001300002F00021704721FA02F3D040C2F1200200
:100140009140084319467047A0F14101192900D890
:100150002030704740EA01039B0703D009E008C93B
:10016000121F08C0042AFAD203E011F8013B00F87C
:10017000013B521EF9D27047D2B201E000F8012BC8
:10018000491EFBD270470022F6E710B513460A4617
:1001900004461946FFF7F0FF204610BD421C10F838
:1001A000011B0029FBD1801A704710B5002200E026
:1001B000521C835C8C5CA34201D1002BF8D1D8B2D5
:1001C000E1B2401A10BD30B505460020034600E0FC
:1001D0005B1C934205D2EC5CC85C201A01D1002C58
:1001E000F6D130BD2DE9FF4F087883B09946FF283E
:1001F00005D0491C2D2804D00024002008E0002050
:100200000BE00124F9E700EB800003EB4000491C00
:100210000B78FF2BF7D104B14042002302931478EE
:1002200019461D462D2C01D02B2C04D1521C2D2CEF
:1002300013D000240294AA461478FF2C0FD00A256C
:10024000A3FB057801FB05814FF0000C03FB0C11AB
:10025000521CE3194AEB0101EEE70124EAE781446D
:1002600053EA010002D019F5C87F06DA039800218D
:10027000C0E9001107B0BDE8F08F0025AE4E2F4653
:10028000DFF8B882184600F091FDCDE90001B9F120
:10029000000002DAC9F1000400E004460023A74A86
:1002A0001AEB030B42EB045A12E0E00707D02A4690
:1002B00033463846414600F076FA074688462A46D5
:1002C00033461046194600F06EFA05460E46641095
:1002D000002CEAD1DDE90001B9F1000F5A4653467E
:1002E00006DA00F0D2FA3A46434600F0CEFA05E0CC
:1002F00000F059FA3A46434600F055FA029A0AB11C
:1003000081F00041039AC2E90001B3E72DE9FF4FF4
:100310001F468DB0D7E901464FF0FF382E204546E5
:100320004FF000090B90B9696D1C0E988847396A27
:10033000824688470028F6D1BAF1FF3F0AD024F45C
:10034000D064002E11DDBAF12B0F08D0BAF12D0FB9
:100350000BD102E0404611B08DE744F48064B969E6
:100360006D1C0E9888478246761E6946600501D549
:100370002D2000E02B208DF8000001F1010B0DF184
:10038000200809E0B9696D1C0E98884782460F98CD
:1003900044F40074761E0560002E02DDBAF1300FC1
:1003A000F0D00B998A453ED144F0800406E00F99C5
:1003B000681CA9F1010944F400740860B9696D1C56
:1003C000761E0E98884782463028F0D02BE00B9995
:1003D0008A4505D1200603D444F08004761E18E037
:1003E000504603F0E3F808B30DF11301761E44F410
:1003F00000748B4508D2AAF130000BF8010B2006DF
:1004000007D5A9F1010003E0200602D409F101009B
:100410008146A00502D50F99681C0860B9696D1C5A
:100420000E9888478246002ED1DC53E0002E51DD25
:10043000BAF1650F02D0BAF1450F4BD1A00549D5ED
:10044000B9696D1C24F44074761E0E988847824664
:10045000002E0CDD2B2804D0BAF12D0F07D144F467
:100460008074B9696D1C0E9888478246761EE00537
:1004700001D52D2100E02B2108F8011BCDF82C809F
:1004800021E00DF12901761E44F4007488450CD258
:10049000AAF1300010F0FF0088F8000002D10B999B
:1004A000884509D908F1010806E0E00501D524488E
:1004B00001E042F20F708146B9696D1C0E988847C1
:1004C00082460F980560002E04DD504603F06EF85A
:1004D0000028D6D1F9690E988847FF208BF80000D4
:1004E00088F800000020069007904B466A4608A94D
:1004F00006A8FFF777FEA00502D46FF001002AE7F7
:1005000014F0240F0AD0E00714D1DDE90612386890
:10051000031D3B600068C0E900120BE0DDE9060145
:1005200000F0BEFA0146E00704D13868021D3A60C7
:100530000068016028460EE7000014400000F03F0C
:10054000F1D8FFFFF0B480EA0102D40F4200B2EB11
:10055000410F02D20246084611464A0042D0C30D5E
:10056000DDB2C1F3C752AD1A202D35DAC1F3160141
:1005700041F4000204B15242C5F1200602FA06F12C
:100580002A411044B3EBD05F23D0C4B1012DA0EBBE
:10059000C35009DCF0BC4FF0004202EAC352DBB2A8
:1005A00000F5000000F077BB400000F1807000EB28
:1005B000C350A0F1807040EAD170490009E04908B9
:1005C00041EAC071A0EBC35000F50000400800EB09
:1005D000C350F0BC00F056BB6142012202EB410166
:1005E000001BF6E7F0BC704781F00041AAE780F0FD
:1005F0000040A7E780EA010210B502F00043400086
:1006000022D04A001FD0010E01EB1261C0F3560048
:10061000C2F3560240F4000042F40002A0FB0220A4
:1006200000047F39140400D0401C50EA124001D469
:100630004000491EC2B20C0604EBD010401C40081A
:10064000802A02D003E0002010BD20F00100002924
:1006500000DA0020184310BD2DE9FE4F804681EAE4
:100660000300C00F0C46009021F0004123F000452C
:10067000B8EB0200A94105D24046214690461C46EF
:100680000B46024623F00040104347D0270DC7F326
:100690000A00C3F30A510290401A019040286BDA15
:1006A000C3F3130040F4801B0098924620B100234E
:1006B000D2EB030A63EB0B0B01985946C0F14002E1
:1006C000504600F050FA06460D4650465946019AEB
:1006D00000F058FA10EB08006141002487EA11523B
:1006E00084EAE7731A4340D0009A62B3019A012A60
:1006F0004FEA075215DC001B61EB02014FF000428C
:1007000002EA0752CDE90042001C41F58011324651
:100710002B4600F0FDFA03B0BDE8F08F40462146BD
:10072000F9E7001B61EB0201001C41F58013001882
:100730005B412018A2F5001747EB030140EAD57092
:10074000B6196D4111E06D084FEA360645EAC075ED
:100750004FEA0752001B61EB0201001C41F58011BA
:1007600049084FEA30000019514132462B4603B088
:10077000BDE8F04F00F0BDBA009801224000002310
:10078000D0EB020263EBE073009821464FEAE0747D
:10079000B8EB000061EB0401E9E783F000435BE79D
:1007A00081F0004158E72DE9FE4F81EA030404F08F
:1007B000004421F0004100944FF0000B23F000436F
:1007C00050EA01045ED052EA03045BD0C3F30A543A
:1007D000C1F30A552C44A4F2F3340194A0FB025453
:1007E000C1F3130141F48011C3F3130343F48013E5
:1007F00001FB024400FB034E840A970A44EA815439
:1008000047EA8357A4FB076802958D0A05FB078515
:100810004FEA932C04FB0C542705029D4FEA06581F
:1008200047EA1637B5EB08056EEB070C870E920EFC
:1008300047EA811742EA8312A7FB0201B6EB0B01DC
:1008400064EB00042B0D43EA0C335E1844EB1C50A0
:10085000DA465146E7FB0201C5F313044FEA0B33B6
:1008600043EA14534FEA0432019C43EA0603A4F11D
:100870000C040294009CCDE900B400F049FA03B0E6
:10088000BDE8F08F00200146F9E72DE9F04D81EA3F
:10089000030404F0004B21F0004514464FF0000A19
:1008A00023F0004150EA050220D054EA01021DD095
:1008B000C5F30A570246C5F31303C1F31300C1F38E
:1008C0000A5640F4801543F48013A7EB0608101B6A
:1008D000D64608F2FD3873EB050002D308F1010893
:1008E00001E092185B41B8F1000F03DA00200146E5
:1008F000BDE8F08D00204FF48011064684460EE0DE
:10090000171B73EB050705D3121B63EB05030643A7
:100910004CEA010C49084FEA300092185B4150EA5A
:100920000107EDD152EA030012D082EA040083EA03
:100930000501084305D0101BAB4106D2012200235C
:1009400006E000224FF0004302E06FF00102531076
:100950001AEB06004CEB085110EB0A0041EB0B01BF
:10096000BDE8F04D00F0C5B970B521F00043034378
:100970000CD0C1F30A550024D5EB040564EB040345
:10098000D617AD1AB34102DB0020014670BD201816
:1009900041EB025170BDC10F80EAE0700844CA0704
:1009A0009623002100F077B900F0004220F00040CB
:1009B000C10DC0F3160040F400007F2901DA0020C9
:1009C0007047962903DCC1F19601C84001E09639D1
:1009D0008840002AF4D04042704770B5C1F30A52F3
:1009E00001F000450024C1F3130140F2FF3341F44C
:1009F00080119A4201DA002070BD40F233439A42DE
:100A0000A2F2334203DC5242FFF78EFB00E090403B
:100A10002C43F1D0404270BD00F0004230F0004065
:100A20000AD0C10D01F56071C0F3160042EA015110
:100A3000C20840071143704700200146704700007C
:100A400030B5041E71F1000404DB4FF00044404255
:100A500064EB0101141E73F1000405DB1C464FF02A
:100A60000043524263EB04038B4208BF824230BD15
:100A700030B5041E71F1000404DB4FF00044404225
:100A800064EB0101141E73F1000405DB1C464FF0FA
:100A90000043524263EB0403994208BF904230BDC9
:100AA00001F0004330B421F0004150EA010206D0C9
:100AB0000A0DA2F56072C1F31301002A02DC30BCFA
:100AC00000207047440F44EAC104C100E01830BC64
:100AD00000EBC25000F0D6B830B50B4601460020FE
:100AE0002022012409E021FA02F59D4205D303FAF0
:100AF00002F5491B04FA02F52844151EA2F1010271
:100B0000F1DC30BD2DE9F05F0546002092469B46A2
:100B100088460646814640241BE028464146474613
:100B20002246FFF701FB53465A46C01A914110D3A3
:100B300011461846224600F016F82D1A67EB0108F8
:100B40004F4622460120002100F00DF817EB000966
:100B50004E41201EA4F10104DFDC484631462A46FE
:100B60004346BDE8F09F202A04DB203A00FA02F158
:100B7000002070479140C2F1200320FA03F319438B
:100B800090407047202A06DBCB17203A41FA02F04A
:100B900043EAE07306E041FA02F3D040C2F12002DA
:100BA0009140084319467047426842B1016811F804
:100BB000013B23B1521EC0E90012184670470121C3
:100BC000C160881E704742685AB1C368016843B962
:100BD00083688B4205D0491E521CC0E900120020D8
:100BE00070474FF0FF3070470FB4002300B589B055
:100BF0000CA900910B996FF00042CB601E4B06933D
:100C00001E4B07930423CDE901321D4A0892024688
:100C10006B460020FFF77AFB09B05DF814FB70B556
:100C200086B006464FF0FF300091CDE9010100206B
:100C300015460C4604903246694604A8FFF7D4FFD7
:100C400002460498211825B108B1084600E0204664
:100C50002860049800280DD0002A02DD0098884200
:100C600008D0081B0094CDE901043246694604A867
:100C7000FFF7BAFF06B070BDA90B0008C70B00084C
:100C8000190E00080029A8BF7047401C490008BF82
:100C900020F00100704710B4B0FA80FC00FA0CF0AC
:100CA00050EA010404BF10BC704749B1CCF12004E4
:100CB00021FA04F411FA0CF118BF01212143084371
:100CC000A3EB0C01CB1D4FEA00614FEA102042BF9D
:100CD000002010BC704700EBC35010440029A4BF93
:100CE00010BC7047401C490008BF20F0010010BC38
:100CF000704710B5141E73F1000408DA401C41F16E
:100D0000000192185B411A4301D120F0010010BD8F
:100D10002DE9F04D92469B4611B1B1FA81F202E005
:100D2000B0FA80F220329046FFF71DFF04460F46CE
:100D300040EA0A0041EA0B0153465A46084313D0E1
:100D4000114653EA010019D0C8F140025046FFF79E
:100D5000EBF905460E46504659464246FFF703FF5B
:100D6000084305D0012004E020463946BDE8F08D57
:100D70000020054346EAE0762C4337430A98630592
:100D8000E40AA0EB08000022FD0A44EA47540A30B6
:100D900002D500200146E9E7010510196941DDE9A6
:100DA000084500196941BDE8F04DA2E70EB540F2D3
:100DB000334202920022CDE900221346FFF7A8FF3A
:100DC00003B000BDC1F30A52C1F3130140F2FF3377
:100DD00041F480119A4202DA00200146704740F245
:100DE00033439A42A2F2334202DC5242FFF79CB9EB
:100DF000FFF7B9BE064C074D06E0E06840F001037E
:100E000094E8070098471034AC42F6D3FFF772F924
:100E10000C5100082C510008C0B24FF4F05100F002
:100E200001B800007F2801D9002208E0064A02EB41
:100E30005002C007127800D1120902F00F020120FF
:100E40009040084070470000CC500008FFB41E4B93
:100E5000AA2208251A70FF225A70F2229A70DD70B9
:100E60009DF800201A719DF801205A719DF8042008
:100E70009A719DF80520DA719DF808201A729DF884
:100E800009205A729DF80C209A7200219DF80D20BD
:100E9000DA720C220C4608462D1D06E01E5C401C32
:100EA0003144C9B20C44E4B2C0B28542F6D8995478
:100EB000521C05499C5404B04FF6FF73F0BC034824
:100EC000521C01F042BB00008C02002048010020AF
:100ED000FEE770474FF4805000F094B8102000F007
:100EE00091B872B6FEE710B590F8211000220229E1
:100EF00005D00421816380F82020012010BD016805
:100F00000B6823F00E030B6001680B6823F00103EC
:100F10000B6090F84030012404FA03F1C36B596070
:100F200080F8214080F82020104610BD10B590F8C0
:100F300021100024022903D00421816301243DE013
:100F400001680A6822F00E020A6001680A6822F04D
:100F500001020A601A4A0168914201D1012121E08F
:100F6000174A1432914201D110211BE0144A283251
:100F7000914201D1891515E0114A3C32914201D1CB
:100F800089140FE00E4A5032914202D14FF4803161
:100F900008E00B4A6432914202D14FF4801101E023
:100FA0004FF08071064A083A5160012180F8211003
:100FB000002180F82010416B01B18847204610BD08
:100FC0000800024070B5044600F01CF90546601C9C
:100FD00002D004480078044400F014F9401BA042F9
:100FE000FAD370BD2C000020054A4FF400511028A0
:100FF00002D0B0F5805F02D1104600F0F5B870471E
:1010000000100140044910B50A68024202D008608D
:10101000FFF7EAFF10BD0000140401402DE9F84F6E
:10102000DFF8A491002409F1040A0AF1040B234615
:101030004FF00F080BF1040EBEE00127A7403A4025
:10104000BA4272D1DFF884C14D68A5EB0C06654544
:101050002BD00DDC032D34D005DC35B3012D19D098
:10106000022D2FD11BE0112D16D0122D2AD119E0FF
:10107000B6F5881F19D006DCB6F5803F15D0B6F559
:10108000801F1FD111E0B6F5001F0ED0B6F5041F6A
:1010900018D10AE0CB6815E0CB681B1D12E0CB68C5
:1010A00008330FE0CB680C330CE08B682BB1012BBD
:1010B0004FF0080303D0476104E0042302E0076116
:1010C00000E00023FF2A01D8064601E000F10406F3
:1010D0004FEA840501D9A5F12005376808FA05FC17
:1010E00027EA0C0703FA05F547EA050737604D685C
:1010F000ED0060D5364DAE6946F00106AE61AD69D2
:1011000024F0030605F001050095324D7719BE68FD
:10111000A5072D0F08FA05FC26EA0C06DFF8B8C073
:10112000604503D14FF0000C17E044E0DFF8ACC09D
:10113000604502D14FF0010C0FE0DFF8A4C060451C
:1011400002D14FF0020C08E0DFF898C0604502D1F0
:101150004FF0030C01E04FF0040C0CFA05FC4CEAD4
:10116000060CC7F808C04D68D9F80060ED034D467D
:1011700001D5164300E096432E604D68DAF8006012
:10118000AD03554601D5164300E096432E604D68E9
:10119000DBF80060ED025D4601D5164300E09643A2
:1011A0002E604D68DEF80060AD02754601D516432D
:1011B00000E096432E60641C0A6832FA04F57FF45E
:1011C0003CAFBDE8F88F00000004014000001110A2
:1011D000001002400000014000080140000C0140E6
:1011E0000010014000140140C26821EA02030A40D5
:1011F00043EA0241016170470AB101617047090485
:10120000FBE7000001488068704700002C000020C8
:101210000248816802781144816070472C000020E8
:10122000074810B5016841F010010160032000F08B
:1012300075F80F2000F006F800F024F8002010BD2B
:101240000020024070B50D4D04464FF47A712878A5
:10125000B1FBF0F00A490968B1FBF0F000F0EEFADA
:1012600048B9102C07D200222146501E00F036F853
:1012700000206C6070BD012070BD00002C000020BB
:10128000380000200C4808B5816941F001018161F6
:10129000816901F001010091C16941F08051C16192
:1012A000C069064900F080500090486820F0E06076
:1012B00040F00070486008BD00100240000001408E
:1012C000002809DB00F01F02012191404009800045
:1012D00000F1E020C0F8001170470000F0B40E4BA0
:1012E0001B68C3F30223C3F10704042C00D90424B0
:1012F0001D1D072D01D2002300E0DB1E012606FA8A
:1013000004F56D1E0D409D409E40761E164045EA38
:101310000601F0BC02F012B80CED00E0064A00F045
:10132000070110684FF6FF03184040EA0120034907
:1013300008431060704700000CED00E00000FA0563
:101340002DE9F0470D46040067D0DFF81881D8F882
:10135000000000F00700A8420CD2D8F8001021F0DD
:1013600007012943C8F80010D8F8000000F0070072
:10137000A84252D120683C4E810712D5400703D5C0
:10138000706840F4E06070602078000703D57068F2
:1013900040F4605070607068A16820F0F00008436D
:1013A00070602078C00727D06068012810D03168AD
:1013B000022810D0890700292FDA716821F0030173
:1013C00001437160FFF71EFF074641F288390CE0C8
:1013D00031688903EFE78901EDE7FFF713FFC11BD0
:1013E000494502D90320BDE8F0877068616800F0C4
:1013F0000C00B0EB810FF0D1D8F80010404601F09E
:101400000701A9420BD9016821F0070129430160B6
:10141000006800F00700A84201D00120E3E720782F
:10142000400705D57068E16820F4E060084370600B
:101430002078000706D57068216920F4605040EAE2
:10144000C100706000F038F87168084AC1F30311F8
:10145000515CC8400649086006480068FFF7F2FE84
:101460000020C0E700200240001002409C48000815
:101470003800002030000020044805490068496811
:10148000044AC1F30221515CC84070473800002073
:1014900000100240AC48000804480549006849684B
:1014A000044AC1F3C221515CC84070473800002093
:1014B00000100240AC48000812A085B00FC88DE8AB
:1014C0000F0014A0144B006804905968134801F0F1
:1014D0000C02042A10D0082A0ED1C1F38342C9039A
:1014E0001DF802000AD5596804AAC1F34041515CB5
:1014F0000A4A5043B0FBF1F005B070470849484331
:10150000FAE7000002030405060708090A0B0C0DA0
:101510000E0F1010010200000010024000127A00AD
:1015200000093D002DE9F84F04006FD02078BE4D32
:10153000C00747D06868C0F38100012807D06868F9
:10154000C0F38100022809D16868C00306D5286865
:10155000800337D560680028E7D033E06068B0F5D5
:10156000803F0BD010B1B0F5A02F11D0286820F427
:1015700080302860286820F4802002E0286840F449
:1015800080302860606888B1FFF73CFE064609E0BD
:10159000286840F480202860F0E7FFF733FE801BC6
:1015A000642873D828688003F7D50BE0FFF72AFE7C
:1015B000064604E0FFF726FE801B6428F1D8286861
:1015C0008003F7D42078DFF8648280074FF0010AA7
:1015D0004FF0000939D5686810F00C0F07D0686823
:1015E000C0F38100022809D16868C00306D42868C6
:1015F000800714D52069012808D110E02069B0B116
:10160000C8F800A0FFF7FEFD064605E007E1FFF77A
:10161000F9FD801B0228C4D828688007F7D5286800
:10162000616920F0F80040EAC10028600DE0C8F8C8
:101630000090FFF7E7FD064604E0FFF7E3FD801B9F
:10164000022823D828688007F7D4207800072CD5F3
:101650007748A169D9B1C0F800A0FFF7D3FD0646CD
:1016600004E0FFF7CFFD801B02280FD8686A8007CF
:10167000F7D570484FF4FA510068B0FBF1F00090D4
:1016800000BF0098411E0091FAD20EE07CE0C0F845
:101690000090FFF7B7FD064604E0FFF7B3FD801B9F
:1016A000022871D8686A8007F7D4207840075BD594
:1016B000E8690027C00008D4E86940F08050E8617C
:1016C000E869012700F0805000905B480168C90577
:1016D00011D40168834641F480710160FFF792FDE7
:1016E000064604E0FFF78EFD801B64284CD8DBF82B
:1016F0000000C005F6D5E06801280AD008B1052829
:1017000013D0286A20F001002862286A20F0040023
:1017100002E0286A40F001002862E06841F2883B5C
:1017200088B1FFF76FFD064609E0286A40F0040023
:101730002862EEE7FFF766FD811B59455BD8286AF2
:101740008007F7D50BE0FFF75DFD064604E0FFF7E5
:1017500059FD811B59454ED8286A8007F7D41FB11F
:10176000E86920F08050E861E069A8B36968C1F3D6
:101770008101022946D00228484606D0C8F86000F8
:10178000FFF740FD044639E035E04746C8F8600001
:10179000FFF738FD064604E0FFF734FD801B022802
:1017A00029D828688001F7D4206AB0F5803F05D198
:1017B0006868A16820F4003008436860D4E9080133
:1017C0000843696821F4741108436860C7F860A091
:1017D000FFF718FD044605E023E0FFF713FD001BAB
:1017E000022808D828688001F7D51AE0FFF70AFD1B
:1017F000001B022802D90320BDE8F88F2868800169
:10180000F4D40EE00128F7D06868226A00F4803131
:10181000914204D1616A00F47010884201D0012025
:10182000EAE70020E8E70000001002400000424222
:1018300080044242380000200070004010B5401E75
:10184000B0F1807F01D3012010BD4FF0E024606132
:101850000F21601701F072FD0020A06107202061B8
:10186000002010BD7047704710B590F83C20012A49
:1018700022D0012280F83C20CA688C6822F4407291
:1018800022434C6822F4806222430C6822F40062F6
:1018900022430C6922F4805222434C6922F4005204
:1018A0002243C969002322F480420A4301684A6442
:1018B00080F83C30002010BD022010BD70B590F8BB
:1018C0003C20012A26D0012580F83C50022280F8D5
:1018D0003D2002685368946823F070060B68334318
:1018E00053600D4B02689A4208D0B2F1804F05D088
:1018F0000A4B9A4202D00A4B9A4204D1496824F01A
:1019000080031943916080F83D50002180F83C101D
:10191000084670BD022070BD002C0140000400404C
:101920000008004010B5040003D094F83D0010B149
:1019300007E0012010BD002084F83C00204600F0A4
:101940001FF8022084F83D00211D206801F00CFAE8
:10195000012084F8460084F83E0084F83F0084F8B3
:10196000400084F8410084F8420084F8430084F881
:10197000440084F8450084F83D00002010BD0000BC
:1019800008B500680B49884212D10B48816941F4BF
:10199000006181618069002200F4006000901146BE
:1019A0001920FFF79BFCBDE808401920FFF788BC11
:1019B00008BD0000002C01400010024090F83D10CE
:1019C000012901D001207047022180F83D100168F3
:1019D000CA6842F00102CA6000680B49884208D018
:1019E000B0F1804F05D00949884202D008498842A9
:1019F00004D1816801F00701062903D0016841F094
:101A00000101016000207047002C014000040040EB
:101A10000008004070B5044690F83C00012817D03B
:101A2000012584F83C50022084F83D00206882683B
:101A300022F0770222F47F4282600868502830D07A
:101A40000DDC20284DD005DC98B310283BD148E0B0
:101A5000022070BD302844D0402834D139E06028BD
:101A600028D0702806D0B0F5805F2CD0B0F5005F8C
:101A700029D10AE0CB68D1E90121206801F0B7F94A
:101A80002068816841F0770109E0CB68D1E9012144
:101A9000206801F0ACF92068816841F480418160E0
:101AA00011E0CA684968206801F05CFA502120689A
:101AB00007E016E0CA684968206801F064FA60210E
:101AC000206801F09EF984F83D50002084F83C0025
:101AD00070BDCA684968206801F044FA4021206856
:101AE000EFE7226801461046EBE72DE9F0410D468D
:101AF000040003D094F83D0018B108E00120BDE8CF
:101B0000F081002084F83C00204600F041F80220DB
:101B100084F83D002068816844F2070291438160A7
:101B2000211D206801F020F9206881688269066A19
:101B30002B68AF690B4340F203318A4342EA072224
:101B4000A968EF6911434FF6FC429143EA6841EA04
:101B500007210A4329692F6A090141EA0731114324
:101B60006A686D6926F0220646EA05152A438360F5
:101B70002068816154F8460B0262012004F81F09B5
:101B8000E0752076E0762077A0750020B7E70000AA
:101B900000B585B000210091019102910391016887
:101BA00023480122B1F1804F23D0224B99421ED10C
:101BB000C16941F00401C161C16901F004010491EE
:101BC000816941F0080181618069694600F008007F
:101BD0000490C020009002921748FFF71FFA0022DD
:101BE00011461E20FFF77AFB1E20FFF769FB05B0A8
:101BF00000BDC16941F00101C161C16901F001018C
:101C00000491816941F0040181618069694600F0B5
:101C1000040004900320009002920848FFF7FEF9A8
:101C2000002211461C20FFF759FB1C20DDE70000B5
:101C30000010024000080040000C01400008014074
:101C400070B590F83E50044690F83F3090F842202E
:101C500090F84300022621B104290BD0012D16D1A2
:101C60000FE0012D13D1012A11D184F83E6084F8D0
:101C7000426016E0012B0AD1012808D184F83F60A8
:101C80000DE0012B03D1012A01D1012801D001204F
:101C900070BD84F83E6084F83F6084F8426084F848
:101CA000436091B1042904D001220021206801F091
:101CB00091F801220421206801F08CF82068016865
:101CC00041F001010160002070BD01220021206867
:101CD000F2E7704770B50446006801694FF00005EF
:101CE000C943890715D4C168C943890711D4E91EBE
:101CF000016101202077206880698007204602D09A
:101D0000FFF7E7FF04E000F0BFF8204600F04EF9CF
:101D1000257720680169C943490717D4C168C943B9
:101D2000490713D46FF00401016102202077206875
:101D3000806910F4407F204602D0FFF7CAFF04E01C
:101D400000F0A2F8204600F031F9257720680169FB
:101D5000C943090716D4C168C943090712D46FF0F3
:101D600008010161042020772068C06980072046AF
:101D700002D0FFF7AEFF04E000F086F8204600F046
:101D800015F9257720680169C943C90617D4C168C8
:101D9000C943C90613D46FF01001016108202077F0
:101DA0002068C06910F4407F204602D0FFF791FF01
:101DB00004E000F069F8204600F0F8F82577206884
:101DC0000169C943C90708D1C168C943C90704D11A
:101DD000891E0161204600F03BF920680169C94372
:101DE000090609D4C168C943090605D46FF080010A
:101DF00001612046FFF736FD20680169C9434906A5
:101E000009D4C168C943490605D46FF04001016196
:101E1000204600F0BBF920680169C94389060BD44C
:101E2000C168C943890607D46FF0200101612046CB
:101E3000BDE87040FFF717BD70BD000000B585B06C
:101E40000021009101910291039100680B498842A1
:101E500012D10B48816941F00401816180696946B2
:101E600000F0040004904FF41060009002200190F4
:101E700003900448FFF7D2F805B000BD002C0140E4
:101E80000010024000080140704770B5044690F809
:101E90003C000D4601280AD0012084F83C0042B1E4
:101EA000042A18D0082A2AD00C2A4DD139E0022061
:101EB00070BD206800F0AEFF2068816941F0080124
:101EC00081612068816921F0040181612068816954
:101ED0002A69114311E0206800F0C8FF2068816979
:101EE00041F4006181612068816921F48061816130
:101EF000206881692A6941EA0221816124E0206821
:101F000000F0E2FF2068C16941F00801C16120686A
:101F1000C16921F00401C1612068C1692A691143C6
:101F200011E0206800F0FCFF2068C16941F4006105
:101F3000C1612068C16921F48061C1612068C16903
:101F40002A6941EA0221C161002084F83C0070BD89
:101F500010B5040003D094F83D0010B107E0012053
:101F600010BD002084F83C00204600F01EF802203E
:101F700084F83D00211D206800F0F6FE012084F861
:101F8000460084F83E0084F83F0084F8400084F85E
:101F9000410084F8420084F8430084F8440084F847
:101FA000450084F83D00002010BD704770470000D8
:101FB00010B5044649B104290AD008290BD094F879
:101FC000410001280AD0012010BD94F83E00F8E736
:101FD00094F83F00F5E794F84000F2E7022041B39F
:101FE000042929D008292AD084F841000122206838
:101FF00000F0F0FE13492068884203D1426C42F49D
:10200000004242642068884208D0B0F1804F05D079
:102010000D49884202D00D49884204D1816801F0FF
:102020000701062903D0016841F001010160002089
:1020300010BD84F83E00D9E784F83F00D6E784F865
:102040004000D3E7002C014000040040000800409D
:102050002DE9F05F414988427DD1414DE888401C1F
:1020600084B20520B4FBF0F100FB1140EC800026A7
:10207000F0BB3C480168486A3B4A404200B2688075
:1020800013685B6A1FB2AF804E6211684E62FEF742
:1020900082FCDFF8D8A05146FEF7ACFAFEF7BCFC94
:1020A000DFF8CC804FF0333B5A464346FEF7EDFB5A
:1020B000DFF8C09000224B46FEF7E7FBB21EFEF7AA
:1020C00053FCFEF7EDFCA8603846FEF764FC514671
:1020D000FEF790FAFEF7A0FC5A464346FEF7D5FB02
:1020E00000224B46FEF7D1FBB21EFEF73DFC00E09E
:1020F00002E0FEF7D5FCE8600A20B4FBF0F100FB3B
:102100001140002827D1A868FEF786FC1A4A1B4B0D
:10211000FEF749FB00221A4BFEF745FB04460F462B
:102120002869FEF779FC22463B46FEF795FAFEF752
:10213000B7FC28611348E96800F0A8FDFEF734FCFD
:1021400004461148A96800F0A1FDFEF72DFC2146C8
:1021500000F036FCEE80BDE8F09F0000700000202B
:102160001800002000010020B80000200000C84234
:1021700033332340000026407B14AE47E17A943F7E
:102180000000364010030020F00200207047704726
:1021900070470000F8B5026804461068D1685369BA
:1021A00010F00F0F4FF0000553D003F0010601F4BB
:1021B000907737435FD0C20705D0CA0503D5226C9C
:1021C00042F001022264420705D5DA0703D0226CEF
:1021D00042F002022264820705D5DA0703D0226C9E
:1021E00042F004022264020707D501F020023243C4
:1021F00003D0226C42F008022264226C002A34D000
:10220000800604D5880602D5204600F0EEFE206840
:102210004069216CC0F38010090700D430B3204618
:1022200000F0CBFE2068416949061BD5416921F0C9
:1022300040014161A06BA8B158494163A06BFEF712
:1022400075FE002811D0A06B416B01B0BDE8F040D5
:10225000084783060FD58B060DD52046BDE8F8400C
:1022600000F0C3BE2046FFF793FFF8BD2046FFF7FE
:102270008FFF2564F8BD266B2023012E52D1C606A0
:1022800050D5CE064ED51068506800905069400673
:102290002AD5A16B086840680004000CEAD0A68D1E
:1022A0008642E7D9E0858869202818D0D06820F4D4
:1022B0008070D0602068416921F00101416120688F
:1022C000416921F04001416184F83E302563206876
:1022D000C16821F01001C160A06BFEF704FEA08D63
:1022E000E18D401A81B219E0A08DE18D401A81B2D2
:1022F000E08D0028BED00029BCD0D06820F49070BA
:10230000D0602068426922F00102426184F83E30C8
:1023100025632068C26822F01002C2602046FFF7E1
:1023200036FFF8BD05062BD50D0629D594F83D00DE
:102330002128F6D1A068B0F5805F01D12069B0B145
:10234000206A411C2162216800784860E08C401EB0
:102350000004000CE084E4D12068C16821F0800111
:10236000C1602068C16841F04001C160F8BD206AC9
:102370000088C0F308005060206A801C2062E5E7F6
:102380004006F3D54806F1D5D168204621F040013A
:10239000D16084F83D3000F030F9F8BDAB2F000873
:1023A00070B5040004D094F83D00002510B106E09B
:1023B000012070BD84F83C50204600F023F8242012
:1023C00084F83D002068C16821F40051C1602046B6
:1023D00000F066FE2068016921F4904101612068E7
:1023E000416921F02A0141612068C16841F400512E
:1023F000C1602564202084F83D0084F83E00002060
:1024000070BD000030B585B00024009401940294A2
:1024100003940068184988422CD11848816941F416
:1024200080418161816901F480410491816941F0B9
:10243000040181618069124D00F0040004904FF4A2
:102440000070009002200190032003906946284606
:10245000FEF7E4FD2815CDE90004694628460294FC
:10246000FEF7DCFD002211462520FEF737FF252070
:10247000FEF726FF05B030BD0038014000100240D5
:10248000000801402DE9F84F044690F83E009846B8
:1024900015460E46202855D10EB305B394F83C00DE
:1024A00001284FD0012084F83C004FF00009C4F807
:1024B0004090222184F83E10C4F83090FEF7A2FE2E
:1024C000A5858246E585A0684FF48057B84201D1C2
:1024D000206938B13546002684F83C9027E0012079
:1024E000BDE8F88F0025F7E753460022202120465B
:1024F000CDF8008000F030FE08B10320F0E725B1F0
:10250000A068B8421BD038B108E020684068C0F32A
:10251000080026F8020B07E0206980B120684068B7
:1025200000F07F0005F8010BE08D401EE085E08D96
:102530000028D9D1202084F83E000020D0E7206870
:102540004068EFE70220CBE770472DE9F8430446E7
:1025500090F83D001F4615460E4620284BD1C6B1C7
:10256000BDB194F83C00012845D0012084F83C001E
:102570004FF00008C4F84080212084F83D00FEF7A9
:1025800041FEA5848146E584A068B0F5805F03D054
:1025900004E00120BDE8F883206920B1354600261B
:1025A00084F83C800EE00025FAE78021204600F008
:1025B000D3FDA0B9ADB115F8010B21684860E08CDE
:1025C000401EE084E08C4B464FF00002009700284C
:1025D000EBD14FF04001204600F0BEFD30B10320AA
:1025E000D8E736F8020BC0F30800E6E7202084F8AD
:1025F0003D000020CEE70220CCE77047FEE7000058
:102600002DE9F04101220C4DD40321462846FEF766
:10261000F3FD0122094F160331463846FEF7ECFD63
:10262000002231463846FEF7E7FD21462846BDE840
:10263000F0410022FEF7E0BD00080140000C01401F
:1026400070B50122D1030948FEF7D6FD084D4FF4BD
:102650008054002221462846FEF7CEFD214628461A
:10266000BDE870400122FEF7C7BD00000008014030
:10267000000C014070B50122064DD40321462846C6
:10268000FEF7BAFD21462846BDE870400022FEF75D
:10269000B3BD0000000801402DE9F04F85B00024D3
:1026A00045480094019402940394816941F010011B
:1026B0008161816901F010010491816941F020017B
:1026C0008161816901F020010491816941F0040177
:1026D0008161816901F004010491816941F008017F
:1026E00081618069DFF8D4A000F008004FF4005544
:1026F0000490002229465046FEF77EFD0122170372
:1027000039462F48FEF778FD42F20808002241467C
:102710002B48FEF771FDDFF8ACB04FF40049012201
:1027200049465846FEF768FD0095022601250396A6
:10273000CDE9015469465046FEF770FCCDE90075BD
:10274000CDE9025669461E48FEF768FCCDF80080C8
:102750000396CDE9015469461948FEF75FFC1A4813
:102760000097CDE9010569465846FEF757FCCDE9CB
:102770000095CDE9025669465846FEF74FFC1020F9
:1027800000901248CDE9010669460D48FEF746FC67
:10279000002211460A20FEF7A1FD0A20FEF790FD57
:1027A000002211462820FEF799FD2820FEF788FD1B
:1027B00005B0BDE8F08F000000100240001001409D
:1027C000000C014000080140000021100000111021
:1027D00010B596B000240F94109411941294139491
:1027E0001C2168461494FDF7CEFC202107A8FDF7B4
:1027F000CAFC2D482B49016040F29F51C0E90114E9
:102800006321C0E903148021C0E90541FFF78AF87C
:1028100008B1FEF766FB4FF480500F900FA92248D5
:10282000FFF7F8F808B1FEF75CFB1F48FFF790FBD5
:1028300008B1FEF756FB139413A91B481494FFF735
:102840003DF808B1FEF74DFB602000903220CDE945
:1028500001040394049405940022694612480694E6
:10286000FFF713FB08B1FEF73CFB0C2269460E484C
:10287000FFF70BFB08B1FEF734FB079408940994AB
:102880004FF400500A94CDE90B4007A906480E9476
:10289000FEF7EAFF08B1FEF724FB0348FFF7CEFA84
:1028A00016B010BD002C01407000002010B58CB097
:1028B00024216846FDF767FC0024164809944FF070
:1028C00080410A94C0E900144FF6FF71C0E902414B
:1028D000046184610320CDE900040120CDE90204F4
:1028E00006210491CDE90540CDE907416946094833
:1028F000FFF7FBF808B1FEF7F4FA099409A90548B7
:102900000A94FEF7DBFF002801D0FEF7EAFA0CB0CC
:1029100010BD0000B800002010B58CB0242168461E
:10292000FDF731FC00241648099414490A94C0E9C3
:1029300000144FF6FF71C0E9024104618461032075
:10294000CDE900040120CDE9020406210491CDE97E
:102950000540CDE9074169460948FFF7C6F808B1C7
:10296000FEF7BFFA099409A905480A94FEF7A6FFE5
:10297000002801D0FEF7B5FA0CB010BD00080040E9
:10298000000100200C4810B50A4901604FF4E13104
:102990004160002181600C22C160C0E904128161A4
:1029A000C161FFF7FDFC002803D0BDE81040FEF731
:1029B00098BA10BD0038014048010020FEE7000031
:1029C00070B51A4E4542C1F1000401D5012200E064
:1029D000002208213046FEF70FFC4FF40051002C76
:1029E00001DA012200E000223046FEF705FC104823
:1029F0006FF06201002D05DA8D4200DA0D46643574
:102A0000026803E0632D00DD632502685563002C36
:102A100005DA8C4200DA0C460068643403E0632C6B
:102A200000DD63240068046470BD0000000C0140F8
:102A300070000020FEE770B50025002105F1B00010
:102A400000F0FDF80021084600F0F9F80021102000
:102A500000F0F5F800240121002000F0F0F8641CDB
:102A6000E4B2802CF7D36D1CEDB2082DE5D370BD18
:102A700010B54FF44870FEF7A5FA0021AE2000F023
:102A8000DEF80021084600F0DAF80021102000F0FE
:102A9000D6F80021402000F0D2F80021B02000F04C
:102AA000CEF80021812000F0CAF80021FF2000F0BC
:102AB000C6F80021A12000F0C2F80021A62000F0F5
:102AC000BEF80021A82000F0BAF800213F2000F055
:102AD000B6F80021C82000F0B2F80021D32000F0A1
:102AE000AEF80021084600F0AAF80021D52000F039
:102AF000A6F80021802000F0A2F80021D82000F0E4
:102B00009EF80021052000F09AF80021D92000F05D
:102B100096F80021F12000F092F80021DA2000F070
:102B20008EF80021122000F08AF80021DB2000F04E
:102B300086F80021302000F082F800218D2000F07E
:102B40007EF80021142000F07AF80021BDE8104042
:102B5000AF2000F074B810B50A460446002102F117
:102B6000B00000F06CF8102040EA1410002100F0D2
:102B700066F804F00F00BDE81040002100F05FB8D7
:102B80002DE9F041203A00240F468046D5B27F2837
:102B900003D900208F1C8046FFB2102B394610D07D
:102BA000FFF7D9FF164905EB450001EB4005012170
:102BB000285D00F044F8641CE4B2062CF7D3BDE8AD
:102BC000F081FFF7C8FF0F4E04EB05100121305CC8
:102BD00000F035F8641CE4B2082CF5D37F1CF9B280
:102BE0004046FFF7B8FF002404EB051030440121F4
:102BF000007A00F024F8641CE4B2082CF4D3DEE779
:102C0000B4480008DC4A00082DE9F0419846174610
:102C10000E46044600250DE0434631462046FFF7A8
:102C2000AFFF0834E4B2782C02D90024B61CF6B207
:102C30006D1CEDB27A5D002AEED1BDE8F081C0B224
:102C400009B100F040BB00F027BB000010B50B49F4
:102C500000200B4BC1E9003088600A4CC860C1E914
:102C60000404094AC1E906202031C1E90030886026
:102C7000C860C1E90404C1E9062010BDF0020020CB
:102C800000004040000070410000A0402DE9F041EC
:102C900004460068FDF7A8FC0546A06029462069A7
:102CA000FDF750FC206107462846E168FDF79CFCD3
:102CB000E169FDF79FFC06463946A069FDF79AFCDD
:102CC000074629466069FDF795FC3946FDF73AFC51
:102CD0003146FDF737FCE5606060BDE8F081704784
:102CE0007047FEF795BA30B58FB028216846FDF7DA
:102CF0004AFA14210AA8FDF746FA0120010400242B
:102D00008DE8130004904FF4E010CDE9081002257F
:102D100007956846FEF706FC08B172B6FEE70F207D
:102D2000CDE90A054FF48060CDE90C4002210AA8E4
:102D30000E94FEF705FB002801D072B6FEE70FB037
:102D400030BD70470148FEF7C5BF0000700000208D
:102D50000148FEF7BFBF0000B80000200148FEF7A1
:102D6000B9BF000000010020F0B50268164C174DF5
:102D7000174E4FF08047A04205D0B84203D0A8427A
:102D800001D0B04203D122F070034A681A43A04236
:102D900005D0B84203D0A84201D0B04203D122F4FA
:102DA0004073CA681A434B6922F080021A430260DA
:102DB0008A68C2620A688262A04201D1096901631D
:102DC00001214161F0BD0000002C014000040040E1
:102DD0000008004010B501F01F010123046A8B4078
:102DE0009C430462036A8A401343036210BD10B51A
:102DF000846842EA032224F47F440A432243826027
:102E000010BD826822F070020A4342F0070181601F
:102E10007047000030B5026A22F001020262036AC4
:102E20004268846924F073050C682C4323F0020582
:102E30008B682B430C4DA84206D123F00805CB68C4
:102E400043EA050323F0040307D14D6922F44072DD
:102E500045EA02058A6942EA0502426084614968DE
:102E60004163036230BD0000002C014030B5026AAE
:102E700022F010020262026A436884690D6824F439
:102E8000E64444EA05248D6822F0200242EA051255
:102E90000C4DA84206D1CD6822F0800242EA05120C
:102EA00022F0400207D14D6923F4406343EA8503D1
:102EB0008D6943EA850343608461496881630262E6
:102EC00030BD0000002C014030B5026A22F480724F
:102ED0000262036A4268C46923F4007324F0730534
:102EE0000C682C438D6843EA05230C4DA84206D19B
:102EF000CD6823F4006343EA052323F4806307D1FC
:102F00004D6922F4405242EA05128D6942EA0512E7
:102F10004260C4614968C163036230BD002C014056
:102F200030B5026A22F480520262036A4268C469C0
:102F30000D6824F4E64444EA05248D6823F4005324
:102F400043EA0533064DA84204D14D6922F480427C
:102F500042EA85124260C46149680164036230BD7F
:102F6000002C014010B5046A036A23F001030362D8
:102F7000836923F0F00343EA021324F00A020A43B0
:102F80008361026210BD10B5036A23F0100303626F
:102F90008469036A24F4704444EA023223F0A003F3
:102FA00043EA01118261016210BD10B5406A00213F
:102FB000C185C184FFF7ECF810BD0168CA6822F42E
:102FC0009072CA6001684A6922F001024A61016B8D
:102FD000012904D10168CA6822F01002CA602021C8
:102FE00080F83E1000210163704708B590F83E104C
:102FF000222901D0022008BD81684FF480539942F4
:1030000001D1026922B1826A99421BD049B10AE01A
:103010000268816A5268C2F308020A80816A891CC8
:1030200008E0016971B10168496801F07F01117020
:10303000816A491C8162C18D491E0904090CC18540
:1030400003D019E001684968F1E70168CA6822F015
:103050002002CA600168CA6822F48072CA600168EE
:103060004A6922F001024A61202180F83E10016B7A
:10307000012903D0FFF768FA002008BD0021016391
:103080000168CA6822F01002CA6001680A68D206A4
:1030900002D50A6849680091818DFFF778F8EBE75F
:1030A00070B5044600680169E26821F4405111439B
:1030B0000161A16820690143606901432068C26819
:1030C00041F20C639A430A43C26020684169A269D5
:1030D00021F44071114341611E492068884202D1A8
:1030E000FEF7DAF901E0FEF7C7F900EBC00101EBEA
:1030F0000011606864228000B1FBF0F3B3FBF2F3CF
:103100006FF018067343B1FBF0F5B1FBF0F605EB79
:103110008305322303EB0515B5FBF2F5B6FBF2F69A
:1031200005F0F00505EB0615B1FBF0F6B1FBF0F08C
:10313000B0FBF2F06FF01801484306EB800003EBA0
:103140000010B0FBF2F0216800F00F002844886006
:1031500070BD0000003801402DE9F0411E461746C1
:1031600088460446069D1CE0681C1AD025B1FEF76F
:1031700049F8801BA84214D92068C16821F4D07195
:10318000C1602068416921F001014161202084F87B
:103190003D0084F83E00002084F83C000320BDE898
:1031A000F0812068016838EA010004D00020B842AC
:1031B000DAD00020F3E70120F9E700000D4810B550
:1031C00000680068800610D50B4A1078FF2801D3EC
:1031D000002010700949C0B20144401C10704FF427
:1031E0007A7301220348FFF74DF9BDE8104001480A
:1031F000FEF7D0BF48010020180000208C010020FD
:10320000FEE70000094A10B510780949002330B1E3
:103210000C88A04206D113700B80002010BD0B80DB
:10322000012010BD0880022010BD00001800002001
:10323000140000202DE9F047154F04464FF40046D6
:10324000002231463846FDF7D7FFDFF848900025C9
:103250004FF4805804F08000802816D000224146A8
:103260004846FDF7C9FF6006040E01223146384684
:10327000FDF7C2FF002231463846FDF7BDFF6D1C49
:10328000EDB2082DE6D3BDE8F0870122E7E70000A4
:1032900000080140000C014010B50446FFF7B0F9EA
:1032A0007820FFF7C7FFFFF7E5F90020FFF7C2FF1F
:1032B000FFF7E0F92046FFF7BDFFFFF7DBF9BDE8B8
:1032C0001040FFF7BDB910B50446FFF799F9782013
:1032D000FFF7B0FFFFF7CEF94020FFF7ABFFFFF796
:1032E000C9F92046FFF7A6FFFFF7C4F9BDE8104073
:1032F000FFF7A6B90FB4054B10B503A9044A02980D
:1033000000F05CF910BC5DF814FB0000693E000899
:10331000500000200FB4084B10B504A902AA03986E
:1033200000F04CF9044602A9002000F0CAFC204637
:1033300010BC5DF814FB0000C33C00080907090E2F
:10334000002804DB00F1E02080F80014704700F052
:103350000F0000F1E02080F8141D704730B528B14F
:10336000144C031F002021680A4605E0084630BDC2
:103370009A4203D810465268002AF9D1002800D09A
:1033800041680BD00468A3EB0005A54204D11B687B
:103390001C440346046002E0436000E023603AB14D
:1033A0001C68D51AA54203D115682C441C605268CC
:1033B0005A6030BD540000202DE9F04782460F4C82
:1033C00010480D4E0E4F001B4FF0000820F007056F
:1033D0004FF0010900221146504600F08FFD0028F1
:1033E00002D1306810B10020BDE8F0873C60C4E92C
:1033F0000058C6F80090EDE7580000203403002084
:1034000054000020300B002002E008C8121F08C141
:10341000002AFAD170477047002001E001C1121F55
:10342000002AFBD1704700002DE9FF5F82B0002128
:10343000DDE90430020DDDF840B0034318D044F656
:103440001050A2F2FF3242431514119801281FD0E8
:10345000A5EB0B00401C5FEA000A4FF000064E4F40
:10346000DFF83891B046504615D5CAF1000413E094
:10347000119801244AA3012801D16FEA0B01029897
:10348000119AC0E90031C0E9024206B0BDE8F09FE0
:10349000CBF10000DFE704460021404A491842EB27
:1034A0000450CDE9001012E0E00707D032463B4659
:1034B00040464946FDF777F98046894632463B4605
:1034C00010461946FDF76FF906460F466410002CAA
:1034D000EAD1DDE90401DDE90023BAF1000F06DAE3
:1034E000FDF761F942464B46FDF75DF905E0FDF752
:1034F000CCF942464B46FDF7C8F904460E46002279
:10350000284BFDF7B5FA03D84FF0FF30014607E02E
:103510000022254B20463146FDF79EF8FDF752FC70
:10352000102409E0002C0ADB0A220023FDF7EAFA46
:10353000039B30321A55641E50EA0102F2D1641C1A
:10354000039AC4F111031444119A012A03D00122F1
:1035500008430DD10AE0084304D000204FF0110BBE
:10356000119072E7A3EB0B056D1E0DE05B4504DDCA
:103570004FF0000205F1010504E003DA4FF000020C
:10358000A5F10105002AECD002981199C0E9023199
:10359000C0E9004579E70000000014400000F03F5A
:1035A000300000000000F0430000E03F30380A28FF
:1035B00001D2012070470020704700002DE9FF4F25
:1035C00095B09A46884606460025EEE1252877D133
:1035D00000242746F94A0121039400E0044316F829
:1035E000013F203B01FA03F01042F7D130782A283E
:1035F00011D06FF02F033078A0F13002092A16D8CD
:10360000039A44F0020402EB820203EB42021044EC
:10361000761C0390EFE758F8042B0392002A03DA94
:10362000504244F40054039044F00204761C307875
:103630002E2816D116F8010F44F004042A280DD0C4
:103640006FF02F023078A0F13003092B09D807EB77
:10365000870302EB4303C718761CF3E758F8047B93
:10366000761C30786C280FD006DC4C2817D06828E0
:103670000DD06A2814D104E0742810D07A280FD114
:103680000DE044F400140AE044F4801401E044F432
:1036900040147278824202D104F58014761C761CA4
:1036A000307866280BD013DC582877D009DC002846
:1036B00075D04528F6D04628F4D047281AD193E192
:1036C00018E0632835D0642879D0652812D18BE1C1
:1036D000702873D008DC6728F1D069286FD06E2875
:1036E0000DD06F2806D1ACE073282CD0752874D08B
:1036F000782853D05246179990476D1C54E1C4F373
:103700000250022809D003280DD0D8F80010042850
:103710000DD00D6008F1040846E1D8F80010EA1752
:10372000C1E90052F6E7D8F800100D80F2E70D70FD
:10373000F0E718F8041B8DF8001000208DF8010048
:10374000EB46012003E058F804BB4FF0FF3061075F
:103750004FF0000102D40DE009F101018946B942A0
:103760000FDA8145F8DB1BF809100029F4D108E0D5
:1037700009F1010189468142FADB1BF80910002991
:10378000F6D103985346A0EB090721463846179A0D
:1037900000F080FA284400EB090507E044E008E166
:1037A0000DE01BF8010B524617999047B9F101093A
:1037B000F7D2534621463846179AF2E039E00A21FB
:1037C000C4F302524FF0000B0091022A06D058F8C1
:1037D000040BC117032A09D00AE023E008F107000F
:1037E00020F00702F2E80201904605E000B2C1179E
:1037F000042A01D140B2C117002906DA0A46002185
:10380000404261EB02012D2202E0220504D52B2269
:103810008DF80420012203E0E20701D02022F7E71F
:10382000914657E00A2100E010214FF0000B009173
:103830000BE010214FF0000B44F004040827009126
:1038400003E008204FF0000B0090C4F30252022A5C
:1038500005D058F8040B0021032A08D008E008F12D
:10386000070020F00702F2E80201904603E080B270
:10387000042A00D1C0B24FF0000922072AD53278BD
:10388000702A07D0DDF800C08CF0100C5CEA0B0C3D
:1038900005D00EE040228DF80420012208E050EA15
:1038A000010306D030238DF804308DF80520022264
:1038B0009146009B83F0080353EA0B030AD150EAB8
:1038C000010201D1620705D530228DF804204FF0A6
:1038D00001097F1E3278582A04D039A20C920CAA12
:1038E00002920BE03BA2F9E75B46009AFDF70AF96A
:1038F0000C9B9B5C029A521E0292137050EA0102CA
:10390000F2D1029804A9081A00F1200B600702D531
:1039100024F4803400E001275F4502DDA7EB0B00B3
:1039200000E0002000EB0B01009003984944401A8E
:103930000390E00306D453462146179A039800F0FB
:10394000A9F90544002706E001A85246C05D179971
:1039500090476D1C7F1C4F45F6DBE0030CD55346AA
:103960002146179A039800F095F9054404E03020A9
:103970005246179990476D1C0099481E00900029E7
:10398000F5DC08E00298029952460078491C029141
:10399000179990476D1CBBF10001ABF1010BF1DCF5
:1039A0005BE100F065F90544761C307800287FF46F
:1039B0000DAE19B02846BDE8F08F000009280100BF
:1039C0003031323334353637383961626364656695
:1039D0000000000030313233343536373839414257
:1039E0004344454600000000600700D4062708F164
:1039F000070020F00700F0E80223804603F0004CA7
:103A00005FEA0C0001D097A009E0200501D596A03F
:103A100005E0E00701D095A001E0AFF24C00139063
:103A2000307823F0004365280CD006DC452809D007
:103A300046281DD047287FD13BE0662818D067284C
:103A40007AD136E00021112F01DB112000E0781C33
:103A5000CDE9000104A90CA8FFF7E6FCDDE90D01A2
:103A60000C9A4FF0000B07F10109109200914EE003
:103A70004FF000400097CDE9011004A90CA8FFF712
:103A8000D3FCDDE90D020C9B0F994FF0000B914622
:103A90001093009211B9791C00EB0109B7EB0900F2
:103AA00003D4C0F1FF3B07F10109A9EB0700019026
:103AB00042E0012F00DA01270021112F01DD112042
:103AC00000E03846CDE9000104A90CA8FFF7ACFCE2
:103AD000DDE90D010C9A00914FF0000BB9461092F0
:103AE00021070FD4009A4A4503DA914601E0A9F173
:103AF0000109B9F1010F05DD109AA9F10101515C2D
:103B00003029F4D0B84202DA10F1040F03DA0121AF
:103B1000CDE9011010E0002803DC8344A9EB00018B
:103B200002E0411C494500DD8946A0EB0B00401C2A
:103B300001904FF000400290200705D401984845BD
:103B400002DB4FF0FF30019000208DF84B0002980F
:103B50000DF14B07B0F1004F25D002200C902B2027
:103B60000D90029800280CDA404202902D200D9012
:103B700007E00A210298FCF7AFFF3031029007F806
:103B8000011D0C99481E0C900029F2DC02980028B7
:103B9000EFD1791E0D980870307800F0200040F0C9
:103BA000450007F8020D11A8C01BC01D0290139814
:103BB000007800B1012000EB0901019801EBE071F0
:103BC000029801440398401A401E0390E00306D473
:103BD00053462146179A039800F05CF80544139861
:103BE000007818B15246179990476D1CE00323D511
:103BF00053462146179A039800F04CF805441BE001
:103C0000BBF1000F07DB0098584504DD10981799A9
:103C100010F80B0001E017993020524690470198A8
:103C20000BF1010B401E05F10105019004D12E207E
:103C30005246179990476D1CB9F10001A9F101098D
:103C4000DEDC05E017F8010B5246179990476D1C12
:103C50000299481E02900029F4DC53462146179A27
:103C600003989EE62D0000002B00000020000000BD
:103C70002DE9F041044600251E461746880404D469
:103C800005E039462020B0476D1C641EF9D5284652
:103C9000BDE8F0812DE9F041044600251E4690461E
:103CA000C80301D5302700E02027880404D505E0AB
:103CB00041463846B0476D1C641EF9D52846BDE81C
:103CC000F0810A68531C0B601070704710B530B15A
:103CD000036823B1D0E90121914201D204E0002020
:103CE00010BD491C816020B1914202D25C5C202C45
:103CF000F7D99142F4D1491E816010BD70B50446D8
:103D00000F4E19E0A0892568C0050AD4A06820B12B
:103D1000FFF7F4FFA089C00503D4206908B17168DA
:103D20008847A089800503D4206A08B17168884754
:103D30007168204688472C46002CE3D170BD0000F6
:103D400044000020002200F09BB810B50168282034
:103D50008847040002D02821FCF715FA204610BD40
:103D60000022114600F06EB82DE9F04788B00F46EA
:103D700006469A4615461C216846FCF704FA2F4869
:103D80000024002E0460446055D08146E7B30096BD
:103D9000CDE90174D9E90212D9F810000491CDE9F6
:103DA000052009F10800FFF7D0FF5FEA00082BD0DB
:103DB00000986F4608B1029808B100200CE0019805
:103DC000042808D903221EA10098FCF7FCF910B9B9
:103DD0000298C01C02903846FFF778FF0146404623
:103DE00000F032FC68B1BAF1000F13D06846FFF75B
:103DF0006DFFDDE90101814203D202990098405C28
:103E000040B14046FFF77AFFDDE9011088420AD24F
:103E100004460BE01DB10299009808442860404612
:103E200008B0BDE8F087081E00D0441E0DB130195F
:103E30002860C9E900640020F2E700003C0000208F
:103E4000EFBBBF0070B515460E46040009D0FCF765
:103E5000A5F9411C2B4632462046BDE87040FFF7CD
:103E600083BF002070BD000013B54FF6FF73012221
:103E700069460248FEF769FB00981CBD4801002016
:103E80002DE9F0418846A8B3B8F1000F33D085681A
:103E90000AB90AE02D686DB3296A59B34046FCF7A8
:103EA00084F90028F6D120E02D681DB32E6A5FEA60
:103EB0000804F9D0002EF7D0B44218D002E098B12F
:103EC000641C761C2078FCF73FF907463078FCF735
:103ED0003BF987422078F2D0FCF736F90446307877
:103EE000FCF732F98442DFD125B1286A10B12846A7
:103EF000BDE8F081FFE70020FAE700002DE9F0417E
:103F00000B3020F00706104D19E02068B04215D3A1
:103F1000B0420AD9871B201DD4F80480FCF71AF997
:103F2000A019C0E90078286004E060682860201DBE
:103F3000FCF710F9201D2660BDE8F081251D2C68D6
:103F4000002CE2D10020F7E75400002086B0FDF7F6
:103F500067F9FEF7C8FEFEF79FFBFEF713FDFEF7BD
:103F600037FCFEF7A3FCFEF7D7FCFEF781FDFEF75A
:103F700062FD00217548FEF71BF80C217348FEF71F
:103F800017F83C217248FDF75BFE3C217148FDF7B4
:103F900057FE6F48FDF712FD6E48FDF70FFD6B48A9
:103FA000FDF70CFD6C480068C16841F02001C1605C
:103FB000FEF74CFE694D6A4C0A20FDF703F84FF0FE
:103FC0007E50014600F006F9DFF89881D8F800002D
:103FD000FCF722FDDFF8909106460F46D9F8000065
:103FE000FCF71AFD0B46024660A16448CDE9006764
:103FF000FFF790F900210C23604A0846FEF704FE03
:104000005F480068FCF708FD02460B465DA15B486F
:10401000FFF780F90C23594A01210020FEF7F4FD37
:104020005C4FD8F800003946FCF7E4FAFCF7BCFC1A
:1040300006B23946D9F80000FCF7DCFAFCF7B4FC0C
:104040004FF4967100B20B463246FCF7FFFEFFF7C5
:10405000D9F8002860D15048FFF782FE06464FA1EC
:10406000FFF770FE58B14DA13046FFF76BFED0E967
:10407000061208461146FCF713FD2060686148A14E
:104080003046FFF75FFE58B145A13046FFF75AFEB4
:10409000D0E9061208461146FCF702FD6060A861EF
:1040A00040A13046FFF74EFE58B13EA13046FFF723
:1040B00049FED0E9061208461146FCF7F1FCA06063
:1040C000E86139A13046FFF73DFE58B136A13046D0
:1040D000FFF738FED0E9061208461146FCF7E0FC6F
:1040E000E060286031A13046FFF72CFE60B12FA1BF
:1040F0003046FFF727FED0E9061208461146FCF7C6
:10410000CFFC2B492061086016B13046FFF7F6FD61
:10411000FF212148FCF737F8E068FCF77DFC824678
:104120008B46A068FCF778FC804689466068FCF7FF
:1041300073FC06460F462068FCF76EFC8DE8C00F46
:1041400002460B461BA0FFF7D5F835E770000020AC
:10415000B80000200001002048010020F0020020EB
:1041600000000020240000202000002056313A25C5
:104170002E326656323A252E326600005C00002050
:10418000280000204D696C656167653A252E32660E
:10419000000000000000C8428C01002070000000F8
:1041A000690000006400000061000000620000007F
:1041B00010030020503A252E33662020493A252E40
:1041C00033662020443A252E336620413A252E338B
:1041D000660D0A000C4A10B510600C4801600C48CE
:1041E00001680A48FEF752FDFCF7DEFB0446094869
:1041F00001680548FEF74AFDFCF7D6FB2146BDE8FD
:104200001040FEF7DDBB0000F0020020100300208C
:1042100024000020200000202DE9F0410746002660
:10422000C8680C463546B0F57A7F5BD2401CE0602A
:104230002168A068095C5B2954D1401CA06020461D
:10424000FFF744FD4CB1D4E90110884203D2226843
:10425000125C5D2A33D0884203D3A068401EA06060
:1042600040E0401E04F11008A0604046FFF76DFDDD
:1042700098B30EB3286045600546A068401CA06056
:104280002046FFF723FD2146284600F0DDF930B334
:104290002046FFF71BFD14B3D4E90110884203D276
:1042A0002168095C2C29E0D06268904217D221680D
:1042B000085C5D2813D102E006463546DDE7E0687C
:1042C000401EE06006B175602020C7E90260A0686A
:1042D000401CA0600120BDE8F081FFE716B1304628
:1042E000FFF70CFD0020F6E7034610B5002002465C
:1042F000995CA1F13004092C01D830380AE0A1F111
:104300004104052C01D8373804E0A1F16104052CE3
:1043100008D857380844032A00D20001521C042A46
:10432000E6D310BD002010BD2DE9F04192B04FF052
:1043300000070C0005464FF02E063B4610973CD078
:104340002068D0B3694627E0226810441A5C342AFA
:104350001BD00ADCA2F12B00092823D2DFE800F0F1
:1043600015221517221515151500382A0DD006DC53
:10437000352A0AD0362A08D0372A13D105E0392A3F
:1043800003D0452A01D0652A0CD1CA5400E0CE548E
:104390005B1C3F2B06D22CB1A068D4F804C0C21815
:1043A0006245D1D38846CF54404610A900F000FAA8
:1043B0000F4610990646884503D1002012B0BDE88B
:1043C000F081124A124B30463946C5E90667FCF7C0
:1043D0004FFB02D86FF000400DE000220D4B30463D
:1043E0003946FCF72DFB02D84FF0004003E0304681
:1043F0003946FCF7F2FA68610820E860109AA16873
:10440000A2EB08000844A0600120D7E70000C0FF2D
:10441000FFFFDF410000E0C12DE9F0410746002623
:10442000C8680C463546B0F57A7F78D2401CE0600B
:10443000002C74D0D4E90110884270D22168095C44
:104440007B296CD1401CA0602046FFF73FFCD4E9DB
:104450000110884203D22268125C7D2A4CD0884227
:10446000A0F10100A0605AD204F110084046FFF705
:104470006CFCE8B3F6B1286045600546A068401CB6
:10448000A0602046FFF722FC2146284600F049F8AC
:1044900078B32046FFF71AFC2869286200202861BB
:1044A0003CB3D4E90110884236D22168095C3A292C
:1044B00032D102E006463546E0E7401CA0602046C7
:1044C000FFF704FC2146284600F0BEF888B12046DC
:1044D000FFF7FCFBD4E90110884203D22168095C94
:1044E0002C29C3D06268904216D22168085C01E092
:1044F00011E011E07D280FD1E068401EE06006B1B8
:1045000075604020C7E90260A068401CA0600120DF
:10451000BDE8F08103E016B13046FFF7EFFB002065
:10452000F6E72DE9F84F8146D1F8088008684FF08A
:10453000000ACDF800A0D1F800C000EB0804651C0B
:104540001CF80800641C0E465746222876D100212C
:10455000706807E05C2B04D1521C82426AD2491C6D
:10456000641C641CA4EB0C02824202D22378222B2E
:10457000F0D1A4EB0C0282425CD22078222859D1DF
:104580000CEB0800201A401A3169401C88470700CC
:1045900054D000973DE029785C2905D000986D1C27
:1045A00000F8011B009034E00221601B012841DB70
:1045B0006878662814D008DC22281DD02F281BD04C
:1045C0005C2819D0622835D108E06E280ED07228F8
:1045D0000ED074280ED075282CD112E0082200E0ED
:1045E0000C22009800F8012B009011E00A22F8E755
:1045F0000D22F6E70922F4E7009A02F8010B009277
:1046000006E06A462146284600F0E0F8010011D095
:104610000D44A542BFD3009981F800A01021C9E93B
:1046200003173068201A401CB0600120BDE8F88FE5
:1046300004E0FFE717B171693846884715B1306863
:10464000281AB0600020F1E770B50C0005465ED076
:10465000216800295BD0A0686368021D9A4205D8D2
:104660000844042231A1FBF7AEFD78B3A06862686C
:10467000411D0126914206D82168052208442DA13A
:10468000FBF7A1FD28B3A0686268011D914206D81E
:1046900021680422084429A1FBF795FDE8B1D4E97B
:1046A0000101814203D22268525C222A1DD081423C
:1046B00021D22268525C2D2A02D0303A092A1AD817
:1046C00021462846BDE87040FFF72EBE0420E86072
:1046D00006E0EE60A068401D04E002206E61E86024
:1046E000A068001DA060012070BD21462846BDE8DD
:1046F0007040FFF716BF814203D22268525C5B2AEA
:1047000007D0814203D22068405C7B2807D000207C
:1047100070BD21462846BDE87040FFF77DBD2146AB
:104720002846BDE87040FFF777BE00006E756C6CE0
:104730000000000066616C736500000074727565AE
:10474000000000002DE9F04704008A4616D054F816
:10475000047CD4F800903E1F564500D956462046AA
:10476000FEF7FCFD05468846324621465046FFF7D7
:10477000C5FB40B1C0F80090BDE8F087BDE8F04748
:104780000846FEF719BE44E9017955B129686A184F
:10479000211F8A4202D9611B091F2960C5F80480C4
:1047A000EAE7024AC2F80080E6E700005400002071
:1047B00000B583B00A460021CDE9001101466846E4
:1047C000FCF72DFADDE9000103B000BD2DE9F0474B
:1047D00007460026C81B1446894606285CDBB81C21
:1047E000FFF782FD0546A0F55C404FF480618842EA
:1047F00052D3A5F558408A4650451AD2B81DA9EBA8
:1048000000014FF00C08062946DB01785C2943D1F2
:104810004178752940D1801CFFF766FDA0F55C4109
:10482000514539D2C5F3090161F39F2000F580306D
:1048300002E04FF006082846802801D2012210E04D
:10484000B0F5006F02D20222C0260AE0B0F5803F28
:1048500002D20322E02604E0B0F5881F1CD2042215
:10486000F026511E07E000F0BF03256843F08003E7
:1048700080096B54491E11F0FF01F4D1012A01D9BE
:10488000304301E000F07F00216808702068104488
:1048900020604046BDE8F0870020FBE700000000F4
:1048A00000000000010203040607080900000000E0
:1048B000010203040000000000000000002F0000BF
:1048C00000000700070000147F147F1400242A7FD3
:1048D0002A12006264081323003649552250000052
:1048E0000503000000001C224100000041221C00C2
:1048F0000014083E08140008083E0808000000A044
:10490000600000080808080800006060000000203F
:1049100010080402003E5149453E0000427F40001D
:10492000004261514946002141454B3100181412A3
:104930007F10002745454539003C4A494930000170
:104940007109050300364949493600064949291EBF
:104950000000363600000000563600000008142221
:104960004100001414141414000041221408000221
:104970000151090600324959513E007C1211127C46
:10498000007F49494936003E41414122007F414173
:10499000221C007F49494941007F09090901003E65
:1049A0004149497A007F0808087F0000417F4100A3
:1049B000002040413F01007F08142241007F404019
:1049C0004040007F020C027F007F0408107F003E01
:1049D0004141413E007F09090906003E4151215EE7
:1049E000007F091929460046494949310001017FE4
:1049F0000101003F4040403F001F2040201F003F7A
:104A00004038403F0063140814630007087008072B
:104A100000615149454300007F41410000552A553E
:104A20002A55000041417F000004020102040040B9
:104A300040404040000001020400002054545478DB
:104A4000007F4844443800384444442000384444FB
:104A5000487F00385454541800087E090102001899
:104A6000A4A4A47C007F080404780000447D4000D6
:104A7000004080847D00007F102844000000417FBA
:104A80004000007C04180478007C08040478003896
:104A90004444443800FC242424180018242418FC1E
:104AA000007C0804040800485454542000043F4487
:104AB0004020003C4040207C001C2040201C003C4A
:104AC0004030403C004428102844001CA0A0A07C9A
:104AD000004464544C4414141414141400000000D2
:104AE000000000000000000000000000000000F8CE
:104AF00000000000000000333000000000100C0631
:104B0000100C0600000000000000000040C07840CB
:104B1000C0784000043F04043F040400007088FC97
:104B200008300000001820FF211E0000F008F000EF
:104B3000E018000000211C031E211E0000F0088860
:104B4000700000001E2123241927211010160E00CA
:104B5000000000000000000000000000000000E075
:104B6000180402000000000718204000000204188A
:104B7000E00000000040201807000000404080F0E6
:104B8000804040000202010F01020200000000F01C
:104B9000000000000101011F0101010000000000F0
:104BA0000000000080B07000000000000000000065
:104BB00000000000000101010101010100000000EE
:104BC0000000000000303000000000000000000085
:104BD00080601804006018060100000000E0100862
:104BE0000810E000000F102020100F00001010F837
:104BF000000000000020203F202000000070080876
:104C000008887000003028242221300000300888F5
:104C1000884830000018202020110E000000C0201D
:104C200010F8000000070424243F240000F808883E
:104C3000880808000019212020110E0000E01088CB
:104C400088180000000F112020110E0000380808FD
:104C5000C83808000000003F00000000007088080D
:104C600008887000001C222121221C0000E010088E
:104C70000810E0000000312222110F00000000C0E7
:104C8000C000000000000030300000000000008084
:104C90000000000000008060000000000000804074
:104CA000201008000001020408102000404040408D
:104CB00040404000040404040404040000081020E0
:104CC0004080000000201008040201000070480825
:104CD0000808F0000000003036010000C030C8288D
:104CE000E810E0000718272423140B000000C03848
:104CF000E0000000203C23020227382008F88888C2
:104D000088700000203F202020110E00C0300808CD
:104D100008083800071820202010080008F80808A4
:104D20000810E000203F202020100F0008F888889D
:104D3000E8081000203F20202320180008F8888869
:104D4000E8081000203F200003000000C0300808E1
:104D50000838000007182020221E020008F808006A
:104D60000008F808203F210101213F20000808F831
:104D7000080800000020203F202000000000080854
:104D8000F8080800C08080807F00000008F888C014
:104D900028180800203F20012638200008F80800C5
:104DA00000000000203F20202020300008F8F800FC
:104DB000F8F80800203F003F003F200008F830C00E
:104DC0000008F808203F200007183F00E0100808FE
:104DD0000810E0000F10202020100F0008F808082D
:104DE0000808F000203F210101010000E010080840
:104DF0000810E0000F18242438504F0008F8888865
:104E000088887000203F2000030C30200070880844
:104E1000080838000038202121221C00180808F852
:104E2000080818000000203F2000000008F80800D3
:104E30000008F808001F202020201F0008788800A4
:104E400000C83808000007380E010000F80800F814
:104E50000008F800033C0700073C030008186880BE
:104E60008068180820302C03032C30200838C80034
:104E7000C83808000000203F200000001008080883
:104E8000C83808002038262120201800000000FE25
:104E9000020202000000007F40404000000C30C0D1
:104EA00000000000000000010638C00000020202FD
:104EB000FE000000004040407F00000000000402AF
:104EC00002020400000000000000000000000000DA
:104ED00000000000808080808080808000020204CA
:104EE00000000000000000000000000000008080C2
:104EF000808000000019242222223F2008F8008030
:104F000080000000003F112020110E0000000080F2
:104F100080800000000E1120202011000000008081
:104F20008088F800000E112020103F2000008080B3
:104F300080800000001F222222221300008080F0C7
:104F4000888888180020203F2020000000008080F2
:104F500080808000006B94949493600008F8008037
:104F600080800000203F210000203F200080989892
:104F7000000000000020203F2020000000000080F2
:104F80009898000000C08080807F000008F8000032
:104F900080808000203F24022D302000000808F887
:104FA000000000000020203F202000008080808042
:104FB00080808000203F20003F20003F80800080D4
:104FC00080800000203F210000203F2000008080E2
:104FD00080800000001F202020201F008080008093
:104FE0008000000080FFA12020110E000000008042
:104FF00080808000000E112020A0FF808080800033
:105000008080800020203F2120000100000080805F
:10501000808080000033242424241900008080E054
:10502000808000000000001F202000008080000021
:1050300000808000001F202020103F208080800002
:105040000080808000010E30080601008080008012
:10505000008080800F300C030C300F000080800037
:10506000808080000020312E0E3120008080800062
:105070000080808080818E70180601000080808012
:10508000808080000021302C2221300000000000B0
:10509000807C020200000000003F40400000000051
:1050A000FF00000000000000FF0000000002027C82
:1050B000800000000040403F0000000000060101A9
:1050C000020204040000000000000000DDDDDDDD60
:1050D000DCBBBBDDDDDDDDDDDDDDDDDD9888888889
:1050E0008888888877777777778888888555555630
:1050F0006666666666666666666888888333333287
:1051000022222222222222222228888D2C510008AB
:10511000000000205C0000000834000888510008EE
:105120005C000020D41200001834000800000000C9
:10513000000000000000000000000000000000006F
:10514000000000000000000000000000000000005F
:10515000000000000000000001000000100000003E
:10516000000000000024F400000000000000000027
:10517000B93300085D33000845470008000000000F
:08518000000000000000000027
:04000005080000ED02
:00000001FF
