:020000040800F2
:10000000400B002005010008FD2D00081D290008F7
:10001000852D0008F509000859350008000000008A
:10002000000000000000000000000000D92F0008C0
:10003000F709000800000000D72F0008DB2F000898
:100040001F0100081F0100081F0100081F01000810
:100050001F0100081F0100081F0100081F01000800
:100060001F0100081F010008010A00081F01000805
:100070001F0100081F0100081F0100081F010008E0
:100080001F0100081F0100081F0100081F010008D0
:100090001F0100081F0100081F0100081F010008C0
:1000A0001F0100085D3000081F0100081F01000843
:1000B000693000081F010008753000081F010008A2
:1000C0001F0100081F0100081F0100081F01000890
:1000D0001F010008093500081F0100084D35000800
:1000E000F90900081F0100081F010008DFF810D0FF
:1000F00000F008FC00480047713F0008AFF30080A3
:10010000400B00200648804706480047FEE7FEE710
:10011000FEE7FEE7FEE7FEE7FEE7FEE7FEE7FEE7B7
:1001200059300008ED000008202A04DB203A21FAAB
:1001300002F00021704721FA02F3D040C2F1200200
:100140009140084319467047D2B201E000F8012BF4
:10015000491EFBD270470022F6E710B513460A4647
:1001600004461946FFF7F0FF204610BD421C10F868
:10017000011B0029FBD1801A7047F0B480EA01020C
:10018000D40F4200B2EB410F02D20246084611469C
:100190004A0042D0C30DDDB2C1F3C752AD1A202DC3
:1001A00035DAC1F3160141F4000204B15242C5F13F
:1001B000200602FA06F12A411044B3EBD05F23D0A7
:1001C000C4B1012DA0EBC35009DCF0BC4FF00042DC
:1001D00002EAC352DBB200F5000000F0F0BA4000C2
:1001E00000F1807000EBC350A0F1807040EAD17044
:1001F000490009E0490841EAC071A0EBC35000F58D
:100200000000400800EBC350F0BC00F0CFBA6142E0
:10021000012202EB4101001BF6E7F0BC704781F0C0
:100220000041AAE780F00040A7E780EA010210B58C
:1002300002F00043400022D04A001FD0010E01EB23
:100240001261C0F35600C2F3560240F4000042F4BB
:100250000002A0FB022000047F39140400D0401CDF
:1002600050EA124001D44000491EC2B20C0604EB11
:10027000D010401C4008802A02D003E0002010BDAE
:1002800020F00100002900DA0020184310BD4200D0
:1002900005D0C0F3C7525242914201DC00207047A2
:1002A00000EBC15070472DE9FE4F804681EA030004
:1002B000C00F0C46009021F0004123F00045B8EB40
:1002C0000200A94105D24046214690461C460B46F5
:1002D000024623F00040104347D0270DC7F30A0021
:1002E000C3F30A510290401A019040286BDAC3F31D
:1002F000130040F4801B0098924620B10023D2EBFB
:10030000030A63EB0B0B01985946C0F140025046BB
:1003100000F02BFA06460D4650465946019A00F069
:1003200033FA10EB08006141002487EA115284EA95
:10033000E7731A4340D0009A62B3019A012A4FEA48
:10034000075215DC001B61EB02014FF0004202EA8C
:100350000752CDE90042001C41F5801132462B4680
:1003600000F06AFA03B0BDE8F08F40462146F9E795
:10037000001B61EB0201001C41F5801300185B417A
:100380002018A2F5001747EB030140EAD570B61913
:100390006D4111E06D084FEA360645EAC0754FEA37
:1003A0000752001B61EB0201001C41F58011490856
:1003B0004FEA30000019514132462B4603B0BDE8E8
:1003C000F04F00F02ABA0098012240000023D0EB41
:1003D000020263EBE073009821464FEAE074B8EB49
:1003E000000061EB0401E9E783F000435BE781F083
:1003F000004158E72DE9FE4F81EA030404F0004470
:1004000021F0004100944FF0000B23F0004350EA2C
:1004100001045ED052EA03045BD0C3F30A54C1F373
:100420000A552C44A4F2F3340194A0FB0254C1F306
:10043000130141F48011C3F3130343F4801301FB50
:10044000024400FB034E840A970A44EA815447EAB7
:100450008357A4FB076802958D0A05FB07854FEAC1
:10046000932C04FB0C542705029D4FEA065847EADB
:100470001637B5EB08056EEB070C870E920E47EAB0
:10048000811742EA8312A7FB0201B6EB0B0164EB72
:1004900000042B0D43EA0C335E1844EB1C50DA4683
:1004A0005146E7FB0201C5F313044FEA0B3343EA5D
:1004B00014534FEA0432019C43EA0603A4F10C04EE
:1004C0000294009CCDE900B400F0B6F903B0BDE899
:1004D000F08F00200146F9E72DE9F04D81EA030491
:1004E00004F0004B21F0004514464FF0000A23F0C1
:1004F000004150EA050220D054EA01021DD0C5F3A4
:100500000A570246C5F31303C1F31300C1F30A5699
:1005100040F4801543F48013A7EB0608101BD64661
:1005200008F2FD3873EB050002D308F1010801E081
:1005300092185B41B8F1000F03DA00200146BDE8D4
:10054000F08D00204FF48011064684460EE0171B04
:1005500073EB050705D3121B63EB050306434CEA57
:10056000010C49084FEA300092185B4150EA01073C
:10057000EDD152EA030012D082EA040083EA0501B9
:10058000084305D0101BAB4106D20122002306E030
:1005900000224FF0004302E06FF0010253101AEB0B
:1005A00006004CEB085110EB0A0041EB0B01BDE8D3
:1005B000F04D00F032B970B521F0004303430CD088
:1005C000C1F30A550024D5EB040564EB0403D617E8
:1005D000AD1AB34102DB0020014670BD201841EB8B
:1005E000025170BDC10F80EAE0700844CA0796232B
:1005F000002100F0E4B896230022114600F0DFB895
:100600000EB540F2334102910021CDE900110A46B6
:100610000B4600F011F903B000BD00F0004220F0DD
:100620000040C10DC0F3160040F400007F2901DA3C
:1006300000207047962903DCC1F19601C84001E013
:1006400096398840002AF4D04042704700F00042BA
:1006500030F000400AD0C10D01F56071C0F3160002
:1006600042EA0151C2084007114370470020014689
:100670007047000030B5041E71F1000404DB4FF038
:100680000044404264EB0101141E73F1000405DBD9
:100690001C464FF00043524263EB0403994208BFEB
:1006A000904230BD01F0004330B421F0004150EAE7
:1006B000010206D00A0DA2F56072C1F31301002AEF
:1006C00002DC30BC00207047440F44EAC104C10082
:1006D000E01830BC00EBC25000F068B830B50B46F3
:1006E000014600202022012409E021FA02F59D4262
:1006F00005D303FA02F5491B04FA02F52844151E36
:10070000A2F10102F1DC30BD2DE9F05F05460020C9
:1007100092469B4688460646814640241BE0284672
:10072000414647462246FFF7FFFC53465A46C01A49
:10073000914110D311461846224600F016F82D1AA2
:1007400067EB01084F4622460120002100F00DF81A
:1007500017EB00094E41201EA4F10104DFDC4846DE
:1007600031462A464346BDE8F09F202A04DB203A62
:1007700000FA02F1002070479140C2F1200320FAF4
:1007800003F3194390407047202A06DBCB17203A29
:1007900041FA02F043EAE07306E041FA02F3D04086
:1007A000C2F1200291400843194670470029A8BFB2
:1007B0007047401C490008BF20F00100704710B48A
:1007C000B0FA80FC00FA0CF050EA010404BF10BC3F
:1007D000704749B1CCF1200421FA04F411FA0CF16C
:1007E00018BF012121430843A3EB0C01CB1D4FEAA5
:1007F00000614FEA102042BF002010BC704700EBA0
:10080000C35010440029A4BF10BC7047401C4900CD
:1008100008BF20F0010010BC704710B5141E73F122
:10082000000408DA401C41F1000192185B411A43B0
:1008300001D120F0010010BD2DE9F04D92469B46FC
:1008400011B1B1FA81F202E0B0FA80F220329046A2
:10085000FFF78BFF04460F4640EA0A0041EA0B010E
:1008600053465A46084313D0114653EA010019D0A3
:10087000C8F140025046FFF757FC05460E46504669
:1008800059464246FFF771FF084305D0012004E0B6
:1008900020463946BDE8F08D0020054346EAE07663
:1008A0002C4337430A986305E40AA0EB08000022B2
:1008B000FD0A44EA47540A3002D500200146E9E720
:1008C000010510196941DDE9084500196941BDE8D4
:1008D000F04DA2E7C1F30A52C1F3130140F2FF3316
:1008E00041F480119A4202DA00200146704740F23A
:1008F00033439A42A2F2334202DC5242FFF714BC65
:10090000FFF733BF064C074D06E0E06840F00103F7
:1009100094E8070098471034AC42F6D3FFF7EAFB9F
:10092000B8410008D841000870B5044600688168E5
:10093000C943C90716D1816821F00101816000F027
:1009400033FC054609E000F02FFC401B022804D9C7
:1009500020688068C043C00706D020688068C04314
:10096000C007F0D0002070BDA06A40F01000A06267
:10097000E06A40F00100E062012070BDF8B5002699
:100980000446009600688168C943C9072CD0816875
:1009900041F001018160154815490068B0FBF1F094
:1009A00000E0401E00900028FBD100F0FDFB054652
:1009B00015E000F0F9FB401B022810D92068806880
:1009C000C043C0070BD0A06A40F01000A062E06AEC
:1009D00040F00100E06284F824600120F8BD206846
:1009E0008068C043C007E4D10020F8BD2400002087
:1009F00040420F00FEE770474FF4805000F0D0BA3D
:100A0000102000F0CDBA72B6FEE70000F8B5002362
:100A1000009390F824201C46012A12D0012280F86D
:100A200024204A681F26072A0DD205686F6B521EC4
:100A300002EB82029640B7430E68964037436F63DD
:100A400019E00220F8BD05680D2A0AD22F6BD21FCB
:100A500002EB82029640B7430E68964037432F63FD
:100A600009E0EF6A0D3A02EB82029640B7430E6846
:100A700096403743EF620A68072605680A2A0AD3B8
:100A8000EF680A3A02EB42029640B7438E689640FE
:100A90003743EF6008E02F6902EB42029640B7430C
:100AA0008E68964037432F610A68102A01D0112AB8
:100AB00020D1124D0268AA4217D195682D0219D48F
:100AC000956845F4000595600968102912D10C4914
:100AD0000C4A0968B1FBF2F101EB8101490000E029
:100AE000491E00910029FBD104E0816A41F02001F8
:100AF0008162012380F824401846F8BD002401409B
:100B00002400002040420F000068C06C70470000C5
:100B10002DE9F0414FF00006040035467DD0A06A73
:100B2000002728B9E76284F82470204600F07EF898
:100B30002046FFF7F9FEA16AC90600D420B1A06AD9
:100B400040F01000A06268E0A16A21F4885141F0F1
:100B50000201A1626268E169237B0A4346EA43011C
:100B60000A43A1684FF48076B14208D0012906D02B
:100B7000002194F814C0BCF1010F02D00AE0314604
:100B8000F7E7F3B1A36A43F02003A362E36A43F0FB
:100B90000103E3622368D3F804C02CF4694C4CEAE7
:100BA000010CC3F804C021688B68DFF874C003EA45
:100BB0000C0313438B60A168B1420BD0012909D00B
:100BC0000CE0DFF860C0A3690CEB43330B4343F444
:100BD0000061DFE7218A0D05A5F580152168CB6A44
:100BE00023F470032B43CB62216889680E4B1940B4
:100BF000914208D1E762A16A21F0020141F00101AE
:100C0000A162BDE8F081A06A20F0020040F010006F
:100C1000A062E06A40F00100E0620120F1E700001C
:100C2000FDF7E1FF00E0FFFFFE0E1FFF00B585B0FE
:100C30000021009101910291039100680E498842C0
:100C400018D10E48816941F480618161816901F4A4
:100C500080610491816941F0040181618069694684
:100C600000F004000490102000900320019004483C
:100C700000F0A2F905B000BD0028014000100240BC
:100C8000000801402DE9F8434FF000080D460446E6
:100C9000CDF8008000F088FA074620688168C90511
:100CA00008D5A06A40F02000A06284F824800120CA
:100CB000BDE8F8834168C90503D4C06A10F4700F19
:100CC00029D0022000F00EFB3A490968B1FBF0F68A
:100CD00020680169384A11424FEA62024FEAA213C2
:100CE0001ED1C1684FEA621C11EA0C0F18D10169CC
:100CF000114224D1C068184221D1142022E0681C7E
:100D000009D025B100F050FAC01BA84203D92068D1
:100D10000068800724D5206800688007EFD52CE0A4
:100D20000169114202D1C168194206D00269234902
:100D30000A4206D1C068084203D1542002E02920AB
:100D400000E0FC204643009815E0681C10D025B157
:100D500000F02AFAC01BA8420AD90098B04207D274
:100D6000A06A40F00400A06284F8248003209FE77A
:100D70000098401C0090B042E7D321686FF0120049
:100D80000860A06A40F40070A06220688068C0F328
:100D9000424007280CD1207B50B9A06A20F4807013
:100DA000A062A06AC00403D4A06A40F00100A0625F
:100DB00000207DE724000020244992244992240049
:100DC00070B5044690F8240001280DD0012084F865
:100DD00024002046FFF7D2FD01004FF0000205D0AD
:100DE00084F82420084670BD022070BDA06A40F23D
:100DF0000123984340F48070A0621F4D20681F4B70
:100E0000A84218D11E6816F4702F14D0A66A46F4B2
:100E10008016A6621E68760505D5A66A26F40056D9
:100E200046F48056A662A66AF6040AD5E66A26F05B
:100E30000606E66206E0A66A26F48016A662466802
:100E4000E9E7E26284F824206FF002020260206881
:100E50008268C2F34242072A05D1A84208D11A6823
:100E600012F4702F04D0826842F480128260B9E7D5
:100E7000826842F4A002F9E70028014004240140FE
:100E800010B590F821100022022905D004218163B9
:100E900080F82020012010BD01680B6823F00E03AC
:100EA0000B6001680B6823F001030B6090F8403081
:100EB000012404FA03F1C36B596080F8214080F8E3
:100EC0002020104610BD000010B590F8211000241D
:100ED000022903D00421816301243DE001680A68EE
:100EE00022F00E020A6001680A6822F001020A601C
:100EF0001A4A0168914201D1012121E0174A1432B6
:100F0000914201D110211BE0144A2832914201D1B3
:100F1000891515E0114A3C32914201D189140FE044
:100F20000E4A5032914202D14FF4803108E00B4A10
:100F30006432914202D14FF4801101E04FF0807190
:100F4000064A083A5160012180F82110002180F8FA
:100F50002010416B01B18847204610BD08000240B7
:100F600070B5044600F020F90546601C02D0044824
:100F70000078044400F018F9401BA042FAD370BD79
:100F800018000020054A4FF40051102802D0B0F597
:100F9000805F02D1104600F0FAB87047001001409F
:100FA000044910B50A68024202D00860FFF7EAFF60
:100FB00010BD0000140401402DE9F84FDFF8A491A2
:100FC000002409F1040A0AF1040B23464FF00F082C
:100FD0000BF1040EBEE00127A7403A40BA4272D19D
:100FE000DFF884C14D68A5EB0C0665452BD00DDC00
:100FF000032D34D005DC35B3012D19D0022D2FD1AE
:101000001BE0112D16D0122D2AD119E0B6F5881F3C
:1010100019D006DCB6F5803F15D0B6F5801F1FD17C
:1010200011E0B6F5001F0ED0B6F5041F18D10AE086
:10103000CB6815E0CB681B1D12E0CB6808330FE0CE
:10104000CB680C330CE08B682BB1012B4FF00803FD
:1010500003D0476104E0042302E0076100E00023BD
:10106000FF2A01D8064601E000F104064FEA840594
:1010700001D9A5F12005376808FA05FC27EA0C0715
:1010800003FA05F547EA050737604D68ED0060D5BE
:10109000364DAE6946F00106AE61AD6924F0030637
:1010A00005F001050095324D7719BE68A5072D0F93
:1010B00008FA05FC26EA0C06DFF8B8C0604503D143
:1010C0004FF0000C17E044E0DFF8ACC0604502D1FF
:1010D0004FF0010C0FE0DFF8A4C0604502D14FF0E3
:1010E000020C08E0DFF898C0604502D14FF0030C15
:1010F00001E04FF0040C0CFA05FC4CEA060CC7F8B2
:1011000008C04D68D9F80060ED034D4601D516437F
:1011100000E096432E604D68DAF80060AD03554656
:1011200001D5164300E096432E604D68DBF8006061
:10113000ED025D4601D5164300E096432E604D68F2
:10114000DEF80060AD02754601D5164300E0964317
:101150002E60641C0A6832FA04F57FF43CAFBDE8E7
:10116000F88F000000040140000011100010024040
:101170000000014000080140000C01400010014047
:10118000001401408068084000D001207047C26808
:1011900021EA02030A4043EA0241016170470AB1B1
:1011A000016170470904FBE701488068704700004F
:1011B000180000200248816802781144816070475D
:1011C00018000020074810B5016841F010010160C7
:1011D000032000F075F80F2000F006F800F024F866
:1011E000002010BD0020024070B50D4D04464FF4A4
:1011F0007A712878B1FBF0F00A490968B1FBF0F088
:1012000000F0C4FB48B9102C07D200222146501E22
:1012100000F036F800206C6070BD012070BD000049
:1012200018000020240000200C4808B5816941F016
:1012300001018161816901F001010091C16941F001
:101240008051C161C069064900F080500090486833
:1012500020F0E06040F00070486008BD00100240DF
:1012600000000140002809DB00F01F02012191402D
:101270004009800000F1E020C0F800117047000034
:10128000F0B40E4B1B68C3F30223C3F10704042C14
:1012900000D904241D1D072D01D2002300E0DB1E10
:1012A000012606FA04F56D1E0D409D409E40761EF7
:1012B000164045EA0601F0BC02F0C4B90CED00E0AE
:1012C000064A00F0070110684FF6FF03184040EA95
:1012D0000120034908431060704700000CED00E056
:1012E0000000FA0510B5014627A086B01DC88DE89C
:1012F0001D0029A0294C006804900020012922D05B
:10130000022939D010291CD161682268D20118D570
:10131000C1F38342C9031DF8020009D5616804AA1C
:10132000C1F34041515C1E4AB2FBF1F1484301E078
:101330001C4948436168490203D440000321B0FBC3
:10134000F1F006B010BD216AC1F30122012A03D1D8
:10135000890701D5D003F4E7022A05D1616A89071C
:1013600002D549F64040ECE7032AEAD12168890317
:10137000E7D54FF22440E4E700F036F96168C1F3A5
:101380008131491C4900DAE7020304050607080910
:101390000A0B0C0D0E0F101001020000001002408D
:1013A00000127A0000093D002DE9F8430446007858
:1013B000344FC00752D0F8690025C00008D4F8693E
:1013C00040F08050F861F869012500F080500090ED
:1013D0002D480168C90511D40168804641F4807127
:1013E0000160FFF7E1FE064604E0FFF7DDFE801B2B
:1013F000642822D8D8F80000C005F6D5386A10F461
:10140000407020D0A18801F4407181421BD0386A1D
:101410001E49012220F440700A6000220A603862EE
:10142000C00710D0FFF7C0FE064641F2883807E03B
:10143000FFF7BAFE811B414502D90320BDE8F883BE
:10144000386A8007F4D5386A616820F44070084330
:1014500038621DB1F86920F08050F861207880076B
:1014600005D57868A16820F440400843786020786A
:10147000C00605D57868E16820F4800008437860EC
:101480000020DBE7001002400070004040044242B0
:101490002DE9F0470D46040067D0DFF81881D8F831
:1014A000000000F00700A8420CD2D8F8001021F08C
:1014B00007012943C8F80010D8F8000000F0070021
:1014C000A84252D120683C4E810712D5400703D56F
:1014D000706840F4E06070602078000703D57068A1
:1014E00040F4605070607068A16820F0F00008431C
:1014F00070602078C00727D06068012810D031685C
:10150000022810D0890700292FDA716821F0030121
:1015100001437160FFF748FE074641F288390CE04D
:1015200031688903EFE78901EDE7FFF73DFEC11B55
:10153000494502D90320BDE8F0877068616800F072
:101540000C00B0EB810FF0D1D8F80010404601F04C
:101550000701A9420BD9016821F007012943016065
:10156000006800F00700A84201D00120E3E72078DE
:10157000400705D57068E16820F4E06008437060BA
:101580002078000706D57068216920F4605040EA91
:10159000C100706000F038F87168084AC1F30311A7
:1015A000515CC8400649086006480068FFF71CFE09
:1015B0000020C0E70020024000100240A0410008C7
:1015C000240000201C0000200448054900684968E8
:1015D000044AC1F30221515CC84070472400002036
:1015E00000100240B04100080448054900684968FD
:1015F000044AC1F3C221515CC84070472400002056
:1016000000100240B041000812A085B00FC88DE85C
:101610000F0014A0144B006804905968134801F09F
:101620000C02042A10D0082A0ED1C1F38342C90348
:101630001DF802000AD5596804AAC1F34041515C63
:101640000A4A5043B0FBF1F005B0704708494843DF
:10165000FAE7000002030405060708090A0B0C0D4F
:101660000E0F1010010200000010024000127A005C
:1016700000093D002DE9F84F04006FD02078BE4DE1
:10168000C00747D06868C0F38100012807D06868A8
:10169000C0F38100022809D16868C00306D5286814
:1016A000800337D560680028E7D033E06068B0F584
:1016B000803F0BD010B1B0F5A02F11D0286820F4D6
:1016C00080302860286820F4802002E0286840F4F8
:1016D00080302860606888B1FFF766FD064609E043
:1016E000286840F480202860F0E7FFF75DFD801B4C
:1016F000642873D828688003F7D50BE0FFF754FD02
:10170000064604E0FFF750FD801B6428F1D82868E6
:101710008003F7D42078DFF8648280074FF0010A55
:101720004FF0000939D5686810F00C0F07D06868D1
:10173000C0F38100022809D16868C00306D4286874
:10174000800714D52069012808D110E02069B0B1C4
:10175000C8F800A0FFF728FD064605E007E1FFF7FF
:1017600023FD801B0228C4D828688007F7D5286885
:10177000616920F0F80040EAC10028600DE0C8F877
:101780000090FFF711FD064604E0FFF70DFD801BFA
:10179000022823D828688007F7D4207800072CD5A2
:1017A0007748A169D9B1C0F800A0FFF7FDFC064653
:1017B00004E0FFF7F9FC801B02280FD8686A800755
:1017C000F7D570484FF4FA510068B0FBF1F0009083
:1017D00000BF0098411E0091FAD20EE07CE0C0F8F4
:1017E0000090FFF7E1FC064604E0FFF7DDFC801BFC
:1017F000022871D8686A8007F7D4207840075BD543
:10180000E8690027C00008D4E86940F08050E8612A
:10181000E869012700F0805000905B480168C90525
:1018200011D40168834641F480710160FFF7BCFC6C
:10183000064604E0FFF7B8FC801B64284CD8DBF8B0
:101840000000C005F6D5E06801280AD008B10528D7
:1018500013D0286A20F001002862286A20F00400D2
:1018600002E0286A40F001002862E06841F2883B0B
:1018700088B1FFF799FC064609E0286A40F00400A9
:101880002862EEE7FFF790FC811B59455BD8286A78
:101890008007F7D50BE0FFF787FC064604E0FFF76B
:1018A00083FC811B59454ED8286A8007F7D41FB1A5
:1018B000E86920F08050E861E069A8B36968C1F385
:1018C0008101022946D00228484606D0C8F86000A7
:1018D000FFF76AFC044639E035E04746C8F8600087
:1018E000FFF762FC064604E0FFF75EFC801B02285F
:1018F00029D828688001F7D4206AB0F5803F05D147
:101900006868A16820F4003008436860D4E90801E1
:101910000843696821F4741108436860C7F860A03F
:10192000FFF742FC044605E023E0FFF73DFC001B07
:10193000022808D828688001F7D51AE0FFF734FCA0
:10194000001B022802D90320BDE8F88F2868800117
:10195000F4D40EE00128F7D06868226A00F48031E0
:10196000914204D1616A00F47010884201D00120D4
:10197000EAE70020E8E700000010024000004242D1
:1019800080044242240000200070004010B5401E38
:10199000B0F1807F01D3012010BD4FF0E0246061E1
:1019A0000F21601701F04EFE0020A061072020618A
:1019B000002010BD7047704710B590F83C20012AF8
:1019C00022D0012280F83C20CA688C6822F4407240
:1019D00022434C6822F4806222430C6822F40062A5
:1019E00022430C6922F4805222434C6922F40052B3
:1019F0002243C969002322F480420A4301684A64F1
:101A000080F83C30002010BD022010BD70B590F869
:101A10003C20012A26D0012580F83C50022280F883
:101A20003D2002685368946823F070060B683343C6
:101A300053600D4B02689A4208D0B2F1804F05D036
:101A40000A4B9A4202D00A4B9A4204D1496824F0C8
:101A500080031943916080F83D50002180F83C10CC
:101A6000084670BD022070BD002C014000040040FB
:101A70000008004010B5040003D094F83D0010B1F8
:101A800007E0012010BD002084F83C00204600F053
:101A90001FF8022084F83D00211D206801F0F0FAB3
:101AA000012084F8460084F83E0084F83F0084F862
:101AB000400084F8410084F8420084F8430084F830
:101AC000440084F8450084F83D00002010BD00006B
:101AD00008B500680B49884212D10B48816941F46E
:101AE000006181618069002200F40060009011466D
:101AF0001920FFF7C5FBBDE808401920FFF7B2BB6E
:101B000008BD0000002C01400010024090F83D107C
:101B1000012901D001207047022180F83D100168A1
:101B2000CA6842F00102CA6000680B49884208D0C6
:101B3000B0F1804F05D00949884202D00849884257
:101B400004D1816801F00701062903D0016841F042
:101B50000101016000207047002C0140000400409A
:101B60000008004070B5044690F83C00012817D0EA
:101B7000012584F83C50022084F83D0020688268EA
:101B800022F0770222F47F4282600868502830D029
:101B90000DDC20284DD005DC98B310283BD148E05F
:101BA000022070BD302844D0402834D139E060286C
:101BB00028D0702806D0B0F5805F2CD0B0F5005F3B
:101BC00029D10AE0CB68D1E90121206801F09BFA14
:101BD0002068816841F0770109E0CB68D1E90121F3
:101BE000206801F090FA2068816841F480418160AA
:101BF00011E0CA684968206801F040FB5021206864
:101C000007E016E0CA684968206801F048FB6021D7
:101C1000206801F082FA84F83D50002084F83C00EE
:101C200070BDCA684968206801F028FB402120681F
:101C3000EFE7226801461046EBE72DE9F0410D463B
:101C4000040003D094F83D0018B108E00120BDE87D
:101C5000F081002084F83C00204600F041F802208A
:101C600084F83D002068816844F207029143816056
:101C7000211D206801F004FA206881688269066AE3
:101C80002B68AF690B4340F203318A4342EA0722D3
:101C9000A968EF6911434FF6FC429143EA6841EAB3
:101CA00007210A4329692F6A090141EA07311143D3
:101CB0006A686D6926F0220646EA05152A438360A4
:101CC0002068816154F8460B0262012004F81F0964
:101CD000E0752076E0762077A0750020B7E7000059
:101CE00000B585B000210091019102910391016836
:101CF00023480122B1F1804F23D0224B99421ED1BB
:101D0000C16941F00401C161C16901F0040104919C
:101D1000816941F0080181618069694600F008002D
:101D20000490C020009002921748FFF745F9002266
:101D300011461E20FFF7A4FA1E20FFF793FA05B004
:101D400000BDC16941F00101C161C16901F001013A
:101D50000491816941F0040181618069694600F064
:101D6000040004900320009002920848FFF724F931
:101D7000002211461C20FFF783FA1C20DDE700003B
:101D80000010024000080040000C01400008014023
:101D900070B590F83E50044690F83F3090F84220DD
:101DA00090F84300022621B104290BD0012D16D151
:101DB0000FE0012D13D1012A11D184F83E6084F87F
:101DC000426016E0012B0AD1012808D184F83F6057
:101DD0000DE0012B03D1012A01D1012801D00120FE
:101DE00070BD84F83E6084F83F6084F8426084F8F7
:101DF000436091B1042904D001220021206801F040
:101E000075F901220421206801F070F92068016849
:101E100041F001010160002070BD01220021206815
:101E2000F2E7704770B50446006801694FF000059D
:101E3000C943890715D4C168C943890711D4E91E6C
:101E4000016101202077206880698007204602D048
:101E5000FFF7E7FF04E000F0BFF8204600F04EF97E
:101E6000257720680169C943490717D4C168C94368
:101E7000490713D46FF00401016102202077206824
:101E8000806910F4407F204602D0FFF7CAFF04E0CB
:101E900000F0A2F8204600F031F9257720680169AA
:101EA000C943090716D4C168C943090712D46FF0A2
:101EB00008010161042020772068C069800720465E
:101EC00002D0FFF7AEFF04E000F086F8204600F0F5
:101ED00015F9257720680169C943C90617D4C16877
:101EE000C943C90613D46FF010010161082020779F
:101EF0002068C06910F4407F204602D0FFF791FFB0
:101F000004E000F069F8204600F0F8F82577206832
:101F10000169C943C90708D1C168C943C90704D1C8
:101F2000891E0161204600F03BF920680169C94320
:101F3000090609D4C168C943090605D46FF08001B8
:101F400001612046FFF736FD20680169C943490653
:101F500009D4C168C943490605D46FF04001016145
:101F6000204600F0BBF920680169C94389060BD4FB
:101F7000C168C943890607D46FF02001016120467A
:101F8000BDE87040FFF717BD70BD000000B585B01B
:101F90000021009101910291039100680B49884250
:101FA00012D10B48816941F0040181618069694661
:101FB00000F0040004904FF41060009002200190A3
:101FC00003900448FEF7F8FF05B000BD002C014067
:101FD0000010024000080140704770B5044690F8B8
:101FE0003C000D4601280AD0012084F83C0042B193
:101FF000042A18D0082A2AD00C2A4DD139E0022010
:1020000070BD206801F092F82068816941F00801F4
:1020100081612068816921F0040181612068816902
:102020002A69114311E0206801F0ACF82068816949
:1020300041F4006181612068816921F480618161DE
:10204000206881692A6941EA0221816124E02068CF
:1020500001F0C6F82068C16941F00801C16120683B
:10206000C16921F00401C1612068C1692A69114375
:1020700011E0206801F0E0F82068C16941F40061D6
:10208000C1612068C16921F48061C1612068C169B2
:102090002A6941EA0221C161002084F83C0070BD38
:1020A00010B5040003D094F83D0010B107E0012002
:1020B00010BD002084F83C00204600F01EF80220ED
:1020C00084F83D00211D206800F0DAFF012084F82B
:1020D000460084F83E0084F83F0084F8400084F80D
:1020E000410084F8420084F8430084F8440084F8F6
:1020F000450084F83D00002010BD70477047000087
:1021000010B5044649B104290AD008290BD094F827
:10211000410001280AD0012010BD94F83E00F8E7E4
:1021200094F83F00F5E794F84000F2E7022041B34D
:10213000042929D008292AD084F8410001222068E6
:1021400000F0D4FF13492068884203D1426C42F466
:10215000004242642068884208D0B0F1804F05D028
:102160000D49884202D00D49884204D1816801F0AE
:102170000701062903D0016841F001010160002038
:1021800010BD84F83E00D9E784F83F00D6E784F814
:102190004000D3E7002C014000040040000800404C
:1021A0002DE9F05F414988427DD1414DE888401CCE
:1021B00084B20520B4FBF0F100FB1140EC80002656
:1021C000F0BB3C480168486A3B4A404200B2688024
:1021D00013685B6A1FB2AF804E6211684E62FEF7F1
:1021E00001FADFF8D8A05146FEF71FF8FEF72EFAE5
:1021F000DFF8CC804FF0333B5A464346FEF76CF98C
:10220000DFF8C09000224B46FEF766F9B21EFEF7DB
:10221000D2F9FEF747FAA8603846FEF7E3F95146CF
:10222000FEF703F8FEF712FA5A464346FEF754F952
:1022300000224B46FEF750F9B21EFEF7BCF900E053
:1022400002E0FEF72FFAE8600A20B4FBF0F100FB91
:102250001140002827D1A868FEF7F8F91A4A1B4B4D
:10226000FEF7C8F800221A4BFEF7C4F804460F46E2
:102270002869FEF7EBF922463B46FEF714F8FEF715
:1022800011FA28611348E96800F07CFEFEF7C5F9F1
:1022900004461148A96800F075FEFEF7BEF9214614
:1022A00000F072FDEE80BDE8F09F0000800000208D
:1022B0000400002010010020C80000200000C842D7
:1022C00033332340000026407B14AE47E17A943F2D
:1022D0000000364000030020E002002070477047F5
:1022E00070470000F8B5026804461068D168536969
:1022F00010F00F0F4FF0000553D003F0010601F46A
:10230000907737435FD0C20705D0CA0503D5226C4A
:1023100042F001022264420705D5DA0703D0226C9D
:1023200042F002022264820705D5DA0703D0226C4C
:1023300042F004022264020707D501F02002324372
:1023400003D0226C42F008022264226C002A34D0AE
:10235000800604D5880602D5204600F0D2FF20680A
:102360004069216CC0F38010090700D430B32046C7
:1023700000F0AFFF2068416949061BD5416921F093
:1023800040014161A06BA8B158494163A06BFEF7C1
:102390009BFD002811D0A06B416B01B0BDE8F0405F
:1023A000084783060FD58B060DD52046BDE8F840BB
:1023B00000F0A7BF2046FFF793FFF8BD2046FFF7C8
:1023C0008FFF2564F8BD266B2023012E52D1C6064F
:1023D00050D5CE064ED51068506800905069400622
:1023E0002AD5A16B086840680004000CEAD0A68DCD
:1023F0008642E7D9E0858869202818D0D06820F483
:102400008070D0602068416921F00101416120683D
:10241000416921F04001416184F83E302563206824
:10242000C16821F01001C160A06BFEF729FDA08DED
:10243000E18D401A81B219E0A08DE18D401A81B280
:10244000E08D0028BED00029BCD0D06820F4907068
:10245000D0602068426922F00102426184F83E3077
:1024600025632068C26822F01002C2602046FFF790
:1024700036FFF8BD05062BD50D0629D594F83D008D
:102480002128F6D1A068B0F5805F01D12069B0B1F4
:10249000206A411C2162216800784860E08C401E5F
:1024A0000004000CE084E4D12068C16821F08001C0
:1024B000C1602068C16841F04001C160F8BD206A78
:1024C0000088C0F308005060206A801C2062E5E7A5
:1024D0004006F3D54806F1D5D168204621F04001E9
:1024E000D16084F83D3000F0B7F9F8BDC332000880
:1024F00070B5040004D094F83D00002510B106E04A
:10250000012070BD84F83C50204600F023F82420C0
:1025100084F83D002068C16821F40051C160204664
:1025200000F04AFF2068016921F4904101612068B0
:10253000416921F02A0141612068C16841F40051DC
:10254000C1602564202084F83D0084F83E0000200E
:1025500070BD000070B586B0002400940194029410
:10256000039401682E482D4E022203230515B14223
:1025700026D1816941F480418161816901F4804102
:102580000491816941F0040181618069254E00F068
:10259000040004901002CDE900026946039330461E
:1025A000FEF70AFDCDE90054694630460294FEF775
:1025B00003FD002211462520FEF762FE252028E0BB
:1025C000194EB14227D1C16941F48021C161C1696D
:1025D00001F480210491816941F0080181618069E1
:1025E000CDE9005200F00800CDE903300F4D6946F7
:1025F0002846FEF7E1FCE814CDE9000469462846C8
:102600000294FEF7D9FC002211462720FEF738FE7F
:102610002720FEF727FE06B070BD000000380140FD
:10262000001002400008014000480040000C01403A
:102630002DE9F84F044690F83E00984615460E46A0
:10264000202855D10EB305B394F83C0001284FD093
:10265000012084F83C004FF00009C4F8409022218A
:1026600084F83E10C4F83090FEF79EFDA5858246A2
:10267000E585A0684FF48057B84201D1206938B190
:102680003546002684F83C9027E00120BDE8F88F0D
:102690000025F7E75346002220212046CDF8008090
:1026A00000F001FF08B10320F0E725B1A068B842AF
:1026B0001BD038B108E020684068C0F3080026F855
:1026C000020B07E0206980B12068406800F07F00BD
:1026D00005F8010BE08D401EE085E08D0028D9D182
:1026E000202084F83E000020D0E720684068EFE713
:1026F0000220CBE790F83E30202B0ED159B152B1D9
:1027000090F83C30012B08D0012380F83C300023A6
:10271000036300F0ADBE0120704702207047000047
:1027200070B51E49884238D11D4C4FF07E55207837
:10273000412803D12846294601F0EAFC20784228A6
:1027400003D11848014601F0E3FC2078432803D167
:102750000021084601F0DCFC20784FF08046442838
:1027600003D13146284601F0D3FC2078452803D117
:102770002946304601F0CCFC2078462801D101F0F2
:10278000FBFC2078472801D101F0E4FCBDE8704053
:10279000012203490148FFF7ADBF70BD9C01002035
:1027A00000000020000080BF2DE9F843044690F8A7
:1027B0003D001F4615460E4620284BD1C6B1BDB17F
:1027C00094F83C00012845D0012084F83C004FF0EB
:1027D0000008C4F84080212084F83D00FEF7E4FCA6
:1027E000A5848146E584A068B0F5805F03D004E04D
:1027F0000120BDE8F883206920B13546002684F821
:102800003C800EE00025FAE78021204600F04BFED8
:10281000A0B9ADB115F8010B21684860E08C401EED
:10282000E084E08C4B464FF0000200970028EBD18B
:102830004FF04001204600F036FE30B10320D8E7CB
:1028400036F8020BC0F30800E6E7202084F83D00CC
:102850000020CEE70220CCE770470000064908B50B
:102860000968064AC908B1FBF2F14143009100BF73
:10287000491E0091FBD208BD2400002040420F00F9
:1028800070B5204D0024012220212846FEF787FC48
:102890000F20FFF7E3FF002220212846FEF77FFCF0
:1028A000194D1A4E07E00120641CFFF7D7FFAC4218
:1028B00001D9174870BD40213046FEF763FC00285F
:1028C000F1D0002408E00120641CFFF7C7FFAC42F0
:1028D00002D94FF0404070BD40213046FEF752FC17
:1028E0000128F0D06000FDF78BFE0A4A0A4BFDF785
:1028F00081FD4FF0FF32FDF75EFEBDE87040FDF751
:10290000D1BE0000000C0140A0860100000801407B
:10291000000080BF4C37894160E5A03FFEE7000022
:102920002DE9F04101220C4DD40321462846FEF743
:1029300036FC0122094F160331463846FEF72FFCBC
:10294000002231463846FEF72AFC21462846BDE8DB
:10295000F0410022FEF723BC00080140000C0140BA
:1029600070B50122D1030948FEF719FC084D4FF458
:102970008054002221462846FEF711FC21462846B5
:10298000BDE870400122FEF70ABC000000080140CB
:10299000000C014070B50122064DD40321462846A3
:1029A000FEF7FDFB21462846BDE870400022FEF7F9
:1029B000F6BB0000000801403EB50021114800911F
:1029C00001910F4A02910260816001730175012437
:1029D0004FF460220461C2614160FEF799F808B1CA
:1029E000FEF711F80420CDE90004022002906946A8
:1029F0000448FEF70BF8002801D0FEF704F83EBDAE
:102A000000280140500000202DE9F04F85B000243F
:102A10004D480094019402940394816941F010019F
:102A20008161816901F010010491816941F0200107
:102A30008161816901F020010491816941F0040103
:102A40008161816901F004010491816941F008010B
:102A500081618069DFF8F4A000F008004FF40055B0
:102A60000490002229465046FEF799FB01221703E5
:102A700039463748FEF793FB42F2280800224146C8
:102A80003348FEF78CFBDFF8CCB04FF4004901224D
:102A900049465846FEF783FB00950226012503961A
:102AA000CDE9015469465046FEF786FAE020CDE9AB
:102AB0000004694658460294FEF77EFA0320CDE9E9
:102AC0000004694622480294FEF776FACDE90075C3
:102AD000CDE9025669461E48FEF76EFACDF8008031
:102AE0000396CDE9015469461948FEF765FA1A487C
:102AF0000097CDE9010569465846FEF75DFACDE934
:102B00000095CDE9025669465846FEF755FA102061
:102B100000901248CDE9010669460D48FEF74CFACF
:102B2000002211460A20FEF7ABFB0A20FEF79AFBB3
:102B3000002211462820FEF7A3FB2820FEF792FB77
:102B400005B0BDE8F08F0000001002400010014009
:102B5000000C01400008014000002110000011108D
:102B600010B596B000240F941094119412941394FD
:102B70001C2168461494FDF7EEFA202107A8FDF702
:102B8000EAFA2D482B49016040F29F51C0E9011437
:102B90006321C0E903148021C0E90541FEF76AFF03
:102BA00008B1FDF730FF4FF480500F900FA9224875
:102BB000FEF7D8FF08B1FDF726FF1F48FFF770FAB0
:102BC00008B1FDF720FF139413A91B481494FEF7D6
:102BD0001DFF08B1FDF717FF602000903220CDE9FE
:102BE0000104039404940594002269461248069453
:102BF000FFF7F3F908B1FDF706FF0C2269460E480E
:102C0000FFF7EBF908B1FDF7FEFE0794089409946D
:102C10004FF400500A94CDE90B4007A906480E94E2
:102C2000FEF7CAFE08B1FDF7EEFE0348FFF7AEF966
:102C300016B010BD002C01408000002010B58CB0F3
:102C400024216846FDF787FA0024164809944FF0BE
:102C500080410A94C0E900144FF6FF71C0E90241B7
:102C6000046184610320CDE900040120CDE9020460
:102C700006210491CDE90540CDE90741694609489F
:102C8000FEF7DBFF08B1FDF7BEFE099409A9054870
:102C90000A94FEF7BBFE002801D0FDF7B4FE0CB08D
:102CA00010BD0000C800002010B58CB0242168467B
:102CB000FDF751FA00241648099414490A94C0E912
:102CC00000144FF6FF71C0E90241046184610320E2
:102CD000CDE900040120CDE9020406210491CDE9EB
:102CE0000540CDE9074169460948FEF7A6FF08B14E
:102CF000FDF789FE099409A905480A94FEF786FEA6
:102D0000002801D0FDF77FFE0CB010BD0008004088
:102D1000100100200C4810B50A4901604FF4E13160
:102D20004160002181600C22C160C0E90412816110
:102D3000C161FFF7DDFB002803D0BDE81040FDF7BF
:102D400062BE10BD00380140580100200C4810B58B
:102D50000A4901604FF4E1314160002181600C2299
:102D6000C160C0E904128161C161FFF7C1FB0028A5
:102D700003D0BDE81040FDF746BE10BD004800403E
:102D80009C010020FEE7000070B51A4E4542C1F1DB
:102D9000000401D5012200E0002208213046FEF7A0
:102DA000FEF94FF40051002C01DA012200E000226C
:102DB0003046FEF7F4F910486FF06201002D05DA95
:102DC0008D4200DA0D466435026803E0632D00DDB4
:102DD000632502685563002C05DA8C4200DA0C4644
:102DE0000068643403E0632C00DD6324006804643D
:102DF00070BD0000000C014080000020FEE770B5AF
:102E00000025002105F1B00000F089F800210846F6
:102E100000F085F80021102000F081F80024012145
:102E2000002000F07CF8641CE4B2802CF7D36D1C09
:102E3000EDB2082DE5D370BD10B54FF44870FEF724
:102E40008FF80021AE2000F06AF80021084600F05B
:102E500066F80021102000F062F80021402000F008
:102E60005EF80021B02000F05AF80021812000F027
:102E700056F80021FF2000F052F80021A12000F0B8
:102E80004EF80021A62000F04AF80021A82000F00A
:102E900046F800213F2000F042F80021C82000F051
:102EA0003EF80021D32000F03AF80021084600F057
:102EB00036F80021D52000F032F80021802000F003
:102EC0002EF80021D82000F02AF80021052000F07B
:102ED00026F80021D92000F022F80021F12000F08E
:102EE0001EF80021DA2000F01AF80021122000F06C
:102EF00016F80021DB2000F012F80021302000F04D
:102F00000EF800218D2000F00AF80021142000F0B6
:102F100006F80021BDE81040AF20AFF30080C0B23A
:102F200009B100F064BB00F04BBB00001049002069
:102F3000104B486008608860C860C1E904030E4A0D
:102F4000C1E906202031486008608860C860C1E996
:102F50000403C1E906202031084A486008608860FF
:102F6000C860C1E9040288610548C8617047000073
:102F7000E0020020000070410000A0400000C0BF3F
:102F8000CDCC4C3F2DE9F04104460068FDF747F9F0
:102F90000546A06029462069FDF7EFF82061074645
:102FA0002846E168FDF73BF9E169FDF73EF9064681
:102FB0003946A069FDF739F9074629466069FDF7EA
:102FC00034F93946FDF7D9F83146FDF7D6F8E56012
:102FD0006060BDE8F08170477047FEF7EBB830B530
:102FE00093B028216846FDF7B6F814210AA8FDF72A
:102FF000B2F8002401210F9410940804CDE90010C8
:1030000011941294029402250491CDE907504FF4D3
:10301000E01009906846FEF72DFB08B172B6FEE796
:103020000F20CDE90A054FF48060CDE90C40022164
:103030000AA80E94FEF72CFA08B172B6FEE74FF418
:10304000004011900F950FA8FEF7AEF9002801D0AF
:1030500072B6FEE713B030BD704700000148FEF7BE
:10306000E1BE0000800000200148FEF7DBBE00004A
:10307000C80000200148FEF7D5BE00001001002066
:10308000F0B50268164C174D174E4FF08047A0421E
:1030900005D0B84203D0A84201D0B04203D122F0FB
:1030A00070034A681A43A04205D0B84203D0A84230
:1030B00001D0B04203D122F44073CA681A434B696D
:1030C00022F080021A4302608A68C2620A68826241
:1030D000A04201D10969016301214161F0BD0000F5
:1030E000002C0140000400400008004010B501F031
:1030F0001F010123046A8B409C430462036A8A40D7
:103100001343036210BD10B5846842EA032224F41D
:103110007F440A432243826010BD826822F070021D
:103120000A4342F0070181607047000030B5026A2F
:1031300022F001020262036A4268846924F0730586
:103140000C682C4323F002058B682B430C4DA842DE
:1031500006D123F00805CB6843EA050323F00403F6
:1031600007D14D6922F4407245EA02058A6942EAB4
:1031700005024260846149684163036230BD00001A
:10318000002C014030B5026A22F010020262026A8D
:10319000436884690D6824F4E64444EA05248D6894
:1031A00022F0200242EA05120C4DA84206D1CD6859
:1031B00022F0800242EA051222F0400207D14D6956
:1031C00023F4406343EA85038D6943EA8503436042
:1031D000846149688163026230BD0000002C0140B7
:1031E00030B5026A22F480720262036A4268C469DE
:1031F00023F4007324F073050C682C438D6843EAB4
:1032000005230C4DA84206D1CD6823F4006343EAA0
:10321000052323F4806307D14D6922F4405242EA2A
:1032200005128D6942EA05124260C4614968C163B2
:10323000036230BD002C014030B5026A22F4805296
:103240000262036A4268C4690D6824F4E64444EAF1
:1032500005248D6823F4005343EA0533064DA84244
:1032600004D14D6922F4804242EA85124260C46171
:1032700049680164036230BD002C014010B5046A46
:10328000036A23F001030362836923F0F00343EA36
:10329000021324F00A020A438361026210BD10B5D2
:1032A000036A23F0100303628469036A24F4704400
:1032B00044EA023223F0A00343EA01118261016271
:1032C00010BD10B5406A0021C185C184FFF708F820
:1032D00010BD0168CA6822F49072CA6001684A6928
:1032E00022F001024A61016B012904D10168CA6818
:1032F00022F01002CA60202180F83E1000210163F4
:10330000704708B590F83E10222901D0022008BD70
:1033100081684FF48053994201D1026922B1826AD7
:1033200099421BD049B10AE00268816A5268C2F32F
:1033300008020A80816A891C08E0016971B101688C
:10334000496801F07F011170816A491C8162C18D59
:10335000491E0904090CC18503D019E001684968B8
:10336000F1E70168CA6822F02002CA600168CA68F1
:1033700022F48072CA6001684A6922F001024A613F
:10338000202180F83E10016B012903D0FFF7C8F916
:10339000002008BD002101630168CA6822F0100204
:1033A000CA6001680A68D20602D50A6849680091B5
:1033B000818DFEF794FFEBE770B504460068016964
:1033C000E26821F4405111430161A1682069014381
:1033D000606901432068C26841F20C639A430A4362
:1033E000C26020684169A26921F4407111434161C2
:1033F0001E492068884202D1FEF7F6F801E0FEF788
:10340000E3F800EBC00101EB00116068642280006A
:10341000B1FBF0F3B3FBF2F36FF018067343B1FBAB
:10342000F0F5B1FBF0F605EB8305322303EB051550
:10343000B5FBF2F5B6FBF2F605F0F00505EB061567
:10344000B1FBF0F6B1FBF0F0B0FBF2F06FF0180159
:10345000484306EB800003EB0010B0FBF2F021685C
:1034600000F00F002844886070BD00000038014063
:1034700081628285C28500210164222280F83E207B
:1034800080F83C100168CA6842F48072CA60016822
:103490004A6942F001024A610068C16841F02001B6
:1034A000C160002070472DE9F0411E46174688464E
:1034B0000446069D1CE0681C1AD025B1FDF774FE79
:1034C000801BA84214D92068C16821F4D071C16062
:1034D0002068416921F001014161202084F83D000C
:1034E00084F83E00002084F83C000320BDE8F08111
:1034F0002068016838EA010004D00020B842DAD020
:103500000020F3E70120F9E70D4810B500680068D6
:10351000800610D50B4A1078FF2801D300201070C8
:103520000949C0B20144401C10704FF47A73012263
:103530000348FFF77DF8BDE810400148FEF7D2BE12
:103540005801002004000020E00100200148FEF79F
:10355000C9BE00009C010020FEE700002DE9F047F5
:10356000154F04464FF40046002231463846FDF719
:1035700016FEDFF8489000254FF4805804F08000D4
:10358000802816D0002241464846FDF708FE600616
:10359000040E012231463846FDF701FE0022314675
:1035A0003846FDF7FCFD6D1CEDB2082DE6D3BDE8F5
:1035B000F0870122E7E7000000080140000C01400D
:1035C00010B50446FFF7ACF97820FFF7C7FFFFF707
:1035D000E1F90020FFF7C2FFFFF7DCF92046FFF713
:1035E000BDFFFFF7D7F9BDE81040FFF7B9B910B537
:1035F0000446FFF795F97820FFF7B0FFFFF7CAF907
:103600004020FFF7ABFFFFF7C5F92046FFF7A6FF05
:10361000FFF7C0F9BDE81040FFF7A2B90FB4084B9F
:1036200010B504A902AA039800F0EEF8044602A916
:10363000002000F06CFC204610BC5DF814FB00007C
:103640000F3F00080907090E002804DB00F1E02005
:1036500080F80014704700F00F0000F1E02080F8BF
:10366000141D704702E008C8121F08C1002AFAD1D1
:1036700070477047002001E001C1121F002AFBD1F2
:10368000704700002DE9FF5F82B00021DDE90430C2
:10369000020DDDF840B0034318D044F61050A2F2FA
:1036A000FF3242431514119801281FD0A5EB0B00DF
:1036B000401C5FEA000A4FF000064E4FDFF83891D9
:1036C000B046504615D5CAF1000413E01198012404
:1036D0004AA3012801D16FEA0B010298119AC0E9AF
:1036E0000031C0E9024206B0BDE8F09FCBF1000016
:1036F000DFE704460021404A491842EB0450CDE977
:10370000001012E0E00707D032463B4640464946EB
:10371000FCF770FE8046894632463B461046194605
:10372000FCF768FE06460F466410002CEAD1DDE97E
:103730000401DDE90023BAF1000F06DAFCF75AFEB6
:1037400042464B46FCF756FE05E0FCF7C5FE4246F6
:103750004B46FCF7C1FE04460E460022284BFCF700
:1037600089FF03D84FF0FF30014607E00022254BC8
:1037700020463146FCF797FDFDF7ACF8102409E030
:10378000002C0ADB0A220023FCF7BEFF039B303229
:103790001A55641E50EA0102F2D1641C039AC4F166
:1037A00011031444119A012A03D0012208430DD1B8
:1037B0000AE0084304D000204FF0110B119072E78B
:1037C000A3EB0B056D1E0DE05B4504DD4FF0000221
:1037D00005F1010504E003DA4FF00002A5F101054F
:1037E000002AECD002981199C0E90231C0E90045E5
:1037F00079E70000000014400000F03F30000000B6
:103800000000F0430000E03F2DE9FF4F95B09A46DD
:10381000884606460025EEE1252877D10024274674
:10382000F94A0121039400E0044316F8013F203BCC
:1038300001FA03F01042F7D130782A2811D06FF046
:103840002F033078A0F13002092A16D8039A44F0E9
:10385000020402EB820203EB42021044761C039046
:10386000EFE758F8042B0392002A03DA504244F49D
:103870000054039044F00204761C30782E2816D1B0
:1038800016F8010F44F004042A280DD06FF02F021F
:103890003078A0F13003092B09D807EB870302EB3E
:1038A0004303C718761CF3E758F8047B761C30787E
:1038B0006C280FD006DC4C2817D068280DD06A2859
:1038C00014D104E0742810D07A280FD10DE044F40C
:1038D00000140AE044F4801401E044F440147278C7
:1038E000824202D104F58014761C761C307866285A
:1038F0000BD013DC582877D009DC002875D0452878
:10390000F6D04628F4D047281AD193E118E063286E
:1039100035D0642879D0652812D18BE1702873D016
:1039200008DC6728F1D069286FD06E280DD06F2889
:1039300006D1ACE073282CD0752874D0782853D0E9
:103940005246179990476D1C54E1C4F30250022867
:1039500009D003280DD0D8F8001004280DD00D6030
:1039600008F1040846E1D8F80010EA17C1E900524E
:10397000F6E7D8F800100D80F2E70D70F0E718F8C0
:10398000041B8DF8001000208DF80100EB4601208B
:1039900003E058F804BB4FF0FF3061074FF000011F
:1039A00002D40DE009F101018946B9420FDA8145DF
:1039B000F8DB1BF809100029F4D108E009F1010136
:1039C00089468142FADB1BF809100029F6D10398D9
:1039D0005346A0EB090721463846179A00F080FAB3
:1039E000284400EB090507E044E008E10DE01BF87E
:1039F000010B524617999047B9F10109F7D2534686
:103A000021463846179AF2E039E00A21C4F30252FF
:103A10004FF0000B0091022A06D058F8040BC11792
:103A2000032A09D00AE023E008F1070020F007028A
:103A3000F2E80201904605E000B2C117042A01D164
:103A400040B2C117002906DA0A460021404261EB64
:103A500002012D2202E0220504D52B228DF804203C
:103A6000012203E0E20701D02022F7E7914657E068
:103A70000A2100E010214FF0000B00910BE0102113
:103A80004FF0000B44F004040827009103E00820E5
:103A90004FF0000B0090C4F30252022A05D058F8F0
:103AA000040B0021032A08D008E008F1070020F0E9
:103AB0000702F2E80201904603E080B2042A00D136
:103AC000C0B24FF0000922072AD53278702A07D0F9
:103AD000DDF800C08CF0100C5CEA0B0C05D00EE099
:103AE00040228DF80420012208E050EA010306D0AC
:103AF00030238DF804308DF8052002229146009B7A
:103B000083F0080353EA0B030AD150EA010201D102
:103B1000620705D530228DF804204FF001097F1E81
:103B20003278582A04D039A20C920CAA02920BE0E7
:103B30003BA2F9E75B46009AFCF7E6FD0C9B9B5C19
:103B4000029A521E0292137050EA0102F2D10298B8
:103B500004A9081A00F1200B600702D524F4803470
:103B600000E001275F4502DDA7EB0B0000E000202D
:103B700000EB0B01009003984944401A0390E003C6
:103B800006D453462146179A039800F0A9F9054434
:103B9000002706E001A85246C05D179990476D1CAA
:103BA0007F1C4F45F6DBE0030CD553462146179AA0
:103BB000039800F095F9054404E030205246179927
:103BC00090476D1C0099481E00900029F5DC08E024
:103BD0000298029952460078491C02911799904721
:103BE0006D1CBBF10001ABF1010BF1DC5BE100F0FE
:103BF00065F90544761C307800287FF40DAE19B0C5
:103C00002846BDE8F08F000009280100303132332A
:103C10003435363738396162636465660000000008
:103C200030313233343536373839414243444546F2
:103C300000000000600700D4062708F1070020F00C
:103C40000700F0E80223804603F0004C5FEA0C0016
:103C500001D097A009E0200501D596A005E0E00776
:103C600001D095A001E0AFF24C001390307823F022
:103C7000004365280CD006DC452809D046281DD015
:103C800047287FD13BE0662818D067287AD136E0F4
:103C90000021112F01DB112000E0781CCDE900018B
:103CA00004A90CA8FFF7EEFCDDE90D010C9A4FF01A
:103CB000000B07F10109109200914EE04FF0004017
:103CC0000097CDE9011004A90CA8FFF7DBFCDDE9A2
:103CD0000D020C9B0F994FF0000B91461093009230
:103CE00011B9791C00EB0109B7EB090003D4C0F14D
:103CF000FF3B07F10109A9EB0700019042E0012F0A
:103D000000DA01270021112F01DD112000E03846E3
:103D1000CDE9000104A90CA8FFF7B4FCDDE90D0111
:103D20000C9A00914FF0000BB946109221070FD466
:103D3000009A4A4503DA914601E0A9F10109B9F177
:103D4000010F05DD109AA9F10101515C3029F4D071
:103D5000B84202DA10F1040F03DA0121CDE90110B3
:103D600010E0002803DC8344A9EB000102E0411CC1
:103D7000494500DD8946A0EB0B00401C01904FF047
:103D800000400290200705D40198484502DB4FF01F
:103D9000FF30019000208DF84B0002980DF14B0789
:103DA000B0F1004F25D002200C902B200D900298EE
:103DB00000280CDA404202902D200D9007E00A21E5
:103DC0000298FCF78BFC3031029007F8011D0C992A
:103DD000481E0C900029F2DC02980028EFD1791ED1
:103DE0000D980870307800F0200040F0450007F88A
:103DF000020D11A8C01BC01D02901398007800B1DD
:103E0000012000EB0901019801EBE07102980144E7
:103E10000398401A401E0390E00306D453462146FF
:103E2000179A039800F05CF805441398007818B1CD
:103E30005246179990476D1CE00323D553462146FF
:103E4000179A039800F04CF805441BE0BBF1000FF3
:103E500007DB0098584504DD1098179910F80B00FF
:103E600001E0179930205246904701980BF1010B61
:103E7000401E05F10105019004D12E2052461799EC
:103E800090476D1CB9F10001A9F10109DEDC05E0E4
:103E900017F8010B5246179990476D1C0299481E5E
:103EA00002900029F4DC53462146179A03989EE6B7
:103EB0002D0000002B000000200000002DE9F04143
:103EC000044600251E461746880404D405E03946FA
:103ED0002020B0476D1C641EF9D52846BDE8F0814E
:103EE0002DE9F041044600251E469046C80301D541
:103EF000302700E02027880404D505E041463846F5
:103F0000B0476D1C641EF9D52846BDE8F0810A68EB
:103F1000531C0B601070704710B51148FCF750FF30
:103F200032210F48FCF7AEFE08B10E4810BD0C4818
:103F3000FCF7EAFDFCF75FFB6FF00B01FCF7A7F95C
:103F4000FCF784FB4FF06632074BFCF753FA002274
:103F5000064BFCF74FFABDE81040FCF7A3BB00008E
:103F600050000020000080BF66660A400000144038
:103F70001CB5FDF727F9FFF732F8FEF745FDFEF710
:103F8000C9FEFEF7EDFDFEF759FEFEF78DFEFEF7CA
:103F900013FDFEF7DBFEFEF74FFFFEF730FF0021BB
:103FA0004048FEF7ADF80C213E48FEF7A9F83C2149
:103FB0003D48FDF7EDFE3C213C48FDF7E9FE3A485F
:103FC000FDF7A4FD3948FDF7A1FD3648FDF79EFD3C
:103FD00037480068C16841F02001C160FEF7A6FFC4
:103FE000012234493448FEF785FB344E344FDFF864
:103FF000D4804FF6FF793068FCF728FB04460D4665
:104000003868FCF723FB02460B462FA13348CDE965
:104010000045FFF703FB3148FCF7A8F882B23223D2
:104020002E492548FEF7C0FBD8F80000FCF70EFB30
:1040300002460B462AA12948FFF7F0FA2748FCF769
:1040400095F882B2322325491B48FEF7ADFBFFF7F6
:1040500063FFFCF7FBFA02460B4625A11F48FFF75A
:10406000DDFA1E48FCF782F882B232231B4912485F
:10407000FEF79AFBFEF704FCFCF7E8FA02460B4653
:104080001EA11648FFF7CAFA1448FCF76FF882B26F
:104090004B4612490848FEF787FB0520FCF760FFF6
:1040A000A9E7000080000020C800002010010020C7
:1040B00058010020000000209C010020100000207A
:1040C0000C0000201400002056313A252E3266568E
:1040D000323A252E32660D0A000000002C00002026
:1040E0004D696C65616765252E32660D0A0000001A
:1040F000553A252E3266560D0A00000048435F539C
:104100005230343A252E3266636D0D0A00000000ED
:104110000C4A10B510600C4801600C4801680A4850
:10412000FEF730FFFCF779FA0446094801680548B4
:10413000FEF728FFFCF771FA2146BDE81040FEF7B4
:1041400023BE0000E0020020000300201000002039
:104150000C00002010B5074C4FF07C5120688842BD
:1041600002DBFCF75CF82060BDE810400146FFF779
:10417000CFBF00002800002010B5074C0749206879
:10418000884204DC4FF07C51FBF7F7FF2060BDE86C
:1041900010400146FFF7BCBF28000020000040404F
:1041A00000000000000000000102030406070809E7
:1041B0000000000001020304D841000800000020B4
:1041C0002C00000064360008044200082C00002087
:1041D000140B00007436000800000000000000000E
:1041E00000000000000000000000000000000000CF
:1041F0000100000010000000000000000024F40096
:044200000000003F7B
:04000005080000ED02
:00000001FF
