:020000040800F2
:100000001808002099010008F518000839120008A6
:10001000C1180008490B0008272A0008000000004A
:10002000000000000000000000000000D91F0008D0
:100030004D0B000800000000D11D0008C52000087D
:10004000B3010008B3010008B3010008B3010008C0
:10005000B3010008B3010008B3010008B3010008B0
:10006000B3010008B3010008B3010008B3010008A0
:10007000B3010008B3010008B3010008B301000890
:10008000B3010008B3010008B3010008B301000880
:10009000B3010008B3010008B3010008210C0008F7
:1000A000B3010008B3010008B3010008B301000860
:1000B000B30100086923000885230008B301000884
:1000C000B3010008B3010008B3010008B301000840
:1000D000B3010008D527000869280008B30100080B
:1000E000B3010008B3010008B301000800F002F8F2
:1000F00000F042F80AA090E8000C82448344AAF180
:100100000107DA4501D100F037F8AFF2090EBAE87D
:100110000F0013F0010F18BFFB1A43F0010318473B
:100120006081000080810000103A24BF78C878C147
:10013000FAD8520724BF30C830C144BF04680C60ED
:10014000704700000023002400250026103A28BF35
:1001500078C1FBD8520728BF30C148BF0B60704739
:10016000642900F09580632900F0878200207047A1
:100170001FB51FBD10B510BD00F00CFB1146FFF7F9
:10018000F7FF04F05BFA00F02AFB03B4FFF7F2FF7D
:1001900003BC02F078FD0000094880470948004789
:1001A000FEE7FEE7FEE7FEE7FEE7FEE7FEE7FEE727
:1001B000FEE7FEE704480549054A064B7047000084
:1001C000C9200008ED0000081802002018080020CF
:1001D0001804002018040020704710B54C1084EA61
:1001E000530404D54042C1F1000138BF491E1B42EF
:1001F00004D55242C3F1000338BF5B1E00F058F92A
:1002000014F0804F04D04042C1F1000138BF491EB4
:1002100014F0004F04D05242C3F1000338BF5B1EFC
:1002200010BD00000FB4044910B503AA029800F0F5
:1002300031FA10BC5DF814FB1400002070B50C46B8
:100240000546012A05D02878800600D5EA690023F2
:1002500002E0012305E05B1C934202D2E05C00282F
:10026000F9D1A869E618C01AA861286A184428625A
:100270002846AFF3008004E0D5E9012114F8010B12
:100280009047B442F8D32846AFF3008070BD000019
:100290002DE9F0410646002410687529314616A55F
:1002A00010D0AFF30080002802DA404213A507E027
:1002B00031688A0701D512A502E0490704D511A5C6
:1002C000012401E0AFF3008000210A2206F1240797
:1002D00009E0B0FBF2FCB0FBF2F302FB1C00303093
:1002E00078541846491C0028F3D123462A46304644
:1002F000BDE8F04100F05EB9000000002D000000F4
:100300002B000000200000002DE9F05F8946044624
:100310004FF0000ADFF824B1FB44C0F820A02046CB
:10032000E168884700287DD0252806D0D4E901213E
:100330009047206A401C2062F1E700255F46204676
:10034000E16888472028064607DB312E05D2B81918
:1003500010F8200C08B10543F1E7A80701D525F0F6
:100360000405C4F81CA00027C4F818A02A2E09D040
:10037000304602F081FC38B304EB8708303EC8F801
:10038000186019E059F8041B204604EB87029161BC
:10039000E1688847012F064618D1E069002820DA75
:1003A00025F020051DE0D8F8180000EB800006EBD2
:1003B00040003038C8F818002046E16888470646F3
:1003C00002F05AFC0028EED1012F0AD02E2E08D1BF
:1003D0002046E16888477F1C0646022F45F020052D
:1003E000C4DBA069002803DA404245F00105A061A2
:1003F000E80701D025F01005A6B1A6F141001928A3
:1004000002D8203645F400654A463146204625602C
:100410004D46FFF7A5FE60B1012807D0ED1D25F080
:10042000070000E007E000F1080978E705F104099A
:1004300075E730467AE7206ABDE8F09F0E7E00003F
:1004400040EA010310B59B070FD1042A0DD310C851
:1004500008C9121F9C42F8D020BA19BA884201D9A3
:10046000012010BD4FF0FF3010BD1AB1D30703D0EB
:10047000521C07E0002010BD10F8013B11F8014BA1
:100480001B1B07D110F8013B11F8014B1B1B01D1BD
:10049000921EF1D1184610BD02F0FF0343EA032279
:1004A00042EA024200F00AB970477047704770474D
:1004B00053EA020C00F069802DE9F04B4FF0000682
:1004C000002B1FBFB3FA83F503FA05F424FA05F6EF
:1004D0005E4012BF1643B2FA82F502FA05F4C5F186
:1004E00020051EBF22FA05FC44EA0C04203556EA1A
:1004F000044C4FEA144418BF641C4FF000084FF03E
:100500000009904271EB030C39D3002919BFB1FAED
:1005100081F701FA07F6B0FA80F700FA07F6C7F19B
:1005200020071EBF20FA07FC46EA0C062037B6FB60
:10053000F4FCA7EB0507103F07F01F0BCBF12006DB
:100540000CFA0BFB2CFA06F644BFB3460026202F0C
:10055000A4BF5E464FF0000B5BEA060C08BF4FF0ED
:10056000010B19EB0B09ABFB027C48EB0608C01B27
:1005700006FB02CC0BFB03CC71EB0C01C1E70B4675
:10058000024641464846BDE8F08B13B54FF00000E7
:100590004FF00001AFF30080BDE81C40704710B57C
:1005A00000F0ACF8006810BD10B5044600F0A6F8E5
:1005B000046010BD2DE9F0470D4699469246044669
:1005C00000F124080168880604D5E06921F01001D3
:1005D000216000E00120A84201DD471B00E0002768
:1005E000A1697A1902EB0900081AA0612078C006F7
:1005F00002D42046AFF30080002608E0D4E90121B0
:100600001AF806009047206A401C761C20624E456E
:10061000F4DB2078C0060AD52046AFF3008006E060
:10062000D4E9012130209047206A401C2062381E06
:10063000A7F10107F4DC07E0D4E9012118F805006F
:100640009047206A401C2062281EA5F10105F3DCBA
:100650002046AFF300802078000602D50220BDE8D6
:10066000F0870120FBE710B5436913B1AFF30080B9
:1006700001E0FFF7E3FD012010BD127800F1240135
:100680000A7000224A700122EDE711684FF0FF3234
:10069000E9E70000074B70B50D467B4400F037F8E2
:1006A0000446284600F046F810B14FF0FF3070BD08
:1006B000204670BDDB3800004FF000020429C0F076
:1006C000128010F0030C00F03B80CCF1040CBCF164
:1006D000020F18BF00F8012BA8BF20F8022BA1EBD6
:1006E0000C0100F02DB85FEAC17C24BF00F8012B9B
:1006F00000F8012B48BF00F8012B704700487047F5
:10070000B401002001694A1C02610878704700B5F5
:100710008FB0CDE901310021059105497944CDE93A
:10072000031011466846FFF7EFFD0FB000BD000053
:10073000E5FFFFFF007B00F0800070474FF00002F4
:1007400000B5134694469646203922BFA0E80C50C7
:10075000A0E80C50B1F12001BFF4F7AF090728BFA2
:10076000A0E80C5048BF0CC05DF804EB890028BF1E
:1007700040F8042B08BF704748BF20F8022B11F047
:10078000804F18BF00F8012B7047000000487047E9
:10079000B40100207546FFF7F9FFAE460500694633
:1007A000534620F00700854618B020B5FFF702FD3C
:1007B000BDE820404FF000064FF000074FF0000862
:1007C0004FF0000B21F00701AC46ACE8C009ACE8E3
:1007D000C009ACE8C009ACE8C0098D46704710B547
:1007E0000446AFF300802046BDE81040FFF7CDBCC3
:1007F00021B1826842F00102826003E0826822F047
:10080000010282607047014600208A6802F00402FB
:100810000AB1012000E0002070470146C86C80B298
:1008200070470246002013680B400BB1012000E026
:1008300000207047014600208A6802F008020AB1D1
:10084000012000E00020704730B502460020002360
:1008500050680F4C20400D790C6844EA0524204371
:10086000506090680B4C2040D1E902542C434D79E4
:1008700044EA450420439060D06A20F470000C7C68
:10088000641EE4B2234340EA0350D06230BD00004E
:10089000FFFEF0FFFDF7F1FFF0B504460D46002026
:1008A0000021092D11DDE068A5F10A0606EB4607D7
:1008B000072606FA07F18843A5F10A0606EB460665
:1008C00003FA06F10843E0600CE0206905EB4507F8
:1008D000072606FA07F1884305EB450603FA06F1F9
:1008E00008432061072A0FDA606B561E06EB860765
:1008F0001F2606FA07F18843561E06EB860605FA00
:1009000006F10843606322E00D2A0FDA206BD61F40
:1009100006EB86071F2606FA07F18843D61F06EB6B
:10092000860605FA06F10843206310E0E06AA2F1AA
:100930000D0606EB86071F2606FA07F18843A2F18B
:100940000D0606EB860605FA06F10843E062F0BDE7
:10095000816841F008018160704721B1826842F4EA
:10096000A002826003E0826822F4A00282607047E5
:10097000816841F0040181607047000010B50121D9
:100980000648FFF7EAFF00BF02210448FFF749FFCE
:100990000028F9D00148FFF740FF10BD00240140B6
:1009A00000B587B00121480201F030FA012104208E
:1009B00001F02CFA4FF4004001F00CFA00208DF801
:1009C0001B001020ADF8180003208DF81A0006A9AE
:1009D000194800F09DFB0523012204211748FFF769
:1009E0005BFF00208DF8090004904FF46020039015
:1009F0000020019001208DF8140000208DF80800DF
:100A000001A90E48FFF720FF01210C48FFF7F0FE77
:100A10000A48FFF79DFF00BF0848FFF70BFF0128BA
:100A2000FAD00648FFF7A4FF00BF0448FFF7EBFE2B
:100A30000128FAD007B000BD0008014000240140A1
:100A400000201249087012480078452801D1002082
:100A500008700F480078412802D101200B49087026
:100A60000B480078422802D1022008490870084843
:100A70000078432802D10320044908700448007814
:100A8000442802D10420014908707047D100002099
:100A9000D000002000B587B00121042001F0B6F994
:100AA0000121480401F0A2F90420ADF81800032048
:100AB0008DF81A0018208DF81B0006A9204800F0B8
:100AC00027FB0820ADF8180003208DF81A00042039
:100AD0008DF81B0006A91A4800F01AFB4FF480603D
:100AE00000F042FF26208DF8140003208DF8150039
:100AF00001208DF816008DF8170005A800F0FCFE07
:100B00004FF4165001900020ADF80800ADF80A002F
:100B1000ADF80C00ADF810000C20ADF80E0001A9E6
:100B2000084801F00FFF0121064801F0AFFE012245
:100B300040F22551034801F0DFFE07B000BD000080
:100B4000000801400044004000BFFEE7704700B5C8
:100B5000034603E04FF47A7000F005F8181EA3F185
:100B60000103F7D100BD00EBC001C9004FF0E02246
:100B70005161002191610521116100BF4FF0E02119
:100B8000096901F480310029F8D004214FF0E022F6
:100B90001161704770B50025002400201E490860CF
:100BA00001201E49C1F880010D20FFF7DCFF002065
:100BB000194908604FF08041888405E04FF080407B
:100BC000808C642800DB04E013487C38006800282F
:100BD000F4D000BF0121880701F0E8FB07E04FF0E7
:100BE0008040808C40F2DC51884200DB04E00A48FF
:100BF0007C3800680128F2D000BF00214FF080400F
:100C000001F0D4FB4FF08040858C3A2095FBF0F04A
:100C100084B2204670BD00008001214200002142C4
:100C20002DE9F041202000F05DF900287ED08C48AD
:100C3000006800287AD1202000F04EF9032001F04E
:100C40005FF9884908600846006887490860874A54
:100C50008749884803F0E2FD874A8849884800F0C0
:100C600091FB88480078012809D08648007802283E
:100C700005D08448007810B9002083490860814875
:100C80000078012807D14FF07E517F48006805F0B9
:100C900045FD7D4908607B480078022807D14FF068
:100CA0007E517948006806F037F87749086077493F
:100CB0007548006805F0FEFF01D2744809E07449E8
:100CC0007148006805F0F6FE01D2714801E06E48F7
:100CD00000686D4908606B480078032809D06948AE
:100CE0000078042805D06748007810B900206949C9
:100CF000086064480078032806D1674965480068A1
:100D000005F00CFD634908605E480078042806D1B0
:100D100062496048006805F001FD5E49086060496D
:100D20005C48006805F0C6FF03D200E095E05C482F
:100D300009E05C495748006805F0BCFE01D25948FB
:100D400001E054480068534908604E480078032881
:100D50000AD04C480078042806D04A48007818B9D0
:100D60000020514908600AE046480078032803D073
:100D700044480078042802D100204B4908604248CA
:100D8000006805F02FFE05463748026835480168BF
:100D9000284601F04BFE454908603948B0F900008B
:100DA00005F05CFE05462A46314801684048006867
:100DB00001F0C2FE3F4908603648006805F012FEA7
:100DC000054629462C48B0F9000001F0DDFC3A49FF
:100DD00008603648006805F041FE804637480168E3
:100DE000404605F09BFE06463248006805F036FE98
:100DF0000746314605F090FF054605F0F3FD044631
:100E00002D480068201A2E4908602B4800682044AD
:100E10002C4908602A4800F011FA2B491448006850
:100E200005F048FF05D329491148006805F042FE46
:100E300007D20021084600F027FA01202449087053
:100E400007E02048008801B21D48008800B200F089
:100E50001BFAFFF79FFE1F490880BDE8F0810000E4
:100E6000148121429400002098000020840000207A
:100E7000800000207C0000208C0000208A000020E0
:100E800088000020D1000020580000200000904180
:100E9000000090C15C000020000020C10000204143
:100EA00000008C4200008CC274000020B4000020BE
:100EB00054000020B0000020B80000206400002092
:100EC000A8000020AC00002000002042000020C24A
:100ED0009C0000206000002001490860704700006D
:100EE00014040140014600200022074B1B6803EA5E
:100EF0000102054B14331B680B4013B10AB10120EA
:100F000000E0002070470000000401400021234958
:100F10008279002A3AD00A46126803689A430B463F
:100F20001A600A1D126803689A430B1D1A60027941
:100F300011440A6803681A430A60184A08321268A2
:100F400003689A43154B08331A601A1D1268036828
:100F50009A43124B0C331A604279102A0ED11A1F91
:100F6000126803681A430D4B08331A601A1D126881
:100F700003681A43094B0C331A600DE007494279A4
:100F800011440A6803681A430A6005E002791144B3
:100F90000A6803689A430A60704700000004014031
:100FA00000B587B00121022000F020FF01210420BC
:100FB00000F02CFF04208DF81B00C020ADF81800B5
:100FC00003208DF81A0006A9194800F0A1F80020A6
:100FD000ADF81200ADF80E004FF6FF70ADF810003E
:100FE0000020ADF80C008DF8140003A9114801F0A1
:100FF00079FB00231A4603210E4801F0F2F96846F6
:1010000001F07AFA0A20ADF808006946094801F0B3
:101010001DFA01221146074801F077FA0021054820
:1010200001F032FB0121034801F0C0F907B000BD17
:10103000000801400004004000B587B001210420F1
:1010400000F0D4FE0121042000F0E0FE04208DF821
:101050001B00C020ADF8180003208DF81A0006A967
:10106000194800F055F80020ADF81200ADF80E0058
:101070004FF6FF70ADF810000020ADF80C008DF8B1
:10108000140003A9114801F02DFB00231A46032187
:101090000E4801F0A6F9684601F02EFA0A20ADF8D4
:1010A00008006946094801F0D1F9012211460748B4
:1010B00001F02BFA0021054801F0E6FA012103486E
:1010C00001F074F907B000BD000C014000080040B9
:1010D00030B500228B071C0F0F2303FA04F20B4BD1
:1010E0008C1053F824309343084C8D1044F825306D
:1010F00023468C1053F824308C07240F00FA04F494
:101100002343024C8D1044F8253030BD08000140C7
:101110002DE9F0410246002500260020002300248E
:10112000002791F803C00CF00F0591F803C00CF0F4
:10113000100CBCF1000F03D091F802C04CEA050579
:1011400091F800C0BCF1000F31D0146800202BE0F2
:101150004FF0010C0CFA00F3B1F800C00CEA0306E2
:101160009E4220D183004FF00F0C0CFA03F7BC43D2
:1011700005FA03FC4CEA040491F803C0BCF1280F03
:1011800006D14FF0010C0CFA00FCC2F814C00AE0C2
:1011900091F803C0BCF1480F05D14FF0010C0CFAD7
:1011A00000FCC2F810C0401C0828D1D31460B1F86C
:1011B00000C0BCF1FF0F34DD546800202EE000F1C8
:1011C000080C4FF0010808FA0CF3B1F800C00CEA63
:1011D00003069E4221D183004FF00F0C0CFA03F757
:1011E000BC4305FA03FC4CEA040491F803C0BCF1CB
:1011F000280F05D100F1080C08FA0CF8C2F8148089
:1012000091F803C0BCF1480F07D100F1080C4FF072
:10121000010808FA0CF8C2F81080401C0828CED348
:101220005460BDE8F08141617047016170470AB1C7
:10123000016100E04161704700BFFEE7104B0268AA
:101240001B689A4202DD0E4A126802600D4B02686A
:101250001B689A4202DA0B4A12680260084B0A685D
:101260001B689A4202DD064A12680A60054B0A684A
:101270001B689A4202DA034A12680A60704700004B
:10128000A0000020A400002070B504460D46002CEC
:101290000EDB4FF480411E48FFF7C7FF4FF40041BB
:1012A0001B48FFF7C0FFA1B21A4801F0E8F90EE0B1
:1012B0004FF480411648FFF7B6FF4FF40041144841
:1012C000FFF7B3FF604281B2124801F0D8F9002D58
:1012D0000EDB4FF400510E48FFF7A7FF4FF480518B
:1012E0000B48FFF7A0FFA9B20A4801F0CAF90EE0C7
:1012F0004FF400510648FFF796FF4FF48051044821
:10130000FFF793FF684281B2024801F0BAF970BD5D
:10131000000C0140002C01401FB50121084600F0DF
:1013200075FD0121082000F071FD2020ADF80C00B2
:1013300048208DF80F0003A91148FFF7E9FE0521A9
:101340000120FFF7C5FE2020019000208DF8080045
:101350000C208DF8090001208DF80A0001A8FFF784
:10136000D5FD17208DF8000000208DF801008DF8C4
:10137000020001208DF80300684600F0BDFA1FBD91
:10138000000C01402DE9FC4104460D4616466B4613
:1013900006224321682000F0BDF90746BFB99DF839
:1013A00001009DF8001040EA012000B220809DF865
:1013B00003009DF8021040EA012000B228809DF849
:1013C00005009DF8041040EA012000B23080384644
:1013D000BDE8FC8110B500200E4908600E48006889
:1013E00020F470400C4908600846006840F4405002
:1013F000086000200949C1F8AC0100F011F8012093
:101400000449086000F00CF800200449C1F8A80164
:1014100010BD0000A8812142040C0140008021423F
:1014200010B50220FFF79FFB10BD000008B5012199
:10143000082000F0EBFC4FF44060ADF800001020F5
:101440008DF8030003208DF8020069460148FFF77C
:101450005FFE08BD000C014010B500200E49086079
:101460000E48006820F470400C4908600846006887
:1014700040F44050086001200949C1F8AC01FFF771
:10148000CFFF012004490860FFF7CAFF002004498C
:10149000C1F8A80110BD0000A8812142040C014040
:1014A0000080214270B5054600241648006820F4EB
:1014B0007040144908600846006840F40040086025
:1014C000002614E0002010490860FFF7A9FF012062
:1014D0000E49C1F8A8016006040E0B487C3800686C
:1014E00008B1601CC4B2FFF79BFF701CC6B2082E87
:1014F000E8DB15B9FFF7B0FF01E0FFF76BFF20460F
:1015000070BD0000040C0140A881214200802142EE
:1015100070B504461248006820F470401049086015
:101520000846006840F44050086000200D490860FB
:10153000002512E0E0090B49091D08606006040E51
:1015400001200949C1F8A801FFF76AFF00200549F9
:101550000860FFF765FF681CC5B2082DEADB70BDA7
:10156000040C0140A88121420080214210B50E48A0
:10157000006820F470400C4908600846006840F498
:10158000405008600120094908600949C1F8A801D4
:10159000FFF746FF002005490860FFF741FF0020E4
:1015A0000349C1F8A80110BD040C0140AC812142DF
:1015B0000080214210B50E48006820F470400C49AC
:1015C00008600846006840F440500860002009495F
:1015D00008600949C1F8AC01FFF722FF0120054965
:1015E00008600549C1F8AC01FFF71AFF10BD000003
:1015F000040C0140A88121420080214210B5002442
:101600001448006820F470401249086008460068D9
:1016100040F40040086001200F490860FFF700FF18
:1016200001200E49C1F8A801FFF7FAFE07E0601C8F
:10163000C4B2FA2C03DDFFF7BDFF012010BD064840
:10164000803800680028F2D10349091F086000BFF4
:10165000F4E70000040C0140AC81214200802142EB
:1016600010B5FFF7E3FE80216B2000F0D7F864206F
:10167000FFF76DFA00216B2000F0D0F8032000F096
:101680008BF8002000F080F8C82000F0AAF80021B4
:10169000382000F0C3F800216A2000F0BFF80021D4
:1016A000232000F0BBF88021372000F0B7F8752028
:1016B00000F013F80446682C0BD101216B2000F0D8
:1016C000ADF800216C2000F0A9F8642000F089F842
:1016D00001E0012010BD0020FCE770B50446FFF7D3
:1016E00045FFD020FFF714FFFFF788FF2046FFF7E4
:1016F0000FFFFFF783FFFFF739FFD120FFF708FF48
:10170000FFF77CFF0020FFF7CDFE0546FFF752FFF5
:10171000284670BD2DE9F04106460F4614461D4689
:10172000FFF724FF002141EA4601C8B2FFF7F0FEAF
:10173000FFF764FF20B1FFF73DFF0120BDE8F08116
:101740003846FFF7E5FEFFF759FFFFF70FFF0121CE
:1017500001EB4601C8B2FFF7DBFEFFF74FFF0DE0DC
:10176000012C04D10020FFF79DFE287003E001202A
:10177000FFF798FE2870601EC4B26D1C002CEFD1DC
:10178000FFF718FF0020D9E710B50446E006010E68
:101790001C2000F043F810BD10B50446E006010E11
:1017A0001B2000F03BF810BD70B504460025BC2C92
:1017B00001DB012510E0622C01DB02250CE02A2C64
:1017C00001DB032508E0142C01DB042504E00A2CCE
:1017D00001DB052500E0062529461A2000F01EF849
:1017E00070BD70B50446B4F57A7F01DD4FF47A74AC
:1017F000042C00DA04244FF47A7090FBF4F0401EBD
:10180000C5B22946192000F009F80546264604EB22
:10181000D671C1F34F00FFF7C7FF70BD70B5054625
:101820000C46FFF7A3FED020FFF772FEFFF7E6FE9F
:1018300018B1FFF7BFFE012070BD2846FFF768FE14
:10184000FFF7DCFE2046FFF763FEFFF7D7FE18B177
:10185000FFF7B0FE0120EFE7FFF7ACFE0020EBE75B
:101860002DE9F04105460E4617469846FFF77EFEE5
:10187000002141EA4501C8B2FFF74AFEFFF7BEFE6C
:1018800020B1FFF797FE0120BDE8F0813046FFF759
:101890003FFEFFF7B3FE00240CE018F80400FFF74A
:1018A00037FEFFF7ABFE18B1FFF784FE0120EBE730
:1018B000601CC4B2BC42F0DBFFF77CFE0020E3E713
:1018C00000BFFEE708B50121082000F09FFA1020B4
:1018D0008DF803004FF47040ADF8000003208DF840
:1018E000020069460248FFF713FC00F017FA08BD32
:1018F000000C01407047000070B5002100230F224A
:10190000C47804B3154C246804F4E064C4F5E064BE
:10191000210AC1F10403CA40447804FA03F184782F
:101920001440214309010E4C0678A155047804F0B7
:101930001F050124AC4005786D11AD0005F1E025CF
:10194000C5F8004109E0047804F01F050124AC400B
:10195000044D0678761145F8264070BD0CED00E088
:1019600000E400E080E100E002490143024A116026
:10197000704700000000FA050CED00E070B500248F
:101980000EE00021204600F0F4F8002504E00020DD
:1019900000F0B3F9681CC5B2802DF8DB601CC4B23E
:1019A000082CEEDB70BD000008B50121082000F016
:1019B0002DFA14208DF8030003208DF802004FF457
:1019C0008070ADF8000069460A48FFF7A1FB4FF4AC
:1019D0000070ADF8000069460648FFF799FB012248
:1019E00011020448FFF723FC012251020148FFF7CE
:1019F0001EFC08BD000C014070B50546002415E032
:101A00008020204100EA05024FF400710E48FFF7E4
:101A10000EFC012211020C48FFF709FC00224FF4D2
:101A200080710948FFF703FC601CC4B2082CE7DB97
:101A3000012211020448FFF7FAFB00224FF48071E3
:101A40000148FFF7F4FB70BD000C014010B5012206
:101A500051020C48FFF7EBFB012211020948FFF786
:101A6000E6FB00224FF400710648FFF7E0FB04207C
:101A7000FFF779F800224FF480710248FFF7D7FB97
:101A800010BD0000000C014010B500224FF40071A1
:101A90000648FFF7CCFB012211020448FFF7C7FB01
:101AA000012251020148FFF7C2FB10BD000C0140AA
:101AB00070B5002406E0002500E06D1CB5F57A7FC6
:101AC000FBD3641CB4F57A7FF5D3FFF76DFFAE202E
:101AD00000F003F9D52000F000F9802000F0FDF8B7
:101AE000A82000F0FAF83F2000F0F7F8D32000F02B
:101AF000F4F8002000F0F1F8402000F0EEF8A1200A
:101B000000F0EBF8C82000F0E8F8DA2000F0E5F883
:101B1000122000F0E2F8812000F0DFF8CF2000F082
:101B2000DCF8D92000F0D9F8F12000F0D6F8DB205D
:101B300000F0D3F8302000F0D0F8A42000F0CDF869
:101B4000A62000F0CAF88D2000F0C7F8142000F09D
:101B5000C4F8AF2000F0C1F8FFF710FF70BD10B55A
:101B60000246012000E050430B1EA1F10101FAD111
:101B700010BD70B505460C4645F0B00000F0ADF85C
:101B8000102141EA141000F0A8F804F00F0000F052
:101B9000A4F870BD2DE9F04105460E461746721EA9
:101BA000D206110E6A1E5206100EFFF7E2FF002445
:101BB00009E0A7F12001134A02EB0111085D00F0D2
:101BC0009CF8601CC4B2082CF3DB721ED206110E06
:101BD0006A1E012303EB4202D0B2FFF7CAFF0024C2
:101BE0000BE0A7F12001074A02EB011204F1080102
:101BF000505C00F082F8601CC4B2082CF1DBBDE838
:101C0000F0810000F26E00082DE9F04780460E4694
:101C100017461D46002415E0281B411E0A20FFF729
:101C20009EFFB7FBF0F00A21B0FBF1F201FB1200BE
:101C300000F130093019C1B24A464046FFF7AAFF09
:101C4000601CC4B2AC42E7DBBDE8F0872DE9F04789
:101C50008146884615461E46002D06DB2B2241464E
:101C60004846FFF797FF2F4605E02D22414648469C
:101C7000FFF790FF6F42002417E0301B411E0A203F
:101C8000FFF76DFFB7FBF0F00A21B0FBF1F201FBAB
:101C9000120000F1300A08EB0400401CC1B25246A9
:101CA0004846FFF777FF601CC4B2B442E5DBBDE8ED
:101CB000F0872DE9F04107460E461546002407E05F
:101CC0002A5D3019C1B23846FFF764FF601CC4B208
:101CD000285D0028F4D1BDE8F08110B50446FFF777
:101CE000B5FE7820FFF788FE0020FFF785FE20462E
:101CF000FFF782FEFFF7C8FE10BD10B50446FFF7E0
:101D0000A5FE7820FFF778FE4020FFF775FE2046FD
:101D1000FFF772FEFFF7B8FE10BD000000B589B0F6
:101D20000121C80200F072F80121052000F06EF8D0
:101D300018208DF823004FF41060ADF82000032028
:101D40008DF8220008A92048FFF7E2F91F4800F0AB
:101D5000E5FB0020ADF81A00ADF8160041F61F4073
:101D6000ADF818000020ADF814008DF81C0005A98E
:101D7000164800F0B7FC01A800F077FC6020ADF831
:101D800004000020ADF80C000120ADF80600002092
:101D9000ADF80A0001A90D4800F0C6FB01A90B48E7
:101DA00000F018FC0821094800F00AFC0821074847
:101DB00000F04EFC0121054800F0F8FA012103482B
:101DC00000F000FB09B000BD00080140002C0140FC
:101DD0007047000001460020034A506820F440404C
:101DE00008435060704700000010024029B1064AC5
:101DF000D2690243044BDA6104E0034AD2698243A8
:101E0000014BDA61704700000010024029B1064A18
:101E100092690243044B9A6104E0034A9269824347
:101E2000014B9A61704700000010024030B500215C
:101E30000022002400232D4D6D6805F00C0121B116
:101E4000042905D0082923D105E0294D056022E0A9
:101E5000274D05601FE0254D6D6805F47012234D78
:101E60006D6805F48034022505EB92421CB9214DC2
:101E7000554305600BE01D4D6D6805F400351DB13F
:101E80001C4D5543056002E0194D5543056002E0C5
:101E9000174D056000BF00BF144D6D6805F0F001DF
:101EA0000909154D6B5C0568DD4045600F4D6D6897
:101EB00005F4E061090A104D6B5C4568DD40856002
:101EC0000A4D6D6805F46051C90A0B4D6B5C45689D
:101ED000DD40C560054D6D6805F44041890B074D37
:101EE0006B5CC568B5FBF3F5056130BD00100240C1
:101EF00000127A0000093D000000002010000020C0
:101F000070B50546032D02D0042D12D108E00B4810
:101F100000F088FA04B20021084800F0B5FB0AE09E
:101F2000074800F07FFA04B20021054800F0ACFB3E
:101F300001E0002400BF00BF204670BD0004004047
:101F40000008004008B501210420FFF75FFF1020C2
:101F50008DF803000120ADF8000003208DF8020089
:101F600069460848FFF7D4F804208DF803000220E2
:101F7000ADF8000003208DF8020069460148FFF724
:101F8000C7F808BD000801400EB501210846FFF75B
:101F90002DFF0020ADF80600ADF8020041F28730B9
:101FA000ADF804004720ADF8000000208DF80800CF
:101FB00069464FF0804000F095FB0121880700F052
:101FC000EFF901221146900700F09FFA00214FF02F
:101FD000804000F0EBF90EBD704710B500F002F83C
:101FE00010BD00000CB5002001900090334800683F
:101FF00040F480303149086000BF3048006800F488
:10200000003000900198401C0190009818B9019888
:10201000B0F5A06FF1D12948006800F4003010B18C
:102020000120009001E0002000900098012843D199
:102030002348006840F01000214908600846006805
:1020400020F0030008600846006840F002000860C5
:102050001A48406819494860084640684860084680
:10206000406840F4806048600846406820F47C1076
:1020700048600846406840F4E81048600846006838
:1020800040F08070086000BF0C48006800F00070ED
:102090000028F9D00948406820F00300074948604B
:1020A0000846406840F00200486000BF03484068AE
:1020B00000F00C000828F9D10CBD0000001002400F
:1020C000002002407047000010B51348006840F03F
:1020D00001001149086008464068104908400E494F
:1020E0004860084600680E4908400B4908600846E9
:1020F000006820F4802008600846406820F4FE0054
:1021000048604FF41F008860FFF767FF4FF00060E2
:102110000449086010BD0000001002400000FFF8F4
:10212000FFFFF6FE08ED00E0F0B50C461546002274
:102130000021068C4FF6FE773E400684028B018C10
:102140004FF60C7632407E1C06EA03162E433243CD
:10215000104EB0420ED0104EB0420BD0B0F1804FB6
:1021600008D00E4EB04205D00D4EB04202D00D4EFA
:10217000B04206D14FF6FD76314044F001063143BE
:1021800005E04FF6F576314044F001063143028315
:102190000184F0BD002C01400034014000040040E7
:1021A00000080040000C0040F0B50C461546002227
:1021B00000210026078C4FF6EF7C07EA0C07078406
:1021C000028B018C4FF6FF7707EA041640F6FF47B3
:1021D0003A404FF6FF7707EA03373A434FF6FF7767
:1021E00007EA05273A43114FB8420ED0104FB842C4
:1021F0000BD0B0F1804F08D00E4FB84205D00E4F33
:10220000B84202D00D4FB84206D14FF6DF773940C1
:1022100046F01007394305E04FF65F77394044F048
:102220001007394302830184F0BD0000002C0140F7
:10223000003401400004004000080040000C004051
:10224000F0B50C461546002200210026078C4FF6FB
:10225000FF6C07EA0C070784828B018C4FF6FF772F
:1022600007EA04264FF60C773A404FF6FF7707EA65
:1022700003172F433A43114FB8420ED0104FB842C4
:102280000BD0B0F1804F08D00E4FB84205D00E4FA2
:10229000B84202D00D4FB84206D14FF6FF57394031
:1022A00046F48077394305E04FF2FF57394044F454
:1022B0008077394382830184F0BD0000002C014007
:1022C000003401400004004000080040000C0040C1
:1022D000F0B50C461546002200210026078C4EF66C
:1022E000FF7C07EA0C070784828B018C4FF6FF778F
:1022F00007EA043640F6FF473A404FF6FF7707EA11
:1023000005273A434FF6FF7707EA03373A43114F61
:10231000B8420ED0104FB8420BD0B0F1804F08D069
:102320000E4FB84205D00E4FB84202D00D4FB84202
:1023300006D14DF6FF77394046F48057394305E022
:1023400047F6FF57394044F480573943828301846C
:10235000F0BD0000002C01400034014000040040AA
:1023600000080040000C004010B50121044800F0B6
:102370005CF8012803D10121014800F014F810BDD8
:102380000004004010B50121044800F04EF8012877
:1023900003D10121014800F006F810BD00040040FF
:1023A000CA4302827047CA430282704721B1028841
:1023B00042F00102028004E002884FF6FE731A40E8
:1023C0000280704731B1B0F8442042F40042A0F8D6
:1023D000442005E0B0F84420C2F30E02A0F84420E7
:1023E0007047F0B50C4615461E460021002200231A
:1023F0000189028B038C4FF6F877394021434FF661
:10240000FC473A4040F201173A434FF6DD773B4034
:102410004FF6FF7707EA06172F433B4301810283FC
:102420000384F0BD0146888C704730B50246002019
:1024300000230024158A05EA0103958905EA0104B1
:1024400013B10CB1012000E0002030BD70B505468D
:102450000C46244885420ED0234885420BD0B5F166
:10246000804F08D02148854205D02148854202D0BE
:102470002048854200D100E000BF208850B9238960
:10248000A28861882846FFF74FFEE188284600F0C1
:10249000FDF825E0208804280AD12389A2886188D4
:1024A0002846FFF781FEE188284600F0F8F817E09B
:1024B000208808280AD12389A28861882846FFF746
:1024C000BFFEE188284600F0F7F809E02389A288DA
:1024D00061882846FFF7FCFEE188284600F0F5F801
:1024E00070BD0000002C0140003401400004004099
:1024F00000080040000C00400021018041800121C3
:1025000081800021C180018170471AB183890B430A
:10251000838102E083898B438381704701894FF671
:10252000F87211400181704770B500240022002329
:10253000058C4FF6FE7635400584028C8388048B2B
:102540004FF68F752C40B51E2C400D882C43751E00
:102550002A400D892A434D882A43144DA8420BD0A6
:10256000134DA84208D0134DA84205D0124DA842E1
:1025700002D0124DA84213D14FF6F7752A404D896B
:102580002A434FF6FB752A408D882A434FF6FF6594
:102590002B404FF6FF552B408D892B43CD892B4384
:1025A00083800483CD888586028470BD002C014021
:1025B0000034014000400140004401400048014017
:1025C0000A460021018B4FF6F7731940114301832E
:1025D0007047000070B5002200230024058C4EF6E1
:1025E000FF7635400584038C8488828B48F6FF751E
:1025F0002A404FF6FF452A400D884FF6FF7606EA3F
:1026000005252A434DF6FF752B400D8906EA053551
:102610002B434D8806EA05352B430B4DA84202D0CB
:102620000A4DA84208D14BF6FF752C408D894FF614
:10263000FF7606EA85152C4384808283CD88A0F836
:102640004050038470BD0000002C01400034014064
:102650000A460021818B4FF2FF7319404FF6FF733A
:1026600003EA0223194381837047002101804180DE
:102670008180C180018141818181C18170478186D2
:102680007047A0F84010704781847047028B4FF666
:10269000F3731A400283028B0A4302837047028B52
:1026A0004FF2FF331A400283028B4FF6FF7303EAA7
:1026B00001231A4302837047828B4FF6F3731A404B
:1026C0008283828B0A4382837047828B4FF2FF336F
:1026D0001A408283828B4FF6FF7303EA01231A4369
:1026E00082837047002202881D4B98420ED01D4BFA
:1026F00098420BD0B0F1804F08D01B4B984205D0C8
:102700001A4B984202D01A4B984204D14FF68F735D
:102710001A404B881A43174B984207D0164B9842E1
:1027200004D04FF6FF431A40CB881A4302808B88AF
:1027300083850B8803850A4B98420BD0094B98423E
:1027400008D00E4B984205D00D4B984202D00D4B4D
:10275000984201D10B7A03860123838270470000DF
:10276000002C0140003401400004004000080040FB
:10277000000C0040001000400014004000400140E8
:1027800000440140004801402DE9F04705460C4651
:10279000204604F063F982460C480168504604F074
:1027A000BDF98046284604F059F982460848016878
:1027B000504604F0B3F98146414603F0AFFF0746A7
:1027C00004F010F906463046BDE8F0877800002096
:1027D0007400002010B540F225511F4800F062F847
:1027E000002838D01C4800F019F9C4B221461BA0BB
:1027F000FDF718FD1A48008800F4004058BB18483F
:10280000008800F4804060B10A2C03D000201449F5
:10281000088020E01248008840F4004010490880F9
:1028200019E00D2C06D10E48008840F480400C4978
:10283000088010E00A480088C0F30D0009490C54D4
:1028400007480088401C0649088008460088C728B9
:1028500001DD0020088010BD003801402563000024
:1028600018000020DC00002010B540F2255105487A
:1028700000F018F820B1034800F0D0F802490870C1
:1028800010BD000000440040D000002021B182892A
:1028900042F40052828104E082894DF6FF731A40AF
:1028A0008281704770B50246002400230025002075
:1028B00040F66A16B14200D100BFC1F3421501F0E3
:1028C0001F03012606FA03F3012D02D19689334036
:1028D00006E0022D02D1168A334001E0968A334089
:1028E0000C12012606FA04F41688344013B10CB118
:1028F000012000E0002070BDF0B503460024002652
:102900000025002040F66A17B94200D100BF1846E2
:10291000C1F3421401F01F06012707FA06F5012C46
:1029200001D10C3004E0022C01D1103000E0143051
:102930001AB107682F43076002E00768AF430760DA
:10294000F0BD00002DE9F04786B005460E46002494
:10295000A24600BFA1460027B08900B100BF2F46A4
:102960002C8A4CF6FF700440F08804432C82AC891A
:102970004EF6F3100440B08831890843718908434A
:102980000443AC81AC8A4FF6FF400440B089044355
:10299000AC8201A8FFF74AFA1F48874202D1DDF84E
:1029A00010A001E0DDF80CA0A88900F4004040B1BF
:1029B0000AEBCA0000EB0A1031684900B0FBF1F8DD
:1029C00007E00AEBCA0000EB0A1031688900B0FB8F
:1029D000F1F86420B8FBF0F004012009642101FB48
:1029E0001089A88900F4004040B1322000EBC900F2
:1029F000B0FBF1F000F00700044308E0322000EBE8
:102A000009106421B0FBF1F000F00F0004432C81A9
:102A100006B0BDE8F0870000003801400146888814
:102A2000C0F30800704700BFFEE700002DE9F84F33
:102A300004460D461646364FA819001B3549086056
:102A40003548006804F00AF88346394604F066F811
:102A500081463048006804F001F8834639464FF05B
:102A60007E5004F059F95946009004F057F8824618
:102A7000494603F053FE804603F0B4FF274908603F
:102A80000846006824490860254800682349096809
:102A90000844234908600846006842F210718842E1
:102AA00001DD084608E01E4800681E49884201DA38
:102AB000084601E01A480068194908601A48007879
:102AC000012803D1002008601749087014480068E5
:102AD00003F0C4FF834615480168584604F01EF809
:102AE00081460E48006803F0B9FF8346104801682C
:102AF000584604F013F88246494603F00FFE80461C
:102B000003F070FF0B49086008460068BDE8F88FC5
:102B10003333333FC8000020C0000020CC00002029
:102B2000BC000020F0D8FFFF9C00002070000020B7
:102B30006C000020C40000202DE9F05F83460D46A4
:102B400014460021204604F0E7F882460A4801684E
:102B5000504603F0E3FF804629460848006803F02A
:102B6000DDFF8146414603F0D9FD074603F03AFFF9
:102B700006463046BDE8F09F680000206400002053
:102B8000490050EAC12018BF04204A0D18BF40F088
:102B9000010040F2FF72B2EB515F08BF40F002004B
:102BA000012808BF052070472DE9F0414F1E00EBBA
:102BB000C7010446D1E9000115461E4637F006025A
:102BC0000DD02A46334603F0A3FA7F1E04EBC70359
:102BD000D3E9002303F04CF837F00602F1D1022FBD
:102BE00025D0042F13D0062F18BFBDE8F0812A4648
:102BF000334603F08DFAD4E90A2303F039F82A4664
:102C0000334603F085FAD4E9082303F031F82A4665
:102C1000334603F07DFAD4E9062303F029F82A4667
:102C2000334603F075FAD4E9042303F021F82A4669
:102C3000334603F06DFAD4E9022303F019F82A466B
:102C4000334603F065FAD4E90023BDE8F04103F010
:102C50000FB8012204F007B903F00AB800221346A6
:102C60001046114603F0C0B8024A0020110704F0D4
:102C7000FAB8000001FDFFFF30380A2801D2012018
:102C800070470020704700BF704700002DE9FE4FDD
:102C900006460F460025684601F07CF9002442E014
:102CA00056F8240057F82410A0EB010ABAF1000FDF
:102CB00001DB514601E0CAF10001084603F0CEFEF7
:102CC00083464FF08F4103F097FD80465DF8240066
:102CD000002103F053FE16D05DF82410404603F0A7
:102CE0008BFD82464FF07E5104F016F8814629F0A4
:102CF000004A0F48416A504603F0DCFF12D201201F
:102D0000A04005430EE00A48C169404603F0D2FEE8
:102D100005D30748016A404603F0CCFF02D20120E8
:102D2000A0400543641C032CBADB2846BDE8FE8F97
:102D30000C7500082DE9F04D8D4F21F0004A86B04A
:102D400005460C46BA452ADBAAEB070028430AD001
:102D50008848824501DC1AD1CDB106B02846BDE8CD
:102D6000F04DFFF776BF844A844B284603F0D0F934
:102D700007460E46824A834B2846214603F0C8F98F
:102D800006B03A463346BDE8F04D02F071BF01206F
:102D9000FDF70AFC06B0BDE8F04DFFF75FBF7A48CB
:102DA000824542DABAF1795F0BDA2846FFF7E8FE8E
:102DB000042808BFFFF758FF284606B02146BDE8A3
:102DC000F08D2A460B46104603F0A2F983460246D0
:102DD0006E480E460B4606217844FFF7E5FE5A463C
:102DE000334603F095F9804669488A465A46334689
:102DF00004217844FFF7D8FE5A46334603F088F999
:102E000000223B4602F034FF02460B464046514644
:102E100002F0EAFF2A46234603F07AF906B02A4672
:102E20002346BDE8F04D02F023BF284624F00041C0
:102E300000223D463B4603F069FA4FF0FF3204F0B2
:102E400012F80646024653480F460B4606217844C0
:102E5000FFF7AAFE32463B4603F05AF9CDE90001DE
:102E60004D4832463B4604217844FFF79DFE3246EA
:102E70003B4603F04DF900222B4602F0F9FE834653
:102E800002913046394602F04BFE804643480D46DB
:102E9000504517DCDDE900015A46029B02F0A4FF11
:102EA00042462B4603F034F942462B4602F0E0FE40
:102EB000012203F0D8FF304A304B03F019FB304AAF
:102EC000304B4CE04FF0000A52460B46404602F0B1
:102ED000CFFECDE9031052462B461046194603F0AB
:102EE00017F932463B4603F011FADDE9033202F0EE
:102EF0007BFF06460F46DDE900015A46029B02F0C1
:102F000073FF8346009101223046394603F0ABFF40
:102F1000194A1A4B03F0FAF906460F4601224046B9
:102F2000294603F0A0FF5A46009B03F0F1F8324611
:102F30003B4603F0DDFA06460F460122504629467D
:102F400003F091FF0E4DDFF858802A46434603F008
:102F5000DDF932463B4603F0D9F92A46434603F0F1
:102F6000D5F9002CD8BF81F0004106B0BDE8F08D46
:102F70000000F03F0000F07F075C143326A6913C70
:102F8000182D4454FB21F93F0000E03F645300003A
:102F90007A530000EE520000045300003333EF3F39
:102FA000FB21E93F2DE9F84F04460D4621F0004092
:102FB00000917349814211DC7249884201DC06D1DB
:102FC0002CB120462946BDE8F84FFFF742BE6E48B7
:102FD000002DCCBF6D496E49BDE8F88F6D49814227
:102FE00011DD6D498142D8BF4FF0FF366DDD2046BF
:102FF0002946FFF7C5FD042808BFFFF735FE204628
:103000002946BDE8F88F6549654F25F000458142A6
:1030100033DD6449814219DD002632464FF080439A
:103020002046294602F024FE80468A460122204698
:10303000294603F018FF00223B4603F059FA4246A6
:10304000534602F0D1FE04460D463EE00126002222
:10305000BA463B462046294602F00AFE80460F4605
:10306000002253462046294603F042FA42463B4698
:1030700002F0BAFE04460D4627E04B4981421BDDB3
:10308000DFF828A10226002253462046294603F0F5
:103090003FF800223B4602F0EBFD80460F4600223F
:1030A00053462046294603F023FA42463B4602F0A7
:1030B0009BFE04460D4608E0032622462B460020D0
:1030C0003B4902F091FE04460D4622462B4610462F
:1030D000194603F01DF88B46824602460B4603F064
:1030E00017F807460246334888460B4606217844BF
:1030F000FFF75AFD52465B4603F00AF882462E4817
:103100008B463A46434605217844FFF74DFD3A4643
:10311000434602F0FDFF02460B46002E504659463C
:103120000CDA02F0A5FD22462B4602F0F1FF01B0B9
:1031300022462B46BDE8F04F03F0E8B802F098FDB8
:1031400022462B4602F0E4FF1C4A7A4402EBC603F7
:10315000D3E9002303F0CCF922462B4603F0C8F94B
:10316000174A7A4402EBC603D3E9002303F0CEF8F2
:10317000009A002AB8BF81F00041BDE8F88F000036
:10318000000010440000F07F182D4454FB21F93F4B
:10319000FB21F9BF0000DC3F0000203E0000F33FB0
:1031A0000000F03F0000E63F008003400000F83FD1
:1031B0000000F0BF06510000C45000006250000043
:1031C0002A5000002DE9F04D9446CCF1000423F084
:1031D00000464CEA0404594F46EAD4749A4688469D
:1031E00021F00042BC4206D8454240EA050442EACA
:1031F000D474BC4204D9BDE8F04D6246FFF72CBD43
:10320000AAF14055A5F17F6555EA0C040BD00224C4
:1032100004EAAA744A4DDFF82CE144EAD87452EA71
:10322000000B04D00CE0BDE8F04DFFF7BBBE002C56
:1032300014BF012CBDE8F08D022C30D0032C32D00D
:1032400056EA0C0B0AD0BE4220D1BA4209D126F070
:10325000804622F080423346114617E000291ADBEF
:1032600025E0DFF8E4B0FB44002C04BFDBE90001FB
:10327000BDE8F08D012C02BFDBE9000181F00041C7
:10328000BDE8F08D022C0AD0032C0CD0BA4212D12A
:10329000B8F1000F0BDA2A482C49BDE8F08D28461A
:1032A0002B49BDE8F08D28467146BDE8F08D2448D5
:1032B0002849BDE8F08D921B12153C2AC4BF204F4F
:1032C000244E10DCBAF1000FBEBF12F13C0F0027F4
:1032D0003E4608DB624602F087FD21F00041FFF721
:1032E00061FE07460E4694B1012C08BF86F00046E9
:1032F0000DD0194A194B022C3846314615D003F02F
:10330000F7F82A46BDE8F04D114B03F0F1B8002262
:1033100013463846314602F0BFFE04BF0220FDF7D7
:1033200043F938463146BDE8F08D03F0E1F82A460E
:10333000BDE8F04D064B02F0E9BF00000000F07F51
:10334000182D4454FB2109C0BE4F0000FB21F9BFDA
:10335000FB210940FB21F93F075C143326A6A13C61
:103360002DE9F0410446E07800F0C006E07800F076
:103370003F05607800F0010098B1EF102846E9178A
:1033800005EB5171C910A5EBC101491C01F0FF0803
:103390000B48006820B10A48414602683846904709
:1033A00000BF607800F0080030B10548406818B1EF
:1033B000B011034A516888470020BDE8F081000041
:1033C000A401002038B5044664B120208DF8000027
:1033D00028208DF8010030208DF8020038208DF86B
:1033E000030004E0A32204216846FDF755F86A466D
:1033F000042140F69E2002F0C1FA01F0ABFE38BD78
:103400003EB5044602208DF80000CA208DF8010068
:10341000E3208DF8020009208DF803006A4604219C
:10342000682002F0ABFAA3208DF8000004F0400001
:1034300048B1C0208DF80100C8208DF80200C220DC
:103440008DF8030006E0A3208DF801008DF802003E
:103450008DF8030004F4C07048B1C4208DF8040056
:10346000CC208DF80500C6208DF8060006E0A320CC
:103470008DF804008DF805008DF80600A3208DF866
:1034800007008DF808008DF809006A460A2140F609
:10349000A72002F073FA04F0030018B120208DF881
:1034A000000002E0D8208DF800006A46012140F6B5
:1034B000B62002F063FA04F0200018B1012000F0F9
:1034C000ADF802E0002000F0A9F804F4C07008B3E1
:1034D00004F4807060B1B2208DF800008B208DF86C
:1034E0000100B6208DF802009B208DF803000BE050
:1034F000B0208DF8000080208DF80100B4208DF8F8
:10350000020090208DF803006A46042140F6A220B4
:1035100002F034FA04F0010020B3F8208DF8000026
:103520006A4601214FF40B6002F028FAFA210720C5
:1035300000F02CFC072000F0F3FB012000F013FC4E
:10354000642000F0F3FC4FF4FA7000F002FDC82193
:10355000304800F0A3FB282000F0BCFB0A2000F05C
:10356000CCFB08E0D8208DF800006A4601214FF41A
:103570000B6002F003FA04F0020018B1D9208DF8B4
:10358000000002E0D8208DF800006A46012140F2D8
:103590003D7002F0F3F904F0040018B1012000F0CE
:1035A00069F802E0002000F065F804F0100018B19E
:1035B0000120FFF707FF02E00020FFF703FF44F0C0
:1035C00008001549488101F0C5FD002012498873A3
:1035D00004F0400018B10846807B801D887304F415
:1035E000C07020B10C48807B801D0B49887304F0AB
:1035F000140020B10848807B10300749887304F01C
:10360000030020B10448807B001D0349887300201B
:103610003EBD000009E3CA02A40100203EB50446F5
:103620006CB10EA1D1E900208968CDE9002002919A
:103630006A4609214FF4976002F0A0F93EBD0AA244
:10364000D2E900109268CDE9010200916A46092191
:103650004FF4976002F092F9F0E70000B8AAB38D3A
:10366000B4980D355D000000B8AAAAAAB088C3C5F9
:10367000C700000038B5044664B1C0208DF80000D2
:10368000C2208DF80100C4208DF80200C6208DF8FC
:10369000030004E08B2204216846FCF7FDFE6A4625
:1036A000042140F6982002F069F901F053FD38BD7D
:1036B00010B5C8234FF48062024940F6F63001F09D
:1036C000DDFB10BD347500082DE9F04F8DB00746C5
:1036D000884615469946DDE9166B002400203080A7
:1036E0006B49887B5A4605A901F094FC18B1601E0D
:1036F0000DB0BDE8F08F6648807A00F01400002815
:1037000067D09DF8140000069DF8151040EA0140AE
:103710009DF8161040EA01209DF817100843286014
:103720009DF8180000069DF8191040EA01409DF828
:103730001A1040EA01209DF81B10084368609DF8AC
:103740001C0000069DF81D1040EA01409DF81E1067
:1037500040EA01209DF81F100843A8609DF8200052
:1037600000069DF8211040EA01409DF8221040EA31
:1037700001209DF823100843E86004F11000C4B252
:10378000286800140190686800140290A86800146A
:103790000390E8680014049001984043029901FBEB
:1037A0000100039901FB0100049901FB010ABAF130
:1037B000706F02DBBAF1885F05DD01F0CBFC002001
:1037C0003080401E94E7B6F9000040F480703080ED
:1037D00000BF2F48807A00F0400020B305A9601C8C
:1037E000085C095D40EA012000B2A8F8000005A9C4
:1037F000E01C095C05AAA01C105C41EA002000B294
:10380000A8F8020005A9601D095C201D105C41EAB2
:10381000002000B2A8F80400A01DC4B2B6F9000050
:1038200040F0080030801A48408900F4C07008B3A6
:1038300005A9601C085C095D40EA012000B23880DF
:1038400005A9E01C095C05AAA01C105C41EA002047
:1038500000B2788005A9601D095C201D105C41EA5A
:10386000002000B2B880A01DC4B2B6F9000040F03C
:10387000700030800648807A00F0030018B105A976
:103880000819FFF76DFD484600F08EFF00202FE776
:10389000A401002070B588B0064601A801F042F9E5
:1038A000BDF804000021C90341EA5045C40344485F
:1038B000007A00F0030056F8200005904048007A96
:1038C00000F0040010B10598404205903C48007A91
:1038D000C0F3C10056F8200006903948007A00F085
:1038E000200010B10698404206903548007AC0F397
:1038F000811056F8200007903148008900F480704C
:1039000010B10798404207900598C117A0FB042307
:1039100001FB043100FB0510810041EA9270059023
:103920000698C117A0FB042301FB043100FB05101E
:10393000810041EA927006900798C117A0FB04230A
:1039400001FB043100FB0510810041EA92700790F1
:103950000598000E8DF808000598000C8DF80900F8
:103960000598000A8DF80A000598C0B28DF80B0082
:103970000698000E8DF80C000698000C8DF80D00CE
:103980000698000A8DF80E000698C0B28DF80F0058
:103990000798000E8DF810000798000C8DF81100A4
:1039A0000798000A8DF812000798C0B28DF813002E
:1039B00002AA0C214FF4257001F0E0FF08B070BDA1
:1039C000A401002030B585B0044616A207CA02AB98
:1039D00007C3C82C03DD4FF0FF3005B030BDC82051
:1039E00090FBF4F0401E85B2280A8DF80000E8B282
:1039F0008DF801006A46022140F2162001F0BEFF58
:103A000010B14FF0FF30E8E702AA0C2140F6C120C8
:103A100001F0B4FF10B14FF0FF30DEE704488481BD
:103A20000020DAE7FEF2ABC4AAF1DFDFBBAFDFDFD5
:103A3000A40100201FB504464848007A00F00300A6
:103A400054F8200001904548007A00F0040010B1BD
:103A50000198404201904148007AC0F3C10054F8F7
:103A6000200002903D48007A00F0200010B102983A
:103A7000404202903948007AC0F3811054F8200087
:103A800003903648008900F4807010B103984042DA
:103A900003903349019880FB0101800F40EA8100C7
:103AA00001902F49029880FB0110820042EA917038
:103AB00002902B49039880FB0110820042EA91702A
:103AC00003900198000E8DF800000198000C8DF80D
:103AD00001000198000A8DF802000198C0B28DF82B
:103AE00003006A4604214FF4747001F047FF18B1D7
:103AF0004FF0FF3004B010BD0298000E8DF80000AA
:103B00000298000C8DF801000298000A8DF802005E
:103B10000298C0B28DF803006A4604214FF4757014
:103B200001F02CFF10B14FF0FF30E3E70398000ED7
:103B30008DF800000398000C8DF801000398000A2E
:103B40008DF802000398C0B28DF803006A46042184
:103B50004FF4767001F012FFCCE70000A4010020C2
:103B600009E3CA0210B586B0044647A00068039076
:103B700046A00068029046A00068019045A0006839
:103B8000009004F0030003A9085C8DF8140003A85A
:103B9000C4F3C101405C8DF8150003A8C4F3811182
:103BA000405C8DF8160004F0030002A9085C8DF853
:103BB000100002A8C4F3C101405C8DF8110002A8F6
:103BC000C4F38111405C8DF8120005AA032140F274
:103BD000264001F0D3FE18B14FF0FF3006B010BD03
:103BE00004AA032140F22A4001F0C8FE10B14FF0B0
:103BF000FF30F3E7019805900098049004F004006A
:103C000058B19DF8140040F001008DF814009DF8A3
:103C1000100040F001008DF8100004F0200058B1B1
:103C20009DF8150040F001008DF815009DF8110079
:103C300040F001008DF8110004F4807058B19DF837
:103C4000160040F001008DF816009DF8120040F0BB
:103C500001008DF8120005AA03214FF4886001F0DD
:103C60008DFE10B14FF0FF30B8E704AA032140F2F7
:103C7000314001F083FE10B14FF0FF30AEE706484F
:103C800004810020AAE700004CCD6C000CC92C0078
:103C90003656760026466600A4010020F8B5054693
:103CA0000E464FF47A7095FBF0F000FB06F4200E00
:103CB0008DF80000200C8DF80100200A8DF802001C
:103CC000E0B28DF803006A4604214FF4AE7001F0B3
:103CD00055FEF8BD38B50446052094FBF0F084B2DB
:103CE00020128DF80000E0B28DF801006A46022132
:103CF0004FF4AD7001F042FE38BD38B504460520E2
:103D000094FBF0F084B220128DF80000E0B28DF840
:103D100001006A4602214FF4AC7001F02FFE38BD5D
:103D200038B504460020009004F0010020B19DF851
:103D3000000040F03000009004F0020020B19DF837
:103D4000000040F00C00009004F0040020B19DF849
:103D5000000040F0030000906A4601214FF4A47077
:103D600001F00CFE38BD38B50446012C01DA0124FF
:103D700002E0042C00DD0424601EC0B200906A46FC
:103D8000012140F24F1001F0F9FD38BD2DE9FC474B
:103D900006460F4606F0070010B1B7F5C86F03DD01
:103DA0004FF0FF30BDE8FC87384602F06FFE8146D9
:103DB000594902F021FD8046684600F08DFE9DF8CD
:103DC0000000022806D0042816D0082826D0102883
:103DD00048D135E04FF08D41404602F09FFE8146CC
:103DE00002F01CFE84B24D49404602F097FE814627
:103DF00002F014FE85B238E04FF08C41404602F0EC
:103E00008DFE814602F00AFE84B24549404602F02A
:103E100085FE814602F002FE85B226E04FF08B411E
:103E2000404602F07BFE814602F0F8FD84B23D4937
:103E3000404602F073FE814602F0F0FD85B214E0C8
:103E40004FF08A41404602F069FE814602F0E6FDED
:103E500084B23549404602F061FE814602F0DEFD43
:103E600085B202E04FF0FF309CE700BF20128DF8D2
:103E70000400E0B28DF8050028128DF80600E8B2C3
:103E80008DF8070006F00100A0B101AA02214FF44D
:103E9000EA7001F073FD10B14FF0FF3082E70DF1D1
:103EA000060202214FF4927001F068FD10B14FF04C
:103EB000FF3077E706F00200A0B101AA02214FF41B
:103EC000EC7001F05BFD10B14FF0FF306AE70DF1CF
:103ED000060202214FF4947001F050FD10B14FF032
:103EE000FF305FE706F00400A0B101AA02214FF401
:103EF000EE7001F043FD10B14FF0FF3052E70DF1CD
:103F0000060202214FF4967001F038FD10B14FF017
:103F1000FF3047E7002045E70000484300004046E7
:103F20000000C045000040450000C04438B50446CC
:103F3000052094FBF0F085B228128DF80000E8B25D
:103F40008DF801006A4602214FF4EF7001F016FD72
:103F500038BD38B50446052094FBF0F085B2281230
:103F60008DF80000E8B28DF801006A4602214FF496
:103F7000ED7001F003FD38BD00BF054A128802F064
:103F80004002002AF9D0C2B2014B1B1D1A807047B3
:103F9000003801407CB5054628494968087801ABDE
:103FA00004220D21FDF7B6FB08B107207CBD9DF86A
:103FB0000700C0F301109DF8041001F0E00140EA91
:103FC000E1008DF800009DF80700C0F381009DF826
:103FD000051001F0E00140EAE1008DF801009DF8D4
:103FE000070000F003009DF8061001F0E00140EA30
:103FF000E1008DF8020000241CE01DF8040018B94F
:10400000002045F8240013E00D4845F8240006E0A0
:1040100055F824000B4902F081FD45F824001DF8F5
:104020000400401EC0B20DF804000028F0D100BF0B
:10403000601CC4B2032CE0DB0020B7E71C000020AA
:104040007B14AE3E1D5A843F2DE9F04F87B00546E4
:104050000C46914601208DF8100000208DF81100CB
:10406000FE4A1268917CFD4A5268107804AB022225
:10407000FDF7F6FB20B14FF0FF3007B0BDE8F08F41
:10408000C820FCF764FD00208DF81000F34A126888
:10409000D17BF24A5268107804AB0122FDF7E0FBB5
:1040A00010B14FF0FF30E8E7EC4A12685179EB4A63
:1040B0005268107804AB0122FDF7D2FB10B14FF02B
:1040C000FF30DAE7E54A1268917CE44A52681078DA
:1040D00004AB0122FDF7C4FB10B14FF0FF30CCE779
:1040E000DE4A1268D17DDD4A5268107804AB0122A5
:1040F000FDF7B6FB10B14FF0FF30BEE7D74A1268AC
:104100001179D64A5268107804AB0122FDF7A8FB5A
:1041100010B14FF0FF30B0E70C208DF81000CF4AFF
:1041200012681179CD4A5268107804AB0122FDF76C
:1041300097FB10B14FF0FF309FE70F20FCF707FD12
:10414000C648806A407A8DF81000C44A1268917897
:10415000C24A5268107804AB0122FDF781FB10B10E
:104160004FF0FF3089E7BD48806A007A8DF8100073
:10417000BA4A12685178B94A5268107804AB0122E1
:10418000FDF76EFB10B14FF0FF3076E7B9F1000F8D
:1041900007D0B248806A807A40F0E0008DF81000C5
:1041A00004E0AE48806A807A8DF81000AB4A12684D
:1041B0009179AA4A5268107804AB0122FDF750FBAE
:1041C00010B14FF0FF3058E7B9F1000F07D0A34806
:1041D000806AC07A40F0E0008DF8100003E0A0484B
:1041E000C07A8DF810009D4A1268D1799B4A5268B6
:1041F000107804AB0122FDF733FB10B14FF0FF3014
:104200003BE7B9F1000F02D0C820FCF7A0FC40202A
:104210008DF81000914A12681179904A526810780E
:1042200004AB0122FDF71CFB10B14FF0FF3024E777
:1042300078208DF81000894A12685179874A5268AF
:10424000107804AB0122FDF70BFB10B14FF0FF30EB
:1042500013E783498889FCF77AFC00208DF8100069
:104260007E4A126851797D4A5268107804AB012267
:10427000FDF7F6FA10B14FF0FF30FEE6774A12680C
:10428000917A764A5268107804AB0222FDF742FA1E
:1042900010B14FF0FF30F0E69DF811009DF81010BE
:1042A00040EA012B0C209BFBF0F0C6B20020A86076
:1042B00068602860A06060602060824665E0674AB0
:1042C0001268D17A654A5268107804AB0C22FDF767
:1042D00021FA10B14FF0FF30CFE69DF811009DF8A4
:1042E000101040EA012000B2ADF808009DF813005C
:1042F0009DF8121040EA012000B2ADF80A009DF8C6
:1043000015009DF8141040EA012000B2ADF80C0031
:10431000BDF90810206808442060BDF90A106068E3
:1043200008446060BDF90C10A0680844A0609DF8C6
:1043300017009DF8161040EA012000B2ADF8000009
:104340009DF819009DF8181040EA012000B2ADF860
:1043500002009DF81B009DF81A1040EA012000B2EF
:10436000ADF80400BDF90010286808442860BDF9C4
:104370000210686808446860BDF90410A868084421
:10438000A8600AF1010000F0FF0AB24597DB34484B
:10439000D0F800C02868C117090441EA1041070499
:1043A000624600233846FBF718FF32460023CDE96A
:1043B0000201FBF712FF28602948D0F800C06868A6
:1043C000C117090441EA1041070462460023384638
:1043D000FBF703FF32460023CDE90201FBF7FDFEA8
:1043E00068601F48D0F800C0A868C117090441EAF6
:1043F00010410704624600233846FBF7EEFE3246C2
:104400000023CDE90201FBF7E8FEA8601448D0F8CC
:1044100004C02068C117090441EA1041070462463C
:1044200000233846FBF7D9FE32460023CDE90201CE
:10443000FBF7D3FE20600A48D0F804C06068C117BB
:10444000090441EA10410704624600233846FBF79D
:10445000C4FE32460023CDE9020103E01C00002027
:104460000C750008FBF7B9FE60601148D0F804C075
:10447000A068C117090441EA1041070462460023FD
:104480003846FBF7AAFE32460023CDE90201FBF7CE
:10449000A4FEA060A068002804DDA068A0F580301C
:1044A000A06003E0A06800F58030A0600020E4E593
:1044B0000C7500082DE9FC5F06460F4600253D49B6
:1044C0004968087801AB03220D21FDF723F910B1EB
:1044D0000720BDE8FC9F9DF8040000F01F008DF848
:1044E00004009DF8050000F01F008DF805009DF800
:1044F000060000F01F008DF80600002456E056F874
:10450000240057F82410A0EB010BBBF1000F01DBD6
:10451000594601E0CBF10001084602F09FFA4FF046
:104520008F41009002F068F9814601A8005D68B3F0
:104530002149086802F0AAFA834659461F4802F04A
:104540005BF9804604E01E49404602F0E7FA8046E7
:1045500001A8005D401EC0B201A908550028F2D193
:104560004146484602F048F983464FF07E5102F03A
:10457000D3FB82462AF0004B0F488169584602F06F
:1045800099FB12D20120A04005430EE00A480169C0
:10459000484602F08FFA05D307484169484602F0C1
:1045A00089FB02D20120A0400543641C032CA6DB3A
:1045B00028468EE71C0000200C75000800B04C4512
:1045C00054E3853F10B50446204600F00FF803463B
:1045D000E01C00F00BF843EAC00083B2A01D00F01D
:1045E00005F843EA801083B2184610BD014691F9E0
:1045F0000020002A01DD00201EE091F90020002AA1
:1046000001DA042018E091F90120002A01DD0120DF
:1046100012E091F90120002A01DA05200CE091F95D
:104620000220002A01DD022006E091F90220002A82
:1046300001DA062000E00720704700004FF4E13067
:1046400001F094FAFDF734FAFCF724FAFCF7A8F924
:10465000FDF778FCFDF798FCFDF734F9FCF7A0FCBA
:10466000FCF7EAFCFCF7FCFF00F0EAF9FCF754FE6B
:104670003AA201210846FDF71CFB3AA20A210120BB
:10468000FDF717FB39A201210220FDF712FB64E0C0
:10469000FCF7D6F9FCF772F937490880084600881C
:1046A00002F0F4F983464FF08B4102F0A5F8824600
:1046B00002F008F806464FF06632304B01F028FD54
:1046C000044600222E4B01F023FD804601F09EFAA5
:1046D0002C4908602C48006802F084F90446022343
:1046E000224606210120FDF7B1FA2648006802F0B3
:1046F00095F90446022322460C210120FDF784FA95
:1047000022492048006802F009FA054602F06AF9D9
:10471000642190FBF1F201FB1204022322460F21D7
:104720000120FDF771FA1AA201210320FDF7C1FA59
:1047300003231A48012102680420FDF787FA0323A6
:1047400017480A2102680420FDF780FA0323154860
:10475000028805210220FDF757FA99E7526F6C6C29
:104760003A000000553A20202E0000004469733AB8
:10477000202020636D000000D400002066660A40FF
:1047800000001440D8000020800000200000C84233
:1047900048656C6C6F20576F726C64009400002049
:1047A00098000020600000207047000070B50446AB
:1047B000002624F00104184890F8240008B10020D5
:1047C00070BD1548807A10B94FF0FF30F8E71248F5
:1047D000057C807A2040104908740846007CA0427D
:1047E00002D04FF0FF3600E0002614B90A48007DE1
:1047F00018B1012001F04CF902E0002001F048F965
:104800003CB100F0A7FC20B1034805744FF0FF3025
:10481000D6E73046D4E700001C0000202DE9F04F19
:1048200099B004460D4616464FF07E574FF00008EB
:104830004FF000094FF0000A12A813A918AB0EAAF6
:10484000CDE9001014A916A8FEF73EFF18B101200B
:1048500019B0BDE8F08FBDF84C0000F4807000285E
:104860007ED00E9802F0FAF883464FF09D4101F099
:10487000C3FF07460F9802F0F1F883464FF09D41C1
:1048800001F0BAFF8046109802F0E8F883464FF036
:104890009D4101F0B1FF8146119802F0DFF8834697
:1048A0004FF09D4101F0A8FF824639464FF080400D
:1048B00002F034F94946059002F030F9414607907C
:1048C0004FF0404002F02AF95146059002F026F9D7
:1048D0000690079901F022FF834601F0F3FECDE92F
:1048E0000801FEF727FA4FF06632544BCDE90A0172
:1048F00001F00EFCCDE90C0101F088F92060494679
:104900004FF0804002F00AF94946029002F006F9A1
:10491000414604904FF0404002F000F941460290B9
:1049200002F0FCF80390049902F0F6F983464FF088
:104930007E5101F0F3FE059001F0C4FECDE90801BF
:1049400039464FF0804002F0E9F84146039002F00A
:10495000E5F8494604904FF0804002F0DFF800E0AF
:1049600068E05146039002F0D9F88346049901F0BB
:10497000D5FE059001F0A6FECDE90601DDE908238C
:10498000FEF720FC4FF066322C4BCDE90A0101F016
:10499000BFFBCDE90C0101F039F9286051465046C2
:1049A00002F0BCF849460490484602F0B7F8414688
:1049B0000390404602F0B2F839460190384602F0C2
:1049C000ADF80090019901F0A9FE0290039902F060
:1049D000A3F98346049902F09FF9059001F072FE55
:1049E000CDE908015146384602F098F8494604904E
:1049F000404602F093F80390049901F08FFE4FF0C7
:104A00008041059002F08AF8834601F05BFECDE913
:104A10000601DDE90823FEF7D5FB4FF06632074BB0
:104A2000CDE90A0101F074FBCDE90C0101F0EEF8CB
:104A3000306001E002200BE7002009E766A64C4049
:104A400070B50024FCF7F2FC00F020F900283DD1FD
:104A5000782000F02BFFC4B20CB1012070BD78208B
:104A6000FFF7A4FEC4B20CB10220F7E7642000F007
:104A7000CFFEC4B20CB10320F0E7FEF719FEC4B2BA
:104A80000CB10420EAE71348FFF79CFD0546FFF749
:104A900069F8C4B20CB10520E0E740F27310FEF7EC
:104AA000AFFCC4B20CB10620D8E76420FEF78AFF41
:104AB000C4B20CB10720D1E700F0A0FF04460120EA
:104AC00000F0A2FDC4B21CB10920C7E70A20C5E767
:104AD0000020C3E74800002001461148407A30B169
:104AE000012807D0022808D003280CD108E00220B2
:104AF00008700BE00420087008E00820087005E04A
:104B00001020087002E04FF0FF30704700BF0448EB
:104B1000C07C18B108784006000E08700020F4E749
:104B20001C00002001461348407A30B1012808D00B
:104B300002280AD0032810D10BE04FF480400880EF
:104B40000EE041F69C7008800AE04FF48050088027
:104B500006E04FF40060088002E04FF0FF3070473D
:104B600000BF0448C07C10B10888401008800020B5
:104B7000F5E700001C00002001460248007C087098
:104B8000002070471C00002001460F48007A30B119
:104B9000012807D0022809D003280FD10AE0FA2003
:104BA00008800EE04FF4FA7008800AE04FF47A7043
:104BB000088006E04FF4FA60088002E000200880D8
:104BC00000BF00BF002070471C00002001460E48B7
:104BD000007A30B1012807D0022808D003280CD170
:104BE00008E00A4808600BE00948086008E0094846
:104BF000086005E00848086002E04FF0FF307047A9
:104C000000BF0020FBE700001C0000200000034361
:104C10000000834233330342333383410146124859
:104C2000C07A082817D2DFE800F01704070A0D1031
:104C30001318BC20088013E06220088010E02A20AE
:104C400008800DE0142008800AE00A20088007E0B0
:104C50000520088004E000BF00BF0020088000BFDE
:104C600000BF0020704700001C00002001460648DD
:104C700090F8240010B14FF0FF3070470248C0890F
:104C800008800020F9E700001C0000201CB58020EF
:104C90008DF80000654A1268917C644A5268107869
:104CA0006B460122FCF7DCFD10B14FF0FF301CBD5C
:104CB0006420FBF74CFF00208DF800005B4A12686F
:104CC000917C5A4A526810786B460122FCF7C8FD65
:104CD00010B14FF0FF30EAE7544A1268917D534A11
:104CE000526810786B460622FCF714FD10B14FF0A5
:104CF000FF30DCE79DF80500C007400F9DF803106A
:104D000001F0010140EA41009DF8011001F00101AC
:104D100040EA010494B1012C03D101214348C1743C
:104D200031E0022C03D100214048C1742BE0214620
:104D30003FA0FBF777FA4FF0FF30B8E73B4A126825
:104D4000D1783A4A526810786B460122FCF7E2FCAF
:104D500010B14FF0FF30AAE79DF8000000F00F04FB
:104D60002CB93D48FBF75EFA4FF0FF309FE7042C6B
:104D700006D13AA0FBF756FA01212C48C17402E093
:104D800000212A48C174FF2128488172FF20274949
:104D90000872FF2125484172C1724FF6FF71C1812F
:104DA000FF21017481740121017380F82210002118
:104DB00080F82310417501751630016041608160F3
:104DC000163880F8241080F82510C1844FF4FA605A
:104DD00000F062FC10B14FF0FF3068E7022000F0F5
:104DE0002BFB10B14FF0FF3061E72A2000F0CEFC22
:104DF00010B14FF0FF305AE7322000F009FD10B13A
:104E00004FF0FF3053E70020FFF7D0FC10B14FF018
:104E1000FF304CE7002000F051FB10B14FF0FF30A5
:104E200045E7002000F042FD002040E71C00002084
:104E3000556E737570706F7274656420736F6674ED
:104E4000776172652070726F647563742072657625
:104E50002025642E0A0000003082000848616C663C
:104E60002073656E736974697669747920706172F4
:104E70007420666F756E642E0A0000002DE9F04301
:104E800085B005460E4690469946294890F825007B
:104E900020B14FF0FF3005B0BDE8F08316B94FF0F8
:104EA000FF30F8E7002423E0281B102801DD102044
:104EB00000E0281B87B232193946204600F05EFD1B
:104EC00010B14FF0FF30E6E701AA3946204600F066
:104ED00001F910B14FF0FF30DDE730193A4601A972
:104EE000FBF7AEFA10B16FF00100D4E7E01984B21D
:104EF000AC42D9DB4FEA28208DF8000008F0FF0013
:104F00008DF801000A4A1268917E094A52681078A9
:104F10006B460222FCF7A4FC10B14FF0FF30BAE759
:104F20000121034880F82510A0F826900020B2E760
:104F30001C00002038B50446282C02DD4FF0FF305D
:104F400038BDDCB9002000F0EBFB00208DF800003C
:104F500007208DF801002E4A1268917C2C4A526875
:104F600010786B460222FCF77BFC10B14FF0FF304B
:104F7000E6E70021264801750020E1E7012000F066
:104F8000CFFB20208DF80000012C06D100208DF8E9
:104F90000100052000F0FAFB17E0052C06DC0120DB
:104FA0008DF80100052000F0F1FB0EE0142C06DC6A
:104FB00002208DF801000A2000F0E8FB05E0032044
:104FC0008DF80100142000F0E1FB9DF8010007219D
:104FD00001EB8010C0B28DF801000D4A1268917C7F
:104FE0000B4A526810786B460222FCF739FC10B16C
:104FF0004FF0FF30A4E708210548817200210173BA
:10500000012101750020FFF7D1FB002098E7000087
:105010001C000020F8B504460F4616462C4890F8B0
:10502000240010B94FF0FF30F8BD2948807A10B93C
:105030004FF0FF30F8E7264A1268917A244A526806
:1050400010786B460222FCF765FB10B14FF0FF3081
:10505000EAE79DF801009DF8001040EA0125A5420D
:1050600003DA00203070401EDEE7194840684088AF
:10507000B5EB600F17DD164A1268517C144A52686E
:1050800010786B460122FCF745FB10B14FF0FF3062
:10509000CAE79DF8000000F0100020B100F05AF8B7
:1050A0006FF00100C0E7E2B2094B1B68D97A084BE8
:1050B0005B6818783B46FCF72DFB10B14FF0FF30D2
:1050C000B2E795FBF4F0401E30700020ACE7000022
:1050D0001C000020F8B504460D46164616B94FF0E0
:1050E000FF30F8BD1A48807A10B94FF0FF30F8E76A
:1050F00020128DF80000E0B28DF801009DF801004B
:105100002844134949684989884202DD4FF0FF303D
:10511000E7E70F4A1268117E0D4A526810786B4615
:105120000222FCF79DFB10B14FF0FF30D9E7EAB245
:10513000074B1B68597D064B5B6818783346FCF7B4
:10514000E9FA10B14FF0FF30CBE70020C9E70000CB
:105150001C00002008B57048807A10B94FF0FF306D
:1051600008BD002000906C4A1268D17B6A4A5268E0
:1051700010786B460122FCF773FB10B14FF0FF3043
:10518000EEE7654A12685179634A526810786B46B7
:105190000122FCF765FB10B14FF0FF30E0E75E4AFB
:1051A000126811795C4A526810786B460122FCF74C
:1051B00057FB10B14FF0FF30D2E7574890F824006A
:1051C000002853D00C200090534A12681179524A9B
:1051D000526810786B460122FCF742FB10B14FF089
:1051E000FF30BDE73220FBF7B2FCC02000904A48F8
:1051F000807A00F0010020B19DF8000040F020000E
:105200000090454A12681179434A526810786B46FB
:105210000122FCF725FB10B14FF0FF30A0E73E481C
:10522000407C10B10220009001E0002000903A4A3A
:105230001268D17B384A526810786B460122FCF71D
:105240000FFB10B14FF0FF308AE700200090324A88
:1052500012685179304A526810786B460122FCF787
:10526000FFFA002855D04FF0FF3079E70420009076
:10527000294A12681179284A526810786B4601222F
:10528000FCF7EEFA10B14FF0FF3069E72248807C5E
:1052900020B92148807A00F0010010B94020009028
:1052A00001E0602000901C4A126811791A4A526885
:1052B00010786B460122FCF7D3FA10B14FF0FF30A3
:1052C0004EE73220FBF743FC1348407C10B101202D
:1052D000009001E0002000900F4A1268D17B0E4A36
:1052E000526810786B460122FCF7BAFA10B14FF001
:1052F000FF3035E7084A12685179074A526810783A
:10530000054B10330122FCF7ABFA10B14FF0FF3020
:1053100026E7002024E700001C0000202DE9F04FC4
:105320008DB083460F4602200C90424890F824002E
:1053300020B1002000F068F9012600E0002603A853
:10534000FFF722FC05A8FFF7C7FB01A8FFF766FCE3
:1053500002A8FFF78BFC374890F80AA004A8FFF7D3
:105360000BFC002407E0002239465846FEF76CFE8D
:1053700000B902E0641C022CF5DB00BF022C01D155
:10538000002528E0002407E0012206A909A8FEF76D
:105390005BFE00B902E0641C022CF5DB00BF022CAE
:1053A00001D1002517E006A93846FDF76FFC00F093
:1053B000FF0809A95846FFF77DF800F0FF0900250E
:1053C000B9F1000F01D145F00105B8F1000F01D18D
:1053D00045F0020500BFFF2016490872FF2115485D
:1053E0004172C1724FF6FF71C181FF218172017458
:1053F00001210173BDF80C0000F04EF99DF8140076
:1054000000F01AF8BDF8040000F0C0F9BDF808007B
:1054100000F0FEF9504600F049FA9DF81000FFF741
:10542000C5F916B1012000F0EFF828460DB0BDE82F
:10543000F08F00001C00002038B504461E48807A1A
:1054400010B94FF0FF3038BD022C06D0042C07D025
:10545000082C08D0102C0CD108E0002000900BE0A4
:105460000820009008E01020009005E0182000902F
:1054700002E04FF0FF30E6E700BF0F48407A9DF8AA
:105480000010B0EBE10F01D10020DCE70A4A1268FE
:10549000D179094A526810786B460122FCF7E0F98D
:1054A00010B14FF0FF30CEE79DF80000C110024868
:1054B00041720020C7E700001C00002038B50446F8
:1054C0005048807CA04201D1002038BD002C46D03D
:1054D0004C4A126811794B4A526810786B46012287
:1054E000FCF718F910B14FF0FF30EEE79DF800001F
:1054F00020F020000090434A12681179414A526816
:1055000010786B460122FCF7ABF910B14FF0FF3079
:10551000DBE70320FBF71BFB02200090394890F8E3
:10552000220020B19DF8000040F080000090354836
:1055300090F8230020B19DF8000040F0300000906A
:10554000304A1268117D2F4A526810786B4601224A
:10555000FCF786F9002851D04FF0FF30B5E7294A13
:1055600012681179274A526810786B460122FCF7BD
:10557000D1F810B14FF0FF30A7E72248807A00F051
:10558000010028B19DF8000040F02000009004E0E8
:105590009DF8000020F0200000901A4A126811794E
:1055A000184A526810786B460122FCF759F910B17D
:1055B0004FF0FF3089E70320FBF7C9FA114890F854
:1055C000220010B18020009001E0002000900D48E2
:1055D00090F8230020B19DF8000040F030000090CA
:1055E000084A1268117D074A526810786B460122FA
:1055F000FCF736F910B14FF0FF3066E701488474CC
:10560000002062E71C00002038B50446214890F8CD
:105610002400A04201D1002038BD24B31D4890F8D9
:10562000250010B94FF0FF30F6E7002000F030FA07
:105630000020FFF743FF1749C88C00F0E9F800206D
:1056400000901449496808786B4601222321FCF731
:1056500007F901210F4880F82410012000F018FA02
:10566000FFF778FD13E0002000F012FA0948007CF3
:1056700000900849496808786B4601222321FCF70D
:10568000EFF80021034880F82410FFF763FD0020A5
:10569000C2E700001C00002038B504461F48807A8D
:1056A00010B94FF0FF3038BDFA2C09D0B4F5FA7FAD
:1056B00009D0B4F57A7F09D0B4F5FA6F0CD108E0BF
:1056C000002000900BE00820009008E010200090DF
:1056D00005E01820009002E04FF0FF30E3E700BF44
:1056E0000E48007A9DF80010B0EBE10F01D10020C8
:1056F000D9E70A4A12689179084A526810786B46CD
:105700000122FCF7ADF810B14FF0FF30CBE79DF868
:105710000000C010014908720020C4E71C000020EE
:1057200038B50446184890F82300A04201D1002063
:1057300038BD14B13020009001E0002000901248E4
:10574000807C20B19DF8000040F0020000900E48DF
:1057500090F8220020B19DF8000040F080000090F9
:10576000094A1268117D084A526810786B46012276
:10577000FCF776F810B14FF0FF30D9E7024880F817
:1057800023400020D4E700001C00002038B5044668
:105790001E48807A10B94FF0FF3038BDBC2C02DBB8
:1057A0000120009015E0622C02DB0220009010E046
:1057B0002A2C02DB032000900BE0142C02DB0420D7
:1057C000009006E00A2C02DB0520009001E0062094
:1057D00000900E48C07A9DF80010884201D1002048
:1057E000DBE70A4A12689178084A526810786B46DB
:1057F0000122FCF735F810B14FF0FF30CDE79DF8EE
:1058000000100248C1720020C7E700001C00002001
:1058100038B504462448807A10B94FF0FF3038BDBF
:10582000214890F8240010B14FF0FF30F7E71E48F0
:10583000007D50B134B1282C04DCE0B2FFF77AFBD4
:105840000020ECE70020FFF775FB042C01DA0424AC
:1058500004E0B4F57A7F01DD4FF47A744FF47A7086
:1058600090FBF4F0401EC0B200900F4A12685178CD
:105870000D4A526810786B460122FBF7F1FF10B118
:105880004FF0FF30CBE79DF80000401C4FF47A71D9
:1058900091FBF0F081B20448C1810146C9894810EA
:1058A000FFF774FF0020BAE71C00002038B504465B
:1058B00004F0700010B10120009005E014B1002048
:1058C000009001E0402000902B4A1268917C2A4A07
:1058D000526810786B460122FBF7C2FF20B100210D
:1058E00025488172481E38BD9DF8000020F0400117
:1058F000214801730020009004F0400020B99DF879
:10590000000040F00400009004F0200020B99DF851
:10591000000040F00200009004F0100020B99DF853
:10592000000040F00100009004F0080020B99DF84C
:10593000000040F0380000900F4A1268D17C0E4AF7
:10594000526810786B460122FBF78AFF20B10021D4
:1059500009488172481EC6E724B1082C02D00020F5
:10596000FFF7DEFE04488472002101753220FBF748
:10597000EEF80020B7E700001C000020F8B5044650
:105980000D46164616B94FF0FF30F8BD1A48807A1A
:1059900010B94FF0FF30F8E720128DF80000E0B2A8
:1059A0008DF801009DF80100284413494968498990
:1059B000884202DD4FF0FF30E7E70F4A1268117EA0
:1059C0000D4A526810786B460222FBF749FF10B16E
:1059D0004FF0FF30D9E7EAB2074B1B68597D064B01
:1059E0005B6818783346FBF73BFF10B14FF0FF3090
:1059F000CBE70020C9E700001C00002070B588B08C
:105A000002A905A8FFF78AFC0446072C3ED101A88D
:105A1000FFF7DCF8059801F021F80646019901F03E
:105A20007DF8054600F0DEFF0590069801F016F8B7
:105A30000646019901F072F8054600F0D3FF069082
:105A4000079801F00BF80646019901F067F8054642
:105A500000F0C8FF079005A8FDF7ECFF6846FFF7C8
:105A600061F8BDF80010029848430290BDF800109C
:105A7000039848430390BDF80010049848430490ED
:105A800002A8FDF707FF002008B070BD0120FBE76A
:105A900038B50446214890F82400C0B114B1022062
:105AA000009001E0002000901C4A1268D17B1B4A44
:105AB000526810786B460122FBF7D2FE10B14FF00E
:105AC000FF3038BD9DF800101448417423E013489E
:105AD000807A10B94FF0FF30F3E724B10F48407CD3
