:020000040800F2
:100000002013002005010008F9290008C125000877
:1000100081290008D10E0008DD3000080000000032
:10002000000000000000000000000000BD2B0008E0
:10003000D30E000800000000BB2B0008BF2B0008F7
:100040001F0100081F0100081F0100081F01000810
:100050001F0100081F0100081F0100081F01000800
:100060001F0100081F010008DD0E00081F01000825
:100070001F0100081F0100081F0100081F010008E0
:100080001F0100081F0100081F0100081F010008D0
:100090001F0100081F0100081F0100081F010008C0
:1000A0001F010008212C00081F0100081F01000883
:1000B0002D2C00081F010008392C00081F01000822
:1000C0001F0100081F0100081F0100081F01000890
:1000D0001F010008993000081F0100081F010008D7
:1000E000D50E00081F0100081F010008DFF810D01E
:1000F00000F080FE00480047F93D0008AFF30080A3
:10010000201300200648804706480047FEE7FEE728
:10011000FEE7FEE7FEE7FEE7FEE7FEE7FEE7FEE7B7
:100120001F2C0008ED000008202A04DB203A21FAE9
:1001300002F00021704721FA02F3D040C2F1200200
:100140009140084319467047A0F14101192900D890
:100150002030704740EA01039B0703D009E008C93B
:10016000121F08C0042AFAD203E011F8013B00F87C
:10017000013B521EF9D27047D2B201E000F8012BC8
:10018000491EFBD270470022F6E710B513460A4617
:1001900004461946FFF7F0FF204610BD421C10F838
:1001A000011B0029FBD1801A704710B5002200E026
:1001B000521C835C8C5CA34201D1002BF8D1D8B2D5
:1001C000E1B2401A10BD30B505460020034600E0FC
:1001D0005B1C934205D2EC5CC85C201A01D1002C58
:1001E000F6D130BD2DE9FF4F087883B09946FF283E
:1001F00005D0491C2D2804D00024002008E0002050
:100200000BE00124F9E700EB800003EB4000491C00
:100210000B78FF2BF7D104B14042002302931478EE
:1002200019461D462D2C01D02B2C04D1521C2D2CEF
:1002300013D000240294AA461478FF2C0FD00A256C
:10024000A3FB057801FB05814FF0000C03FB0C11AB
:10025000521CE3194AEB0101EEE70124EAE781446D
:1002600053EA010002D019F5C87F06DA039800218D
:10027000C0E9001107B0BDE8F08F0025AE4E2F4653
:10028000DFF8B882184600F091FDCDE90001B9F120
:10029000000002DAC9F1000400E004460023A74A86
:1002A0001AEB030B42EB045A12E0E00707D02A4690
:1002B00033463846414600F007FD074688462A4641
:1002C00033461046194600F0FFFC05460E46641002
:1002D000002CEAD1DDE90001B9F1000F5A4653467E
:1002E00006DA00F060FA3A46434600F05CFA05E0B0
:1002F00000F0EAFC3A46434600F0E6FC029A0AB1F6
:1003000081F00041039AC2E90001B3E72DE9FF4FF4
:100310001F468DB0D7E901464FF0FF382E204546E5
:100320004FF000090B90B9696D1C0E988847396A27
:10033000824688470028F6D1BAF1FF3F0AD024F45C
:10034000D064002E11DDBAF12B0F08D0BAF12D0FB9
:100350000BD102E0404611B08DE744F48064B969E6
:100360006D1C0E9888478246761E6946600501D549
:100370002D2000E02B208DF8000001F1010B0DF184
:10038000200809E0B9696D1C0E98884782460F98CD
:1003900044F40074761E0560002E02DDBAF1300FC1
:1003A000F0D00B998A453ED144F0800406E00F99C5
:1003B000681CA9F1010944F400740860B9696D1C56
:1003C000761E0E98884782463028F0D02BE00B9995
:1003D0008A4505D1200603D444F08004761E18E037
:1003E000504603F03DF808B30DF11301761E44F4B6
:1003F00000748B4508D2AAF130000BF8010B2006DF
:1004000007D5A9F1010003E0200602D409F101009B
:100410008146A00502D50F99681C0860B9696D1C5A
:100420000E9888478246002ED1DC53E0002E51DD25
:10043000BAF1650F02D0BAF1450F4BD1A00549D5ED
:10044000B9696D1C24F44074761E0E988847824664
:10045000002E0CDD2B2804D0BAF12D0F07D144F467
:100460008074B9696D1C0E9888478246761EE00537
:1004700001D52D2100E02B2108F8011BCDF82C809F
:1004800021E00DF12901761E44F4007488450CD258
:10049000AAF1300010F0FF0088F8000002D10B999B
:1004A000884509D908F1010806E0E00501D524488E
:1004B00001E042F20F708146B9696D1C0E988847C1
:1004C00082460F980560002E04DD504602F0C8FFFA
:1004D0000028D6D1F9690E988847FF208BF80000D4
:1004E00088F800000020069007904B466A4608A94D
:1004F00006A8FFF777FEA00502D46FF001002AE7F7
:1005000014F0240F0AD0E00714D1DDE90612386890
:10051000031D3B600068C0E900120BE0DDE9060145
:1005200000F04CFA0146E00704D13868021D3A6039
:100530000068016028460EE7000014400000F03F0C
:10054000F1D8FFFFF0B480EA0102D40F4200B2EB11
:10055000410F02D20246084611464A0042D0C30D5E
:10056000DDB2C1F3C752AD1A202D35DAC1F3160141
:1005700041F4000204B15242C5F1200602FA06F12C
:100580002A411044B3EBD05F23D0C4B1012DA0EBBE
:10059000C35009DCF0BC4FF0004202EAC352DBB2A8
:1005A00000F5000000F005BB400000F1807000EB9A
:1005B000C350A0F1807040EAD170490009E04908B9
:1005C00041EAC071A0EBC35000F50000400800EB09
:1005D000C350F0BC00F0E4BA6142012202EB4101D9
:1005E000001BF6E7F0BC704781F00041AAE780F0FD
:1005F0000040A7E780EA010210B502F00043400086
:1006000022D04A001FD0010E01EB1261C0F3560048
:10061000C2F3560240F4000042F40002A0FB0220A4
:1006200000047F39140400D0401C50EA124001D469
:100630004000491EC2B20C0604EBD010401C40081A
:10064000802A02D003E0002010BD20F00100002924
:1006500000DA0020184310BD2DE9FE4F804681EAE4
:100660000300C00F0C46009021F0004123F000452C
:10067000B8EB0200A94105D24046214690461C46EF
:100680000B46024623F00040104347D0270DC7F326
:100690000A00C3F30A510290401A019040286BDA15
:1006A000C3F3130040F4801B0098924620B100234E
:1006B000D2EB030A63EB0B0B01985946C0F14002E1
:1006C000504600F0DEF906460D4650465946019A5E
:1006D00000F0E6F910EB08006141002487EA1152AE
:1006E00084EAE7731A4340D0009A62B3019A012A60
:1006F0004FEA075215DC001B61EB02014FF000428C
:1007000002EA0752CDE90042001C41F58011324651
:100710002B4600F08BFA03B0BDE8F08F404621462F
:10072000F9E7001B61EB0201001C41F58013001882
:100730005B412018A2F5001747EB030140EAD57092
:10074000B6196D4111E06D084FEA360645EAC075ED
:100750004FEA0752001B61EB0201001C41F58011BA
:1007600049084FEA30000019514132462B4603B088
:10077000BDE8F04F00F04BBA009801224000002382
:10078000D0EB020263EBE073009821464FEAE0747D
:10079000B8EB000061EB0401E9E783F000435BE79D
:1007A00081F0004158E72DE9F04D81EA030404F09F
:1007B000004B21F0004514464FF0000A23F00041A1
:1007C00050EA050220D054EA01021DD0C5F30A57B1
:1007D0000246C5F31303C1F31300C1F30A5640F4F4
:1007E000801543F48013A7EB0608101BD64608F2C9
:1007F000FD3873EB050002D308F1010801E09218FF
:100800005B41B8F1000F03DA00200146BDE8F08D2E
:1008100000204FF48011064684460EE0171B73EB50
:10082000050705D3121B63EB050306434CEA010CD5
:1008300049084FEA300092185B4150EA0107EDD1B8
:1008400052EA030012D082EA040083EA0501084359
:1008500005D0101BAB4106D20122002306E0002286
:100860004FF0004302E06FF0010253101AEB060054
:100870004CEB085110EB0A0041EB0B01BDE8F04DC9
:1008800000F0C5B970B521F0004303430CD0C1F3AB
:100890000A550024D5EB040564EB0403D617AD1A02
:1008A000B34102DB0020014670BD201841EB02512C
:1008B00070BDC10F80EAE0700844CA07962300218A
:1008C00000F077B900F0004220F00040C10DC0F305
:1008D000160040F400007F2901DA002070479629B5
:1008E00003DCC1F19601C84001E096398840002A36
:1008F000F4D04042704770B5C1F30A5201F0004590
:100900000024C1F3130140F2FF3341F480119A42F5
:1009100001DA002070BD40F233439A42A2F2334222
:1009200003DC5242FFF700FC00E090402C43F1D082
:10093000404270BD00F0004230F000400AD0C10DCE
:1009400001F56071C0F3160042EA0151C208400788
:1009500011437047002001467047000030B5041E67
:1009600071F1000404DB4FF00044404264EB0101EC
:10097000141E73F1000405DB1C464FF00043524285
:1009800063EB04038B4208BF824230BD30B5041EC6
:1009900071F1000404DB4FF00044404264EB0101BC
:1009A000141E73F1000405DB1C464FF00043524255
:1009B00063EB0403994208BF904230BD01F000434D
:1009C00030B421F0004150EA010206D00A0DA2F530
:1009D0006072C1F31301002A02DC30BC00207047B2
:1009E000440F44EAC104C100E01830BC00EBC2501F
:1009F00000F0D6B830B50B46014600202022012475
:100A000009E021FA02F59D4205D303FA02F5491BDC
:100A100004FA02F52844151EA2F10102F1DC30BDF2
:100A20002DE9F05F0546002092469B468846064623
:100A3000814640241BE02846414647462246FFF7B0
:100A400073FB53465A46C01A914110D311461846BB
:100A5000224600F016F82D1A67EB01084F46224691
:100A60000120002100F00DF817EB00094E41201E77
:100A7000A4F10104DFDC484631462A464346BDE87E
:100A8000F09F202A04DB203A00FA02F10020704790
:100A90009140C2F1200320FA03F3194390407047BC
:100AA000202A06DBCB17203A41FA02F043EAE07332
:100AB00006E041FA02F3D040C2F12002914008431F
:100AC00019467047426842B1016811F8013B23B1F1
:100AD000521EC0E90012184670470121C160881EED
:100AE000704742685AB1C368016843B983688B4252
:100AF00005D0491E521CC0E90012002070474FF07B
:100B0000FF3070470FB4002300B589B00CA90091E5
:100B10000B996FF00042CB601E4B06931E4B079360
:100B20000423CDE901321D4A089202466B4600209B
:100B3000FFF7ECFB09B05DF814FB70B586B0064614
:100B40004FF0FF300091CDE90101002015460C4621
:100B500004903246694604A8FFF7D4FF0246049881
:100B6000211825B108B1084600E020462860049805
:100B700000280DD0002A02DD0098884208D0081B0A
:100B80000094CDE901043246694604A8FFF7BAFF94
:100B900006B070BDC50A0008E30A0008190E000877
:100BA0000029A8BF7047401C490008BF20F0010081
:100BB000704710B4B0FA80FC00FA0CF050EA01045F
:100BC00004BF10BC704749B1CCF1200421FA04F4F1
:100BD00011FA0CF118BF012121430843A3EB0C01CA
:100BE000CB1D4FEA00614FEA102042BF002010BC2D
:100BF000704700EBC35010440029A4BF10BC7047DD
:100C0000401C490008BF20F0010010BC704710B51F
:100C1000141E73F1000408DA401C41F1000192181F
:100C20005B411A4301D120F0010010BD2DE9F04DC8
:100C300092469B4611B1B1FA81F202E0B0FA80F21D
:100C400020329046FFF71DFF04460F4640EA0A0097
:100C500041EA0B0153465A46084313D0114653EA62
:100C6000010019D0C8F140025046FFF75DFA054671
:100C70000E46504659464246FFF703FF084305D04B
:100C8000012004E020463946BDE8F08D00200543F0
:100C900046EAE0762C4337430A986305E40AA0EB62
:100CA00008000022FD0A44EA47540A3002D5002019
:100CB0000146E9E7010510196941DDE90845001918
:100CC0006941BDE8F04DA2E72DE9FE4F81EA03043A
:100CD00004F0004421F0004100944FF0000B23F099
:100CE000004350EA01045ED052EA03045BD0C3F330
:100CF0000A54C1F30A552C44A4F2F3340194A0FB26
:100D00000254C1F3130141F48011C3F3130343F4FC
:100D1000801301FB024400FB034E840A970A44EA55
:100D2000815447EA8357A4FB076802958D0A05FBA7
:100D300007854FEA932C04FB0C542705029D4FEACC
:100D4000065847EA1637B5EB08056EEB070C870E19
:100D5000920E47EA811742EA8312A7FB0201B6EB23
:100D60000B0164EB00042B0D43EA0C335E1844EBDB
:100D70001C50DA465146E7FB0201C5F313044FEA63
:100D80000B3343EA14534FEA0432019C43EA06034F
:100D9000A4F10C040294009CCDE900B4FFF746FFD7
:100DA00003B0BDE8F08F00200146F9E70EB540F230
:100DB000334202920022CDE900221346FFF736FFAC
:100DC00003B000BDC1F30A52C1F3130140F2FF3377
:100DD00041F480119A4202DA00200146704740F245
:100DE00033439A42A2F2334202DC5242FFF79CB9EB
:100DF000FFF747BE064C074D06E0E06840F00103F0
:100E000094E8070098471034AC42F6D3FFF772F924
:100E10003847000858470008C0B24FF4F05100F0BE
:100E200001B800007F2801D9002208E0064A02EB41
:100E30005002C007127800D1120902F00F020120FF
:100E40009040084070470000F8460008FFB41E4B71
:100E5000AA2208251A70FF225A70F2229A70DD70B9
:100E60009DF800201A719DF801205A719DF8042008
:100E70009A719DF80520DA719DF808201A729DF884
:100E800009205A729DF80C209A7200219DF80D20BD
:100E9000DA720C220C4608462D1D06E01E5C401C32
:100EA0003144C9B20C44E4B2C0B28542F6D8995478
:100EB000521C05499C5404B04FF6FF73F0BC034824
:100EC000521C01F024BB00007C02002038010020ED
:100ED000FEE770474FF4805000F094B8102000F007
:100EE00091B872B6FEE710B590F8211000220229E1
:100EF00005D00421816380F82020012010BD016805
:100F00000B6823F00E030B6001680B6823F00103EC
:100F10000B6090F84030012404FA03F1C36B596070
:100F200080F8214080F82020104610BD10B590F8C0
:100F300021100024022903D00421816301243DE013
:100F400001680A6822F00E020A6001680A6822F04D
:100F500001020A601A4A0168914201D1012121E08F
:100F6000174A1432914201D110211BE0144A283251
:100F7000914201D1891515E0114A3C32914201D1CB
:100F800089140FE00E4A5032914202D14FF4803161
:100F900008E00B4A6432914202D14FF4801101E023
:100FA0004FF08071064A083A5160012180F8211003
:100FB000002180F82010416B01B18847204610BD08
:100FC0000800024070B5044600F01CF90546601C9C
:100FD00002D004480078044400F014F9401BA042F9
:100FE000FAD370BD28000020054A4FF400511028A4
:100FF00002D0B0F5805F02D1104600F0F5B870471E
:1010000000100140044910B50A68024202D008608D
:10101000FFF7EAFF10BD0000140401402DE9F84F6E
:10102000DFF8A491002409F1040A0AF1040B234615
:101030004FF00F080BF1040EBEE00127A7403A4025
:10104000BA4272D1DFF884C14D68A5EB0C06654544
:101050002BD00DDC032D34D005DC35B3012D19D098
:10106000022D2FD11BE0112D16D0122D2AD119E0FF
:10107000B6F5881F19D006DCB6F5803F15D0B6F559
:10108000801F1FD111E0B6F5001F0ED0B6F5041F6A
:1010900018D10AE0CB6815E0CB681B1D12E0CB68C5
:1010A00008330FE0CB680C330CE08B682BB1012BBD
:1010B0004FF0080303D0476104E0042302E0076116
:1010C00000E00023FF2A01D8064601E000F10406F3
:1010D0004FEA840501D9A5F12005376808FA05FC17
:1010E00027EA0C0703FA05F547EA050737604D685C
:1010F000ED0060D5364DAE6946F00106AE61AD69D2
:1011000024F0030605F001050095324D7719BE68FD
:10111000A5072D0F08FA05FC26EA0C06DFF8B8C073
:10112000604503D14FF0000C17E044E0DFF8ACC09D
:10113000604502D14FF0010C0FE0DFF8A4C060451C
:1011400002D14FF0020C08E0DFF898C0604502D1F0
:101150004FF0030C01E04FF0040C0CFA05FC4CEAD4
:10116000060CC7F808C04D68D9F80060ED034D467D
:1011700001D5164300E096432E604D68DAF8006012
:10118000AD03554601D5164300E096432E604D68E9
:10119000DBF80060ED025D4601D5164300E09643A2
:1011A0002E604D68DEF80060AD02754601D516432D
:1011B00000E096432E60641C0A6832FA04F57FF45E
:1011C0003CAFBDE8F88F00000004014000001110A2
:1011D000001002400000014000080140000C0140E6
:1011E0000010014000140140C26821EA02030A40D5
:1011F00043EA0241016170470AB101617047090485
:10120000FBE70000014880687047000028000020CC
:1012100002488168027811448160704728000020EC
:10122000074810B5016841F010010160032000F08B
:1012300075F80F2000F006F800F024F8002010BD2B
:101240000020024070B50D4D04464FF47A712878A5
:10125000B1FBF0F00A490968B1FBF0F000F0EEFADA
:1012600048B9102C07D200222146501E00F036F853
:1012700000206C6070BD012070BD000028000020BF
:10128000340000200C4808B5816941F001018161FA
:10129000816901F001010091C16941F08051C16192
:1012A000C069064900F080500090486820F0E06076
:1012B00040F00070486008BD00100240000001408E
:1012C000002809DB00F01F02012191404009800045
:1012D00000F1E020C0F8001170470000F0B40E4BA0
:1012E0001B68C3F30223C3F10704042C00D90424B0
:1012F0001D1D072D01D2002300E0DB1E012606FA8A
:1013000004F56D1E0D409D409E40761E164045EA38
:101310000601F0BC01F06CBF0CED00E0064A00F0E5
:10132000070110684FF6FF03184040EA0120034907
:1013300008431060704700000CED00E00000FA0563
:101340002DE9F0470D46040067D0DFF81881D8F882
:10135000000000F00700A8420CD2D8F8001021F0DD
:1013600007012943C8F80010D8F8000000F0070072
:10137000A84252D120683C4E810712D5400703D5C0
:10138000706840F4E06070602078000703D57068F2
:1013900040F4605070607068A16820F0F00008436D
:1013A00070602078C00727D06068012810D03168AD
:1013B000022810D0890700292FDA716821F0030173
:1013C00001437160FFF71EFF074641F288390CE0C8
:1013D00031688903EFE78901EDE7FFF713FFC11BD0
:1013E000494502D90320BDE8F0877068616800F0C4
:1013F0000C00B0EB810FF0D1D8F80010404601F09E
:101400000701A9420BD9016821F0070129430160B6
:10141000006800F00700A84201D00120E3E720782F
:10142000400705D57068E16820F4E060084370600B
:101430002078000706D57068216920F4605040EAE2
:10144000C100706000F038F87168084AC1F30311F8
:10145000515CC8400649086006480068FFF7F2FE84
:101460000020C0E70020024000100240E0460008D3
:10147000340000202C000020044805490068496819
:10148000044AC1F30221515CC84070473400002077
:1014900000100240F0460008044805490068496809
:1014A000044AC1F3C221515CC84070473400002097
:1014B00000100240F046000812A085B00FC88DE869
:1014C0000F0014A0144B006804905968134801F0F1
:1014D0000C02042A10D0082A0ED1C1F38342C9039A
:1014E0001DF802000AD5596804AAC1F34041515CB5
:1014F0000A4A5043B0FBF1F005B070470849484331
:10150000FAE7000002030405060708090A0B0C0DA0
:101510000E0F1010010200000010024000127A00AD
:1015200000093D002DE9F84F04006FD02078BE4D32
:10153000C00747D06868C0F38100012807D06868F9
:10154000C0F38100022809D16868C00306D5286865
:10155000800337D560680028E7D033E06068B0F5D5
:10156000803F0BD010B1B0F5A02F11D0286820F427
:1015700080302860286820F4802002E0286840F449
:1015800080302860606888B1FFF73CFE064609E0BD
:10159000286840F480202860F0E7FFF733FE801BC6
:1015A000642873D828688003F7D50BE0FFF72AFE7C
:1015B000064604E0FFF726FE801B6428F1D8286861
:1015C0008003F7D42078DFF8648280074FF0010AA7
:1015D0004FF0000939D5686810F00C0F07D0686823
:1015E000C0F38100022809D16868C00306D42868C6
:1015F000800714D52069012808D110E02069B0B116
:10160000C8F800A0FFF7FEFD064605E007E1FFF77A
:10161000F9FD801B0228C4D828688007F7D5286800
:10162000616920F0F80040EAC10028600DE0C8F8C8
:101630000090FFF7E7FD064604E0FFF7E3FD801B9F
:10164000022823D828688007F7D4207800072CD5F3
:101650007748A169D9B1C0F800A0FFF7D3FD0646CD
:1016600004E0FFF7CFFD801B02280FD8686A8007CF
:10167000F7D570484FF4FA510068B0FBF1F00090D4
:1016800000BF0098411E0091FAD20EE07CE0C0F845
:101690000090FFF7B7FD064604E0FFF7B3FD801B9F
:1016A000022871D8686A8007F7D4207840075BD594
:1016B000E8690027C00008D4E86940F08050E8617C
:1016C000E869012700F0805000905B480168C90577
:1016D00011D40168834641F480710160FFF792FDE7
:1016E000064604E0FFF78EFD801B64284CD8DBF82B
:1016F0000000C005F6D5E06801280AD008B1052829
:1017000013D0286A20F001002862286A20F0040023
:1017100002E0286A40F001002862E06841F2883B5C
:1017200088B1FFF76FFD064609E0286A40F0040023
:101730002862EEE7FFF766FD811B59455BD8286AF2
:101740008007F7D50BE0FFF75DFD064604E0FFF7E5
:1017500059FD811B59454ED8286A8007F7D41FB11F
:10176000E86920F08050E861E069A8B36968C1F3D6
:101770008101022946D00228484606D0C8F86000F8
:10178000FFF740FD044639E035E04746C8F8600001
:10179000FFF738FD064604E0FFF734FD801B022802
:1017A00029D828688001F7D4206AB0F5803F05D198
:1017B0006868A16820F4003008436860D4E9080133
:1017C0000843696821F4741108436860C7F860A091
:1017D000FFF718FD044605E023E0FFF713FD001BAB
:1017E000022808D828688001F7D51AE0FFF70AFD1B
:1017F000001B022802D90320BDE8F88F2868800169
:10180000F4D40EE00128F7D06868226A00F4803131
:10181000914204D1616A00F47010884201D0012025
:10182000EAE70020E8E70000001002400000424222
:1018300080044242340000200070004010B5401E79
:10184000B0F1807F01D3012010BD4FF0E024606132
:101850000F21601701F0CCFC0020A061072020615F
:10186000002010BD7047704710B590F83C20012A49
:1018700022D0012280F83C20CA688C6822F4407291
:1018800022434C6822F4806222430C6822F40062F6
:1018900022430C6922F4805222434C6922F4005204
:1018A0002243C969002322F480420A4301684A6442
:1018B00080F83C30002010BD022010BD70B590F8BB
:1018C0003C20012A26D0012580F83C50022280F8D5
:1018D0003D2002685368946823F070060B68334318
:1018E00053600D4B02689A4208D0B2F1804F05D088
:1018F0000A4B9A4202D00A4B9A4204D1496824F01A
:1019000080031943916080F83D50002180F83C101D
:10191000084670BD022070BD002C0140000400404C
:101920000008004010B5040003D094F83D0010B149
:1019300007E0012010BD002084F83C00204600F0A4
:101940001FF8022084F83D00211D206801F07AF97B
:10195000012084F8460084F83E0084F83F0084F8B3
:10196000400084F8410084F8420084F8430084F881
:10197000440084F8450084F83D00002010BD0000BC
:1019800008B500680B49884212D10B48816941F4BF
:10199000006181618069002200F4006000901146BE
:1019A0001920FFF79BFCBDE808401920FFF788BC11
:1019B00008BD0000002C01400010024090F83D10CE
:1019C000012901D001207047022180F83D100168F3
:1019D000CA6842F00102CA6000680B49884208D018
:1019E000B0F1804F05D00949884202D008498842A9
:1019F00004D1816801F00701062903D0016841F094
:101A00000101016000207047002C014000040040EB
:101A10000008004070B5044690F83C00012817D03B
:101A2000012584F83C50022084F83D00206882683B
:101A300022F0770222F47F4282600868502830D07A
:101A40000DDC20284DD005DC98B310283BD148E0B0
:101A5000022070BD302844D0402834D139E06028BD
:101A600028D0702806D0B0F5805F2CD0B0F5005F8C
:101A700029D10AE0CB68D1E90121206801F025F9DC
:101A80002068816841F0770109E0CB68D1E9012144
:101A9000206801F01AF92068816841F48041816072
:101AA00011E0CA684968206801F0CAF9502120682D
:101AB00007E016E0CA684968206801F0D2F96021A1
:101AC000206801F00CF984F83D50002084F83C00B7
:101AD00070BDCA684968206801F0B2F940212068E9
:101AE000EFE7226801461046EBE72DE9F0410D468D
:101AF000040003D094F83D0018B108E00120BDE8CF
:101B0000F081002084F83C00204600F041F80220DB
:101B100084F83D002068816844F2070291438160A7
:101B2000211D206801F08EF8206881688269066AAC
:101B30002B68AF690B4340F203318A4342EA072224
:101B4000A968EF6911434FF6FC429143EA6841EA04
:101B500007210A4329692F6A090141EA0731114324
:101B60006A686D6926F0220646EA05152A438360F5
:101B70002068816154F8460B0262012004F81F09B5
:101B8000E0752076E0762077A0750020B7E70000AA
:101B900000B585B000210091019102910391016887
:101BA00023480122B1F1804F23D0224B99421ED10C
:101BB000C16941F00401C161C16901F004010491EE
:101BC000816941F0080181618069694600F008007F
:101BD0000490C020009002921748FFF71FFA0022DD
:101BE00011461E20FFF77AFB1E20FFF769FB05B0A8
:101BF00000BDC16941F00101C161C16901F001018C
:101C00000491816941F0040181618069694600F0B5
:101C1000040004900320009002920848FFF7FEF9A8
:101C2000002211461C20FFF759FB1C20DDE70000B5
:101C30000010024000080040000C01400008014074
:101C400070B590F83E50044690F83F3090F842202E
:101C500090F84300022621B104290BD0012D16D1A2
:101C60000FE0012D13D1012A11D184F83E6084F8D0
:101C7000426016E0012B0AD1012808D184F83F60A8
:101C80000DE0012B03D1012A01D1012801D001204F
:101C900070BD84F83E6084F83F6084F8426084F848
:101CA000436091B1042904D001220021206800F092
:101CB000FFFF01220421206800F0FAFF206801687C
:101CC00041F001010160002070BD01220021206867
:101CD000F2E7704770B50446006801694FF00005EF
:101CE000C943890715D4C168C943890711D4E91EBE
:101CF000016101202077206880698007204602D09A
:101D0000FFF7E7FF04E000F0BFF8204600F04EF9CF
:101D1000257720680169C943490717D4C168C943B9
:101D2000490713D46FF00401016102202077206875
:101D3000806910F4407F204602D0FFF7CAFF04E01C
:101D400000F0A2F8204600F031F9257720680169FB
:101D5000C943090716D4C168C943090712D46FF0F3
:101D600008010161042020772068C06980072046AF
:101D700002D0FFF7AEFF04E000F086F8204600F046
:101D800015F9257720680169C943C90617D4C168C8
:101D9000C943C90613D46FF01001016108202077F0
:101DA0002068C06910F4407F204602D0FFF791FF01
:101DB00004E000F069F8204600F0F8F82577206884
:101DC0000169C943C90708D1C168C943C90704D11A
:101DD000891E0161204600F03BF920680169C94372
:101DE000090609D4C168C943090605D46FF080010A
:101DF00001612046FFF736FD20680169C9434906A5
:101E000009D4C168C943490605D46FF04001016196
:101E1000204600F09DF920680169C94389060BD46A
:101E2000C168C943890607D46FF0200101612046CB
:101E3000BDE87040FFF717BD70BD000000B585B06C
:101E40000021009101910291039100680B498842A1
:101E500012D10B48816941F00401816180696946B2
:101E600000F0040004904FF41060009002200190F4
:101E700003900448FFF7D2F805B000BD002C0140E4
:101E80000010024000080140704770B5044690F809
:101E90003C000D4601280AD0012084F83C0042B1E4
:101EA000042A18D0082A2AD00C2A4DD139E0022061
:101EB00070BD206800F01CFF2068816941F00801B6
:101EC00081612068816921F0040181612068816954
:101ED0002A69114311E0206800F036FF206881690B
:101EE00041F4006181612068816921F48061816130
:101EF000206881692A6941EA0221816124E0206821
:101F000000F050FF2068C16941F00801C1612068FC
:101F1000C16921F00401C1612068C1692A691143C6
:101F200011E0206800F06AFF2068C16941F4006197
:101F3000C1612068C16921F48061C1612068C16903
:101F40002A6941EA0221C161002084F83C0070BD89
:101F500010B5040003D094F83D0010B107E0012053
:101F600010BD002084F83C00204600F01EF802203E
:101F700084F83D00211D206800F064FE012084F8F3
:101F8000460084F83E0084F83F0084F8400084F85E
:101F9000410084F8420084F8430084F8440084F847
:101FA000450084F83D00002010BD704770470000D8
:101FB00010B5044649B104290AD008290BD094F879
:101FC000410001280AD0012010BD94F83E00F8E736
:101FD00094F83F00F5E794F84000F2E7022041B39F
:101FE000042929D008292AD084F841000122206838
:101FF00000F05EFE13492068884203D1426C42F42F
:10200000004242642068884208D0B0F1804F05D079
:102010000D49884202D00D49884204D1816801F0FF
:102020000701062903D0016841F001010160002089
:1020300010BD84F83E00D9E784F83F00D6E784F865
:102040004000D3E7002C014000040040000800409D
:102050002DE9F05F3549884266D1354DE888401C4E
:1020600084B20520B4FBF0F100FB1140EC800027A6
:10207000F0BB30480168486A2F4A404200B268808D
:1020800013685B6A1EB2AE804F6211684F62FEF742
:1020900010FCDFF8A8A05146FEF7ACFAFEF74AFCA8
:1020A000DFF89C804FF0333B5A464346FEF77BFBFC
:1020B000DFF8909000224B46FEF775FBBA1EFEF744
:1020C000E1FBFEF77BFCA8603046FEF7F2FB5146D1
:1020D000FEF790FAFEF72EFC5A464346FEF763FBE6
:1020E00000224B46FEF75FFBBA1EFEF7CBFB00E07B
:1020F00002E0FEF763FCE8600A20B4FBF0F100FBAD
:102100001140002810D11048E96800F02DFDFEF7BD
:10211000D9FB04460D48A96800F026FDFEF7D2FB66
:10212000214600F02FFCEF80BDE8F09F600000200A
:1021300018000020F0000020A80000200000C84285
:10214000333323400000264000030020E00200203B
:102150007047704770470000F8B502680446106881
:10216000D168536910F00F0F4FF0000553D003F002
:10217000010601F4907737435FD0C20705D0CA0546
:1021800003D5226C42F001022264420705D5DA072A
:1021900003D0226C42F002022264820705D5DA07DE
:1021A00003D0226C42F004022264020707D501F03A
:1021B0002002324303D0226C42F008022264226CD7
:1021C000002A34D0800604D5880602D5204600F0C7
:1021D0007AFE20684069216CC0F38010090700D4A2
:1021E00030B3204600F057FE2068416949061BD5F0
:1021F000416921F040014161A06BA8B15849416398
:10220000A06BFEF793FE002811D0A06B416B01B0CC
:10221000BDE8F040084783060FD58B060DD5204654
:10222000BDE8F84000F04FBE2046FFF793FFF8BD31
:102230002046FFF78FFF2564F8BD266B2023012E73
:1022400052D1C60650D5CE064ED5106850680090C3
:10225000506940062AD5A16B086840680004000C4C
:10226000EAD0A68D8642E7D9E0858869202818D073
:10227000D06820F48070D0602068416921F00101AD
:1022800041612068416921F04001416184F83E309C
:1022900025632068C16821F01001C160A06BFEF7C2
:1022A00022FEA08DE18D401A81B219E0A08DE18D52
:1022B000401A81B2E08D0028BED00029BCD0D06881
:1022C00020F49070D0602068426922F001024261DF
:1022D00084F83E3025632068C26822F01002C26094
:1022E0002046FFF736FFF8BD05062BD50D0629D58C
:1022F00094F83D002128F6D1A068B0F5805F01D1A7
:102300002069B0B1206A411C2162216800784860D0
:10231000E08C401E0004000CE084E4D12068C16819
:1023200021F08001C1602068C16841F04001C160B6
:10233000F8BD206A0088C0F308005060206A801C45
:102340002062E5E74006F3D54806F1D5D16820467E
:1023500021F04001D16084F83D3000F030F9F8BD43
:10236000872E000870B5040004D094F83D000025C5
:1023700010B106E0012070BD84F83C50204600F00A
:1023800023F8242084F83D002068C16821F400511E
:10239000C160204600F0F2FD2068016921F49041FF
:1023A00001612068416921F02A0141612068C1680A
:1023B00041F40051C1602564202084F83D0084F878
:1023C0003E00002070BD000030B585B000240094B0
:1023D0000194029403940068184988422CD118484B
:1023E000816941F480418161816901F480410491F6
:1023F000816941F0040181618069124D00F004009F
:1024000004904FF40070009002200190032003908C
:1024100069462846FEF702FE2815CDE90004694604
:1024200028460294FEF7FAFD002211462520FEF709
:1024300055FF2520FEF744FF05B030BD00380140B0
:1024400000100240000801402DE9F84F044690F8C2
:102450003E00984615460E46202855D10EB305B3CA
:1024600094F83C0001284FD0012084F83C004FF044
:102470000009C4F84090222184F83E10C4F830903E
:10248000FEF7C0FEA5858246E585A0684FF480571B
:10249000B84201D1206938B13546002684F83C9015
:1024A00027E00120BDE8F88F0025F7E7534600221A
:1024B00020212046CDF8008000F0BCFD08B10320AB
:1024C000F0E725B1A068B8421BD038B108E0206819
:1024D0004068C0F3080026F8020B07E0206980B1CD
:1024E0002068406800F07F0005F8010BE08D401E79
:1024F000E085E08D0028D9D1202084F83E0000201E
:10250000D0E720684068EFE70220CBE770472DE96D
:10251000F843044690F83D001F4615460E46202815
:102520004BD1C6B1BDB194F83C00012845D0012083
:1025300084F83C004FF00008C4F84080212084F863
:102540003D00FEF75FFEA5848146E584A068B0F5F6
:10255000805F03D004E00120BDE8F883206920B14A
:102560003546002684F83C800EE00025FAE78021FD
:10257000204600F05FFDA0B9ADB115F8010B216850
:102580004860E08C401EE084E08C4B464FF0000237
:1025900000970028EBD14FF04001204600F04AFDA3
:1025A00030B10320D8E736F8020BC0F30800E6E7A5
:1025B000202084F83D000020CEE70220CCE77047C1
:1025C000FEE700002DE9F04101220C4DD403214625
:1025D0002846FEF711FE0122094F16033146384600
:1025E000FEF70AFE002231463846FEF705FE214678
:1025F0002846BDE8F0410022FEF7FEBD000801407C
:10260000000C014070B50122D1030948FEF7F4FD2A
:10261000084D4FF48054002221462846FEF7ECFD79
:1026200021462846BDE870400122FEF7E5BD0000C6
:1026300000080140000C014070B50122064DD40392
:1026400021462846FEF7D8FD21462846BDE87040C1
:102650000022FEF7D1BD0000000801402DE9F04F37
:1026600085B0002445480094019402940394816944
:1026700041F010018161816901F0100104918169CB
:1026800041F020018161816901F02001049181699B
:1026900041F004018161816901F0040104918169C3
:1026A00041F0080181618069DFF8D4A000F00800E2
:1026B0004FF400550490002229465046FEF79CFD39
:1026C0000122170339462F48FEF796FD42F208080B
:1026D000002241462B48FEF78FFDDFF8ACB04FF4E7
:1026E0000049012249465846FEF786FD009502261C
:1026F00001250396CDE9015469465046FEF78EFC4C
:10270000CDE90075CDE9025669461E48FEF786FC04
:10271000CDF800800396CDE9015469461948FEF7CB
:102720007DFC1A480097CDE9010569465846FEF739
:1027300075FCCDE90095CDE9025669465846FEF78D
:102740006DFC102000901248CDE9010669460D4845
:10275000FEF764FC002211460A20FEF7BFFD0A20A6
:10276000FEF7AEFD002211462820FEF7B7FD282017
:10277000FEF7A6FD05B0BDE8F08F00000010024096
:1027800000100140000C0140000801400000211031
:102790000000111010B596B000240F9410941194FD
:1027A000129413941C2168461494FDF7ECFC20212C
:1027B00007A8FDF7E8FC2D482B49016040F29F5126
:1027C000C0E901146321C0E903148021C0E9054177
:1027D000FFF7A8F808B1FEF784FB4FF480500F9084
:1027E0000FA92248FFF716F908B1FEF77AFB1F4838
:1027F000FFF7AEFB08B1FEF774FB139413A91B4857
:102800001494FFF75BF808B1FEF76BFB60200090B3
:102810003220CDE901040394049405940022694612
:1028200012480694FFF731FB08B1FEF75AFB0C2261
:1028300069460E48FFF729FB08B1FEF752FB0794E3
:10284000089409944FF400500A94CDE90B4007A96D
:1028500006480E94FFF708F808B1FEF742FB03485C
:10286000FFF7ECFA16B010BD002C0140600000200C
:1028700010B58CB024216846FDF785FC002416486D
:1028800009944FF080410A94C0E900144FF6FF719B
:10289000C0E90241046184610320CDE90004012004
:1028A000CDE9020406210491CDE90540CDE90741B7
:1028B00069460948FFF719F908B1FEF712FB0994B8
:1028C00009A905480A94FEF7F9FF002801D0FEF790
:1028D00008FB0CB010BD0000A800002010B58CB0A3
:1028E00024216846FDF74FFC00241648099414493A
:1028F0000A94C0E900144FF6FF71C0E90241046177
:1029000084610320CDE900040120CDE90204062101
:102910000491CDE90540CDE9074169460948FFF733
:10292000E4F808B1FEF7DDFA099409A905480A940C
:10293000FEF7C4FF002801D0FEF7D3FA0CB010BD9B
:1029400000080040F00000200C4810B50A49016062
:102950004FF4E1314160002181600C22C160C0E987
:1029600004128161C161FFF7FDFC002803D0BDE8BE
:102970001040FEF7B6BA10BD003801403801002003
:10298000FEE7000070B51A4E4542C1F1000401D5C2
:10299000012200E0002208213046FEF72DFC4FF412
:1029A0000051002C01DA012200E000223046FEF73F
:1029B00023FC10486FF06201002D05DA8D4200DA29
:1029C0000D466435026803E0632D00DD632502686F
:1029D0005563002C05DA8C4200DA0C46006864343A
:1029E00003E0632C00DD63240068046470BD000014
:1029F000000C014060000020FEE770B500250021BA
:102A000005F1B00000F089F80021084600F085F8D3
:102A10000021102000F081F800240121002000F0A6
:102A20007CF8641CE4B2802CF7D36D1CEDB2082D49
:102A3000E5D370BD10B54FF44870FEF7C3FA00211E
:102A4000AE2000F06AF80021084600F066F8002188
:102A5000102000F062F80021402000F05EF8002114
:102A6000B02000F05AF80021812000F056F8002133
:102A7000FF2000F052F80021A12000F04EF80021C4
:102A8000A62000F04AF80021A82000F046F8002116
:102A90003F2000F042F80021C82000F03EF800215D
:102AA000D32000F03AF80021084600F036F8002163
:102AB000D52000F032F80021802000F02EF800210F
:102AC000D82000F02AF80021052000F026F8002187
:102AD000D92000F022F80021F12000F01EF800219A
:102AE000DA2000F01AF80021122000F016F8002178
:102AF000DB2000F012F80021302000F00EF8002159
:102B00008D2000F00AF80021142000F006F80021C2
:102B1000BDE81040AF20AFF30080C0B209B100F0B3
:102B200040BB00F027BB000010B50B4900200B4B49
:102B3000C1E9003088600A4CC860C1E90404094A50
:102B4000C1E906202031C1E900308860C860C1E9D0
:102B50000404C1E9062010BDE0020020000040404E
:102B6000000070410000A0402DE9F04104460068DB
:102B7000FDF73AFD0546A06029462069FDF7E2FC15
:102B8000206107462846E168FDF72EFDE169FDF763
:102B900031FD06463946A069FDF72CFD074629465A
:102BA0006069FDF727FD3946FDF7CCFC3146FDF79E
:102BB000C9FCE5606060BDE8F08170477047FEF7D2
:102BC00027BB30B58FB028216846FDF7DCFA142109
:102BD0000AA8FDF7D8FA0120010400248DE81300AB
:102BE00004904FF4E010CDE90810022507956846DF
:102BF000FEF798FC08B172B6FEE70F20CDE90A0592
:102C00004FF48060CDE90C4002210AA80E94FEF733
:102C100097FB002801D072B6FEE70FB030BD7047B9
:102C20000148FFF757B80000600000200148FFF797
:102C300051B80000A80000200148FFF74BB8000081
:102C4000F0000020F0B50268164C174D174E4FF0FB
:102C50008047A04205D0B84203D0A84201D0B0427C
:102C600003D122F070034A681A43A04205D0B8424B
:102C700003D0A84201D0B04203D122F44073CA6805
:102C80001A434B6922F080021A4302608A68C262CA
:102C90000A688262A04201D1096901630121416190
:102CA000F0BD0000002C014000040040000800407E
:102CB00010B501F01F010123046A8B409C4304629C
:102CC000036A8A401343036210BD10B5846842EA68
:102CD000032224F47F440A432243826010BD8268A9
:102CE00022F070020A4342F0070181607047000041
:102CF00030B5026A22F001020262036A4268846906
:102D000024F073050C682C4323F002058B682B43D9
:102D10000C4DA84206D123F00805CB6843EA050311
:102D200023F0040307D14D6922F4407245EA0205FD
:102D30008A6942EA0502426084614968416303622C
:102D400030BD0000002C014030B5026A22F01002B4
:102D50000262026A436884690D6824F4E64444EA26
:102D600005248D6822F0200242EA05120C4DA8428B
:102D700006D1CD6822F0800242EA051222F040021C
:102D800007D14D6923F4406343EA85038D6943EA23
:102D900085034360846149688163026230BD00003D
:102DA000002C014030B5026A22F480720262036A8C
:102DB0004268C46923F4007324F073050C682C4343
:102DC0008D6843EA05230C4DA84206D1CD6823F453
:102DD000006343EA052323F4806307D14D6922F49D
:102DE000405242EA05128D6942EA05124260C4610E
:102DF0004968C163036230BD002C014030B5026AEE
:102E000022F480520262036A4268C4690D6824F4A5
:102E1000E64444EA05248D6823F4005343EA05336D
:102E2000064DA84204D14D6922F4804242EA85123F
:102E30004260C46149680164036230BD002C0140F6
:102E400010B5046A036A23F001030362836923F067
:102E5000F00343EA021324F00A020A438361026288
:102E600010BD10B5036A23F0100303628469036A7E
:102E700024F4704444EA023223F0A00343EA01112F
:102E80008261016210BD10B5406A0021C185C18414
:102E9000FFF760F910BD0168CA6822F49072CA6039
:102EA00001684A6922F001024A61016B012904D1DB
:102EB0000168CA6822F01002CA60202180F83E1022
:102EC00000210163704708B590F83E10222901D017
:102ED000022008BD81684FF48053994201D10269F4
:102EE00022B1826A99421BD049B10AE00268816A24
:102EF0005268C2F308020A80816A891C08E00169ED
:102F000071B10168496801F07F011170816A491C43
:102F10008162C18D491E0904090CC18503D019E0E5
:102F200001684968F1E70168CA6822F02002CA60B6
:102F30000168CA6822F48072CA6001684A6922F096
:102F400001024A61202180F83E10016B012903D063
:102F5000FFF7DCFA002008BD002101630168CA68A0
:102F600022F01002CA6001680A68D20602D50A6817
:102F700049680091818DFFF7ECF8EBE770B50446E6
:102F800000680169E26821F4405111430161A168C0
:102F900020690143606901432068C26841F20C6303
:102FA0009A430A43C26020684169A26921F44071D2
:102FB000114341611E492068884202D1FEF76CFA34
:102FC00001E0FEF759FA00EBC00101EB0011606867
:102FD00064228000B1FBF0F3B3FBF2F36FF018064C
:102FE0007343B1FBF0F5B1FBF0F605EB830532233B
:102FF00003EB0515B5FBF2F5B6FBF2F605F0F005AF
:1030000005EB0615B1FBF0F6B1FBF0F0B0FBF2F00A
:103010006FF01801484306EB800003EB0010B0FB93
:10302000F2F0216800F00F002844886070BD0000B5
:10303000003801402DE9F0411E46174688460446F7
:10304000069D1CE0681C1AD025B1FEF7DBF8801B3A
:10305000A84214D92068C16821F4D071C1602068E9
:10306000416921F001014161202084F83D0084F88C
:103070003E00002084F83C000320BDE8F081206879
:10308000016838EA010004D00020B842DAD00020FC
:10309000F3E70120F9E700000D4810B5006800686B
:1030A000800610D50B4A1078FF2801D3002010703D
:1030B0000949C0B20144401C10704FF47A730122D8
:1030C0000348FFF7C1F9BDE810400148FFF744B8D5
:1030D00038010020180000207C010020FEE70000DD
:1030E000094A10B510780949002330B10C88A04274
:1030F00006D113700B80002010BD0B80012010BD85
:103100000880022010BD00001800002014000020DC
:103110002DE9F047154F04464FF400460022314692
:103120003846FEF769F8DFF8489000254FF48058DC
:1031300004F08000802816D0002241464846FEF761
:103140005BF86006040E012231463846FEF754F85B
:10315000002231463846FEF74FF86D1CEDB2082DBF
:10316000E6D3BDE8F0870122E7E700000008014050
:10317000000C014010B50446FFF724FA7820FFF751
:10318000C7FFFFF759FA0020FFF7C2FFFFF754FA15
:103190002046FFF7BDFFFFF74FFABDE81040FFF7ED
:1031A00031BA10B50446FFF70DFA7820FFF7B0FFEB
:1031B000FFF742FA4020FFF7ABFFFFF73DFA20464A
:1031C000FFF7A6FFFFF738FABDE81040FFF71ABA7D
:1031D0000FB4054B10B503A9044A029800F048F952
:1031E00010BC5DF814FB0000153D000854000020E1
:1031F0000907090E002804DB00F1E02080F8001424
:10320000704700F00F0000F1E02080F8141D7047B7
:1032100030B528B1144C031F002021680A4605E090
:10322000084630BD9A4203D810465268002AF9D1A8
:10323000002800D041680BD00468A3EB0005A5422C
:1032400004D11B681C440346046002E0436000E0B4
:1032500023603AB11C68D51AA54203D115682C44E5
:103260001C6052685A6030BD580000202DE9F047BC
:1032700082460F4C10480D4E0E4F001B4FF00008B9
:1032800020F007054FF0010900221146504600F0DA
:103290008BFD002802D1306810B10020BDE8F08716
:1032A0003C60C4E90058C6F80090EDE75C000020DF
:1032B0002403002058000020200B002002E008C852
:1032C000121F08C1002AFAD170477047002001E0A0
:1032D00001C1121F002AFBD1704700002DE9FF5FDA
:1032E00082B00021DDE90430020DDDF840B0034377
:1032F00018D044F61050A2F2FF3242431514119830
:1033000001281FD0A5EB0B00401C5FEA000A4FF01C
:1033100000064E4FDFF83891B046504615D5CAF139
:10332000000413E0119801244AA3012801D16FEA97
:103330000B010298119AC0E90031C0E9024206B0BF
:10334000BDE8F09FCBF10000DFE704460021404AD2
:10335000491842EB0450CDE9001012E0E00707D015
:1033600032463B4640464946FDF7AEFC804689461C
:1033700032463B4610461946FDF7A6FC06460F4668
:103380006410002CEAD1DDE90401DDE90023BAF183
:10339000000F06DAFDF798FC42464B46FDF794FC19
:1033A00005E0FDF700FA42464B46FDF7FCF90446FE
:1033B0000E460022284BFDF7E9FA03D84FF0FF3004
:1033C000014607E00022254B20463146FDF744F92F
:1033D000FDF7F8FC102409E0002C0ADB0A22002388
:1033E000FDF71EFB039B30321A55641E50EA0102A2
:1033F000F2D1641C039AC4F111031444119A012AF6
:1034000003D0012208430DD10AE0084304D0002074
:103410004FF0110B119072E7A3EB0B056D1E0DE041
:103420005B4504DD4FF0000205F1010504E003DA1D
:103430004FF00002A5F10105002AECD00298119985
:10344000C0E90231C0E9004579E7000000001440FE
:103450000000F03F300000000000F0430000E03FBB
:1034600030380A2801D20120704700207047000040
:103470002DE9FF4F95B09A46884606460025EEE1B5
:10348000252877D100242746F94A0121039400E03A
:10349000044316F8013F203B01FA03F01042F7D134
:1034A00030782A2811D06FF02F033078A0F1300245
:1034B000092A16D8039A44F0020402EB820203EBB5
:1034C00042021044761C0390EFE758F8042B039255
:1034D000002A03DA504244F40054039044F00204FA
:1034E000761C30782E2816D116F8010F44F004040B
:1034F0002A280DD06FF02F023078A0F13003092B6D
:1035000009D807EB870302EB4303C718761CF3E7E0
:1035100058F8047B761C30786C280FD006DC4C28D9
:1035200017D068280DD06A2814D104E0742810D070
:103530007A280FD10DE044F400140AE044F480141A
:1035400001E044F440147278824202D104F5801400
:10355000761C761C307866280BD013DC582877D080
:1035600009DC002875D04528F6D04628F4D0472835
:103570001AD193E118E0632835D0642879D0652802
:1035800012D18BE1702873D008DC6728F1D069284C
:103590006FD06E280DD06F2806D1ACE073282CD0E8
:1035A000752874D0782853D05246179990476D1CCF
:1035B00054E1C4F30250022809D003280DD0D8F8F2
:1035C000001004280DD00D6008F1040846E1D8F879
:1035D0000010EA17C1E90052F6E7D8F800100D8094
:1035E000F2E70D70F0E718F8041B8DF800100020CA
:1035F0008DF80100EB46012003E058F804BB4FF0C2
:10360000FF3061074FF0000102D40DE009F1010124
:103610008946B9420FDA8145F8DB1BF80910002909
:10362000F4D108E009F1010189468142FADB1BF877
:1036300009100029F6D103985346A0EB090721464B
:103640003846179A00F080FA284400EB090507E095
:1036500044E008E10DE01BF8010B52461799904732
:10366000B9F10109F7D2534621463846179AF2E0DC
:1036700039E00A21C4F302524FF0000B0091022AF4
:1036800006D058F8040BC117032A09D00AE023E03A
:1036900008F1070020F00702F2E80201904605E079
:1036A00000B2C117042A01D140B2C117002906DABD
:1036B0000A460021404261EB02012D2202E0220570
:1036C00004D52B228DF80420012203E0E20701D06B
:1036D0002022F7E7914657E00A2100E010214FF041
:1036E000000B00910BE010214FF0000B44F004049C
:1036F0000827009103E008204FF0000B0090C4F36E
:103700000252022A05D058F8040B0021032A08D0DF
:1037100008E008F1070020F00702F2E802019046F5
:1037200003E080B2042A00D1C0B24FF000092207A2
:103730002AD53278702A07D0DDF800C08CF0100C42
:103740005CEA0B0C05D00EE040228DF8042001222B
:1037500008E050EA010306D030238DF804308DF8DC
:10376000052002229146009B83F0080353EA0B03D5
:103770000AD150EA010201D1620705D530228DF845
:1037800004204FF001097F1E3278582A04D039A254
:103790000C920CAA02920BE03BA2F9E75B46009A5E
:1037A000FDF73EF90C9B9B5C029A521E029213702D
:1037B00050EA0102F2D1029804A9081A00F1200B84
:1037C000600702D524F4803400E001275F4502DD64
:1037D000A7EB0B0000E0002000EB0B01009003982A
:1037E0004944401A0390E00306D453462146179AF1
:1037F000039800F0A9F90544002706E001A8524605
:10380000C05D179990476D1C7F1C4F45F6DBE003A8
:103810000CD553462146179A039800F095F90544B4
:1038200004E030205246179990476D1C0099481EBD
:1038300000900029F5DC08E00298029952460078D1
:10384000491C0291179990476D1CBBF10001ABF127
:10385000010BF1DC5BE100F065F90544761C307882
:1038600000287FF40DAE19B02846BDE8F08F0000A7
:103870000928010030313233343536373839616246
:10388000636465660000000030313233343536370A
:10389000383941424344454600000000600700D4E7
:1038A000062708F1070020F00700F0E80223804611
:1038B00003F0004C5FEA0C0001D097A009E020055E
:1038C00001D596A005E0E00701D095A001E0AFF298
:1038D0004C001390307823F0004365280CD006DCB0
:1038E000452809D046281DD047287FD13BE06628CF
:1038F00018D067287AD136E00021112F01DB112082
:1039000000E0781CCDE9000104A90CA8FFF7E6FC53
:10391000DDE90D010C9A4FF0000B07F1010910923F
:1039200000914EE04FF000400097CDE9011004A94E
:103930000CA8FFF7D3FCDDE90D020C9B0F994FF0AB
:10394000000B91461093009211B9791C00EB01090C
:10395000B7EB090003D4C0F1FF3B07F10109A9EB64
:103960000700019042E0012F00DA01270021112F0A
:1039700001DD112000E03846CDE9000104A90CA8C2
:10398000FFF7ACFCDDE90D010C9A00914FF0000B44
:10399000B946109221070FD4009A4A4503DA91469E
:1039A00001E0A9F10109B9F1010F05DD109AA9F1B2
:1039B0000101515C3029F4D0B84202DA10F1040F51
:1039C00003DA0121CDE9011010E0002803DC834473
:1039D000A9EB000102E0411C494500DD8946A0EB4E
:1039E0000B00401C01904FF000400290200705D4CE
:1039F0000198484502DB4FF0FF30019000208DF820
:103A00004B0002980DF14B07B0F1004F25D002207A
:103A10000C902B200D90029800280CDA4042029066
:103A20002D200D9007E00A210298FCF7E3FF3031CA
:103A3000029007F8011D0C99481E0C900029F2DC39
:103A400002980028EFD1791E0D980870307800F0A8
:103A5000200040F0450007F8020D11A8C01BC01D52
:103A600002901398007800B1012000EB0901019841
:103A700001EBE071029801440398401A401E039044
:103A8000E00306D453462146179A039800F05CF8E9
:103A900005441398007818B15246179990476D1C49
:103AA000E00323D553462146179A039800F04CF8BB
:103AB00005441BE0BBF1000F07DB0098584504DD0F
:103AC0001098179910F80B0001E017993020524612
:103AD000904701980BF1010B401E05F10105019083
:103AE00004D12E205246179990476D1CB9F1000160
:103AF000A9F10109DEDC05E017F8010B5246179920
:103B000090476D1C0299481E02900029F4DC534630
:103B10002146179A03989EE62D0000002B00000016
:103B2000200000002DE9F041044600251E461746FE
:103B3000880404D405E039462020B0476D1C641E7B
:103B4000F9D52846BDE8F0812DE9F041044600256D
:103B50001E469046C80301D5302700E02027880480
:103B600004D505E041463846B0476D1C641EF9D5C2
:103B70002846BDE8F08110B530B1036823B1D0E923
:103B80000121914201D204E0002010BD491C816056
:103B900020B1914202D25C5C202CF7D99142F4D141
:103BA000491E816010BD000070B504460F4E19E03B
:103BB000A0892568C0050AD4A06820B1FFF7F4FFEA
:103BC000A089C00503D4206908B171688847A0891D
:103BD000800503D4206A08B171688847716820465F
:103BE00088472C46002CE3D170BD0000480000201F
:103BF000002200F09BB810B5016828208847040017
:103C000002D02821FCF7BFFA204610BD0022114641
:103C100000F06EB82DE9F04788B00F4606469A4688
:103C200015461C216846FCF7AEFA2F480024002EEA
:103C30000460446055D08146E7B30096CDE9017435
:103C4000D9E90212D9F810000491CDE9052009F153
:103C50000800FFF7D0FF5FEA00082BD000986F46FE
:103C600008B1029808B100200CE00198042808D996
:103C700003221EA10098FCF7A6FA10B90298C01CF6
:103C800002903846FFF777FF0146404600F0FEFB02
:103C900068B1BAF1000F13D06846FFF76CFFDDE999
:103CA0000101814203D202990098405C40B1404634
:103CB000FFF77AFFDDE9011088420AD204460BE0E3
:103CC0001DB10299009808442860404608B0BDE83C
:103CD000F087081E00D0441E0DB130192860C9E9D4
:103CE00000640020F2E7000040000020EFBBBF00AE
:103CF00070B515460E46040009D0FCF74FFA411C7A
:103D00002B4632462046BDE87040FFF783BF0020B7
:103D100070BD000013B54FF6FF73012269460248DB
:103D2000FEF7F5FB00981CBD380100202DE9F0419D
:103D30008846A8B3B8F1000F33D085680AB90AE005
:103D40002D686DB3296A59B34046FCF72EFA002856
:103D5000F6D120E02D681DB32E6A5FEA0804F9D081
:103D6000002EF7D0B44218D002E098B1641C761C43
:103D70002078FCF7E9F907463078FCF7E5F9874247
:103D80002078F2D0FCF7E0F904463078FCF7DCF953
:103D90008442DFD125B1286A10B12846BDE8F08100
:103DA000FFE70020FAE700002DE9F0410B3020F09A
:103DB0000706104D19E02068B04215D3B0420AD969
:103DC000871B201DD4F80480FCF7C4F9A019C0E9B2
:103DD0000078286004E060682860201DFCF7BAF9CC
:103DE000201D2660BDE8F081251D2C68002CE2D145
:103DF0000020F7E75800002086B0FDF711FAFEF723
:103E0000E0FEFEF72BFCFEF79FFDFEF7C3FCFEF77E
:103E10002FFDFEF763FDFEF70DFEFEF7EEFD002120
:103E20005C48FEF7C5F80C215A48FEF7C1F83C2162
:103E30005948FDF705FF3C215848FDF701FF56485A
:103E4000FDF7BCFD5548FDF7B9FD5248FDF7B6FD3D
:103E500053480068C16841F02001C160FEF764FE6C
:103E6000504D514C4FF4FA60FDF7ACF800F0E4F817
:103E70004F484E4F39460068FCF7BCFBFCF722FD6B
:103E800006B24C4839460068FCF7B4FBFCF71AFD53
:103E90004FF4967100B20B463246FCF7D7FFFFF79E
:103EA0001FF900285BD14448FFF7B0FE064643A146
:103EB000FFF79EFE50B141A13046FFF799FED0E9D1
:103EC00006211046FCF77AFD206068613CA130466F
:103ED000FFF78EFE50B13AA13046FFF789FED0E9D8
:103EE00006211046FCF76AFD6060A86135A13046E6
:103EF000FFF77EFE50B133A13046FFF779FED0E9DF
:103F000006211046FCF75AFDA060E8612EA130465C
:103F1000FFF76EFE50B12CA13046FFF769FED0E9E5
:103F200006211046FCF74AFDE060286027A13046D4
:103F3000FFF75EFE58B125A13046FFF759FED0E9E4
:103F400006211046FCF73AFD21492061086016B1B0
:103F50003046FFF729FEFF211748FCF714F9E06807
:103F6000FCF7E8FC82468B46A068FCF7E3FC804641
:103F700089466068FCF7DEFC06460F462068FCF7C1
:103F8000D9FC8DE8C00F02460B4612A0FFF720F9BE
:103F900068E7000060000020A8000020F00000207A
:103FA00038010020E0020020000000200000C8428C
:103FB00024000020200000207C0100207000000070
:103FC0006900000064000000610000006200000061
:103FD00000030020503A252E33662020493A252E32
:103FE00033662020443A252E336620413A252E336D
:103FF000660D0A000C4A10B510600C4801600C48B0
:1040000001680A48FEF7B0FDFCF75CFC044609486D
:1040100001680548FEF7A8FDFCF754FC2146BDE801
:104020001040FEF7AFBC0000E002002000030020BB
:10403000240000202000002010B5074C4FF07C51D8
:104040006068884202DBFCF7CFFA6060BDE8104090
:104050000146FFF7CFBF0000380000202DE9F041F6
:1040600007460026C8680C463546B0F57A7F5BD215
:10407000401CE0602168A068095C5B2954D1401CA9
:10408000A0602046FFF777FD4CB1D4E901108842CB
:1040900003D22268125C5D2A33D0884203D3A06821
:1040A000401EA06040E0401E04F11008A0604046A1
:1040B000FFF7A1FD98B30EB3286045600546A068E0
:1040C000401CA0602046FFF756FD2146284600F020
:1040D000DDF930B32046FFF74EFD14B3D4E90110EB
:1040E000884203D22168095C2C29E0D062689042A2
:1040F00017D22168085C5D2813D102E006463546D8
:10410000DDE7E068401EE06006B175602020C7E989
:104110000260A068401CA0600120BDE8F081FFE7BC
:1041200016B13046FFF740FD0020F6E7034610B514
:1041300000200246995CA1F13004092C01D83038E6
:104140000AE0A1F14104052C01D8373804E0A1F1BF
:104150006104052C08D857380844032A00D200010E
:10416000521C042AE6D310BD002010BD2DE9F041F9
:1041700092B04FF000070C0005464FF02E063B466C
:1041800010973CD02068D0B3694627E022681044DD
:104190001A5C342A1BD00ADCA2F12B00092823D296
:1041A000DFE800F015221517221515151500382A1D
:1041B0000DD006DC352A0AD0362A08D0372A13D18A
:1041C00005E0392A03D0452A01D0652A0CD1CA540A
:1041D00000E0CE545B1C3F2B06D22CB1A068D4F873
:1041E00004C0C2186245D1D38846CF54404610A9B6
:1041F00000F000FA0F4610990646884503D10020CA
:1042000012B0BDE8F081124A124B30463946C5E97A
:104210000667FCF7BBFB02D86FF000400DE0002200
:104220000D4B30463946FCF799FB02D84FF0004061
:1042300003E030463946FCF75EFB68610820E86021
:10424000109AA168A2EB08000844A0600120D7E7FB
:104250000000C0FFFFFFDF410000E0C12DE9F04199
:1042600007460026C8680C463546B0F57A7F78D2F6
:10427000401CE060002C74D0D4E90110884270D258
:104280002168095C7B296CD1401CA0602046FFF7A7
:1042900072FCD4E90110884203D22268125C7D2AA4
:1042A0004CD08842A0F10100A0605AD204F110085D
:1042B0004046FFF7A0FCE8B3F6B12860456005462C
:1042C000A068401CA0602046FFF755FC2146284608
:1042D00000F049F878B32046FFF74DFC28692862C2
:1042E000002028613CB3D4E90110884236D221680D
:1042F000095C3A2932D102E006463546E0E7401C27
:10430000A0602046FFF737FC2146284600F0BEF8A3
:1043100088B12046FFF72FFCD4E90110884203D270
:104320002168095C2C29C3D06268904216D22168AA
:10433000085C01E011E011E07D280FD1E068401E2B
:10434000E06006B175604020C7E90260A068401CCB
:10435000A0600120BDE8F08103E016B13046FFF710
:1043600023FC0020F6E72DE9F84F8146D1F80880BC
:1043700008684FF0000ACDF800A0D1F800C000EBAB
:104380000804651C1CF80800641C0E4657462228C9
:1043900076D10021706807E05C2B04D1521C824268
:1043A0006AD2491C641C641CA4EB0C02824202D237
:1043B0002378222BF0D1A4EB0C0282425CD220782D
:1043C000222859D10CEB0800201A401A3169401CF0
:1043D0008847070054D000973DE029785C2905D034
:1043E00000986D1C00F8011B009034E00221601B56
:1043F000012841DB6878662814D008DC22281DD00B
:104400002F281BD05C2819D0622835D108E06E28EF
:104410000ED072280ED074280ED075282CD112E040
:10442000082200E00C22009800F8012B009011E017
:104430000A22F8E70D22F6E70922F4E7009A02F8CB
:10444000010B009206E06A462146284600F0E0F89B
:10445000010011D00D44A542BFD3009981F800A0FE
:104460001021C9E903173068201A401CB0600120F0
:10447000BDE8F88F04E0FFE717B171693846884757
:1044800015B13068281AB0600020F1E770B50C0053
:1044900005465ED0216800295BD0A0686368021DD4
:1044A0009A4205D80844042231A1FBF78CFE78B368
:1044B000A0686268411D0126914206D82168052244
:1044C00008442DA1FBF77FFE28B3A0686268011D98
:1044D000914206D821680422084429A1FBF773FE03
:1044E000E8B1D4E90101814203D22268525C222A58
:1044F0001DD0814221D22268525C2D2A02D0303A4E
:10450000092A1AD821462846BDE87040FFF72EBE7A
:104510000420E86006E0EE60A068401D04E0022090
:104520006E61E860A068001DA060012070BD21469A
:104530002846BDE87040FFF716BF814203D22268CB
:10454000525C5B2A07D0814203D22068405C7B2802
:1045500007D0002070BD21462846BDE87040FFF717
:104560007DBD21462846BDE87040FFF777BE0000BC
:104570006E756C6C0000000066616C736500000075
:1045800074727565000000002DE9F04704008A464A
:1045900016D054F8047CD4F800903E1F564500D93C
:1045A00056462046FEF734FE0546884632462146EA
:1045B0005046FFF7F9FB40B1C0F80090BDE8F08726
:1045C000BDE8F0470846FEF751BE44E9017955B110
:1045D00029686A18211F8A4202D9611B091F2960B4
:1045E000C5F80480EAE7024AC2F80080E6E7000066
:1045F0005800002000B583B00A460021CDE9001123
:1046000001466846FCF799FADDE9000103B000BDF8
:104610002DE9F04707460026C81B144689460628A0
:104620005CDBB81CFFF782FD0546A0F55C404FF44B
:104630008061884252D3A5F558408A4650451AD227
:10464000B81DA9EB00014FF00C08062946DB0178E4
:104650005C2943D14178752940D1801CFFF766FD64
:10466000A0F55C41514539D2C5F3090161F39F20A2
:1046700000F5803002E04FF006082846802801D27D
:10468000012210E0B0F5006F02D20222C0260AE03B
:10469000B0F5803F02D20322E02604E0B0F5881F87
:1046A0001CD20422F026511E07E000F0BF0325684B
:1046B00043F0800380096B54491E11F0FF01F4D1CF
:1046C000012A01D9304301E000F07F002168087021
:1046D0002068104420604046BDE8F0870020FBE7DA
:1046E00000000000000000000102030406070809A2
:1046F0000000000001020304DDDDDDDDDCBBBBDD0D
:10470000DDDDDDDDDDDDDDDD988888888888888871
:104710007777777777888888855555566666666691
:104720006666666666688888833333322222222270
:10473000222222222228888D5847000800000020CB
:1047400060000000BC320008B8470008600000208C
:10475000C0120000CC320008000000000000000081
:104760000000000000000000000000000000000049
:104770000000000000000000000000000000000039
:104780000100000010000000000000000024F40000
:104790000000003F0000404000000000000000005A
:1047A0006D32000811320008894500080000000041
:0847B000000000000000000001
:04000005080000ED02
:00000001FF
