:020000040800F2
:10000000F0090020C9010008F70C0008410B0008A6
:10001000F50C0008CF020008070F000800000000E0
:10002000000000000000000000000000A30E000817
:10003000D102000800000000A10E0008A50E000873
:10004000E3010008E3010008E3010008E301000800
:10005000E3010008E3010008E3010008E3010008F0
:10006000E3010008E3010008DB020008E3010008E7
:10007000E3010008E3010008E3010008E3010008D0
:10008000E3010008E3010008E3010008E3010008C0
:10009000E3010008E3010008E3010008E3010008B0
:1000A000E3010008E3010008E3010008E3010008A0
:1000B000E3010008E3010008E3010008E301000890
:1000C000E3010008E3010008E3010008E301000880
:1000D000E3010008E3010008E3010008E301000870
:1000E000D3020008E3010008E301000800F002F871
:1000F00000F05AF80AA090E8000C82448344AAF168
:100100000107DA4501D100F04FF8AFF2090EBAE865
:100110000F0013F0010F18BFFB1A43F0010318473B
:10012000340F0000540F00000A444FF0000C10F888
:10013000013B13F0070408BF10F8014B1D1108BF65
:1001400010F8015B641E05D010F8016B641E01F805
:10015000016BF9D113F0080F1EBF10F8014BAD1C55
:100160000C1B09D16D1E58BF01F801CBFAD505E073
:1001700014F8016B01F8016B6D1EF9D59142D6D3CD
:10018000704700000023002400250026103A28BFF5
:1001900078C1FBD8520728BF30C148BF0B607047F9
:1001A0001FB51FBD10B510BD00F058F81146FFF780
:1001B000F7FF00F019FF00F076F803B4FFF7F2FF45
:1001C00003BC00F07DF8000009488047094800475B
:1001D000FEE7FEE7FEE7FEE7FEE7FEE7FEE7FEE7F7
:1001E000FEE7FEE704480549054A064B7047000054
:1001F000050F0008ED000008F0030020F0090020C2
:10020000F0050020F00500204FF0000200B5134675
:1002100094469646203922BFA0E80C50A0E80C5026
:10022000B1F12001BFF4F7AF090728BFA0E80C50D7
:1002300048BF0CC05DF804EB890028BF40F8042BD0
:1002400008BF704748BF20F8022B11F0804F18BF3D
:1002500000F8012B7047704770477047754600F0F3
:100260002BF8AE4605006946534620F00700854648
:1002700018B020B5FFF7B6FFBDE820404FF00006EC
:100280004FF000074FF000084FF0000B21F007017E
:10029000AC46ACE8C009ACE8C009ACE8C009ACE8C1
:1002A000C0098D46704710B50446AFF30080204664
:1002B000BDE81040FFF781BF004870479003002061
:1002C00001491820ABBEFEE7260002007047FEE79A
:1002D00070474FF4805000F023B8102000F020B891
:1002E00070B5044600F01CF90546601C02D00448B5
:1002F0000078044400F014F9401BA042FAD370BD0A
:1003000000000020054A4FF40051102802D0B0F53B
:10031000805F02D1104600F0F5B870470010014030
:10032000044910B50A68024202D00860FFF7EAFFEC
:1003300010BD0000140401402DE9F84FDFF8A4912E
:10034000002409F1040A0AF1040B23464FF00F08B8
:100350000BF1040EBEE00127A7403A40BA4272D129
:10036000DFF884C14D68A5EB0C0665452BD00DDC8C
:10037000032D34D005DC35B3012D19D0022D2FD13A
:100380001BE0112D16D0122D2AD119E0B6F5881FC9
:1003900019D006DCB6F5803F15D0B6F5801F1FD109
:1003A00011E0B6F5001F0ED0B6F5041F18D10AE013
:1003B000CB6815E0CB681B1D12E0CB6808330FE05B
:1003C000CB680C330CE08B682BB1012B4FF008038A
:1003D00003D0476104E0042302E0076100E000234A
:1003E000FF2A01D8064601E000F104064FEA840521
:1003F00001D9A5F12005376808FA05FC27EA0C07A2
:1004000003FA05F547EA050737604D68ED0060D54A
:10041000364DAE6946F00106AE61AD6924F00306C3
:1004200005F001050095324D7719BE68A5072D0F1F
:1004300008FA05FC26EA0C06DFF8B8C0604503D1CF
:100440004FF0000C17E044E0DFF8ACC0604502D18B
:100450004FF0010C0FE0DFF8A4C0604502D14FF06F
:10046000020C08E0DFF898C0604502D14FF0030CA1
:1004700001E04FF0040C0CFA05FC4CEA060CC7F83E
:1004800008C04D68D9F80060ED034D4601D516430C
:1004900000E096432E604D68DAF80060AD035546E3
:1004A00001D5164300E096432E604D68DBF80060EE
:1004B000ED025D4601D5164300E096432E604D687F
:1004C000DEF80060AD02754601D5164300E09643A4
:1004D0002E60641C0A6832FA04F57FF43CAFBDE874
:1004E000F88F0000000401400000111000100240CD
:1004F0000000014000080140000C014000100140D4
:1005000000140140C26821EA02030A4043EA0241A2
:10051000016170470AB1016170470904FBE70000FF
:100520000148806870470000000000200248816890
:10053000027811448160704700000020074810B520
:10054000016841F010010160032000F075F80F20F0
:1005500000F006F800F024F8002010BD0020024052
:1005600070B50D4D04464FF47A712878B1FBF0F068
:100570000A490968B1FBF0F000F0CEFA48B9102C36
:1005800007D200222146501E00F036F800206C6091
:1005900070BD012070BD0000000000200C00002094
:1005A0000C4808B5816941F001018161816901F060
:1005B00001010091C16941F08051C161C0690649E2
:1005C00000F080500090486820F0E06040F000703B
:1005D000486008BD0010024000000140002809DB0F
:1005E00000F01F02012191404009800000F1E0204D
:1005F000C0F8001170470000F0B40E4B1B68C3F345
:100600000223C3F10704042C00D904241D1D072D67
:1006100001D2002300E0DB1E012606FA04F56D1E60
:100620000D409D409E40761E164045EA0601F0BCF6
:1006300000F0CABC0CED00E0064A00F007011068AB
:100640004FF6FF03184040EA0120034908431060B9
:10065000704700000CED00E00000FA052DE9F047BE
:100660000D46040067D0DFF81881D8F8000000F0CC
:100670000700A8420CD2D8F8001021F00701294346
:10068000C8F80010D8F8000000F00700A84252D1C6
:1006900020683C4E810712D5400703D5706840F4AE
:1006A000E06070602078000703D5706840F4605007
:1006B00070607068A16820F0F000084370602078D6
:1006C000C00727D06068012810D03168022810D0F8
:1006D000890700292FDA716821F003010143716055
:1006E000FFF71EFF074641F288390CE031688903A5
:1006F000EFE78901EDE7FFF713FFC11B494502D979
:100700000320BDE8F0877068616800F00C00B0EB72
:10071000810FF0D1D8F80010404601F00701A9423E
:100720000BD9016821F0070129430160006800F03E
:100730000700A84201D00120E3E72078400705D553
:100740007068E16820F4E06008437060207800077A
:1007500006D57068216920F4605040EAC1007060DD
:1007600000F018F87168084AC1F30311515CC840E1
:100770000649086006480068FFF7F2FE0020C0E75F
:100780000020024000100240441000080C0000202D
:100790000400002012A085B00FC88DE80F0014A03F
:1007A000144B006804905968134801F00C02042AA5
:1007B00010D0082A0ED1C1F38342C9031DF80200EC
:1007C0000AD5596804AAC1F34041515C0A4A504312
:1007D000B0FBF1F005B0704708494843FAE7000064
:1007E00002030405060708090A0B0C0D0E0F101072
:1007F000010200000010024000127A0000093D00D2
:100800002DE9F84F04006FD02078BE4DC00747D0C7
:100810006868C0F38100012807D06868C0F38100D0
:10082000022809D16868C00306D52868800337D537
:1008300060680028E7D033E06068B0F5803F0BD0F7
:1008400010B1B0F5A02F11D0286820F480302860B6
:10085000286820F4802002E0286840F48030286076
:10086000606888B1FFF75CFE064609E0286840F43E
:1008700080202860F0E7FFF753FE801B642873D8C0
:1008800028688003F7D50BE0FFF74AFE064604E030
:10089000FFF746FE801B6428F1D828688003F7D450
:1008A0002078DFF8648280074FF0010A4FF00009DA
:1008B00039D5686810F00C0F07D06868C0F3810064
:1008C000022809D16868C00306D42868800714D5B7
:1008D0002069012808D110E02069B0B1C8F800A053
:1008E000FFF71EFE064605E007E1FFF719FE801B35
:1008F0000228C4D828688007F7D52868616920F0E5
:10090000F80040EAC10028600DE0C8F80090FFF749
:1009100007FE064604E0FFF703FE801B022823D8EB
:1009200028688007F7D4207800072CD57748A1697C
:10093000D9B1C0F800A0FFF7F3FD064604E0FFF7C9
:10094000EFFD801B02280FD8686A8007F7D5704832
:100950004FF4FA510068B0FBF1F0009000BF00982E
:10096000411E0091FAD20EE07CE0C0F80090FFF743
:10097000D7FD064604E0FFF7D3FD801B022871D89F
:10098000686A8007F7D4207840075BD5E8690027BC
:10099000C00008D4E86940F08050E861E8690127A8
:1009A00000F0805000905B480168C90511D40168CF
:1009B000834641F480710160FFF7B2FD064604E012
:1009C000FFF7AEFD801B64284CD8DBF80000C005A3
:1009D000F6D5E06801280AD008B1052813D0286AA6
:1009E00020F001002862286A20F0040002E0286A52
:1009F00040F001002862E06841F2883B88B1FFF7CF
:100A00008FFD064609E0286A40F004002862EEE700
:100A1000FFF786FD811B59455BD8286A8007F7D50B
:100A20000BE0FFF77DFD064604E0FFF779FD811B33
:100A300059454ED8286A8007F7D41FB1E86920F0DD
:100A40008050E861E069A8B36968C1F381010229B7
:100A500046D00228484606D0C8F86000FFF760FD7F
:100A6000044639E035E04746C8F86000FFF758FD16
:100A7000064604E0FFF754FD801B022829D82868A9
:100A80008001F7D4206AB0F5803F05D16868A1687D
:100A900020F4003008436860D4E90801084369681D
:100AA00021F4741108436860C7F860A0FFF738FDAF
:100AB000044605E023E0FFF733FD001B022808D8B9
:100AC00028688001F7D51AE0FFF72AFD001B0228ED
:100AD00002D90320BDE8F88F28688001F4D40EE025
:100AE0000128F7D06868226A00F48031914204D16D
:100AF000616A00F47010884201D00120EAE700200A
:100B0000E8E7000000100240000042428004424238
:100B10000C0000200070004010B5401EB0F1807F36
:100B200001D3012010BD4FF0E02460610F21601758
:100B300000F04AFA0020A06107202061002010BDCB
:100B4000FEE700002DE9F04101220C4DD4032146BF
:100B50002846FFF7DFFC0122094F160331463846CD
:100B6000FFF7D8FC002231463846FFF7D3FC214678
:100B70002846BDE8F0410022FFF7CCBC0008014048
:100B8000000C014070B50122D1030948FFF7C2FCF7
:100B9000084D4FF48054002221462846FFF7BAFC46
:100BA00021462846BDE870400122FFF7B3BC000093
:100BB00000080140000C014070B50122064DD4032D
:100BC00021462846FFF7A6FC21462846BDE870408E
:100BD0000022FFF79FBC0000000801402DE9F0470C
:100BE00086B000243D4800940194029403948169E6
:100BF00041F010018161816901F010010491816966
:100C000041F020018161816901F020010491816935
:100C100041F008018161816901F008010491816955
:100C200041F0040181618069DFF8B48000F00400C4
:100C30004FF400550490002229464046FFF76AFC15
:100C40000122DFF8A0A0160331465046FFF762FCF0
:100C50000122DFF89490D70339464846FFF75AFC43
:100C600000950125CDE901540224694640460394CC
:100C7000FFF762FBCDE90065CDE9025469465046B5
:100C8000FFF75AFB19480096CDE901056946484629
:100C9000FFF752FBCDE90075CDE90254694648469D
:100CA000FFF74AFB102000901148CDE90104694686
:100CB0005046FFF741FB002211460A20FFF79CFC3B
:100CC0000A20FFF78BFC002211462820FFF794FC36
:100CD0002820FFF783FC06B0BDE8F0870010024033
:100CE00000100140000C01400008014000002110EC
:100CF00000001110FEE7FEE770B50025002105F1A8
:100D0000B00000F0C7F80021084600F0C3F8002149
:100D1000102000F0BFF800240121002000F0BAF8F4
:100D2000641CE4B2802CF7D36D1CEDB2082DE5D322
:100D300070BD10B54FF44870FFF7D2FA0021AE2015
:100D400000F0A8F80021084600F0A4F800211020C7
:100D500000F0A0F80021402000F09CF80021B02015
:100D600000F098F80021812000F094F80021FF2085
:100D700000F090F80021A12000F08CF80021A620BE
:100D800000F088F80021A82000F084F800213F201E
:100D900000F080F80021C82000F07CF80021D3206A
:100DA00000F078F80021084600F074F80021D52002
:100DB00000F070F80021802000F06CF80021D820AD
:100DC00000F068F80021052000F064F80021D92027
:100DD00000F060F80021F12000F05CF80021DA203A
:100DE00000F058F80021122000F054F80021DB2018
:100DF00000F050F80021302000F04CF800218D2048
:100E000000F048F80021142000F044F80021BDE86B
:100E10001040AF2000F03EB810B50A46044600214D
:100E200002F1B00000F036F8102040EA1410002162
:100E300000F030F804F00F00BDE81040002100F091
:100E400029B800002DE9F04115460E460746FFF788
:100E5000E3FF0F48002400EB85150121285D00F019
:100E600019F8641CE4B2102CF7D3761CF1B23846A2
:100E7000FFF7D2FF00242819012190F8200000F08C
:100E800009F8641CE4B2102CF5D3BDE8F081000031
:100E900010000020C0B209B100F07FB800F066B8C1
:100EA00070477047FFF742BB30B58FB028216846C6
:100EB000FFF7AAF914210AA8FFF7A6F901200104F7
:100EC00000248DE8130004904FF4E010CDE90810E1
:100ED000022507956846FFF793FC08B172B6FEE756
:100EE0000F20CDE90A054FF48060CDE90C400221C6
:100EF0000AA80E94FFF7B2FB002801D072B6FEE7F5
:100F00000FB030BD7047FEE72DE9F047154F04469E
:100F10004FF40046002231463846FFF7FBFADFF86F
:100F2000489000254FF4805804F08000802816D0A7
:100F3000002241464846FFF7EDFA6006040E012202
:100F400031463846FFF7E6FA002231463846FFF7C9
:100F5000E1FA6D1CEDB2082DE6D3BDE8F087012261
:100F6000E7E7000000080140000C014010B504460E
:100F7000FFF7E8FD7820FFF7C7FFFFF71DFE002011
:100F8000FFF7C2FFFFF718FE2046FFF7BDFFFFF790
:100F900013FEBDE81040FFF7F5BD10B50446FFF79E
:100FA000D1FD7820FFF7B0FFFFF706FE4020FFF7E6
:100FB000ABFFFFF701FE2046FFF7A6FFFFF7FCFDA2
:100FC000BDE81040FFF7DEBD0907090E002804DB6D
:100FD00000F1E02080F80014704700F00F0000F1ED
:100FE000E02080F8141D7047FFF7A8FAFFF75CFFB8
:100FF000FFF7F4FDFFF79DFEFFF77EFE002211468E
:101000001046FFF71FFF012200211220FFF71AFFF1
:10101000022200212420FFF715FF032200213620A1
:10102000FFF710FF042200214820FFF70BFF0522E5
:1010300000215A20FFF706FF062200216C20FFF74F
:1010400001FFDBE7000000000000000001020304D4
:101050000607080974100008000000209003000033
:1010600028010008E4110008900300206006000039
:1010700084010008320182103324F41BF010012A8D
:10108000FF050215F01B0F04012AFF0502130F18BC
:10109000094040405F55555575041A5F0C091121F0
:1010A000080C11200F094989790909090F201F111E
:1010B0002FFE02424ACA4A0304134202FE000E14E3
:1010C000FF40504C4340404F50505C40FF1BF8885D
:1010D000012AFF050215F81B1F08012A7F200B10AB
:1010E0009F80E23B808201000916E2A2928A8682FA
:1010F0008080041840807F172424A4FEA3221B2292
:10110000CCAA011415080601FF2B0104010511FFEB
:101110000202025808101010FF109008C3021108B4
:10112000080F100444827F01808040432C10284621
:1011300081A018094040484848C8784F060515481E
:101140004840400009150312122222528A063C1020
:101150006080BA19040B11C030FB1E404043407F31
:10116000061C7F424106094FC02941080B1110D0CF
:1011700030FF30D0121C10101F3D080402019E0DDC
:101180001101020408211116FE222222FE0712FE7E
:10119000828292A29E100880601F0242827F0F11FD
:1011A000FF402F102C438011000B1490884C57A443
:1011B0002454548C84180801018042221A07441DCB
:1011C000423E01018AF9E1000D14E4242CB42526E5
:1011D00024B42C24E404180AFF02011E1212121E69
:0411E0004186011231
:04000005080000ED02
:00000001FF
