:020000040800F2
:10000000C016002005010008052A0008E92500089F
:1000100065290008290F000845310008000000008C
:100020000000000000000000000000002D2C00086F
:100030002B0F0008000000002B2C00082F2C0008BC
:100040001F0100081F0100081F0100081F01000810
:100050001F0100081F0100081F0100081F01000800
:100060001F0100081F0100081F0100081F010008F0
:100070001F0100081F0100081F0100081F010008E0
:100080001F0100081F0100081F0100081F010008D0
:100090001F0100081F0100081F0100081F010008C0
:1000A0001F010008952C00081F0100081F0100080F
:1000B0001F010008A12C0008AD2C00081F0100083A
:1000C0001F0100081F0100081F0100081F01000890
:1000D0001F010008013100081F0100081F0100086E
:1000E0001F0100081F0100081F010008DFF810D0E1
:1000F00000F080FE00480047593E0008AFF3008042
:10010000C01600200648804706480047FEE7FEE785
:10011000FEE7FEE7FEE7FEE7FEE7FEE7FEE7FEE7B7
:10012000912C0008ED000008202A04DB203A21FA77
:1001300002F00021704721FA02F3D040C2F1200200
:100140009140084319467047A0F14101192900D890
:100150002030704740EA01039B0703D009E008C93B
:10016000121F08C0042AFAD203E011F8013B00F87C
:10017000013B521EF9D27047D2B201E000F8012BC8
:10018000491EFBD270470022F6E710B513460A4617
:1001900004461946FFF7F0FF204610BD421C10F838
:1001A000011B0029FBD1801A704710B5002200E026
:1001B000521C835C8C5CA34201D1002BF8D1D8B2D5
:1001C000E1B2401A10BD30B505460020034600E0FC
:1001D0005B1C934205D2EC5CC85C201A01D1002C58
:1001E000F6D130BD2DE9FF4F087883B09946FF283E
:1001F00005D0491C2D2804D00024002008E0002050
:100200000BE00124F9E700EB800003EB4000491C00
:100210000B78FF2BF7D104B14042002302931478EE
:1002200019461D462D2C01D02B2C04D1521C2D2CEF
:1002300013D000240294AA461478FF2C0FD00A256C
:10024000A3FB057801FB05814FF0000C03FB0C11AB
:10025000521CE3194AEB0101EEE70124EAE781446D
:1002600053EA010002D019F5C87F06DA039800218D
:10027000C0E9001107B0BDE8F08F0025AE4E2F4653
:10028000DFF8B882184600F091FDCDE90001B9F120
:10029000000002DAC9F1000400E004460023A74A86
:1002A0001AEB030B42EB045A12E0E00707D02A4690
:1002B00033463846414600F007FD074688462A4641
:1002C00033461046194600F0FFFC05460E46641002
:1002D000002CEAD1DDE90001B9F1000F5A4653467E
:1002E00006DA00F060FA3A46434600F05CFA05E0B0
:1002F00000F0EAFC3A46434600F0E6FC029A0AB1F6
:1003000081F00041039AC2E90001B3E72DE9FF4FF4
:100310001F468DB0D7E901464FF0FF382E204546E5
:100320004FF000090B90B9696D1C0E988847396A27
:10033000824688470028F6D1BAF1FF3F0AD024F45C
:10034000D064002E11DDBAF12B0F08D0BAF12D0FB9
:100350000BD102E0404611B08DE744F48064B969E6
:100360006D1C0E9888478246761E6946600501D549
:100370002D2000E02B208DF8000001F1010B0DF184
:10038000200809E0B9696D1C0E98884782460F98CD
:1003900044F40074761E0560002E02DDBAF1300FC1
:1003A000F0D00B998A453ED144F0800406E00F99C5
:1003B000681CA9F1010944F400740860B9696D1C56
:1003C000761E0E98884782463028F0D02BE00B9995
:1003D0008A4505D1200603D444F08004761E18E037
:1003E000504603F06DF808B30DF11301761E44F486
:1003F00000748B4508D2AAF130000BF8010B2006DF
:1004000007D5A9F1010003E0200602D409F101009B
:100410008146A00502D50F99681C0860B9696D1C5A
:100420000E9888478246002ED1DC53E0002E51DD25
:10043000BAF1650F02D0BAF1450F4BD1A00549D5ED
:10044000B9696D1C24F44074761E0E988847824664
:10045000002E0CDD2B2804D0BAF12D0F07D144F467
:100460008074B9696D1C0E9888478246761EE00537
:1004700001D52D2100E02B2108F8011BCDF82C809F
:1004800021E00DF12901761E44F4007488450CD258
:10049000AAF1300010F0FF0088F8000002D10B999B
:1004A000884509D908F1010806E0E00501D524488E
:1004B00001E042F20F708146B9696D1C0E988847C1
:1004C00082460F980560002E04DD504602F0F8FFCA
:1004D0000028D6D1F9690E988847FF208BF80000D4
:1004E00088F800000020069007904B466A4608A94D
:1004F00006A8FFF777FEA00502D46FF001002AE7F7
:1005000014F0240F0AD0E00714D1DDE90612386890
:10051000031D3B600068C0E900120BE0DDE9060145
:1005200000F04CFA0146E00704D13868021D3A6039
:100530000068016028460EE7000014400000F03F0C
:10054000F1D8FFFFF0B480EA0102D40F4200B2EB11
:10055000410F02D20246084611464A0042D0C30D5E
:10056000DDB2C1F3C752AD1A202D35DAC1F3160141
:1005700041F4000204B15242C5F1200602FA06F12C
:100580002A411044B3EBD05F23D0C4B1012DA0EBBE
:10059000C35009DCF0BC4FF0004202EAC352DBB2A8
:1005A00000F5000000F005BB400000F1807000EB9A
:1005B000C350A0F1807040EAD170490009E04908B9
:1005C00041EAC071A0EBC35000F50000400800EB09
:1005D000C350F0BC00F0E4BA6142012202EB4101D9
:1005E000001BF6E7F0BC704781F00041AAE780F0FD
:1005F0000040A7E780EA010210B502F00043400086
:1006000022D04A001FD0010E01EB1261C0F3560048
:10061000C2F3560240F4000042F40002A0FB0220A4
:1006200000047F39140400D0401C50EA124001D469
:100630004000491EC2B20C0604EBD010401C40081A
:10064000802A02D003E0002010BD20F00100002924
:1006500000DA0020184310BD2DE9FE4F804681EAE4
:100660000300C00F0C46009021F0004123F000452C
:10067000B8EB0200A94105D24046214690461C46EF
:100680000B46024623F00040104347D0270DC7F326
:100690000A00C3F30A510290401A019040286BDA15
:1006A000C3F3130040F4801B0098924620B100234E
:1006B000D2EB030A63EB0B0B01985946C0F14002E1
:1006C000504600F0DEF906460D4650465946019A5E
:1006D00000F0E6F910EB08006141002487EA1152AE
:1006E00084EAE7731A4340D0009A62B3019A012A60
:1006F0004FEA075215DC001B61EB02014FF000428C
:1007000002EA0752CDE90042001C41F58011324651
:100710002B4600F08BFA03B0BDE8F08F404621462F
:10072000F9E7001B61EB0201001C41F58013001882
:100730005B412018A2F5001747EB030140EAD57092
:10074000B6196D4111E06D084FEA360645EAC075ED
:100750004FEA0752001B61EB0201001C41F58011BA
:1007600049084FEA30000019514132462B4603B088
:10077000BDE8F04F00F04BBA009801224000002382
:10078000D0EB020263EBE073009821464FEAE0747D
:10079000B8EB000061EB0401E9E783F000435BE79D
:1007A00081F0004158E72DE9F04D81EA030404F09F
:1007B000004B21F0004514464FF0000A23F00041A1
:1007C00050EA050220D054EA01021DD0C5F30A57B1
:1007D0000246C5F31303C1F31300C1F30A5640F4F4
:1007E000801543F48013A7EB0608101BD64608F2C9
:1007F000FD3873EB050002D308F1010801E09218FF
:100800005B41B8F1000F03DA00200146BDE8F08D2E
:1008100000204FF48011064684460EE0171B73EB50
:10082000050705D3121B63EB050306434CEA010CD5
:1008300049084FEA300092185B4150EA0107EDD1B8
:1008400052EA030012D082EA040083EA0501084359
:1008500005D0101BAB4106D20122002306E0002286
:100860004FF0004302E06FF0010253101AEB060054
:100870004CEB085110EB0A0041EB0B01BDE8F04DC9
:1008800000F0C5B970B521F0004303430CD0C1F3AB
:100890000A550024D5EB040564EB0403D617AD1A02
:1008A000B34102DB0020014670BD201841EB02512C
:1008B00070BDC10F80EAE0700844CA07962300218A
:1008C00000F077B900F0004220F00040C10DC0F305
:1008D000160040F400007F2901DA002070479629B5
:1008E00003DCC1F19601C84001E096398840002A36
:1008F000F4D04042704770B5C1F30A5201F0004590
:100900000024C1F3130140F2FF3341F480119A42F5
:1009100001DA002070BD40F233439A42A2F2334222
:1009200003DC5242FFF700FC00E090402C43F1D082
:10093000404270BD00F0004230F000400AD0C10DCE
:1009400001F56071C0F3160042EA0151C208400788
:1009500011437047002001467047000030B5041E67
:1009600071F1000404DB4FF00044404264EB0101EC
:10097000141E73F1000405DB1C464FF00043524285
:1009800063EB04038B4208BF824230BD30B5041EC6
:1009900071F1000404DB4FF00044404264EB0101BC
:1009A000141E73F1000405DB1C464FF00043524255
:1009B00063EB0403994208BF904230BD01F000434D
:1009C00030B421F0004150EA010206D00A0DA2F530
:1009D0006072C1F31301002A02DC30BC00207047B2
:1009E000440F44EAC104C100E01830BC00EBC2501F
:1009F00000F0D6B830B50B46014600202022012475
:100A000009E021FA02F59D4205D303FA02F5491BDC
:100A100004FA02F52844151EA2F10102F1DC30BDF2
:100A20002DE9F05F0546002092469B468846064623
:100A3000814640241BE02846414647462246FFF7B0
:100A400073FB53465A46C01A914110D311461846BB
:100A5000224600F016F82D1A67EB01084F46224691
:100A60000120002100F00DF817EB00094E41201E77
:100A7000A4F10104DFDC484631462A464346BDE87E
:100A8000F09F202A04DB203A00FA02F10020704790
:100A90009140C2F1200320FA03F3194390407047BC
:100AA000202A06DBCB17203A41FA02F043EAE07332
:100AB00006E041FA02F3D040C2F12002914008431F
:100AC00019467047426842B1016811F8013B23B1F1
:100AD000521EC0E90012184670470121C160881EED
:100AE000704742685AB1C368016843B983688B4252
:100AF00005D0491E521CC0E90012002070474FF07B
:100B0000FF3070470FB4002300B589B00CA90091E5
:100B10000B996FF00042CB601E4B06931E4B079360
:100B20000423CDE901321D4A089202466B4600209B
:100B3000FFF7ECFB09B05DF814FB70B586B0064614
:100B40004FF0FF300091CDE90101002015460C4621
:100B500004903246694604A8FFF7D4FF0246049881
:100B6000211825B108B1084600E020462860049805
:100B700000280DD0002A02DD0098884208D0081B0A
:100B80000094CDE901043246694604A8FFF7BAFF94
:100B900006B070BDC50A0008E30A0008190E000877
:100BA0000029A8BF7047401C490008BF20F0010081
:100BB000704710B4B0FA80FC00FA0CF050EA01045F
:100BC00004BF10BC704749B1CCF1200421FA04F4F1
:100BD00011FA0CF118BF012121430843A3EB0C01CA
:100BE000CB1D4FEA00614FEA102042BF002010BC2D
:100BF000704700EBC35010440029A4BF10BC7047DD
:100C0000401C490008BF20F0010010BC704710B51F
:100C1000141E73F1000408DA401C41F1000192181F
:100C20005B411A4301D120F0010010BD2DE9F04DC8
:100C300092469B4611B1B1FA81F202E0B0FA80F21D
:100C400020329046FFF71DFF04460F4640EA0A0097
:100C500041EA0B0153465A46084313D0114653EA62
:100C6000010019D0C8F140025046FFF75DFA054671
:100C70000E46504659464246FFF703FF084305D04B
:100C8000012004E020463946BDE8F08D00200543F0
:100C900046EAE0762C4337430A986305E40AA0EB62
:100CA00008000022FD0A44EA47540A3002D5002019
:100CB0000146E9E7010510196941DDE90845001918
:100CC0006941BDE8F04DA2E72DE9FE4F81EA03043A
:100CD00004F0004421F0004100944FF0000B23F099
:100CE000004350EA01045ED052EA03045BD0C3F330
:100CF0000A54C1F30A552C44A4F2F3340194A0FB26
:100D00000254C1F3130141F48011C3F3130343F4FC
:100D1000801301FB024400FB034E840A970A44EA55
:100D2000815447EA8357A4FB076802958D0A05FBA7
:100D300007854FEA932C04FB0C542705029D4FEACC
:100D4000065847EA1637B5EB08056EEB070C870E19
:100D5000920E47EA811742EA8312A7FB0201B6EB23
:100D60000B0164EB00042B0D43EA0C335E1844EBDB
:100D70001C50DA465146E7FB0201C5F313044FEA63
:100D80000B3343EA14534FEA0432019C43EA06034F
:100D9000A4F10C040294009CCDE900B4FFF746FFD7
:100DA00003B0BDE8F08F00200146F9E70EB540F230
:100DB000334202920022CDE900221346FFF736FFAC
:100DC00003B000BDC1F30A52C1F3130140F2FF3377
:100DD00041F480119A4202DA00200146704740F245
:100DE00033439A42A2F2334202DC5242FFF79CB9EB
:100DF000FFF747BE064C074D06E0E06840F00103F0
:100E000094E8070098471034AC42F6D3FFF772F924
:100E100098470008B8470008C0B24FF4F05100F0FE
:100E200001B800007F2801D9002208E0064A02EB41
:100E30005002C007127800D1120902F00F020120FF
:100E400090400840704700005647000870B58C1865
:100E500010F8015B15F0070301D110F8013B2A11CE
:100E600006D110F8012B03E010F8016B01F8016BBB
:100E70005B1EF9D12B0705D40023521E0DD401F8B7
:100E8000013BFAE710F8013BCB1A921C03E013F880
:100E9000015B01F8015B521EF9D5A142D8D30020B5
:100EA00070BD0000FFB41E48AA2208230270FF2272
:100EB0004270F2228270C3709DF8002002719DF88A
:100EC000012042719DF8042082719DF80520C271B5
:100ED0009DF8082002729DF8092042729DF80C20AE
:100EE000827200249DF80D20C2720C2225462146F4
:100EF0001B1D06E0465C491C3444E4B22544EDB2B7
:100F0000C9B28B42F6D88454521C4FF6FF738554F5
:100F100004B00349F0BC0348521C01F00BBB0000B5
:100F200038060020B0040020FEE7704772B6FEE7E6
:100F300010B590F821100022022905D00421816308
:100F400080F82020012010BD01680B6823F00E03FB
:100F50000B6001680B6823F001030B6090F84030D0
:100F6000C46B012101FA03F3636080F8211080F85B
:100F70002020104610BD000010B590F8211000246C
:100F8000022903D00421816301243DE001680A683D
:100F900022F00E020A6001680A6822F001020A606B
:100FA0001A4A0168914201D1012121E0174A143205
:100FB000914201D110211BE0144A2832914201D103
:100FC000891515E0114A3C32914201D189140FE094
:100FD0000E4A5032914202D14FF4803108E00B4A60
:100FE0006432914202D14FF4801101E04FF08071E0
:100FF000064A083A5160012180F82110002180F84A
:101000002010416B01B18847204610BD0800024006
:1010100070B5044600F004F90546601C02D004488F
:101020000078044400F0FCF8401BA042FAD370BDE5
:10103000280000202DE9F84FDFF8B891002409F1CD
:10104000040A0AF1040B23460F270BF1040EC9E032
:101050000125A5402A40AA427DD1674ED1F804C09F
:10106000ACEB0608B44532D014DCBCF1030F3AD027
:1010700009DCBCF1000F2AD0BCF1010F1CD0BCF17F
:10108000020F31D11DE0BCF1110F17D0BCF1120FCE
:101090002AD119E0B8F5881F19D006DCB8F5803FD1
:1010A00015D0B8F5801F1FD111E0B8F5001F0ED084
:1010B000B8F5041F18D10AE0CB6815E0CB681B1DFA
:1010C00012E0CB6808330FE0CB680C330CE08B6880
:1010D0002BB1012B4FF0080303D0456104E004233A
:1010E00002E0056100E00023FF2A01D8064601E086
:1010F00000F104064FEA840501D9A5F12005D6F8D0
:10110000008007FA05FC28EA0C0803FA05F548EA0E
:101110000508C6F800804D68ED0062D5374DAE6910
:1011200046F00106AE61AD6924F0030605F0010545
:101130000095334D06EB050CDCF80850A607360F7A
:1011400007FA06F825EA0805DFF8B880404503D11C
:101150004FF0000817E044E0DFF8AC80404502D1D2
:101160004FF001080FE0DFF8A480404502D14FF0B6
:10117000020808E0DFF89880404502D14FF00308EC
:1011800001E04FF0040808FA06F848EA0508CCF830
:1011900008804D68D9F80060ED034D4601D516432F
:1011A00000E096432E604D68DAF80060AD035546C6
:1011B00001D5164300E096432E604D68DBF80060D1
:1011C000ED025D4601D5164300E096432E604D6862
:1011D000DEF80060AD02754601D5164300E0964387
:1011E0002E60641C0D682A46E5407FF431AFBDE8EF
:1011F000F88F0000000401400000111000100240B0
:101200000000014000080140000C014000100140B6
:10121000001401400AB1016170470904FBE70000B6
:10122000014880687047000028000020024881685B
:10123000027811448160704728000020074810B5EB
:10124000016841F010010160032000F075F80F20E3
:1012500000F006F800F024F8002010BD0020024045
:1012600070B50D4D04464FF47A712878B1FBF0F05B
:101270000A490968B1FBF0F000F0ECFA48B9102C0B
:1012800007D200222146501E00F036F800206C6084
:1012900070BD012070BD0000280000203400002037
:1012A0000C4808B5816941F001018161816901F053
:1012B00001010091C16941F08051C161C06900F034
:1012C000805000900448416821F0E06141F00071D5
:1012D000416008BD0010024000000140002809DB09
:1012E00000F01F02012191404009800000F1E02040
:1012F000C0F8001170470000F0B40E4B1B680C469C
:10130000C3F30223C3F10705042D00D90425191DD9
:10131000072901D2002300E0DB1E012606FA05F1B1
:10132000491E214099409E40761E16403143F0BC34
:1013300001F08EBF0CED00E0064900F007020868DE
:101340004FF6FF03184040EA0220034A10430860AA
:10135000704700000CED00E00000FA052DE9F047B1
:101360000F46050061D0434E306800F00700B842D8
:1013700009D2306820F0070038433060306800F050
:101380000700B84251D128683B4C810712D540076D
:1013900003D5606840F4E06060602878000703D5FA
:1013A000606840F4605060606068A96820F0F000F8
:1013B000084360602878C00728D06868012810D0EA
:1013C0002168022810D0890700292EDA616821F0EF
:1013D000030101436160FFF723FF804641F2883932
:1013E0000DE021688903EFE78901EDE7FFF718FFBA
:1013F000A0EB0801494502D90320BDE8F0876068E9
:10140000696800F00C00B0EB810FEFD1306800F09C
:101410000700B8420BD9306820F00700384330602D
:10142000306800F00700B84201D00120E5E72878D5
:10143000400705D56068E96820F4E0600843606013
:101440002878000706D56068296920F4605040EAD2
:10145000C100606000F038F86168084AC1F3031108
:10146000515CC8400649086006480068FFF7F8FE6E
:101470000020C2E700200240001002403E47000862
:10148000340000202C000020044805490068496809
:10149000044AC1F30221515CC84070473400002067
:1014A000001002404E47000804480549006849689A
:1014B000044AC1F3C221515CC84070473400002087
:1014C000001002404E47000812A185B00FC98DE8F8
:1014D0000F0014A0144A006804905168134801F0EA
:1014E0000C03042B10D0082B0ED1C1F38343C90386
:1014F0001DF803000AD5516804AAC1F34041515CAC
:101500000A4A5043B0FBF1F005B070470849484320
:10151000FAE7000002030405060708090A0B0C0D90
:101520000E0F1010010200000010024000127A009D
:1015300000093D002DE9F84F040070D02078C04D1F
:10154000C00749D06868C0F38100012807D06868E7
:10155000C0F38100022809D16868C00306D5286855
:10156000800339D560680028E7D035E06068B0F5C1
:10157000803F0BD010B1B0F5A02F11D0286820F417
:1015800080302860286820F4802002E0286840F439
:1015900080302860606890B1FFF742FE06460AE09E
:1015A000286840F480202860F0E700BFFFF738FE8D
:1015B000801B642873D828688003F7D50CE0FFF7F8
:1015C0002FFE064605E000BFFFF72AFE801B6428B9
:1015D000F0D828688003F7D420789A4E80074FF01F
:1015E00001094FF0000839D5686810F00C0F07D0DA
:1015F0006868C0F38100022809D16868C00306D476
:101600002868800714D52069012808D110E02069D6
:10161000B0B1C6F80090FFF703FE074605E00AE107
:10162000FFF7FEFDC01B0228C4D828688007F7D545
:101630002868616920F0F80040EAC10028600DE0E8
:10164000C6F80080FFF7ECFD074604E0FFF7E8FD71
:10165000C01B022823D828688007F7D42078000709
:101660002CD57948A169D9B1C0F80090FFF7D8FD11
:10167000074604E0FFF7D4FDC01B02280FD8686AB4
:101680008007F7D571484FF4FA510068B0FBF1F0CC
:10169000009000BF0098411E0091FAD20EE080E059
:1016A000C0F80080FFF7BCFD074604E0FFF7B8FD77
:1016B000C01B022875D8686A8007F7D420784007D5
:1016C00060D5E8690027C00008D4E86940F0805080
:1016D000E861E869012700F0805000905C480168EB
:1016E000C90513D40168834641F480710160FFF796
:1016F00097FD824606E000BFFFF792FDA0EB0A00CF
:1017000064284ED8DBF80000C005F5D5E068012854
:101710000AD008B1052813D0286A20F001002862F9
:10172000286A20F0040002E0286A40F001002862E4
:10173000E06841F2883B98B1FFF772FD82460BE00A
:10174000286A40F004002862EEE700BFFFF768FD5A
:10175000A0EB0A0159455AD8286A8007F6D50CE053
:10176000FFF75EFD824605E0FFF75AFDA0EB0A0198
:1017700059454CD8286A8007F6D41FB1E86920F093
:101780008050E861E06988B36968C1F3810102298A
:1017900044D00228C6F8608004D0FFF741FD04461B
:1017A00038E034E0FFF73CFD074604E0FFF738FD82
:1017B000C01B02282BD828688001F7D4206AB0F516
:1017C000803F05D16868A16820F400300843686054
:1017D000D4E908010843696821F47411084368607A
:1017E000C6F86090FFF71CFD044606E025E000BF48
:1017F000FFF716FD001B022809D828688001F7D5DD
:101800001BE000BFFFF70CFD001B022802D90320DC
:10181000BDE8F88F28688001F4D40EE00128F7D0E5
:101820006868226A00F48031914204D1616A00F450
:101830007010884201D00120EAE70020E8E70000AC
:101840000010024000004242800442423400002066
:101850000070004010B5401EB0F1807F01D3012020
:1018600010BD4FF0E02460610F21601701F0F0FC23
:101870000020A06107202061002010BD7047704744
:1018800010B590F83C20012A22D0012280F83C209B
:10189000CA688C6822F4407222434C6822F4806249
:1018A00022430C6822F4006222430C6922F4805225
:1018B00022434C6922F400522243C969002322F4D6
:1018C00080420A4301684A6480F83C30002010BD21
:1018D000022010BD70B590F83C20012A26D00124CA
:1018E00080F83C40022280F83D2003685A689D68D9
:1018F00022F070060A6832435A600D4B02689A4221
:1019000008D0B2F1804F05D00A4B9A4202D00A4B60
:101910009A4204D1496825F080031943916080F808
:101920003D40002180F83C10084670BD022070BD8B
:10193000002C0140000400400008004010B50400E5
:1019400003D094F83D0010B107E0012010BD002045
:1019500084F83C00204600F01FF8022084F83D0087
:10196000211D206801F0A8F9012084F8460084F8C0
:101970003E0084F83F0084F8400084F8410084F879
:10198000420084F8430084F8440084F8450084F859
:101990003D00002010BD000008B500680B498842DA
:1019A00012D10B48816941F4006181618069002294
:1019B00000F40060009011461920FFF79DFCBDE87F
:1019C00008401920FFF78ABC08BD0000002C014028
:1019D0000010024090F83D10012901D0012070470D
:1019E000022180F83D100168CA6842F00102CA6015
:1019F00000680B49884208D0B0F1804F05D00949F2
:101A0000884202D00849884204D1816801F0070168
:101A1000062903D0016841F00101016000207047F0
:101A2000002C0140000400400008004070B504464E
:101A300090F83C00012817D0012584F83C50022082
:101A400084F83D002068826822F0770222F47F4209
:101A500082600868502830D00DDC20284DD005DC8D
:101A600098B310283BD148E0022070BD302844D004
:101A7000402834D139E0602828D0702806D0B0F54D
:101A8000805F2CD0B0F5005F29D10AE0CB68D1E9A6
:101A90000121206801F053F92068816841F0770145
:101AA00009E0CB68D1E90121206801F048F92068FC
:101AB000816841F48041816011E0CA68496820680A
:101AC00001F0F2F95021206807E016E0CA68496881
:101AD000206801F0FAF96021206801F03AF984F8F1
:101AE0003D50002084F83C0070BDCA6849682068F9
:101AF00001F0DAF940212068EFE72268014610463C
:101B0000EBE72DE9F0410D46040003D094F83D00C9
:101B100018B108E00120BDE8F081002084F83C0005
:101B2000204600F041F8022084F83D0020688168DA
:101B300044F2070291438160211D206801F0BCF846
:101B4000226890689169166A2B68AF69034340F276
:101B50000330814341EA0721A868EF6908434FF643
:101B6000FC418843E96840EA0720014328692F6A5D
:101B7000000140EA0730084369686D6926F02206D3
:101B800046EA0515294393602268906154F8460B94
:101B90000162012004F81F09E0752076E0762077C5
:101BA000A0750020B7E7000010B586B000210091B5
:101BB000019102910391234C03682348C021012223
:101BC000A3421CD1C36943F00203C361C36903F09C
:101BD00002030493836943F00403836180690091E5
:101BE00000F004000490029269461848FFF722FAB8
:101BF000002211461D20FFF77FFB1D201EE0144C24
:101C0000A3421DD1C36943F00403C361C36903F058
:101C100004030493836943F008038361806900919E
:101C200000F008000490029269460A48FFF702FAA1
:101C3000002211461E20FFF75FFB1E20FFF74EFB20
:101C400006B010BD00040040001002400008014032
:101C500000080040000C014070B590F83E6004465A
:101C600090F83F5090F8423090F84320022021B184
:101C700004290ED0012E1BD114E0012E18D1012B06
:101C800016D184F83E0084F8420001220021206829
:101C900020E0012D0CD1012A0AD184F83F0084F8FC
:101CA000430014E0012D03D1012B01D1012A01D001
:101CB000012070BD84F83E0084F83F0084F84200A3
:101CC00084F8430001220021206801F02BF8012252
:101CD0000421206801F026F82068016841F0010124
:101CE0000160002070BD704770B50446006801694E
:101CF0004FF00005C943890715D4C168C943890756
:101D000011D4E91E016101202077206880698007D5
:101D1000204602D0FFF7E7FF04E000F0BFF82046BE
:101D200000F04EF9257720680169C943490717D4A7
:101D3000C168C943490713D46FF00401016102204F
:101D400020772068806910F4407F204602D0FFF79A
:101D5000CAFF04E000F0A2F8204600F031F9257730
:101D600020680169C943090716D4C168C943090736
:101D700012D46FF008010161042020772068C06947
:101D80008007204602D0FFF7AEFF04E000F086F89F
:101D9000204600F015F9257720680169C943C90676
:101DA00017D4C168C943C90613D46FF0100101618B
:101DB000082020772068C06910F4407F204602D0B8
:101DC000FFF791FF04E000F069F8204600F0F8F812
:101DD000257720680169C943C90708D1C168C9438B
:101DE000C90704D1891E0161204600F039F9206835
:101DF0000169C943090609D4C168C943090605D464
:101E00006FF0800101612046FFF738FD206801690D
:101E1000C943490609D4C168C943490605D46FF0CE
:101E200040010161204600F081F920680169C94341
:101E300089060BD4C168C943890607D46FF0200115
:101E400001612046BDE87040FFF719BD70BD00007C
:101E500000B585B0002100910191029103910068C5
:101E60000B49884212D10B48816941F0040181611C
:101E70008069694600F0040004904FF410600090FF
:101E80000220019003900448FFF7D4F805B000BD8C
:101E9000002C01400010024000080140704770B55E
:101EA000044690F83C000D4601280AD0012084F831
:101EB0003C0042B1042A18D0082A2AD00C2A4DD15D
:101EC00039E0022070BD206800F04CFF2068816975
:101ED00041F0080181612068816921F0040181617C
:101EE000206881692A69114311E0206800F062FFCF
:101EF0002068816941F4006181612068816921F471
:101F000080618161206881692A6941EA02218161D9
:101F100024E0206800F07AFF2068C16941F00801E0
:101F2000C1612068C16921F00401C1612068C169F3
:101F30002A69114311E0206800F094FF2068C1690C
:101F400041F40061C1612068C16921F48061C1610F
:101F50002068C1692A6941EA0221C161002084F830
:101F60003C0070BD10B5040003D094F83D0010B1E2
:101F700007E0012010BD002084F83C00204600F05E
:101F80001EF8022084F83D00211D206800F094FE18
:101F9000012084F8460084F83E0084F83F0084F86D
:101FA000400084F8410084F8420084F8430084F83B
:101FB000440084F8450084F83D00002010BD7047BF
:101FC0007047000010B50446022249B104290ED022
:101FD000082913D094F84100012816D0012010BD23
:101FE00094F83E000128F9D184F83E200FE094F8DF
:101FF0003F000128F2D184F83F2008E094F8400027
:102000000128EBD184F8402001E084F8412001222E
:10201000206800F087FE0F492068884203D1426C97
:1020200042F4004242642068884208D0B0F1804FF8
:1020300005D00949884202D00849884204D1816804
:1020400001F00701062903D0016841F00101016098
:10205000002010BD002C014000040040000800409A
:102060002DE9F05F2A4988424FD12A4C0521E088AA
:10207000401C80B2B0FBF1F2E08001FB12000028AE
:1020800043D125480268506A2449404200B260802A
:102090000B685B6A00251EB2A680556209684D6216
:1020A000FEF707FC1E4F3946FEF7A4FAFEF742FC86
:1020B000DFF870904FF0333842464B46FEF773FB23
:1020C000DFF864A000225346FEF76DFB6FF0010BB2
:1020D0005A46FEF7D7FBFEF771FCA0603046FEF7CC
:1020E000E8FB3946FEF786FAFEF724FC42464B46EB
:1020F000FEF759FB00225346FEF755FB5A46FEF702
:10210000C1FBFEF75BFCE060E580BDE8F09F0000EE
:10211000D8030020180000206804002020040020BC
:102120000000C84233332340000026407047704708
:1021300070470000F8B5026804461068D16853691A
:1021400010F00F0F4FF0000553D003F0010601F41B
:10215000907737435FD0C20705D0CA0503D5226CFC
:1021600042F001022264420705D5DA0703D0226C4F
:1021700042F002022264820705D5DA0703D0226CFE
:1021800042F004022264020707D501F02002324324
:1021900003D0226C42F008022264226C002A34D060
:1021A000800604D5880602D5204600F0C0FE2068CF
:1021B0004069216CC0F38010090700D430B3204679
:1021C00000F09DFE2068416949061BD5416921F058
:1021D00040014161A06BA8B158494163A06BFEF773
:1021E000CBFE002811D0A06B416B01B0BDE8F040E0
:1021F000084783060FD58B060DD52046BDE8F8406D
:1022000000F095BE2046FFF793FFF8BD2046FFF78C
:102210008FFF2564F8BD266B2023012E52D1C60600
:1022200050D5CE064ED510685068009050694006D3
:102230002AD5A16B086840680004000CEAD0A68D7E
:102240008642E7D9E0858869202818D0D06820F434
:102250008070D0602068416921F0010141612068EF
:10226000416921F04001416184F83E3025632068D6
:10227000C16821F01001C160A06BFEF759FEA08D6E
:10228000E18D401A81B219E0A08DE18D401A81B232
:10229000E08D0028BED00029BCD0D06820F490701A
:1022A000D0602068426922F00102426184F83E3029
:1022B00025632068C26822F01002C2602046FFF742
:1022C00036FFF8BD05062BD50D0629D594F83D003F
:1022D0002128F6D1A068B0F5805F01D12069B0B1A6
:1022E000206A411C2162216800784860E08C401E11
:1022F0000004000CE084E4D12068C16821F0800172
:10230000C1602068C16841F04001C160F8BD206A29
:102310000088C0F308005060206A801C2062E5E756
:102320004006F3D54806F1D5D168204621F040019A
:10233000D16084F83D3000F056F9F8BDEF2E00086A
:1023400070B5040004D094F83D00002510B106E0FB
:10235000012070BD84F83C50204600F023F8242072
:1023600084F83D002068C16821F40051C160204616
:1023700000F038FE2068016921F490410161206875
:10238000416921F02A0141612068C16841F400518E
:10239000C1602564202084F83D0084F83E000020C0
:1023A00070BD000070B586B00024009401940294C2
:1023B00003942B4E03682B49022003222A4DB3427B
:1023C00029D18B6943F480438B618B6903F480438B
:1023D00004938B6943F004038B618969039201F0D4
:1023E000040104910102CDE9001069462846FEF778
:1023F00021FE2815CDE90004694628460294FEF71F
:1024000019FE002211462520FEF776FF2520FEF753
:1024100065FF06B070BD154EB342FAD1CB6943F4E7
:102420000033CB61CB6903F4003304938B6943F031
:1024300004038B618969039201F004010491042172
:10244000CDE9001069462846FEF7F4FD0820CDE9E5
:102450000004694628460294FEF7ECFDD9E7000027
:1024600000380140001002400008014000440040D4
:102470002DE9F84F044690F83E009A4616460D4660
:10248000202853D1FDB1F6B194F83C0001284DD07D
:10249000012084F83C0000272764222084F83E00B5
:1024A0002763FEF7BDFEA6858146E685A0684FF44A
:1024B0008058404501D1206940B12E465FF00005AB
:1024C00084F83C7027E00120BDE8F88F0026F7E78C
:1024D0004B46002220212046CDF800A000F0DEFD72
:1024E00008B10320F0E726B1A06840451BD038B101
:1024F00008E020684068C0F3080025F8020B07E0F8
:10250000206980B12068406800F07F0006F8010B68
:10251000E08D401EE085E08D0028D9D1202084F890
:102520003E000020D0E720684068EFE70220CBE7BC
:10253000704700002DE9F843044690F83D001F461F
:1025400016460D4620284CD1C5B1BEB194F83C00CA
:10255000012846D0012084F83C004FF00008C4F860
:102560004080212084F83D00FEF75AFEA684814673
:10257000E684A068B0F5805F03D004E00120BDE8E8
:10258000F883206928B12E465FF0000584F83C806E
:102590000EE00026FAE78021204600F07FFDA0B97A
:1025A000AEB116F8010B21684860E08C401EE08453
:1025B000E08C4B464FF0000200970028EBD14FF023
:1025C0004001204600F06AFD30B10320D7E735F81E
:1025D000020BC0F30800E6E7202084F83D0000204D
:1025E000CDE70220CBE77047FEE7000070B501227F
:1025F0000B4D540221462846FEF70CFE012216021E
:1026000031462846FEF706FE002231462846FEF7F0
:1026100001FE21462846BDE870400022FEF7FABDC3
:10262000000C014070B5094C012251022046FEF712
:10263000F1FDA515002229462046FEF7EBFD2946AF
:102640002046BDE870400122FEF7E4BD000C0140C9
:1026500070B50122064D540221462846FEF7DAFDE8
:1026600021462846BDE870400022FEF7D3BD000099
:10267000000C01402DE9F04786B000252D4800955B
:10268000019502950395816941F01001816181698D
:1026900001F010010491816941F02001816181699B
:1026A00001F020010491816941F004018161816997
:1026B00001F004010491816941F0080181618069A0
:1026C000DFF8749000F008004FF4005404900022EA
:1026D00021464846FEF79EFDDFF860A04FF47047A4
:1026E000002239465046FEF795FD4FF4407801220E
:1026F00041465046FEF78EFD009401AA01240226B1
:1027000082E8700069464846FEF794FC01AA0097EB
:1027100082E8700069465046FEF78CFCCDE90084E3
:10272000CDE9024669465046FEF784FC06B0BDE896
:10273000F08700000010024000100140000C014032
:1027400010B596B000240F94109411941294139421
:102750001C2168461494FDF716FD202107A8FDF7FB
:1027600012FD2D482B49016040F29F51C0E9011430
:102770006321C0E903148021C0E90541FFF7DEF8B9
:1027800008B1FEF7D3FB4FF480500F900FA92248F9
:10279000FFF74CF908B1FEF7C9FB1F48FFF7E2FB52
:1027A00008B1FEF7C3FB139413A91B481494FFF759
:1027B00091F808B1FEF7BAFB602000903220CDE915
:1027C0000104039404940594002269461248069477
:1027D000FFF765FB08B1FEF7A9FB0C2269460E481E
:1027E000FFF75DFB08B1FEF7A1FB0794089409947D
:1027F0004FF400500A94CDE90B4007A906480E9407
:10280000FFF73EF808B1FEF791FB0348FFF720FB06
:1028100016B010BD002C0140D803002010B58CB0BC
:1028200024216846FDF7AFFC00241648099414499A
:102830000A94C0E900144FF6FF71C0E90241046137
:1028400084610320CDE900040120CDE902040621C2
:102850000491CDE90540CDE9074169460948FFF7F4
:1028600050F908B1FEF762FB099409A905480A94DA
:10287000FFF730F8002801D0FEF758FB0CB010BD70
:10288000000400402004002010B58CB024216846CC
:10289000FDF779FC00241648099414490A94C0E90C
:1028A00000144FF6FF71C0E9024104618461032006
:1028B000CDE900040120CDE9020406210491CDE90F
:1028C0000540CDE9074169460948FFF71AF908B103
:1028D000FEF72CFB099409A905480A94FEF7FAFFB4
:1028E000002801D0FEF722FB0CB010BD000800400C
:1028F000680400200C4810B50A4901604FF4E1312A
:102900004160002181600C22C160C0E90412816134
:10291000C161FFF715FD002803D0BDE81040FEF7A8
:1029200005BB10BD00380140B00400200C4810B5B4
:102930000A4901604FF4E1314160002181600C22BD
:10294000C160C0E904128161C161FFF7F9FC002890
:1029500003D0BDE81040FEF7E9BA10BD00440040C6
:10296000F4040020FEE700002DE9F041C1F100056C
:10297000224E44424FF400514FF4805705D50022B7
:102980003046FEF747FC012204E001223046FEF704
:1029900041FC002239463046FEF73CFC4FF48041B2
:1029A0004F00002D05DA00223046FEF733FC0122ED
:1029B00004E001223046FEF72DFC00223946304665
:1029C000FEF728FC0E486FF06201002C03DA8C42FF
:1029D00004DA0C4602E0632C00DD632402685463D1
:1029E000002D06DA8D4200DA0D4600680564BDE868
:1029F000F081632DF9DD6325F7E70000000C01404D
:102A0000D8030020FEE770B50024002104F1B000D7
:102A100000F0C6F80021084600F0C2F8002110209E
:102A200000F0BEF800250121002000F0B9F86D1C6F
:102A3000EDB2802DF7D3641CE4B2082CE5D370BD51
:102A400010B54FF44870FEF7E3FA0021AE2000F015
:102A5000A7F80021084600F0A3F80021102000F09C
:102A60009FF80021402000F09BF80021B02000F0EA
:102A700097F80021812000F093F80021FF2000F05A
:102A80008FF80021A12000F08BF80021A62000F093
:102A900087F80021A82000F083F800213F2000F0F3
:102AA0007FF80021C82000F07BF80021D32000F03F
:102AB00077F80021084600F073F80021D52000F0D7
:102AC0006FF80021802000F06BF80021D82000F082
:102AD00067F80021052000F063F80021D92000F0FC
:102AE0005FF80021F12000F05BF80021DA2000F00F
:102AF00057F80021122000F053F80021DB2000F0ED
:102B00004FF80021302000F04BF800218D2000F01C
:102B100047F80021142000F043F80021BDE81040E0
:102B2000AF2000F03DB810B50A460446002102F17E
:102B3000B00000F035F8102040EA1410002100F039
:102B40002FF804F00F00BDE81040002100F028B875
:102B50002DE9F04115460E460746FFF7E4FF0F4802
:102B6000002400EB85150121285D00F019F8641C94
:102B7000E4B2102CF7D3761CF1B23846FFF7D3FF3E
:102B800000242819012190F8200000F009F8641CA5
:102B9000E4B2102CF5D3BDE8F0810000380000202D
:102BA000C0B209B100F02DBB00F014BB06480021F3
:102BB000064AC0E900218160054AC160C0E90412EB
:102BC000044AC0E9062170479C06002000004040EE
:102BD000000020410000A0402DE9F04104460068BB
:102BE000FDF702FD0546A06029462069FDF7AAFC15
:102BF000206107462846E168FDF7F6FCE169FDF72C
:102C0000F9FC06463946A069FDF7F4FC074629465B
:102C10006069FDF7EFFC3946FDF794FC3146FDF79E
:102C200091FCE5606060BDE8F08170477047FEF799
:102C3000FDBA30B58FB028216846FDF7A4FA1421FB
:102C40000AA8FDF7A0FA01210804CDE9001000242C
:102C5000029402250491CDE907504FF4E010099049
:102C60006846FEF767FC08B172B6FEE70F20CDE9B3
:102C70000A054FF48060CDE90C4002210AA80E94A9
:102C8000FEF76CFB002801D072B6FEE70FB030BD36
:102C9000704700000148FFF727B80000D803002064
:102CA0000148FFF721B80000200400200148FFF789
:102CB0001BB8000068040020F0B50268164B174CE2
:102CC000174D4FF08047984205D0B84203D0A0423C
:102CD00001D0A84203D122F070064A6832439842DC
:102CE00005D0B84203D0A04201D0A84203D122F4BB
:102CF0004074CA6822434C6922F080022243026079
:102D00008A68C2620A688262984201D109690163D5
:102D100001214161F0BD0000002C01400004004091
:102D20000008004010B501F01F030121046A99401A
:102D30008C430462016A9A401143016210BD10B5D0
:102D4000846842EA032224F47F440A4322438260D7
:102D500010BD826822F070020A4342F007018160D0
:102D60007047000030B5026A22F001020262026A76
:102D70004368846924F073050C682C4322F0020533
:102D80008A682A430A4DA8420BD122F00805CA6876
:102D900023F440732A434D6922F004021D438B69DA
:102DA0002B434360846149684163026230BD000087
:102DB000002C014030B5026A22F010020262026A61
:102DC000436884690D6824F4E64444EA05248D6868
:102DD00022F0200242EA05120B4DA8420ED1CD6826
:102DE00022F0800242EA05124D6923F4406343EA6F
:102DF00085038D6922F0400243EA850343608461C4
:102E000049688163026230BD002C014030B5026A1E
:102E100022F480720262036A4268C46923F4007378
:102E200024F073050C682C438D6843EA05230C4D90
:102E3000A8420ED1CD6823F4006343EA05234D690F
:102E400022F4405242EA05128D6923F4806342EA7B
:102E500005124260C4614968C163036230BD00006D
:102E6000002C014030B5026A22F480520262046AEA
:102E70004268C3690D6823F4E64343EA05238D687D
:102E800024F4005444EA0534064DA84204D14D69A7
:102E900022F4804242EA85124260C36149680164BB
:102EA000046230BD002C014010B5036A046A24F0AE
:102EB00001040462846924F0F00444EA021423F05B
:102EC0000A020A438461026210BD10B5036A23F04E
:102ED000100303628369046A23F4704343EA0232F5
:102EE00024F0A00343EA01118261016210BD10B514
:102EF000406A0021C185C184FFF71AF910BD01683D
:102F0000CA6822F49072CA6001684A6922F001021C
:102F10004A61016B012904D10168CA6822F01002DC
:102F2000CA60202180F83E1000210163704708B577
:102F300090F83E10222901D0022008BD82684FF48B
:102F400080539A4201D1016921B1816A9A421BD012
:102F50004AB10AE00268816A5268C2F308020A8034
:102F6000816A891C08E0026972B10268526802F045
:102F70007F020A70816A491C8162C18D491E090461
:102F8000090CC18503D019E002685268F1E70168B5
:102F9000CA6822F02002CA600168CA6822F48072FE
:102FA000CA6001684A6922F001024A61202180F862
:102FB0003E10016B012903D0FFF7BAFA002008BDCB
:102FC000002101630168CA6822F01002CA6001682A
:102FD0000A68D20602D50A6849680091818DFFF718
:102FE000A6F8EBE770B5044600680169E26821F4D1
:102FF0004051114301612169A06808436169084398
:103000002168CA6841F20C639A430243CA6020688F
:103010004169A26921F44071114341611E49206850
:10302000884202D1FEF740FA01E0FEF72DFA00EBEC
:10303000C00101EB0012606864218000B2FBF0F374
:10304000B3FBF1F36FF018067343B2FBF0F5B2FB7C
:10305000F0F605EB8305322303EB0515B5FBF1F51F
:10306000B6FBF1F605F0F00505EB0615B2FBF0F640
:10307000B2FBF0F0B0FBF1F06FF01802504306EB3A
:10308000800003EB0010B0FBF1F0216800F00F00AE
:103090002844886070BD0000003801402DE9F041EF
:1030A000984617460E460446069D1DE0681C1BD038
:1030B0002DB1FEF7B5F8A0EB0800A84214D920689E
:1030C000C16821F4D071C1602068416921F001011B
:1030D0004161202084F83D0084F83E00002084F8FF
:1030E0003C000320BDE8F0812068006836EA00005B
:1030F00004D00020B842D9D00020F3E70120F9E73E
:103100000D4810B500680068800610D50B4A10788D
:10311000FF2801D3002010700949C0B20144401CAF
:1031200010704FF47A7301220348FFF7A1F9BDE84C
:1031300010400148FEF7FEBFB00400201800002038
:1031400038050020FEE70000094910B50A78094853
:10315000002332B10488A24206D10B700380002004
:1031600010BD0380012010BD0280022010BD0000B0
:1031700018000020140000202DE9F041144F0446EF
:103180004FF40076002231463846FEF743F800251A
:103190004FF4807804F08000802816D00022414649
:1031A0003846FEF737F86006040E012231463846ED
:1031B000FEF730F8002231463846FEF72BF86D1C3A
:1031C000EDB2082DE6D3BDE8F0810122E7E700006B
:1031D000000C014010B50446FFF708FA7820FFF70D
:1031E000CBFFFFF735FA0020FFF7C6FFFFF730FAF5
:1031F0002046FFF7C1FFFFF72BFABDE81040FFF7AD
:1032000011BA10B50446FFF7F1F97820FFF7B4FFC3
:10321000FFF71EFA4020FFF7AFFFFFF719FA20462D
:10322000FFF7AAFFFFF714FABDE81040FFF7FAB95D
:103230000FB4054B10B503A9044A029800F048F9F1
:1032400010BC5DF814FB0000753D0008CC030020A5
:103250000907090E002804DB00F1E02080F80014C3
:10326000704700F00F0000F1E02080F8141D704757
:1032700030B528B1144C031F002021680A4605E030
:10328000084630BD9A4203D810465268002AF9D148
:10329000002800D041680BD00468A3EB0005A542CC
:1032A00004D11B681C440346046002E0436000E054
:1032B00023603AB11C68D51AA54203D115682C4485
:1032C0001C6052685A6030BDD00300202DE9F047E1
:1032D00082460F4C10480D4E0E4F001B4FF0000859
:1032E00020F007054FF0010900221146504600F07A
:1032F0008BFD002802D1306810B10020BDE8F087B6
:103300003C60C4E90058C6F80090EDE7D403002003
:10331000C4060020D0030020C00E002002E008C830
:10332000121F08C1002AFAD170477047002001E03F
:1033300001C1121F002AFBD1704700002DE9FF5F79
:1033400082B00021DDE90430020DDDF840B0034316
:1033500018D044F61050A2F2FF32424315141198CF
:1033600001281FD0A5EB0B00401C5FEA000A4FF0BC
:1033700000064E4FDFF83891B046504615D5CAF1D9
:10338000000413E0119801244AA3012801D16FEA37
:103390000B010298119AC0E90031C0E9024206B05F
:1033A000BDE8F09FCBF10000DFE704460021404A72
:1033B000491842EB0450CDE9001012E0E00707D0B5
:1033C00032463B4640464946FDF77EFC80468946EC
:1033D00032463B4610461946FDF776FC06460F4638
:1033E0006410002CEAD1DDE90401DDE90023BAF123
:1033F000000F06DAFDF768FC42464B46FDF764FC19
:1034000005E0FDF7D0F942464B46FDF7CCF90446FE
:103410000E460022284BFDF7B9FA03D84FF0FF30D3
:10342000014607E00022254B20463146FDF714F9FE
:10343000FDF7C8FC102409E0002C0ADB0A22002357
:10344000FDF7EEFA039B30321A55641E50EA010272
:10345000F2D1641C039AC4F111031444119A012A95
:1034600003D0012208430DD10AE0084304D0002014
:103470004FF0110B119072E7A3EB0B056D1E0DE0E1
:103480005B4504DD4FF0000205F1010504E003DABD
:103490004FF00002A5F10105002AECD00298119925
:1034A000C0E90231C0E9004579E70000000014409E
:1034B0000000F03F300000000000F0430000E03F5B
:1034C00030380A2801D201207047002070470000E0
:1034D0002DE9FF4F95B09A46884606460025EEE155
:1034E000252877D100242746F94A0121039400E0DA
:1034F000044316F8013F203B01FA03F01042F7D1D4
:1035000030782A2811D06FF02F033078A0F13002E4
:10351000092A16D8039A44F0020402EB820203EB54
:1035200042021044761C0390EFE758F8042B0392F4
:10353000002A03DA504244F40054039044F0020499
:10354000761C30782E2816D116F8010F44F00404AA
:103550002A280DD06FF02F023078A0F13003092B0C
:1035600009D807EB870302EB4303C718761CF3E780
:1035700058F8047B761C30786C280FD006DC4C2879
:1035800017D068280DD06A2814D104E0742810D010
:103590007A280FD10DE044F400140AE044F48014BA
:1035A00001E044F440147278824202D104F58014A0
:1035B000761C761C307866280BD013DC582877D020
:1035C00009DC002875D04528F6D04628F4D04728D5
:1035D0001AD193E118E0632835D0642879D06528A2
:1035E00012D18BE1702873D008DC6728F1D06928EC
:1035F0006FD06E280DD06F2806D1ACE073282CD088
:10360000752874D0782853D05246179990476D1C6E
:1036100054E1C4F30250022809D003280DD0D8F891
:10362000001004280DD00D6008F1040846E1D8F818
:103630000010EA17C1E90052F6E7D8F800100D8033
:10364000F2E70D70F0E718F8041B8DF80010002069
:103650008DF80100EB46012003E058F804BB4FF061
:10366000FF3061074FF0000102D40DE009F10101C4
:103670008946B9420FDA8145F8DB1BF809100029A9
:10368000F4D108E009F1010189468142FADB1BF817
:1036900009100029F6D103985346A0EB09072146EB
:1036A0003846179A00F080FA284400EB090507E035
:1036B00044E008E10DE01BF8010B524617999047D2
:1036C000B9F10109F7D2534621463846179AF2E07C
:1036D00039E00A21C4F302524FF0000B0091022A94
:1036E00006D058F8040BC117032A09D00AE023E0DA
:1036F00008F1070020F00702F2E80201904605E019
:1037000000B2C117042A01D140B2C117002906DA5C
:103710000A460021404261EB02012D2202E022050F
:1037200004D52B228DF80420012203E0E20701D00A
:103730002022F7E7914657E00A2100E010214FF0E0
:10374000000B00910BE010214FF0000B44F004043B
:103750000827009103E008204FF0000B0090C4F30D
:103760000252022A05D058F8040B0021032A08D07F
:1037700008E008F1070020F00702F2E80201904695
:1037800003E080B2042A00D1C0B24FF00009220742
:103790002AD53278702A07D0DDF800C08CF0100CE2
:1037A0005CEA0B0C05D00EE040228DF804200122CB
:1037B00008E050EA010306D030238DF804308DF87C
:1037C000052002229146009B83F0080353EA0B0375
:1037D0000AD150EA010201D1620705D530228DF8E5
:1037E00004204FF001097F1E3278582A04D039A2F4
:1037F0000C920CAA02920BE03BA2F9E75B46009AFE
:10380000FDF70EF90C9B9B5C029A521E02921370FC
:1038100050EA0102F2D1029804A9081A00F1200B23
:10382000600702D524F4803400E001275F4502DD03
:10383000A7EB0B0000E0002000EB0B0100900398C9
:103840004944401A0390E00306D453462146179A90
:10385000039800F0A9F90544002706E001A85246A4
:10386000C05D179990476D1C7F1C4F45F6DBE00348
:103870000CD553462146179A039800F095F9054454
:1038800004E030205246179990476D1C0099481E5D
:1038900000900029F5DC08E0029802995246007871
:1038A000491C0291179990476D1CBBF10001ABF1C7
:1038B000010BF1DC5BE100F065F90544761C307822
:1038C00000287FF40DAE19B02846BDE8F08F000047
:1038D00009280100303132333435363738396162E6
:1038E00063646566000000003031323334353637AA
:1038F000383941424344454600000000600700D487
:10390000062708F1070020F00700F0E802238046B0
:1039100003F0004C5FEA0C0001D097A009E02005FD
:1039200001D596A005E0E00701D095A001E0AFF237
:103930004C001390307823F0004365280CD006DC4F
:10394000452809D046281DD047287FD13BE066286E
:1039500018D067287AD136E00021112F01DB112021
:1039600000E0781CCDE9000104A90CA8FFF7E6FCF3
:10397000DDE90D010C9A4FF0000B07F101091092DF
:1039800000914EE04FF000400097CDE9011004A9EE
:103990000CA8FFF7D3FCDDE90D020C9B0F994FF04B
:1039A000000B91461093009211B9791C00EB0109AC
:1039B000B7EB090003D4C0F1FF3B07F10109A9EB04
:1039C0000700019042E0012F00DA01270021112FAA
:1039D00001DD112000E03846CDE9000104A90CA862
:1039E000FFF7ACFCDDE90D010C9A00914FF0000BE4
:1039F000B946109221070FD4009A4A4503DA91463E
:103A000001E0A9F10109B9F1010F05DD109AA9F151
:103A10000101515C3029F4D0B84202DA10F1040FF0
:103A200003DA0121CDE9011010E0002803DC834412
:103A3000A9EB000102E0411C494500DD8946A0EBED
:103A40000B00401C01904FF000400290200705D46D
:103A50000198484502DB4FF0FF30019000208DF8BF
:103A60004B0002980DF14B07B0F1004F25D002201A
:103A70000C902B200D90029800280CDA4042029006
:103A80002D200D9007E00A210298FCF7B3FF30319A
:103A9000029007F8011D0C99481E0C900029F2DCD9
:103AA00002980028EFD1791E0D980870307800F048
:103AB000200040F0450007F8020D11A8C01BC01DF2
:103AC00002901398007800B1012000EB09010198E1
:103AD00001EBE071029801440398401A401E0390E4
:103AE000E00306D453462146179A039800F05CF889
:103AF00005441398007818B15246179990476D1CE9
:103B0000E00323D553462146179A039800F04CF85A
:103B100005441BE0BBF1000F07DB0098584504DDAE
:103B20001098179910F80B0001E0179930205246B1
:103B3000904701980BF1010B401E05F10105019022
:103B400004D12E205246179990476D1CB9F10001FF
:103B5000A9F10109DEDC05E017F8010B52461799BF
:103B600090476D1C0299481E02900029F4DC5346D0
:103B70002146179A03989EE62D0000002B000000B6
:103B8000200000002DE9F041044600251E4617469E
:103B9000880404D405E039462020B0476D1C641E1B
:103BA000F9D52846BDE8F0812DE9F041044600250D
:103BB0001E469046C80301D5302700E02027880420
:103BC00004D505E041463846B0476D1C641EF9D562
:103BD0002846BDE8F08110B530B1036823B1D0E9C3
:103BE0000121914201D204E0002010BD491C8160F6
:103BF00020B1914202D25C5C202CF7D99142F4D1E1
:103C0000491E816010BD000070B504460F4E19E0DA
:103C1000A0892568C0050AD4A06820B1FFF7F4FF89
:103C2000A089C00503D4206908B171688847A089BC
:103C3000800503D4206A08B17168884771682046FE
:103C400088472C46002CE3D170BD0000C003002043
:103C5000002200F09BB810B50168282088470400B6
:103C600002D02821FCF78FFA204610BD0022114611
:103C700000F06EB82DE9F04788B00F4604469A462A
:103C800016461C216846FCF77EFA2F480025002CBA
:103C90000560456055D08146E7B3CDE90047029500
:103CA000D9E90212D9F810000491CDE9052009F1F3
:103CB0000800FFF7D0FF5FEA00082BD000986F469E
:103CC00008B1029808B100270BE00198042808D930
:103CD00003221EA10098FCF776FA10B90298C01CC6
:103CE00002903846FFF777FF0146404600F0FCFBA4
:103CF00068B1BAF1000F13D06846FFF76CFFDDE939
:103D00000101814203D202990098405C40B14046D3
:103D1000FFF77AFFDDE9011088420AD205460BE081
:103D20001EB10299009808443060404608B0BDE8D2
:103D3000F087081E00D0451E0EB160193060C9E939
:103D400000450020F2E70000B8030020EFBBBF00F1
:103D500070B515460E46040009D0FCF71FFA411C49
:103D60002B4632462046BDE87040FFF783BF002057
:103D700070BD000013B54FF6FF730122694602487B
:103D8000FEF7D8FB00981CBDB00400202DE9F041DF
:103D90008846A8B3B8F1000F33D084680AB90AE0A6
:103DA00024686CB3216A59B34046FCF7FEF9002839
:103DB000F6D120E024681CB3266A5FEA0805F9D032
:103DC000002EF7D0B54218D002E098B16D1C761CD9
:103DD0002878FCF7B9F907463078FCF7B5F987423F
:103DE0002878F2D0FCF7B0F905463078FCF7ACF94A
:103DF0008542DFD124B1206A10B12046BDE8F081B0
:103E0000FFE70020FAE700002DE9F0410B3020F039
:103E10000706104D19E02068B04215D3B0420AD908
:103E2000871B201DD4F80480FCF794F9A019C0E981
:103E30000078286004E060682860201DFCF78AF99B
:103E4000201D2660BDE8F081251D2C68002CE2D1E4
:103E50000020F7E7D003002086B0FDF7EFF9FEF76A
:103E6000E8FEFEF707FCFEF76BFCFEF70DFDFEF724
:103E700041FDFEF75BFDFEF7D1FCFEF7E1FDFEF72D
:103E8000C2FD00217248FEF79DF80C217048FEF734
:103E900099F83C216F48FDF7DFFE3C216E48FDF7A5
:103EA000DBFE6C48FDF796FD6B48FDF793FD684817
:103EB000FDF790FD69480068C16841F02001C160CC
:103EC000FEF774FEDFF898B1664C002211461046EA
:103ED000FEF73EFE012200211220FEF739FE0222EB
:103EE00000212420FEF734FE032200213620FEF7B5
:103EF0002FFE042200214820FEF72AFE0522002181
:103F00005A20FEF725FE062200216C20FEF720FE37
:103F1000554D2868FCF70EFD02460B4653A0FFF7EF
:103F200087F9574E3068FCF705FD02460B4655A051
:103F3000FFF77EF958482968FEF74EFEFCF7C2FCF1
:103F40002168FEF711FD0A20FDF762F85F46594629
:103F50003068FCF74FFBFCF7B5FC06B23946286821
:103F6000FCF748FBFCF7AEFC4FF4967100B20B4631
:103F70003246FCF797FFFFF7E7F800284ED1474895
:103F8000FFF774FE054646A1FFF762FE58B144A153
:103F90002846FFF75DFE0146D1E90601FCF70EFD5C
:103FA0003D49606048613FA12846FFF751FE58B186
:103FB0003CA12846FFF74CFE0146D1E90601FCF77B
:103FC000FDFC3549A060886137A12846FFF740FE17
:103FD00058B135A12846FFF73BFE0146D1E906015D
:103FE000FCF7ECFC2C49E060C86130A12846FFF7E3
:103FF0002FFE58B12DA12846FFF72AFE0146D1E930
:104000000601FCF7DBFC24492061086015B1284655
:10401000FFF7FAFDFF212148FCF7B5F82069FCF70E
:1040200089FC81468A46E068FCF784FC074688469E
:10403000A068FCF77FFC05460E466068FCF77AFC3A
:104040008DE8E00702460B4619A0FFF7F1F83CE7C0
:10405000D80300202004002068040020B0040020C1
:104060000000C84200000020200000204D6F746F47
:10407000723153706565643A252E32660D0A000070
:10408000240000204D6F746F723253706565643A7E
:10409000252E32660D0A00009C06002038050020FF
:1040A0007000000069000000640000006100000072
:1040B000503A252E33662020493A252E336620209B
:1040C000443A252E336620413A252E33660D0A00E8
:1040D0002DE9F04107460025C8680C462E46B0F58C
:1040E0007A7F5BD2401CE0602168A068095C5B2994
:1040F00054D1401CA0602046FFF76DFD4CB1D4E9BF
:104100000110884203D22268125C5D2A33D08842B3
:1041100003D3A068401EA06040E0401E04F11008D8
:10412000A0604046FFF797FD98B30DB3306046603E
:104130000646A068401CA0602046FFF74CFD2146C3
:10414000304600F0D1F930B32046FFF744FD14B3F8
:10415000D4E90110884203D22168095C2C29E0D0FF
:104160006268904217D22168085C5D2813D102E092
:1041700005462E46DDE7E068401EE06005B16E6052
:104180002020C7E90250A068401CA0600120BDE8C3
:10419000F081FFE715B12846FFF736FD0020F6E76E
:1041A000034610B500200246995CA1F13004092CA9
:1041B00001D830380AE0A1F14104052C01D8373884
:1041C00004E0A1F16104052C08D857380844032AFB
:1041D00000D20001521C042AE6D310BD002010BDFD
:1041E0002DE9F04192B04FF0000506460C004FF06B
:1041F0002E03284610953CD02168D1B36A4627E0AB
:1042000027683944415C34291BD00ADCA1F12B0713
:10421000092F23D2DFE807F01522151722151515EF
:10422000150038290DD006DC35290AD0362908D0EA
:10423000372913D105E0392903D0452901D0652953
:104240000CD1115400E01354401C3F2806D22CB16D
:10425000A168D4F804C00F186745D1D3155490460F
:1042600010A9104600F0F4F90F461099054688454C
:1042700003D1002012B0BDE8F081C6E90657114A0B
:10428000114B28463946FCF781FB02D86FF00040FD
:104290000DE000220D4B28463946FCF75FFB02D8A3
:1042A0004FF0004003E028463946FCF724FB7061DC
:1042B0000820F060109AA168A2EB08000844A060F2
:1042C0000120D7E70000C0FFFFFFDF410000E0C191
:1042D0002DE9F04107460026C8680C463546B0F582
:1042E0007A7F78D2401CE060002C74D0D4E90110B1
:1042F000884270D22168095C7B296CD1401CA06087
:104300002046FFF768FCD4E90110884203D22268F6
:10431000125C7D2A4CD08842A0F10100A0605AD2E4
:1043200004F110084046FFF796FCE8B3F6B12860A8
:1043300045600546A068401CA0602046FFF74BFC86
:104340002146284600F049F878B32046FFF743FCA1
:1043500028692862002028613CB3D4E90110884212
:1043600036D22168095C3A2932D102E00646354648
:10437000E0E7401CA0602046FFF72DFC21462846C0
:1043800000F0B2F888B12046FFF725FCD4E901100F
:10439000884203D22168095C2C29C3D0626890420C
:1043A00016D22168085C01E011E011E07D280FD1F0
:1043B000E068401EE06006B175604020C7E9026019
:1043C000A068401CA0600120BDE8F08103E016B1A8
:1043D0003046FFF719FC0020F6E72DE9F843804648
:1043E0008B6808684FF00009C418CDF80090086881
:1043F0000E46651CC15C641C22296ED100227168C6
:1044000008E0BCF15C0F04D17F1C8F4265D2521CC6
:10441000641C641C271A8F4204D294F800C0BCF1BB
:10442000220FEED1271A8F4257D22178222954D158
:104430001844201A801A3169401C884707004CD064
:10444000009737E029785C2905D000986D1C00F8AA
:10445000011B00902EE00220611B012939DB6A78E4
:10446000662A14D008DC222A12D02F2A10D05C2A07
:104470000ED0622A2DD108E06E2A0ED0722A0ED0FC
:10448000742A0ED0752A24D10DE0082200E00C22F7
:10449000009901F8012B00910BE00A22F8E70D22A8
:1044A000F6E70922F4E76A462146284600F0DEF8DE
:1044B00078B10544A542C5D3009981F80090102138
:1044C000C8E903173068201A401CB0600120BDE81D
:1044D000F88317B171693846884715B13068281AD2
:1044E000B0600020F3E7000070B50C0005465ED018
:1044F000206800285BD0A16863680A1D9A4205D82D
:104500000844042231A1FBF75EFE78B3A06862681C
:10451000411D0126914206D82168052208442DA19B
:10452000FBF751FE28B3A0686268011D914206D8CE
:1045300021680422084429A1FBF745FEE8B1D4E92B
:104540000101814203D22268525C222A1DD081429D
:1045500021D22268525C2D2A02D0303A092A1AD878
:1045600021462846BDE87040FFF73ABE0420E860C7
:1045700006E0EE60A068401D04E002206E61E86085
:10458000A068001DA060012070BD21462846BDE83E
:104590007040FFF722BF814203D22268525C5B2A3F
:1045A00007D0814203D22068405C7B2807D00020DE
:1045B00070BD21462846BDE87040FFF789BD214601
:1045C0002846BDE87040FFF783BE00006E756C6C36
:1045D0000000000066616C73650000007472756510
:1045E000000000002DE9F04704008A4616D054F878
:1045F000047CD4F800903E1F564500D9564620460C
:10460000FEF736FE05468846324621465046FFF7FD
:10461000FBFB40B1C0F80090BDE8F087BDE8F04773
:104620000846FEF753BE44E9017955B129686A1876
:10463000211F8A4202D9611B091F2960C5F8048025
:10464000EAE7024AC2F80080E6E70000D003002053
:1046500000B583B00A460021CDE900110146684645
:10466000FCF76BFADDE9000103B000BD2DE9F0476E
:1046700005460027481B1646894606285DDBA81C10
:10468000FFF78EFD0446A0F55C414FF48060814247
:1046900053D3A4F55841824651451AD2A81DA9EB1F
:1046A00000014FF00C08062947DB01785C2944D152
:1046B0004178752941D1801CFFF772FDA0F55C415E
:1046C00051453AD2C4F3090161F39F2000F58030CF
:1046D00002E04FF006082046802801D2012110E0B8
:1046E000B0F5006F02D20221C0270AE0B0F5803F8A
:1046F00002D20321E02704E0B0F5881F1DD2042177
:10470000F0274A1E08E000BF00F0BF03346843F002
:1047100080038009A354521E12F0FF02F4D1012934
:1047200001D9384301E000F07F0032681070306832
:10473000084430604046BDE8F0870020FBE70000F9
:104740000000000000000102030406070809000041
:10475000000001020304DDDDDDDDDCBBBBDDDDDDF2
:10476000DDDDDDDDDDDD98888888888888887777DD
:104770007777778888888555555666666666666653
:104780006666666888888333333222222222222298
:1047900022222228888D0000B8470008000000204F
:1047A000D80300004C0E000838490008D803002048
:1047B000E81200002C330008012832018210332453
:1047C000F41BF010012AFF050215F01B0F04012A4B
:1047D000FF0502130F18094040405F5555557504F9
:1047E0001A5F0C091121080C11200F094989790958
:1047F00009090F201F112FFE02424ACA4A0304135F
:104800004202FE000E14FF40504C4340404F5050B7
:104810005C40FF1BF888012AFF050215F81B1F08E2
:10482000012A7F200B109F80E23B80820100091645
:10483000E2A2928A86828080041840807F17242416
:10484000A4FEA3221B22CCAA011415080601FF2BEB
:104850000104010511FF0202025808101010FF1098
:104860009008C3021108080F100444827F01808061
:1048700040432C10284681A018094040484848C8A9
:10488000784F0605154848404000091503121222CA
:1048900022528A063C106080BA19040B11C030FB0A
:1048A0001E404043407F061C7F424106094FC029FD
:1048B00041080B1110D030FF30D0121C10101F3DDA
:1048C000080402019E0D1101020408211116FE22A6
:1048D0002222FE0712FE828292A29E100880601F92
:1048E0000242827F0F11FF402F102C438011000BDA
:1048F0001490884C57A42454548C841808010180C7
:1049000042221A07441D423E01018AF9E1000D14BA
:10491000E4242CB4252624B42C24E404180AFF0231
:10492000011E1212121E4186011A13CD321B08718C
:084930000413E545C208000074
:04000005080000ED02
:00000001FF
