:020000040800F2
:10000000480B002005010008ED2800080D24000819
:10001000752800085D08000869300008000000002D
:10002000000000000000000000000000E92A0008B5
:100030005F08000800000000E72A0008EB2A00081B
:100040001F0100081F0100081F0100081F01000810
:100050001F0100081F0100081F0100081F01000800
:100060001F0100081F010008690800081F0100089F
:100070001F0100081F0100081F0100081F010008E0
:100080001F0100081F0100081F0100081F010008D0
:100090001F0100081F0100081F0100081F010008C0
:1000A0001F0100086D2B00081F0100081F01000838
:1000B000792B00081F010008852B00081F0100088C
:1000C0001F0100081F0100081F0100081F01000890
:1000D0001F010008193000081F0100085D300008EA
:1000E000610800081F0100081F010008DFF810D098
:1000F00000F078FB004800476D310008AFF3008046
:10010000480B00200648804706480047FEE7FEE708
:10011000FEE7FEE7FEE7FEE7FEE7FEE7FEE7FEE7B7
:10012000692B0008ED000008202A04DB203A21FAA0
:1001300002F00021704721FA02F3D040C2F1200200
:100140009140084319467047D2B201E000F8012BF4
:10015000491EFBD270470022F6E710B513460A4647
:1001600004461946FFF7F0FF204610BDF0B480EAC0
:100170000102D40F4200B2EB410F02D20246084600
:1001800011464A0042D0C30DDDB2C1F3C752AD1AC9
:10019000202D35DAC1F3160141F4000204B15242B8
:1001A000C5F1200602FA06F12A411044B3EBD05FF4
:1001B00023D0C4B1012DA0EBC35009DCF0BC4FF03B
:1001C000004202EAC352DBB200F5000000F07FBA41
:1001D000400000F1807000EBC350A0F1807040EA55
:1001E000D170490009E0490841EAC071A0EBC35051
:1001F00000F50000400800EBC350F0BC00F05EBA10
:100200006142012202EB4101001BF6E7F0BC70479E
:1002100081F00041AAE780F00040A7E780EA0102F0
:1002200010B502F00043400022D04A001FD0010E5A
:1002300001EB1261C0F35600C2F3560240F4000015
:1002400042F40002A0FB022000047F39140400D015
:10025000401C50EA124001D44000491EC2B20C06B4
:1002600004EBD010401C4008802A02D003E000209C
:1002700010BD20F00100002900DA0020184310BD55
:100280002DE9FE4F804681EA0300C00F0C46009026
:1002900021F0004123F00045B8EB0200A94105D24E
:1002A0004046214690461C460B46024623F000403D
:1002B000104347D0270DC7F30A00C3F30A51029039
:1002C000401A019040286BDAC3F3130040F4801BFE
:1002D0000098924620B10023D2EB030A63EB0B0B8C
:1002E00001985946C0F14002504600F0C6F9064652
:1002F0000D4650465946019A00F0CEF910EB080021
:100300006141002487EA115284EAE7731A4340D01E
:10031000009A62B3019A012A4FEA075215DC001BCA
:1003200061EB02014FF0004202EA0752CDE90042C0
:10033000001C41F5801132462B4600F005FA03B04F
:10034000BDE8F08F40462146F9E7001B61EB020152
:10035000001C41F5801300185B412018A2F500171E
:1003600047EB030140EAD570B6196D4111E06D0805
:100370004FEA360645EAC0754FEA0752001B61EBAB
:100380000201001C41F5801149084FEA30000019B4
:10039000514132462B4603B0BDE8F04F00F0C5B9DD
:1003A0000098012240000023D0EB020263EBE073CF
:1003B000009821464FEAE074B8EB000061EB0401BD
:1003C000E9E783F000435BE781F0004158E72DE95E
:1003D000FE4F81EA030404F0004421F00041009440
:1003E0004FF0000B23F0004350EA01045ED052EAC4
:1003F00003045BD0C3F30A54C1F30A552C44A4F29E
:10040000F3340194A0FB0254C1F3130141F48011B1
:10041000C3F3130343F4801301FB024400FB034EB8
:10042000840A970A44EA815447EA8357A4FB076881
:1004300002958D0A05FB07854FEA932C04FB0C54AB
:100440002705029D4FEA065847EA1637B5EB08051F
:100450006EEB070C870E920E47EA811742EA831271
:10046000A7FB0201B6EB0B0164EB00042B0D43EA82
:100470000C335E1844EB1C50DA465146E7FB020190
:10048000C5F313044FEA0B3343EA14534FEA043223
:10049000019C43EA0603A4F10C040294009CCDE9FC
:1004A00000B400F051F903B0BDE8F08F0020014620
:1004B000F9E72DE9F04D81EA030404F0004B21F047
:1004C000004514464FF0000A23F0004150EA0502AF
:1004D00020D054EA01021DD0C5F30A570246C5F3E5
:1004E0001303C1F31300C1F30A5640F4801543F41B
:1004F0008013A7EB0608101BD64608F2FD3873EBF5
:10050000050002D308F1010801E092185B41B8F13F
:10051000000F03DA00200146BDE8F08D00204FF403
:100520008011064684460EE0171B73EB050705D3C2
:10053000121B63EB050306434CEA010C49084FEA22
:10054000300092185B4150EA0107EDD152EA0300F6
:1005500012D082EA040083EA0501084305D0101B8B
:10056000AB4106D20122002306E000224FF00043F7
:1005700002E06FF0010253101AEB06004CEB085139
:1005800010EB0A0041EB0B01BDE8F04D00F0CDB8D7
:1005900070B521F0004303430CD0C1F30A55002489
:1005A000D5EB040564EB0403D617AD1AB34102DBA7
:1005B0000020014670BD201841EB025170BDC10FF3
:1005C00080EAE0700844CA079623002100F07FB853
:1005D0000EB540F2334102910021CDE900110A46E7
:1005E0000B4600F0B1F803B000BD00F0004220F06F
:1005F0000040C10DC0F3160040F400007F2901DA6D
:1006000000207047962903DCC1F19601C84001E043
:1006100096398840002AF4D04042704700F00042EA
:1006200030F000400AD0C10D01F56071C0F3160032
:1006300042EA0151C20840071143704700200146B9
:10064000704701F0004330B421F0004150EA01024C
:1006500006D00A0DA2F56072C1F31301002A02DC74
:1006600030BC00207047440F44EAC104C100E018C8
:1006700030BC00EBC25000F021B8202A04DB203A45
:1006800000FA02F1002070479140C2F1200320FAE5
:1006900003F3194390407047202A06DBCB17203A1A
:1006A00041FA02F043EAE07306E041FA02F3D04077
:1006B000C2F1200291400843194670470029A8BFA3
:1006C0007047401C490008BF20F00100704710B47B
:1006D000B0FA80FC00FA0CF050EA010404BF10BC30
:1006E000704749B1CCF1200421FA04F411FA0CF15D
:1006F00018BF012121430843A3EB0C01CB1D4FEA96
:1007000000614FEA102042BF002010BC704700EB90
:10071000C35010440029A4BF10BC7047401C4900BE
:1007200008BF20F0010010BC704710B5141E73F113
:10073000000408DA401C41F1000192185B411A43A1
:1007400001D120F0010010BD2DE9F04D92469B46ED
:1007500011B1B1FA81F202E0B0FA80F22032904693
:10076000FFF78BFF04460F4640EA0A0041EA0B01FF
:1007700053465A46084313D0114653EA010019D094
:10078000C8F140025046FFF7CFFC05460E465046E2
:1007900059464246FFF771FF084305D0012004E0A7
:1007A00020463946BDE8F08D0020054346EAE07654
:1007B0002C4337430A986305E40AA0EB08000022A3
:1007C000FD0A44EA47540A3002D500200146E9E711
:1007D000010510196941DDE9084500196941BDE8C5
:1007E000F04DA2E7064C074D06E0E06840F001033B
:1007F00094E8070098471034AC42F6D3FFF77AFC30
:10080000F43200081433000870B5044600688168AB
:10081000C943C90716D1816821F00101816000F048
:10082000F5FA054609E000F0F1FA401B022804D968
:1008300020688068C043C00706D020688068C04335
:10084000C007F0D0002070BDA06A40F01000A06288
:10085000E06A40F00100E062012070BDFEE77047F1
:100860004FF4805000F0CEB9102000F0CBB972B632
:10087000FEE70000F8B50023009390F824201C4602
:10088000012A12D0012280F824204A681F26072A54
:100890000DD205686F6B521E02EB82029640B74381
:1008A0000E68964037436F6319E00220F8BD056873
:1008B0000D2A0AD22F6BD21F02EB82029640B74359
:1008C0000E68964037432F6309E0EF6A0D3A02EB5A
:1008D00082029640B7430E6896403743EF620A683B
:1008E000072605680A2A0AD3EF680A3A02EB420291
:1008F0009640B7438E6896403743EF6008E02F6913
:1009000002EB42029640B7438E68964037432F6110
:100910000A68102A01D0112A20D1124D0268AA4279
:1009200017D195682D0219D4956845F40005956096
:100930000968102912D10C490C4A0968B1FBF2F17F
:1009400001EB8101490000E0491E00910029FBD123
:1009500004E0816A41F020018162012380F8244093
:100960001846F8BD002401402C00002040420F0032
:100970002DE9F0414FF00006040035467DD0A06A15
:10098000002728B9E76284F82470204600F07EF83A
:100990002046FFF739FFA16AC90600D420B1A06A3A
:1009A00040F01000A06268E0A16A21F4885141F093
:1009B0000201A1626268E169237B0A4346EA4301BE
:1009C0000A43A1684FF48076B14208D0012906D0CD
:1009D000002194F814C0BCF1010F02D00AE03146A6
:1009E000F7E7F3B1A36A43F02003A362E36A43F09D
:1009F0000103E3622368D3F804C02CF4694C4CEA89
:100A0000010CC3F804C021688B68DFF874C003EAE6
:100A10000C0313438B60A168B1420BD0012909D0AC
:100A20000CE0DFF860C0A3690CEB43330B4343F4E5
:100A30000061DFE7218A0D05A5F580152168CB6AE5
:100A400023F470032B43CB62216889680E4B194055
:100A5000914208D1E762A16A21F0020141F001014F
:100A6000A162BDE8F081A06A20F0020040F0100011
:100A7000A062E06A40F00100E0620120F1E70000BE
:100A8000FDF7E1FF00E0FFFFFE0E1FFF00B585B0A0
:100A90000021009101910291039100680E49884262
:100AA00018D10E48816941F480618161816901F446
:100AB00080610491816941F0040181618069694626
:100AC00000F00400049010200090032001900448DE
:100AD00000F0A4F805B000BD00280140001002405D
:100AE0000008014010B590F821100022022905D01D
:100AF0000421816380F82020012010BD01680B686B
:100B000023F00E030B6001680B6823F001030B60F8
:100B100090F84030012404FA03F1C36B596080F867
:100B2000214080F82020104610BD000010B590F83C
:100B300021100024022903D00421816301243DE017
:100B400001680A6822F00E020A6001680A6822F051
:100B500001020A601A4A0168914201D1012121E093
:100B6000174A1432914201D110211BE0144A283255
:100B7000914201D1891515E0114A3C32914201D1CF
:100B800089140FE00E4A5032914202D14FF4803165
:100B900008E00B4A6432914202D14FF4801101E027
:100BA0004FF08071064A083A5160012180F8211007
:100BB000002180F82010416B01B18847204610BD0C
:100BC0000800024070B5044600F020F90546601C9C
:100BD00002D004480078044400F018F9401BA042F9
:100BE000FAD370BD20000020054A4FF400511028B0
:100BF00002D0B0F5805F02D1104600F0FAB870471D
:100C000000100140044910B50A68024202D0086091
:100C1000FFF7EAFF10BD0000140401402DE9F84F72
:100C2000DFF8A491002409F1040A0AF1040B234619
:100C30004FF00F080BF1040EBEE00127A7403A4029
:100C4000BA4272D1DFF884C14D68A5EB0C06654548
:100C50002BD00DDC032D34D005DC35B3012D19D09C
:100C6000022D2FD11BE0112D16D0122D2AD119E003
:100C7000B6F5881F19D006DCB6F5803F15D0B6F55D
:100C8000801F1FD111E0B6F5001F0ED0B6F5041F6E
:100C900018D10AE0CB6815E0CB681B1D12E0CB68C9
:100CA00008330FE0CB680C330CE08B682BB1012BC1
:100CB0004FF0080303D0476104E0042302E007611A
:100CC00000E00023FF2A01D8064601E000F10406F7
:100CD0004FEA840501D9A5F12005376808FA05FC1B
:100CE00027EA0C0703FA05F547EA050737604D6860
:100CF000ED0060D5364DAE6946F00106AE61AD69D6
:100D000024F0030605F001050095324D7719BE6801
:100D1000A5072D0F08FA05FC26EA0C06DFF8B8C077
:100D2000604503D14FF0000C17E044E0DFF8ACC0A1
:100D3000604502D14FF0010C0FE0DFF8A4C0604520
:100D400002D14FF0020C08E0DFF898C0604502D1F4
:100D50004FF0030C01E04FF0040C0CFA05FC4CEAD8
:100D6000060CC7F808C04D68D9F80060ED034D4681
:100D700001D5164300E096432E604D68DAF8006016
:100D8000AD03554601D5164300E096432E604D68ED
:100D9000DBF80060ED025D4601D5164300E09643A6
:100DA0002E604D68DEF80060AD02754601D5164331
:100DB00000E096432E60641C0A6832FA04F57FF462
:100DC0003CAFBDE8F88F00000004014000001110A6
:100DD000001002400000014000080140000C0140EA
:100DE00000100140001401408068084000D001203C
:100DF0007047C26821EA02030A4043EA02410161E6
:100E000070470AB1016170470904FBE70148806837
:100E100070470000200000200248816802781144D9
:100E20008160704720000020074810B5016841F03C
:100E300010010160032000F075F80F2000F006F8A3
:100E400000F024F8002010BD0020024070B50D4DC8
:100E500004464FF47A712878B1FBF0F00A4909682A
:100E6000B1FBF0F000F062FB48B9102C07D2002271
:100E70002146501E00F036F800206C6070BD012045
:100E800070BD0000200000202C0000200C4808B598
:100E9000816941F001018161816901F001010091E5
:100EA000C16941F08051C161C069064900F08050BC
:100EB0000090486820F0E06040F00070486008BD95
:100EC0000010024000000140002809DB00F01F0272
:100ED000012191404009800000F1E020C0F800119C
:100EE00070470000F0B40E4B1B68C3F30223C3F13C
:100EF0000704042C00D904241D1D072D01D2002352
:100F000000E0DB1E012606FA04F56D1E0D409D4033
:100F10009E40761E164045EA0601F0BC02F006B976
:100F20000CED00E0064A00F0070110684FF6FF03E1
:100F3000184040EA01200349084310607047000050
:100F40000CED00E00000FA052DE9F84304460078B6
:100F5000344FC00752D0F8690025C00008D4F869A2
:100F600040F08050F861F869012500F08050009051
:100F70002D480168C90511D40168804641F480718B
:100F80000160FFF743FF064604E0FFF73FFF801BC9
:100F9000642822D8D8F80000C005F6D5386A10F4C5
:100FA000407020D0A18801F4407181421BD0386A82
:100FB0001E49012220F440700A6000220A60386253
:100FC000C00710D0FFF722FF064641F2883807E03D
:100FD000FFF71CFF811B414502D90320BDE8F883C0
:100FE000386A8007F4D5386A616820F44070084395
:100FF00038621DB1F86920F08050F86120788007D0
:1010000005D57868A16820F44040084378602078CE
:10101000C00605D57868E16820F480000843786050
:101020000020DBE700100240007000404004424214
:101030002DE9F0470D46040067D0DFF81881D8F895
:10104000000000F00700A8420CD2D8F8001021F0F0
:1010500007012943C8F80010D8F8000000F0070085
:10106000A84252D120683C4E810712D5400703D5D3
:10107000706840F4E06070602078000703D5706805
:1010800040F4605070607068A16820F0F000084380
:1010900070602078C00727D06068012810D03168C0
:1010A000022810D0890700292FDA716821F0030186
:1010B00001437160FFF7AAFE074641F288390CE050
:1010C00031688903EFE78901EDE7FFF79FFEC11B58
:1010D000494502D90320BDE8F0877068616800F0D7
:1010E0000C00B0EB810FF0D1D8F80010404601F0B1
:1010F0000701A9420BD9016821F0070129430160CA
:10110000006800F00700A84201D00120E3E7207842
:10111000400705D57068E16820F4E060084370601E
:101120002078000706D57068216920F4605040EAF5
:10113000C100706000F038F87168084AC1F303110B
:10114000515CC8400649086006480068FFF77EFE0B
:101150000020C0E70020024000100240DC320008FE
:101160002C0000202400002004480549006849683C
:10117000044AC1F30221515CC84070472C00002092
:1011800000100240EC320008044805490068496834
:10119000044AC1F3C221515CC84070472C000020B2
:1011A00000100240EC32000812A085B00FC88DE894
:1011B0000F0014A0144B006804905968134801F004
:1011C0000C02042A10D0082A0ED1C1F38342C903AD
:1011D0001DF802000AD5596804AAC1F34041515CC8
:1011E0000A4A5043B0FBF1F005B070470849484344
:1011F000FAE7000002030405060708090A0B0C0DB4
:101200000E0F1010010200000010024000127A00C0
:1012100000093D002DE9F84F04006FD02078BE4D45
:10122000C00747D06868C0F38100012807D068680C
:10123000C0F38100022809D16868C00306D5286878
:10124000800337D560680028E7D033E06068B0F5E8
:10125000803F0BD010B1B0F5A02F11D0286820F43A
:1012600080302860286820F4802002E0286840F45C
:1012700080302860606888B1FFF7C8FD064609E045
:10128000286840F480202860F0E7FFF7BFFD801B4E
:10129000642873D828688003F7D50BE0FFF7B6FD04
:1012A000064604E0FFF7B2FD801B6428F1D82868E9
:1012B0008003F7D42078DFF8648280074FF0010ABA
:1012C0004FF0000939D5686810F00C0F07D0686836
:1012D000C0F38100022809D16868C00306D42868D9
:1012E000800714D52069012808D110E02069B0B129
:1012F000C8F800A0FFF78AFD064605E007E1FFF702
:1013000085FD801B0228C4D828688007F7D5286887
:10131000616920F0F80040EAC10028600DE0C8F8DB
:101320000090FFF773FD064604E0FFF76FFD801B9A
:10133000022823D828688007F7D4207800072CD506
:101340007748A169D9B1C0F800A0FFF75FFD064654
:1013500004E0FFF75BFD801B02280FD8686A800756
:10136000F7D570484FF4FA510068B0FBF1F00090E7
:1013700000BF0098411E0091FAD20EE07CE0C0F858
:101380000090FFF743FD064604E0FFF73FFD801B9A
:10139000022871D8686A8007F7D4207840075BD5A7
:1013A000E8690027C00008D4E86940F08050E8618F
:1013B000E869012700F0805000905B480168C9058A
:1013C00011D40168834641F480710160FFF71EFD6E
:1013D000064604E0FFF71AFD801B64284CD8DBF8B2
:1013E0000000C005F6D5E06801280AD008B105283C
:1013F00013D0286A20F001002862286A20F0040037
:1014000002E0286A40F001002862E06841F2883B6F
:1014100088B1FFF7FBFC064609E0286A40F00400AB
:101420002862EEE7FFF7F2FC811B59455BD8286A7A
:101430008007F7D50BE0FFF7E9FC064604E0FFF76D
:10144000E5FC811B59454ED8286A8007F7D41FB1A7
:10145000E86920F08050E861E069A8B36968C1F3E9
:101460008101022946D00228484606D0C8F860000B
:10147000FFF7CCFC044639E035E04746C8F8600089
:10148000FFF7C4FC064604E0FFF7C0FC801B0228FF
:1014900029D828688001F7D4206AB0F5803F05D1AB
:1014A0006868A16820F4003008436860D4E9080146
:1014B0000843696821F4741108436860C7F860A0A4
:1014C000FFF7A4FC044605E023E0FFF79FFC001BA8
:1014D000022808D828688001F7D51AE0FFF796FCA3
:1014E000001B022802D90320BDE8F88F286880017C
:1014F000F4D40EE00128F7D06868226A00F4803145
:10150000914204D1616A00F47010884201D0012038
:10151000EAE70020E8E70000001002400000424235
:10152000800442422C0000200070004010B5401E94
:10153000B0F1807F01D3012010BD4FF0E024606145
:101540000F21601701F0F2FD0020A061072020614B
:10155000002010BD7047704710B590F83C20012A5C
:1015600022D0012280F83C20CA688C6822F44072A4
:1015700022434C6822F4806222430C6822F4006209
:1015800022430C6922F4805222434C6922F4005217
:101590002243C969002322F480420A4301684A6455
:1015A00080F83C30002010BD022010BD70B590F8CE
:1015B0003C20012A26D0012580F83C50022280F8E8
:1015C0003D2002685368946823F070060B6833432B
:1015D00053600D4B02689A4208D0B2F1804F05D09B
:1015E0000A4B9A4202D00A4B9A4204D1496824F02D
:1015F00080031943916080F83D50002180F83C1031
:10160000084670BD022070BD002C0140000400405F
:101610000008004010B5040003D094F83D0010B15C
:1016200007E0012010BD002084F83C00204600F0B7
:101630001FF8022084F83D00211D206801F0A8FA5F
:10164000012084F8460084F83E0084F83F0084F8C6
:10165000400084F8410084F8420084F8430084F894
:10166000440084F8450084F83D00002010BD0000CF
:1016700008B500680B49884212D10B48816941F4D2
:10168000006181618069002200F4006000901146D1
:101690001920FFF727FCBDE808401920FFF714BC0C
:1016A00008BD0000002C01400010024090F83D10E1
:1016B000012901D001207047022180F83D10016806
:1016C000CA6842F00102CA6000680B49884208D02B
:1016D000B0F1804F05D00949884202D008498842BC
:1016E00004D1816801F00701062903D0016841F0A7
:1016F0000101016000207047002C014000040040FF
:101700000008004070B5044690F83C00012817D04E
:10171000012584F83C50022084F83D00206882684E
:1017200022F0770222F47F4282600868502830D08D
:101730000DDC20284DD005DC98B310283BD148E0C3
:10174000022070BD302844D0402834D139E06028D0
:1017500028D0702806D0B0F5805F2CD0B0F5005F9F
:1017600029D10AE0CB68D1E90121206801F053FAC0
:101770002068816841F0770109E0CB68D1E9012157
:10178000206801F048FA2068816841F48041816056
:1017900011E0CA684968206801F0F8FA5021206811
:1017A00007E016E0CA684968206801F000FB602184
:1017B000206801F03AFA84F83D50002084F83C009B
:1017C00070BDCA684968206801F0E0FA40212068CD
:1017D000EFE7226801461046EBE72DE9F0410D46A0
:1017E000040003D094F83D0018B108E00120BDE8E2
:1017F000F081002084F83C00204600F041F80220EF
:1018000084F83D002068816844F2070291438160BA
:10181000211D206801F0BCF9206881688269066A90
:101820002B68AF690B4340F203318A4342EA072237
:10183000A968EF6911434FF6FC429143EA6841EA17
:1018400007210A4329692F6A090141EA0731114337
:101850006A686D6926F0220646EA05152A43836008
:101860002068816154F8460B0262012004F81F09C8
:10187000E0752076E0762077A0750020B7E70000BD
:1018800000B585B00021009101910291039101689A
:1018900023480122B1F1804F23D0224B99421ED11F
:1018A000C16941F00401C161C16901F00401049101
:1018B000816941F0080181618069694600F0080092
:1018C0000490C020009002921748FFF7A7F9002269
:1018D00011461E20FFF706FB1E20FFF7F5FA05B0A4
:1018E00000BDC16941F00101C161C16901F001019F
:1018F0000491816941F0040181618069694600F0C9
:10190000040004900320009002920848FFF786F933
:10191000002211461C20FFF7E5FA1C20DDE700003D
:101920000010024000080040000C01400008014087
:1019300070B590F83E50044690F83F3090F8422041
:1019400090F84300022621B104290BD0012D16D1B5
:101950000FE0012D13D1012A11D184F83E6084F8E3
:10196000426016E0012B0AD1012808D184F83F60BB
:101970000DE0012B03D1012A01D1012801D0012062
:1019800070BD84F83E6084F83F6084F8426084F85B
:10199000436091B1042904D001220021206801F0A4
:1019A0002DF901220421206801F028F9206801683E
:1019B00041F001010160002070BD0122002120687A
:1019C000F2E7704770B50446006801694FF0000502
:1019D000C943890715D4C168C943890711D4E91ED1
:1019E000016101202077206880698007204602D0AD
:1019F000FFF7E7FF04E000F0BFF8204600F04EF9E3
:101A0000257720680169C943490717D4C168C943CC
:101A1000490713D46FF00401016102202077206888
:101A2000806910F4407F204602D0FFF7CAFF04E02F
:101A300000F0A2F8204600F031F92577206801690E
:101A4000C943090716D4C168C943090712D46FF006
:101A500008010161042020772068C06980072046C2
:101A600002D0FFF7AEFF04E000F086F8204600F059
:101A700015F9257720680169C943C90617D4C168DB
:101A8000C943C90613D46FF0100101610820207703
:101A90002068C06910F4407F204602D0FFF791FF14
:101AA00004E000F069F8204600F0F8F82577206897
:101AB0000169C943C90708D1C168C943C90704D12D
:101AC000891E0161204600F03BF920680169C94385
:101AD000090609D4C168C943090605D46FF080011D
:101AE00001612046FFF736FD20680169C9434906B8
:101AF00009D4C168C943490605D46FF040010161AA
:101B0000204600F0BBF920680169C94389060BD45F
:101B1000C168C943890607D46FF0200101612046DE
:101B2000BDE87040FFF717BD70BD000000B585B07F
:101B30000021009101910291039100680B498842B4
:101B400012D10B48816941F00401816180696946C5
:101B500000F0040004904FF4106000900220019007
:101B600003900448FFF75AF805B000BD002C01406F
:101B70000010024000080140704770B5044690F81C
:101B80003C000D4601280AD0012084F83C0042B1F7
:101B9000042A18D0082A2AD00C2A4DD139E0022074
:101BA00070BD206801F04AF82068816941F00801A1
:101BB00081612068816921F0040181612068816967
:101BC0002A69114311E0206801F064F820688169F6
:101BD00041F4006181612068816921F48061816143
:101BE000206881692A6941EA0221816124E0206834
:101BF00001F07EF82068C16941F00801C1612068E8
:101C0000C16921F00401C1612068C1692A691143D9
:101C100011E0206801F098F82068C16941F4006182
:101C2000C1612068C16921F48061C1612068C16916
:101C30002A6941EA0221C161002084F83C0070BD9C
:101C400010B5040003D094F83D0010B107E0012066
:101C500010BD002084F83C00204600F01EF8022051
:101C600084F83D00211D206800F092FF012084F8D7
:101C7000460084F83E0084F83F0084F8400084F871
:101C8000410084F8420084F8430084F8440084F85A
:101C9000450084F83D00002010BD704770470000EB
:101CA00010B5044649B104290AD008290BD094F88C
:101CB000410001280AD0012010BD94F83E00F8E749
:101CC00094F83F00F5E794F84000F2E7022041B3B2
:101CD000042929D008292AD084F84100012220684B
:101CE00000F08CFF13492068884203D1426C42F413
:101CF000004242642068884208D0B0F1804F05D08D
:101D00000D49884202D00D49884204D1816801F012
:101D10000701062903D0016841F00101016000209C
:101D200010BD84F83E00D9E784F83F00D6E784F878
:101D30004000D3E7002C01400004004000080040B0
:101D40002DE9F05F414988427DD1414DE888401C32
:101D500084B20520B4FBF0F100FB1140EC800026BA
:101D6000F0BB3C480168486A3B4A404200B2688088
:101D700013685B6A1FB2AF804E6211684E62FEF755
:101D80001EFCDFF8D8A05146FEF748FAFEF746FCE5
:101D9000DFF8CC804FF0333B5A464346FEF789FBD1
:101DA000DFF8C09000224B46FEF783FBB21EFEF721
:101DB000EFFBFEF746FCA8603846FEF700FC5146F4
:101DC000FEF72CFAFEF72AFC5A464346FEF771FB53
:101DD00000224B46FEF76DFBB21EFEF7D9FB00E07A
:101DE00002E0FEF72EFCE8600A20B4FBF0F100FBF5
:101DF0001140002827D1A868FEF710FC1A4A1B4B97
:101E0000FEF7E5FA00221A4BFEF7E1FA04460F4608
:101E10002869FEF703FC22463B46FEF731FAFEF73F
:101E200010FC28611348E96800F034FEFEF7DDFB82
:101E300004461148A96800F02DFEFEF7D6FB2146A6
:101E400000F01AFDEE80BDE8F09F00006400002065
:101E50000C000020F4000020AC0000200000C8426C
:101E600033332340000026407B14AE47E17A943F91
:101E700000003640E4020020C40200207047704792
:101E800070470000F8B5026804461068D1685369CD
:101E900010F00F0F4FF0000553D003F0010601F4CE
:101EA000907737435FD0C20705D0CA0503D5226CAF
:101EB00042F001022264420705D5DA0703D0226C02
:101EC00042F002022264820705D5DA0703D0226CB1
:101ED00042F004022264020707D501F020023243D7
:101EE00003D0226C42F008022264226C002A34D013
:101EF000800604D5880602D5204600F08AFF2068B7
:101F00004069216CC0F38010090700D430B320462B
:101F100000F067FF2068416949061BD5416921F03F
:101F200040014161A06BA8B158494163A06BFEF725
:101F3000FDFD002811D0A06B416B01B0BDE8F04061
:101F4000084783060FD58B060DD52046BDE8F8401F
:101F500000F05FBF2046FFF793FFF8BD2046FFF774
:101F60008FFF2564F8BD266B2023012E52D1C606B3
:101F700050D5CE064ED51068506800905069400686
:101F80002AD5A16B086840680004000CEAD0A68D31
:101F90008642E7D9E0858869202818D0D06820F4E7
:101FA0008070D0602068416921F0010141612068A2
:101FB000416921F04001416184F83E302563206889
:101FC000C16821F01001C160A06BFEF78BFDA08DF0
:101FD000E18D401A81B219E0A08DE18D401A81B2E5
:101FE000E08D0028BED00029BCD0D06820F49070CD
:101FF000D0602068426922F00102426184F83E30DC
:1020000025632068C26822F01002C2602046FFF7F4
:1020100036FFF8BD05062BD50D0629D594F83D00F1
:102020002128F6D1A068B0F5805F01D12069B0B158
:10203000206A411C2162216800784860E08C401EC3
:102040000004000CE084E4D12068C16821F0800124
:10205000C1602068C16841F04001C160F8BD206ADC
:102060000088C0F308005060206A801C2062E5E709
:102070004006F3D54806F1D5D168204621F040014D
:10208000D16084F83D3000F05FF9F8BDD32D000831
:1020900070B5040004D094F83D00002510B106E0AE
:1020A000012070BD84F83C50204600F023F8242025
:1020B00084F83D002068C16821F40051C1602046C9
:1020C00000F002FF2068016921F49041016120685D
:1020D000416921F02A0141612068C16841F4005141
:1020E000C1602564202084F83D0084F83E00002073
:1020F00070BD000070B586B0002400940194029475
:10210000039401682E482D4E022203230515B14287
:1021100026D1816941F480418161816901F4804166
:102120000491816941F0040181618069254E00F0CC
:10213000040004901002CDE9000269460393304682
:10214000FEF76CFDCDE90054694630460294FEF777
:1021500065FD002211462520FEF7C4FE252028E05B
:10216000194EB14227D1C16941F48021C161C169D1
:1021700001F480210491816941F008018161806945
:10218000CDE9005200F00800CDE903300F4D69465B
:102190002846FEF743FDE814CDE9000469462846C9
:1021A0000294FEF73BFD002211462720FEF79AFE1F
:1021B0002720FEF789FE06B070BD00000038014000
:1021C000001002400008014000480040000C01409F
:1021D0002DE9F84F044690F83E00984615460E4605
:1021E000202855D10EB305B394F83C0001284FD0F8
:1021F000012084F83C004FF00009C4F840902221EF
:1022000084F83E10C4F83090FEF700FEA5858246A3
:10221000E585A0684FF48057B84201D1206938B1F4
:102220003546002684F83C9027E00120BDE8F88F71
:102230000025F7E75346002220212046CDF80080F4
:1022400000F0B9FE08B10320F0E725B1A068B8425C
:102250001BD038B108E020684068C0F3080026F8B9
:10226000020B07E0206980B12068406800F07F0021
:1022700005F8010BE08D401EE085E08D0028D9D1E6
:10228000202084F83E000020D0E720684068EFE777
:102290000220CBE790F83E30202B0ED159B152B13D
:1022A00090F83C30012B08D0012380F83C3000230B
:1022B000036300F065BE01207047022070470000F4
:1022C00070B51E49884238D11D4C4FF07E5520789C
:1022D000412803D12846294600F0B8FF207842283B
:1022E00003D11848014600F0B1FF2078432803D1FC
:1022F0000021084600F0AAFF20784FF080464428CD
:1023000003D13146284600F0A1FF2078452803D1AB
:102310002946304600F09AFF2078462801D100F087
:10232000C9FF2078472801D100F0B2FFBDE8704016
:10233000012203490148FFF7ADBF70BD80010020B5
:1023400000000020000080BF70470000064908B56B
:102350000968064AC908B1FBF2F14143009100BF88
:10236000491E0091FBD208BD2C00002040420F0006
:1023700070B5204D0024012220212846FEF741FDA2
:102380000F20FFF7E3FF002220212846FEF739FD4A
:10239000194D1A4E07E00120641CFFF7D7FFAC422D
:1023A00001D9174870BD40213046FEF71DFD0028B9
:1023B000F1D0002408E00120641CFFF7C7FFAC4205
:1023C00002D94FF0404070BD40213046FEF70CFD71
:1023D0000128F0D06000FEF7FBF80A4A0A4BFDF72F
:1023E000F6FF4FF0FF32FEF7D3F8BDE87040FEF77E
:1023F00028B90000000C0140A0860100000801403F
:10240000000080BF4C37894160E5A03FFEE7000037
:102410002DE9F04101220C4DD40321462846FEF758
:10242000F0FC0122094F160331463846FEF7E9FC5D
:10243000002231463846FEF7E4FC21462846BDE836
:10244000F0410022FEF7DDBC00080140000C014015
:1024500070B50122D1030948FEF7D3FC084D4FF4B3
:102460008054002221462846FEF7CBFC2146284610
:10247000BDE870400122FEF7C4BC00000008014026
:10248000000C014070B50122064DD40321462846B8
:10249000FEF7B7FC21462846BDE870400022FEF753
:1024A000B0BC0000000801403EB500211148009179
:1024B00001910F4A0291026081600173017501244C
:1024C0004FF460220461C2614160FEF751FA08B125
:1024D000FEF7CDF90420CDE9000402200290694600
:1024E0000448FEF7C7F9002801D0FEF7C0F93EBD49
:1024F00000280140340000202DE9F04F85B0002471
:102500004D480094019402940394816941F01001B4
:102510008161816901F010010491816941F020011C
:102520008161816901F020010491816941F0040118
:102530008161816901F004010491816941F0080120
:1025400081618069DFF8F4A000F008004FF40055C5
:102550000490002229465046FEF753FC012217033F
:1025600039463748FEF74DFC42F228080022414622
:102570003348FEF746FCDFF8CCB04FF400490122A7
:1025800049465846FEF73DFC009502260125039674
:10259000CDE9015469465046FEF740FBE020CDE905
:1025A0000004694658460294FEF738FB0320CDE943
:1025B0000004694622480294FEF730FBCDE900751D
:1025C000CDE9025669461E48FEF728FBCDF800808B
:1025D0000396CDE9015469461948FEF71FFB1A48D6
:1025E0000097CDE9010569465846FEF717FBCDE98E
:1025F0000095CDE9025669465846FEF70FFB1020BC
:1026000000901248CDE9010669460D48FEF706FB29
:10261000002211460A20FEF765FC0A20FEF754FC52
:10262000002211462820FEF75DFC2820FEF74CFC16
:1026300005B0BDE8F08F000000100240001001401E
:10264000000C0140000801400000211000001110A2
:1026500010B596B000240F94109411941294139412
:102660001C2168461494FDF776FD202107A8FDF78C
:1026700072FD2D482B49016040F29F51C0E90114C1
:102680006321C0E903148021C0E90541FEF7C2FFC0
:1026900008B1FEF7ECF84FF480500F900FA92248D4
:1026A000FFF730F808B1FEF7E2F81F48FFF7C8FA65
:1026B00008B1FEF7DCF8139413A91B481494FEF735
:1026C00075FF08B1FEF7D3F8602000903220CDE905
:1026D0000104039404940594002269461248069468
:1026E000FFF74BFA08B1FEF7C2F80C2269460E4814
:1026F000FFF743FA08B1FEF7BAF807940894099473
:102700004FF400500A94CDE90B4007A906480E94F7
:10271000FEF722FF08B1FEF7AAF80348FFF706FA12
:1027200016B010BD002C01406400002010B58CB024
:1027300024216846FDF70FFD0024164809944FF048
:1027400080410A94C0E900144FF6FF71C0E90241CC
:10275000046184610320CDE900040120CDE9020475
:1027600006210491CDE90540CDE9074169460948B4
:10277000FFF733F808B1FEF77AF8099409A905487C
:102780000A94FEF713FF002801D0FEF770F80CB092
:1027900010BD0000AC00002010B58CB024216846AC
:1027A000FDF7D9FC00241648099414490A94C0E99D
:1027B00000144FF6FF71C0E90241046184610320F7
:1027C000CDE900040120CDE9020406210491CDE900
:1027D0000540CDE9074169460948FEF7FEFF08B10B
:1027E000FEF745F8099409A905480A94FEF7DEFEAC
:1027F000002801D0FEF73BF80CB010BD00080040E7
:10280000F40000200C4810B50A4901604FF4E13192
:102810004160002181600C22C160C0E90412816125
:10282000C161FFF735FC002803D0BDE81040FEF77A
:102830001EB810BD003801403C0100200C4810B506
:102840000A4901604FF4E1314160002181600C22AE
:10285000C160C0E904128161C161FFF719FC002861
:1028600003D0BDE81040FEF702B810BD004800409C
:1028700080010020FEE7000070B51A4E4542C1F10C
:10288000000401D5012200E0002208213046FEF7B5
:10289000B8FA4FF40051002C01DA012200E00022C6
:1028A0003046FEF7AEFA10486FF06201002D05DAEF
:1028B0008D4200DA0D466435026803E0632D00DDC9
:1028C000632502685563002C05DA8C4200DA0C4659
:1028D0000068643403E0632C00DD63240068046452
:1028E00070BD0000000C014064000020FEE770B5E0
:1028F0000025002105F1B00000F089F8002108460C
:1029000000F085F80021102000F081F8002401215A
:10291000002000F07CF8641CE4B2802CF7D36D1C1E
:10292000EDB2082DE5D370BD10B54FF44870FEF739
:1029300049F90021AE2000F06AF80021084600F0B5
:1029400066F80021102000F062F80021402000F01D
:102950005EF80021B02000F05AF80021812000F03C
:1029600056F80021FF2000F052F80021A12000F0CD
:102970004EF80021A62000F04AF80021A82000F01F
:1029800046F800213F2000F042F80021C82000F066
:102990003EF80021D32000F03AF80021084600F06C
:1029A00036F80021D52000F032F80021802000F018
:1029B0002EF80021D82000F02AF80021052000F090
:1029C00026F80021D92000F022F80021F12000F0A3
:1029D0001EF80021DA2000F01AF80021122000F081
:1029E00016F80021DB2000F012F80021302000F062
:1029F0000EF800218D2000F00AF80021142000F0CC
:102A000006F80021BDE81040AF20AFF30080C0B24F
:102A100009B100F074BB00F05BBB00001649002058
:102A2000164B486008608860C860C1E90403144A16
:102A3000C1E906202031486008608860C860C1E9AB
:102A40000403C1E9062020310E4A4860086088600E
:102A5000C860C1E904020C4AC1E9060220310B4AF0
:102A6000C1E9002088604FF03F42C860C1E904021C
:102A7000074AC1E906207047C402002000007041E7
:102A80000000A0400000C0BFCDCC4C3F0000B441CE
:102A90006F1283BA2DE9F04104460068FDF7B8FBD8
:102AA0000546A06029462069FDF760FB20610746C6
:102AB0002846E168FDF7ACFBE169FDF7AFFB064690
:102AC0003946A069FDF7AAFB074629466069FDF76C
:102AD000A5FB3946FDF74AFB3146FDF747FBE560AC
:102AE0006060BDE8F08170477047FEF795B930B57A
:102AF00093B028216846FDF72EFB14210AA8FDF7A4
:102B00002AFB002401210F9410940804CDE9001041
:102B100011941294029402250491CDE907504FF4C8
:102B2000E01009906846FEF775FB08B172B6FEE743
:102B30000F20CDE90A054FF48060CDE90C40022159
:102B40000AA80E94FEF774FA08B172B6FEE74FF4C5
:102B5000004011900F950FA8FEF7F6F9002801D05C
:102B600072B6FEE713B030BD704700000148FEF7B3
:102B700029BF0000640000200148FEF723BF0000C9
:102B8000AC0000200148FEF71DBF0000F40000204B
:102B9000F0B50268164C174D174E4FF08047A04213
:102BA00005D0B84203D0A84201D0B04203D122F0F0
:102BB00070034A681A43A04205D0B84203D0A84225
:102BC00001D0B04203D122F44073CA681A434B6962
:102BD00022F080021A4302608A68C2620A68826236
:102BE000A04201D10969016301214161F0BD0000EA
:102BF000002C0140000400400008004010B501F026
:102C00001F010123046A8B409C430462036A8A40CB
:102C10001343036210BD10B5846842EA032224F412
:102C20007F440A432243826010BD826822F0700212
:102C30000A4342F0070181607047000030B5026A24
:102C400022F001020262036A4268846924F073057B
:102C50000C682C4323F002058B682B430C4DA842D3
:102C600006D123F00805CB6843EA050323F00403EB
:102C700007D14D6922F4407245EA02058A6942EAA9
:102C800005024260846149684163036230BD00000F
:102C9000002C014030B5026A22F010020262026A82
:102CA000436884690D6824F4E64444EA05248D6889
:102CB00022F0200242EA05120C4DA84206D1CD684E
:102CC00022F0800242EA051222F0400207D14D694B
:102CD00023F4406343EA85038D6943EA8503436037
:102CE000846149688163026230BD0000002C0140AC
:102CF00030B5026A22F480720262036A4268C469D3
:102D000023F4007324F073050C682C438D6843EAA8
:102D100005230C4DA84206D1CD6823F4006343EA95
:102D2000052323F4806307D14D6922F4405242EA1F
:102D300005128D6942EA05124260C4614968C163A7
:102D4000036230BD002C014030B5026A22F480528B
:102D50000262036A4268C4690D6824F4E64444EAE6
:102D600005248D6823F4005343EA0533064DA84239
:102D700004D14D6922F4804242EA85124260C46166
:102D800049680164036230BD002C014010B5046A3B
:102D9000036A23F001030362836923F0F00343EA2B
:102DA000021324F00A020A438361026210BD10B5C7
:102DB000036A23F0100303628469036A24F47044F5
:102DC00044EA023223F0A00343EA01118261016266
:102DD00010BD10B5406A0021C185C184FFF750F8CD
:102DE00010BD0168CA6822F49072CA6001684A691D
:102DF00022F001024A61016B012904D10168CA680D
:102E000022F01002CA60202180F83E1000210163E8
:102E1000704708B590F83E10222901D0022008BD65
:102E200081684FF48053994201D1026922B1826ACC
:102E300099421BD049B10AE00268816A5268C2F324
:102E400008020A80816A891C08E0016971B1016881
:102E5000496801F07F011170816A491C8162C18D4E
:102E6000491E0904090CC18503D019E001684968AD
:102E7000F1E70168CA6822F02002CA600168CA68E6
:102E800022F48072CA6001684A6922F001024A6134
:102E9000202180F83E10016B012903D0FFF710FAC2
:102EA000002008BD002101630168CA6822F01002F9
:102EB000CA6001680A68D20602D50A6849680091AA
:102EC000818DFEF7DCFFEBE770B504460068016911
:102ED000E26821F4405111430161A1682069014376
:102EE000606901432068C26841F20C639A430A4357
:102EF000C26020684169A26921F4407111434161B7
:102F00001E492068884202D1FEF73EF901E0FEF733
:102F10002BF900EBC00101EB001160686422800016
:102F2000B1FBF0F3B3FBF2F36FF018067343B1FBA0
:102F3000F0F5B1FBF0F605EB8305322303EB051545
:102F4000B5FBF2F5B6FBF2F605F0F00505EB06155C
:102F5000B1FBF0F6B1FBF0F0B0FBF2F06FF018014E
:102F6000484306EB800003EB0010B0FBF2F0216851
:102F700000F00F002844886070BD00000038014058
:102F800081628285C28500210164222280F83E2070
:102F900080F83C100168CA6842F48072CA60016817
:102FA0004A6942F001024A610068C16841F02001AB
:102FB000C160002070472DE9F0411E461746884643
:102FC0000446069D1CE0681C1AD025B1FDF71EFFC3
:102FD000801BA84214D92068C16821F4D071C16057
:102FE0002068416921F001014161202084F83D0001
:102FF00084F83E00002084F83C000320BDE8F08106
:103000002068016838EA010004D00020B842DAD014
:103010000020F3E70120F9E70D4810B500680068CB
:10302000800610D50B4A1078FF2801D300201070BD
:103030000949C0B20144401C10704FF47A73012258
:103040000348FFF7C5F8BDE810400148FEF71ABF76
:103050003C0100200C000020C40100200148FEF7C4
:1030600011BF000080010020FEE700002DE9F047BD
:10307000154F04464FF40046002231463846FDF70E
:10308000C0FEDFF8489000254FF4805804F080001F
:10309000802816D0002241464846FDF7B2FE600661
:1030A000040E012231463846FDF7ABFE00223146C0
:1030B0003846FDF7A6FE6D1CEDB2082DE6D3BDE83F
:1030C000F0870122E7E7000000080140000C014002
:1030D00010B50446FFF79CF97820FFF7C7FFFFF70C
:1030E000D1F90020FFF7C2FFFFF7CCF92046FFF728
:1030F000BDFFFFF7C7F9BDE81040FFF7A9B910B54C
:103100000446FFF785F97820FFF7B0FFFFF7BAF91B
:103110004020FFF7ABFFFFF7B5F92046FFF7A6FF0A
:10312000FFF7B0F9BDE81040FFF792B90907090EA3
:10313000002804DB00F1E02080F80014704700F064
:103140000F0000F1E02080F8141D704702E008C86D
:10315000121F08C1002AFAD170477047002001E011
:1031600001C1121F002AFBD170470000FDF75CFE71
:10317000FFF7BDFCFFF7C0F9FFF744FBFFF768FA64
:10318000FFF7D4FAFFF708FBFFF78EF9FFF756FBBE
:10319000FFF7CAFBFFF7ABFB00212248FEF780FDDB
:1031A0000C212048FEF77CFD3C211F48FEF7C0FBA8
:1031B0003C211E48FEF7BCFB1B48FEF777FA1B4874
:1031C000FEF774FA1748FEF771FA19480068C168EB
:1031D00041F02001C160FFF721FC0122154916488A
:1031E000FFF758F8154F164D164E124CFFF7C0F862
:1031F0006060B84213DA01461348FFF74BFCA06049
:10320000A84201DDA56002E0B04200D9A660A16835
:10321000084600F01BF80A20FDF7D4FCE6E7002181
:103220000846F6E764000020AC000020F40000200F
:103230003C010020000000208001002000007042BE
:103240000000C0400000C0C0240300200C4A10B59C
:1032500010600C4801600C4801680A48FFF71AFC2E
:10326000FDF7C3F90446094801680548FFF712FC59
:10327000FDF7BBF92146BDE81040FFF7FDBA00009D
:10328000C4020020E40200201800002014000020E6
:1032900010B5074C4FF07C512068884202DBFCF7E8
:1032A000B7FF2060BDE810400146FFF7CFBF000028
:1032B0003000002010B5074C07492068884204DC24
:1032C0004FF07C51FCF752FF2060BDE810400146F2
:1032D000FFF7BCBF300000200000404000000000AD
:1032E00000000000010203040607080900000000B6
:1032F0000102030414330008000000203400000021
:103300004C3100084833000834000020140B000042
:103310005C31000800000000000000000000000018
:10332000000000000000000000000000000000009D
:10333000000000000100000010000000000000007C
:083340000024F4000000003F2E
:04000005080000ED02
:00000001FF
