:020000040800F2
:10000000581F0020290600082D0400082F040008AE
:1000100033040008370400083B0400080000000017
:100020000000000000000000000000003F04000885
:1000300041040008000000004304000845040008D3
:10004000430600084306000843060008430600086C
:10005000430600084306000843060008430600085C
:10006000430600084306000843060008430600084C
:10007000430600084306000843060008430600083C
:10008000430600084306000843060008430600082C
:10009000430600084306000843060008430600081C
:1000A000430600084306000843060008430600080C
:1000B00043060008430600086733000843060008AB
:1000C00043060008430600084306000843060008EC
:1000D00043060008F3210008430600084306000811
:1000E00043060008430600084306000800F002F833
:1000F00000F06AF80AA090E8000C82448344AAF158
:100100000107DA4501D100F05FF8AFF2090EBAE855
:100110000F0013F0010F18BFFB1A43F0010318473B
:100120008C780000AC7800000A444FF0000C10F806
:10013000013B13F0070408BF10F8014B1D1108BF65
:1001400010F8015B641E05D010F8016B641E01F805
:10015000016BF9D113F0080F1EBF10F8014BAD1C55
:100160000C1B09D16D1E58BF01F801CBFAD505E073
:1001700014F8016B01F8016B6D1EF9D59142D6D3CD
:10018000704700000023002400250026103A28BFF5
:1001900078C1FBD8520728BF30C148BF0B607047F9
:1001A000662905F08485642903F0AA83002070473E
:1001B0001FB503F005FF04000020002104F0C6FD78
:1001C000E0601FBD10B510BD03F0FEFF1146FFF744
:1001D000EFFF00F000F904F01CF803B4FFF7F2FFA2
:1001E00003BC01F0ABFF00002DE9F04188B07D4871
:1001F000006805F007FA044622460B467AA17C48BF
:1002000003F042FB10237A4A1946382002F041FAE3
:100210007848006805F0F6F9044622460B4672A1BC
:10022000734803F031FB1023714A2021382002F07B
:1002300030FA7148B0F9000005F05CFB804605F02B
:10024000E1F9064600226D4B04F078FE0446224692
:100250000B466BA1664803F017FB1023644A30215C
:10026000382002F016FA02F0CEF86248006805F075
:10027000C9F904460D465B48006805F0C3F9064617
:100280000F466148B0F900006049B1F90010604ABA
:10029000B2F900205F4BB3F90030CDE90432CDE96B
:1002A00006105D48B0F900005C49B1F90010324613
:1002B0003B46CDE90045CDE90210594803F0D8FA94
:1002C00008B0BDE8F08110B501F0CEFE4FF4C0607B
:1002D00000F0CAF94FF4E13001F03FFF01F0CEFF2A
:1002E00002F05CFB012002F04EF8002002F059F809
:1002F00018234CA20821192002F0CBF9002408E0B1
:100300002107080E10232246282102F033FA601C30
:10031000C4B2082CF4DB02F076F840F2E73001F0CA
:10032000E0FE40F2E73001F0DCFE02F08FF803F06F
:100330007BF94FF4FA7001F0D4FE41F61F41C7205B
:1003400002F0E4FF00240BE004F11101CAB2210124
:100350002031C8B21023002102F00CFA601CC4B294
:10036000042CF1DB00240BE004F10801CAB22101E6
:100370000831C8B21023194602F0FCF9601CC4B25F
:10038000032CF1DB00240BE004F10B01CAB22101C4
:100390000831C8B21023202102F0ECF9601CC4B26D
:1003A000032CF1DB00240BE004F10E01CAB22101A1
:1003B0000831C8B21023302102F0DCF9601CC4B24D
:1003C000032CF1DB102315223021602002F0D2F93A
:1003D00002F019F810BDFFF776FF01E0FFF704FF08
:1003E000FCE700003C1300203A252E32662720004F
:1003F0008C130020401300201813002000005940E7
:100400003A252E3166000000161300201413002038
:1004100012130020101300200E1300200C130020D4
:10042000547900084D50553630353000704700BFC4
:10043000FEE700BFFEE700BFFEE700BFFEE7704734
:1004400070477047704700000CB500200190009085
:100450006C48006840F480306A49086000BF694811
:10046000006800F4003000900198401C0190009852
:1004700018B90198B0F5A06FF1D16248006800F496
:10048000003010B10120009001E0002000900098A1
:10049000012843D15C48006840F010005A490860C8
:1004A0000846006820F0030008600846006840F035
:1004B0000200086053484068524948600846406856
:1004C00048600846406840F48060486008464068DC
:1004D00020F47C1048600846406840F4E81048600A
:1004E0000846006840F08070086000BF454800681A
:1004F00000F000700028F9D04248406820F0030066
:10050000404948600846406840F00200486000BF2B
:100510003C48406800F00C000828F9D10CBD10B52B
:10052000FFF792FF10BD10B53648006840F001009B
:1005300034490860084640683449084031494860F9
:1005400008460068324908402E490860084600689D
:1005500020F4802008600846406820F4FE004860CF
:100560004FF41F008860FFF7DAFF4FF00060294961
:10057000086010BD10B5002100200022214B5B68EF
:1005800003F00C0121B1042906D0082928D107E085
:10059000214B224C236027E01F4B204C236023E09B
:1005A000184B5B6803F47010164B5B6803F48032E1
:1005B000022303EB904022B9194B4343174C2360AD
:1005C0000DE0104B5B6803F4003323B1144B43433D
:1005D000124C236003E0104B4343104C236003E0B4
:1005E0000D4B0E4C236000BF00BF064B5B68C3F38E
:1005F00003130C4CE15C094B1B68CB40074C236098
:1006000010BD000000100240002002400000FFF872
:10061000FFFFF6FE08ED00E000127A000000002067
:1006200000093D00040000200948804709480047B0
:10063000FEE7FEE7FEE7FEE7FEE7FEE7FEE7FEE792
:10064000FEE7FEE704480549054A064B70470000EF
:1006500027050008ED00000858190020581F002049
:10066000581B0020581B002031490143314A1160BA
:10067000704770B5002100230F22C47804B32D4CBD
:10068000246804F4E064C4F5E064210AC1F10403C1
:10069000CA40447804FA03F18478144021430901E4
:1006A000254C0678A155047804F01F050124AC40C0
:1006B00005786D11AD0005F1E025C5F8004109E0B0
:1006C000047804F01F050124AC401C4D0678761117
:1006D00045F8264070BD1A4A0A400243154B1B1FBD
:1006E0001A60704739B1134A121D12680243114B48
:1006F0001B1D1A6006E00F4A121D126882430D4B43
:100700001B1D1A607047042808D14FF0E0210969C9
:1007100041F004014FF0E022116107E04FF0E021C9
:10072000096921F004014FF0E022116170470000D7
:100730000000FA050CED00E000E400E080E100E0DC
:1007400080FFFF1F10B50446CC48844208D1012128
:10075000042000F02DFB0021042000F029FB46E0DE
:10076000C748844208D10121082000F021FB002164
:10077000082000F01DFB3AE0C248844208D1012164
:10078000102000F015FB0021102000F011FB2EE0DE
:10079000BD48844208D10121202000F009FB00213E
:1007A000202000F005FB22E0B848844208D1012156
:1007B000402000F0FDFA0021402000F0F9FA16E098
:1007C000B348844208D10121802000F0F1FA0021D1
:1007D000802000F0EDFA0AE0AE48844207D1012102
:1007E000801500F0E5FA0021A01500F0E1FA10BD37
:1007F00010B50121084600F0DBFA0021012000F0CD
:10080000D7FA10BD2DE9F041024600250026002050
:1008100000230024002791F803C00CF00F0591F885
:1008200003C00CF0100CBCF1000F03D091F802C013
:100830004CEA050591F800C0BCF1000F31D01468F6
:1008400000202BE04FF0010C0CFA00F3B1F800C0CF
:100850000CEA03069E4220D183004FF00F0C0CFAE5
:1008600003F7BC4305FA03FC4CEA040491F803C007
:10087000BCF1280F06D14FF0010C0CFA00FCC2F8B5
:1008800014C00AE091F803C0BCF1480F05D14FF045
:10089000010C0CFA00FCC2F810C0401C0828D1D38F
:1008A0001460B1F800C0BCF1FF0F34DD54680020C3
:1008B0002EE000F1080C4FF0010808FA0CF3B1F833
:1008C00000C00CEA03069E4221D183004FF00F0CBA
:1008D0000CFA03F7BC4305FA03FC4CEA040491F854
:1008E00003C0BCF1280F05D100F1080C08FA0CF880
:1008F000C2F8148091F803C0BCF1480F07D100F191
:10090000080C4FF0010808FA0CF8C2F81080401CDF
:100910000828CED35460BDE8F0814FF6FF71018006
:10092000022181700421C170704702460020936843
:100930000B400BB1012000E00020704701468868A1
:1009400080B2704702460020D3680B400BB10120F3
:1009500000E0002070470146C86880B2704701611E
:100960007047416170470AB1016100E04161704721
:10097000C16070474FF480320A43826181618261B5
:1009800082698269704702460020434B18684FF61F
:100990008073184040EA021008433F4B18607047CC
:1009A0003E49C8617047F0B50A4600230024002183
:1009B000002500F00046B6F1004F02D1364EF16935
:1009C00001E0354E7168C0F3034583B200F4401670
:1009D000B6F5401F08D121F070612F4E766826F0E1
:1009E00070662D4F7E6012E000F48016B6F5801F11
:1009F00006D1032606FA05F4A14341F0706106E032
:100A0000460D360103FA06F6B14341F0706122B19A
:100A1000460D360103FA06F6314300F00046B6F102
:100A2000004F02D11C4EF16101E01B4E7160F0BD20
:100A300030B500228B071C0F0F2303FA04F2164B6C
:100A400008338C1053F824309343134C08348D1022
:100A500044F8253023468C1053F824308C07240F9B
:100A600000FA04F423430C4C08348D1044F825306C
:100A700030BD0A49DC3108607047000000080140C1
:100A8000000C01400010014000140140001801401A
:100A9000001C0140002001400000014000002042F5
:100AA000DF48006840F00100DD4908600846406802
:100AB000DC490840DA49486008460068DA490840DD
:100AC000D74908600846006820F48020086008467E
:100AD000406820F4FE0048604FF41F0088607047B3
:100AE000CF49096821F48031CD4A11601146096867
:100AF00021F480211160B0F5803F03D0B0F5802F44
:100B00000ED106E0C649096841F48031C44A11603B
:100B100007E0C349096841F4A021C14A116000E01F
:100B200000BF00BF704710B501460022002300201F
:100B30004A11012A02D1BA4C236806E0022A02D1E6
:100B4000B74C236A01E0B64C636A01F01F0201242E
:100B500094401C400CB1012000E0002010BD38B5CD
:100B6000002000900024002500BF3120FFF7DBFFAC
:100B700005460098401C00900098B0F5A06F01D089
:100B8000002DF2D03120FFF7CEFF08B1012400E0A4
:100B90000024204638BD01460020A14A106820F0FC
:100BA000F80040EAC10010607047A0490860704733
:100BB000024600209A4B586820F47C1042EA010358
:100BC0001843974B5860704798490866704701462C
:100BD0000020934A506820F003000843506070479B
:100BE0008F48406800F00C007047014600208C4A96
:100BF000506820F0F0000843506070470146002024
:100C0000874A506820F4E06008435060704701460E
:100C10000020834A506820F4605040EAC1005060D0
:100C2000704729B17E4A527A02437D4B5A7204E0E2
:100C30007B4A527A82437A4B5A7270477B49D83149
:100C40000860704701460020754A506820F4404013
:100C50000843506070470021714A20321170704A79
:100C600082F82010012802D004280AD104E00121D2
:100C70006B4A2032117005E00521694A203211705B
:100C800000E000BF00BF70476949086070476449D1
:100C9000096A0143624A1162704765494439086034
:100CA000704730B500210022002400235C4D6D68A0
:100CB00005F00C0121B1042905D0082923D105E054
:100CC0005C4D056022E05B4D05601FE0544D6D6892
:100CD00005F47012524D6D6805F48034022505EB61
:100CE00092421CB9544D554305600BE04C4D6D6864
:100CF00005F400351DB1504D5543056002E04D4DE2
:100D00005543056002E04B4D056000BF00BF444DF8
:100D10006D6805F0F0010909484D6B5C0568DD4020
:100D200045603F4D6D6805F4E061090A434D6B5C19
:100D30004568DD4085603A4D6D6805F46051C90A2B
:100D40003E4D6B5C4568DD40C560354D6D6805F412
:100D50004041890B3A4D6B5CC568B5FBF3F5056105
:100D600030BD29B12E4A526902432D4B5A6104E02D
:100D70002B4A526982432A4B5A61704729B1284A4B
:100D800092690243264B9A6104E0254A92698243A4
:100D9000234B9A61704729B1214AD2690243204B03
:100DA000DA6104E01E4AD26982431D4BDA61704762
:100DB00029B11B4AD2680243194BDA6004E0184A91
:100DC000D2688243164BDA60704729B1144A12691F
:100DD0000243134B1A6104E0114A12698243104B1B
:100DE0001A61704712494039086070470F49C8645A
:100DF00070470B49C87170470948406A40F08070DD
:100E000007494862704701460020054A92680A4037
:100E10000AB1012000E00020704701498872704744
:100E2000001002400000FFF8FFFFF6FE0000424203
:100E30008004424200127A0000093D0014000020A4
:100E40002400002010B50446FE48844208D1012148
:100E5000C014FFF7ADFF0021E014FFF7A9FFC4E0C5
:100E6000B4F1804F08D101210846FFF7AEFF002101
:100E70000120FFF7AAFFB8E0F348844208D101211E
:100E80000220FFF7A2FF00210220FFF79EFFACE047
:100E9000EE48844208D101210420FFF796FF00218B
:100EA0000420FFF792FFA0E0E948844208D1012125
:100EB0000820FFF78AFF00210820FFF786FF94E053
:100EC000E448844208D101211020FFF77EFF002171
:100ED0001020FFF77AFF88E0DF48844208D1012123
:100EE0002020FFF772FF00212020FFF76EFF7CE03B
:100EF000DA48844208D101214014FFF759FF00214C
:100F00006014FFF755FF70E0D548844209D10121F4
:100F1000C804FFF74DFF00214FF40020FFF748FF02
:100F200063E0D048844209D101210805FFF740FF62
:100F300000214FF48010FFF73BFF56E0CA4884427F
:100F400009D101214805FFF733FF00214FF40010BC
:100F5000FFF72EFF49E0C548844208D10121402017
:100F6000FFF733FF00214020FFF72FFF3DE0C0488F
:100F7000844208D101218020FFF727FF0021802033
:100F8000FFF723FF31E0BB48844208D101218015DF
:100F9000FFF71BFF0021A015FFF717FF25E0B6485C
:100FA000844209D101210804FFF702FF00214FF418
:100FB0008030FFF7FDFE18E0B048844209D10121DE
:100FC0004804FFF7F5FE00214FF40030FFF7F0FE74
:100FD0000BE0AB48844208D101218804FFF7E8FE0A
:100FE00000214FF48020FFF7E3FE10BD00220288AD
:100FF000944B98420ED0994B98420BD0B0F1804F51
:1010000008D0914B984205D0904B984202D0904B1B
:10101000984204D14FF68F731A404B881A438D4B78
:10102000984207D08C4B984204D04FF6FF431A40A9
:10103000CB881A4302808B8883850B880385814B7C
:1010400098420BD0854B984208D08B4B984205D0E4
:101050008A4B984202D08A4B984201D10B7A038680
:1010600001238382704770B5002400220023058C81
:101070004FF6FE7635400584028C8388048B4FF64C
:101080008F752C40B51E2C400D882C43751E2A40B0
:101090000D892A434D882A436A4DA8420BD06F4DD3
:1010A000A84208D0744DA84205D0744DA84202D081
:1010B000734DA84213D14FF6F7752A404D892A4344
:1010C0004FF6FB752A408D882A434FF6FF652B406B
:1010D0004FF6FF552B408D892B43CD892B438380C1
:1010E0000483CD888586028470BD70B500240022FB
:1010F0000023058C4FF6EF7635400584028C8388FB
:10110000048B48F6FF752C404FF6FF452C400D88A8
:101110004FF6FF7606EA05252C434FF6DF752A4089
:101120000D8906EA05152A434D8806EA05152A4366
:10113000444DA84202D0494DA8421DD14FF67F75BB
:101140002A404D894FF6FF7606EA05152A434FF6E9
:10115000BF752A408D8806EA05152A434FF6FF35EC
:101160002B404FF2FF752B408D8906EA85052B43F6
:10117000CD8906EA85052B4383800483CD880587C6
:10118000028470BD70B5002400220023058C4FF648
:10119000FF6635400584028C8388848B4FF68F75FB
:1011A0002C404FF6FC752C400D882C434FF6FF5514
:1011B0002A400D894FF6FF7606EA05252A434D8819
:1011C00006EA05252A431F4DA84202D0234DA84216
:1011D0001DD14FF2FF752A404D894FF6FF7606EA82
:1011E00005252A434FF6FF352A408D8806EA052556
:1011F0002A434EF6FF752B404DF6FF752B408D8927
:1012000006EA05152B43CD8906EA05152B43838095
:101210008483CD888587028470BD70B50022002349
:101220000024058C4EF6FF7635400584038C8488B7
:10123000828B48F6FF752A404FF6FF452A400D88FD
:1012400020E00000002C01400004004000080040A5
:10125000000C004000100040001400400034014029
:10126000004C014000500140005401400018004073
:10127000001C0040002000400040014000440140AC
:10128000004801404FF6FF7606EA05252A434DF651
:10129000FF752B400D8906EA05352B434D8806EA7C
:1012A00005352B43FA4DA84202D0FA4DA84208D189
:1012B0004BF6FF752C408D894FF6FF7606EA8515B3
:1012C0002C4384808283CD88A0F84050038470BD75
:1012D000828B4FF2FF331A408283828B4FF6FF736B
:1012E00003EA01231A4382837047F0B50C46154682
:1012F000002200210026078C4EF6FF7C07EA0C072F
:101300000784828B018C4FF6FF7707EA043640F69C
:10131000FF473A404FF6FF7707EA05273A434FF673
:10132000FF7707EA03373A43D94FB8420ED0D94F77
:10133000B8420BD0B0F1804F08D0D74FB84205D09B
:10134000D64FB84202D0D64FB84206D14DF6FF77FD
:10135000394046F48057394305E047F6FF57394096
:1013600044F48057394382830184F0BD828B4FF669
:10137000F3731A408283828B0A4382837047F0B5ED
:101380000C461546002200210026078C4FF6FF6C04
:1013900007EA0C070784828B018C4FF6FF7707EA78
:1013A00004264FF60C773A404FF6FF7707EA03170B
:1013B0002F433A43B64FB8420ED0B64FB8420BD087
:1013C000B0F1804F08D0B44FB84205D0B34FB84207
:1013D00002D0B34FB84206D14FF6FF57394046F41A
:1013E0008077394305E04FF2FF57394044F4807766
:1013F000394382830184F0BD028B4FF2FF331A40E0
:101400000283028B4FF6FF7303EA01231A43028320
:101410007047F0B50C461546002200210026078CC7
:101420004FF6EF7C07EA0C070784028B018C4FF61E
:10143000FF7707EA041640F6FF473A404FF6FF777A
:1014400007EA03373A434FF6FF7707EA05273A439F
:101450008F4FB8420ED08F4FB8420BD0B0F1804FB3
:1014600008D08D4FB84205D08C4FB84202D08C4F77
:10147000B84206D14FF6DF77394046F010073943BE
:1014800005E04FF65F77394044F010073943028397
:101490000184F0BD028B4FF6F3731A400283028B76
:1014A0000A4302837047F0B50C461546002200211E
:1014B000068C4FF6FE773E400684028B018C4FF679
:1014C0000C7632407E1C06EA03162E433243704EE1
:1014D000B0420ED06F4EB0420BD0B0F1804F08D06A
:1014E0006D4EB04205D06D4EB04202D06C4EB0424F
:1014F00006D14FF6FD76314044F00106314305E058
:101500004FF6F576314044F0010631430283018401
:10151000F0BD70B505460C465D4885420ED05D486D
:1015200085420BD0B5F1804F08D05B48854205D08D
:101530005A48854202D05A48854200D100E000BF97
:10154000208850B92389A28861882846FFF7ABFF1D
:10155000E1882846FFF79EFF25E0208804280AD16D
:101560002389A28861882846FFF753FFE18828462F
:10157000FFF742FF17E0208808280AD12389A288B4
:1015800061882846FFF7FBFEE1882846FFF7EEFE5C
:1015900009E02389A28861882846FFF7A6FEE18832
:1015A0002846FFF795FE70BD2DE9F04105460C4633
:1015B00000260127608808B9022600E00026A088DE
:1015C000012801D1022700E001272088A0B9238942
:1015D000A28861882846FFF766FFE1882846FFF762
:1015E00059FF23893A4631462846FFF712FFE18822
:1015F0002846FFF701FF13E02389A2886188284667
:10160000FFF707FFE1882846FFF7F6FE23893A46F1
:1016100031462846FFF747FFE1882846FFF73AFFA3
:10162000BDE8F0810A884B881A438B881A43CB881F
:101630001A430B891A434B891A438B891A43A0F822
:10164000442070474FF6FF71818000210180C180E6
:101650004180017270470021018041808180C180FA
:10166000018141818181C1817047002101804180D8
:10167000012181800021C18001817047002101800A
:1016800041808180C180018141818181704700005A
:10169000002C0140003401400004004000080040DC
:1016A000000C004021B1028842F00102028004E0F7
:1016B00002884FF6FE731A400280704731B1B0F8CD
:1016C000442042F40042A0F8442005E0B0F8442051
:1016D000C2F30E02A0F8442070471AB183890B436D
:1016E000838102E083898B438381704781827047C5
:1016F00041EA0203A0F8483070471AB183890B43CE
:10170000838102E083898B438381704701894FF68F
:10171000F8721140018170470A46002101894FF695
:101720008F73194011430181704730B504460D464F
:1017300029462046FFF7F0FF208940F0070020816E
:1017400030BD2DE9F04104460D4616461F46602D7A
:1017500006D13B46012231462046FFF75AFE05E0FE
:101760003B46012231462046FFF79DFE2946204692
:10177000FFF7D2FF208940F007002081BDE8F0810B
:1017800030B50C4600210189C9B24FF6FF7505EA54
:101790000325154325432943018130BD2DE9F0413F
:1017A00005460E4617469846002443463A463146BB
:1017B0002846FFF7E5FF2C894FF6F870044044F007
:1017C00007044FF68F70044044F070042C81BDE88C
:1017D000F081F0B504460D4616461F463B4632469C
:1017E00029462046FFF7CCFF208940F48040208125
:1017F000F0BD0185828270470A46002101884FF6BC
:101800008F731940114301807047F0B50C4615469F
:101810001E460021002200230189028B038C4FF613
:10182000F877394021434FF6FC473A4040F2011720
:101830003A434FF6DD773B404FF6FF7707EA06174E
:101840002F433B43018102830384F0BD0A460021FC
:10185000018B4FF68F7319401143018370470A467D
:101860000021018B48F6FF7319404FF6FF7303EA1E
:1018700002231943018370470A460021818B4FF6EA
:101880008F7319401143818370470A460021818B71
:1018900048F6FF7319404FF6FF7303EA022319431A
:1018A0008183704721B1028842F08002028004E007
:1018B00002884FF67F731A400280704721B18288F8
:1018C00042F00402828004E082884FF6FB731A40E3
:1018D0008280704721B1828842F00802828004E051
:1018E00082884FF6F7731A408280704721B1828850
:1018F00042F00102828004E082884FF6FE731A40B3
:10190000828070470A460021018B4FF6F773194019
:101910001143018370470A460021018B4FF2FF7388
:1019200019404FF6FF7303EA0223194301837047FE
:101930000A460021818B4FF6F773194011438183CA
:1019400070470A460021818B4FF2FF7319404FF612
:10195000FF7303EA02231943818370470A4600217B
:10196000018B4FF6FB7319401143018370470A4600
:101970000021018B4FF6FF3319404FF6FF7303EA46
:1019800002231943018370470A460021818B4FF6D9
:10199000FB7319401143818370470A460021818BF4
:1019A0004FF6FF3319404FF6FF7303EA0223194342
:1019B000818370470A460021018B4FF67F731940DF
:1019C0001143018370470A460021018BC1F30E01C8
:1019D0004FF6FF7303EA02231943018370470A4657
:1019E0000021818B4FF67F7319401143818370472B
:1019F0000A460021818BC1F30E014FF6FF7303EA03
:101A000002231943818370470A460021018C4FF657
:101A1000FD7319401143018470470A460021018C6F
:101A20004FF6F77319401143018470470A460021AD
:101A3000018C4FF6DF7319404FF6FF7303EA021370
:101A40001943018470470A460021018C4FF67F73C9
:101A500019404FF6FF7303EA0213194301847047DC
:101A60000A460021018C4FF6FF5319404FF6FF73D1
:101A700003EA02231943018470470A460021018CBE
:101A80004FF2FF7319404FF6FF7303EA0223194325
:101A9000018470470A460021018C4DF6FF731940FE
:101AA0004FF6FF7303EA023319430184704730B5E0
:101AB000002301248C40A3B2048C9C430484048C36
:101AC00002FA01F5ADB22C43048430BD30B50023D9
:101AD00004248C40A3B2048C9C430484048C02FA3A
:101AE00001F5ADB22C43048430BD70B5034600202F
:101AF00000241846183001258D40ACB21D8CA5433A
:101B00001D8409B1082909D100EB6100056825F0A1
:101B1000700505600568154305600EE00D1FC5F3EF
:101B20004E052844056825F4E045056005684FF634
:101B3000FF7606EA02263543056070BD21B10288B2
:101B400042F00202028004E002884FF6FD731A4060
:101B50000280704721B1028842F00402028004E052
:101B600002884FF6FB731A400280704721B18288C9
:101B700042F08002828004E082884FF67F731A4030
:101B80008280704702884FF6F7731A4002800288FD
:101B90000A430280704782884FF68F731A40828012
:101BA00082880A438280704702894FF6F8731A4090
:101BB000028102890A430281704702894FF67F73CE
:101BC0001A40028102890A4302817047818470476A
:101BD000818570478186704701877047818770478C
:101BE000A0F84010704702884FF6FF431A40028069
:101BF00002880A43028070470146888E704701467A
:101C0000088F70470146888F70470146B1F8400041
:101C100070470146888C70470146088D7047024620
:101C20000020138A0B400BB1012000E00020704718
:101C3000CA430282704730B50246002000230024C8
:101C4000158A05EA0103958905EA010413B10CB16F
:101C5000012000E0002030BDCA430282704700002E
:101C600010B50446FB48844209D101218803FFF7DF
:101C70009FF800214FF48040FFF79AF832E0F648D1
:101C8000844209D101214804FFF79FF800214FF455
:101C90000030FFF79AF825E0F048844209D101218D
:101CA0008804FFF792F800214FF48020FFF78DF8A9
:101CB00018E0EB48844209D10121C804FFF785F8F8
:101CC00000214FF40020FFF780F80BE0E548844244
:101CD00008D101210805FFF778F800214FF48010A2
:101CE000FFF773F810BD2DE9F04786B005460E46A4
:101CF0000024A24600BFA1460027B08900B100BF62
:101D00002F462C8A4CF6FF700440F08804432C8246
:101D1000AC894EF6F3100440B088318908437189CC
:101D200008430443AC81AC8A4FF6FF400440B089BD
:101D30000443AC8201A8FEF7B4FFC648874202D133
:101D4000DDF810A001E0DDF80CA0A88900F4004047
:101D500040B10AEBCA0000EB0A1031684900B0FB41
:101D6000F1F807E00AEBCA0000EB0A1031688900BD
:101D7000B0FBF1F86420B8FBF0F004012009642105
:101D800001FB1089A88900F4004040B1322000EB2B
:101D9000C900B0FBF1F000F00700044308E0322076
:101DA00000EB09106421B0FBF1F000F00F000443D8
:101DB0002C8106B0BDE8F0874FF416510160002178
:101DC0008180C18001810C21418100218181704786
:101DD00010B502460020108A4FF2FF0318400B880E
:101DE0004C8823438C882343CC8823431843108298
:101DF00010BD0021018041808180C180704721B1E8
:101E0000828942F40052828104E082894DF6FF7398
:101E10001A4082817047F0B5034600240026002551
:101E2000002040F66A17B94200D100BF1846C1F33E
:101E3000421401F01F06012707FA06F5012C01D113
:101E40000C3004E0022C01D1103000E014301AB143
:101E500007682F43076002E00768AF430760F0BDE3
:101E60001AB1838A0B43838202E0838A8B43838285
:101E70007047028A4FF6F0731A400282028A0A43C0
:101E80000282704782894FF2FF731A4082818289F1
:101E90000A438281704721B1828942F00202828125
:101EA00004E082894FF6FD731A4082817047028AEE
:101EB0004FF6DF731A400282028A0A430282704799
:101EC00021B1028A42F48042028204E0028A4BF687
:101ED000FF731A4002827047C1F308028280704784
:101EE00001468888C0F308007047818941F00101EC
:101EF00081817047028BD2B20283028B42EA0122B7
:101F000002837047028B02F47F420283028B0A43F2
:101F10000283704721B1828A42F02002828204E06B
:101F2000828A4FF6DF731A408282704721B1828A1B
:101F300042F01002828204E0828A4FF6EF731A4068
:101F40008282704721B1828A42F00802828204E0D4
:101F5000828A4FF6F7731A408282704721B18289D4
:101F600042F40042828103E08289C2F30E02828140
:101F7000704721B1828A42F40062828204E0828A40
:101F80004FF2FF731A4082827047828A4FF6FB73CA
:101F90001A408282828A0A438282704721B1828AF1
:101FA00042F00202828204E0828A4FF6FD731A40F8
:101FB0008282704702460020B1F5007F00D100BF49
:101FC00013880B400BB1012000E00020704701F4A2
:101FD0000072B2F5007F00D100BFCA430280704793
:101FE00070B50246002400230025002040F66A1642
:101FF000B14200D100BFC1F3421501F01F03012619
:1020000006FA03F3012D02D19689334006E0022D32
:1020100002D1168A334001E0968A33400C12012621
:1020200006FA04F41688344013B10CB1012000E024
:10203000002070BD10B50022002340F66A14A142B2
:1020400000D100BF0A1201249440A3B2DC430480F3
:1020500010BD00000038014000440040004800402E
:10206000004C00400050004010B56FF00400FEF737
:102070004AFB2E4800682E49B0FBF1F02D4908704C
:102080000846007800EB4001C1EBC0104FF6FF712D
:1020900001EAC0002849088010BD0146254A12788F
:1020A0004A434FF0E0235A6100229A611A461269AE
:1020B00042F001021A6100BF4FF0E022106900F007
:1020C00001021AB100F48032002AF5D04FF0E0226C
:1020D000126922F001024FF0E0231A6100229A6196
:1020E00070470146144A12884A434FF0E0235A6170
:1020F00000229A611A46126942F001021A6100BF79
:102100004FF0E022106900F001021AB100F48032B1
:10211000002AF5D04FF0E022126922F001024FF0C0
:10212000E0231A6100229A6170470000000000203D
:1021300000127A00280000202A000020014600BF7B
:10214000704700BF494A128802F04002002AF9D0C5
:10215000C2B2464B1B1D1A80704710B586B00446AC
:10216000012144F20400FEF709FE4FF40070ADF8BF
:10217000140003208DF8160018208DF8170005A90B
:102180003B48FEF73FFB4FF48060ADF8140004209D
:102190008DF8170005A93648FEF734FB25208DF889
:1021A000000003208DF801008DF8020001208DF859
:1021B00003006846FEF75DFA01940020ADF80800C0
:1021C000ADF80A00ADF80C00ADF810000C20ADF829
:1021D0000E0001A92548FFF786FD012240F2255196
:1021E0002248FFF718FE01212048FFF708FE06B03D
:1021F00010BD10B540F225511C48FFF7F1FE10B399
:102200001A48FFF76DFEC4B21A48008800F4004077
:10221000C8B91848008800F4804060B10A2C03D087
:1022200000201449088020E01248008840F4004053
:102230001049088019E00D2C06D10E48008840F4A2
:1022400080400C49088010E00A480088C0F30D0067
:1022500009490C5407480088401C06490880084674
:102260000088C72801DD0020088010BD003801402B
:102270000008014030000020A013002008B5012113
:102280001020FEF77BFD4FF40050ADF80000102049
:102290008DF8030003208DF8020069460448FEF71C
:1022A000B1FA4FF400510248FEF759FB08BD000097
:1022B0000010014010B54021F948FEF750FB802185
:1022C000F748FEF74EFB8021F548FEF748FB10BDAE
:1022D00010B54021F248FEF742FB4021F048FEF7DE
:1022E00040FB10BD70B5044600251BE04021EC48C2
:1022F000FEF737FB04F0800020B18021E848FEF7AC
:102300002EFB03E08021E648FEF72BFB4021E4484A
:10231000FEF725FB4021E248FEF723FB6006040E92
:10232000681CC5B2082DE1DB70BD10B58021DC480A
:10233000FEF715FB4021DA48FEF711FB8021D84853
:10234000FEF70FFB4021D648FEF70BFB10BD70B522
:1023500005460C46FFF7E9FF7820FFF7C3FFFFF7BC
:10236000B7FF1CB14020FFF7BDFF02E00020FFF7E0
:10237000B9FFFFF7ADFF2846FFF7B4FFFFF7A8FF4F
:10238000FFF798FF70BD10B504461CB90021A620C8
:10239000FFF7DDFF012C03D10021A720FFF7D7FFB6
:1023A00010BD10B504463CB90021C820FFF7CFFF8F
:1023B0000021A120FFF7CBFF012C07D10021C02075
:1023C000FFF7C5FF0021A020FFF7C1FF10BD10B52A
:1023D00000218D20FFF7BBFF00211420FFF7B7FF7E
:1023E0000021AF20FFF7B3FF10BD10B500218D20F5
:1023F000FFF7ADFF00211020FFF7A9FF0021AF205C
:10240000FFF7A5FF10BD70B500241CE004F1B0017A
:10241000C8B20021FFF79BFF00210846FFF797FF96
:1024200000211020FFF793FF002508E09D4901EBF4
:10243000C501085D0121FFF78AFF681CC5B2802D28
:10244000F4DB601CC4B2082CE0DB70BD70B5002466
:102450000CE0002506E00020924901EBC50108557B
:10246000681CC5B2802DF6DB601CC4B2082CF0DB02
:10247000FFF7C9FF70BD70B50A46CE1701EB56765F
:10248000C6F3C703CE1701EB5676F610A1EBC606CE
:10249000F4B20122A240D5B2824A02EBC002D25C61
:1024A0002A43804E06EBC006F25470BD70B50B4651
:1024B000CE1701EB5676C6F3C702CE1701EB567660
:1024C000F610A1EBC606F4B20123A340DDB2754BB2
:1024D00003EBC0039B5CDB43724E06EBC006B354B8
:1024E000704B03EBC0039B5C2B436E4E06EBC006A8
:1024F000B3546C4B03EBC0039B5CDB43694E06EBB0
:10250000C006B35470BD00BF70472DE9F0430646C6
:102510000F469046002544463BE03A1BD1B2721963
:10252000D0B2FFF7A8FF3A1BD1B2721BD0B2FFF7AF
:10253000A2FF3A19D1B2721BD0B2FFF79CFF3A1931
:10254000D1B27219D0B2FFF796FF7A19D1B232190F
:10255000D0B2FFF790FF7A1BD1B23219D0B2FFF799
:102560008AFF7A1BD1B2321BD0B2FFF784FF7A19EF
:10257000D1B2321BD0B2FFF77EFF6D1C05FB05F018
:1025800004FB040008FB1809B9F1000F01DD641E0B
:102590006D1E6000604308FB08F18842BDDABDE8AB
:1025A000F0832DE9FF4F81B080460E461C46009611
:1025B0002046E31704EB5373DB1021464FEAE47C1B
:1025C00004EB5C7C4FEAEC0CA4EBCC0CBCF1000FF0
:1025D00002D04FF0010C01E04FF0000C63442246A2
:1025E00004EBD27C4FEA6C0C03FB0CF303F0FF0B03
:1025F00003982038C7B2002547E00C2C07D107EB21
:102600004700294901EB800010F805A014E0102CC8
:1026100005D1264800EB071010F805A00CE0182C97
:1026200007D107EBC700224901EB800010F805A095
:1026300002E005B0BDE8F08F4FF000091FE00AF09E
:10264000800020B131464046FFF715FF03E03146D8
:102650004046FFF72BFF4FEA4A604FEA106A701CB2
:10266000C6B20098301AA04205D1009E08F10100C0
:1026700000F0FF0806E009F1010000F0FF09B9F1E0
:10268000080FDCDB00BF681CC5B25D45B5DB00BFD1
:10269000CFE7F0B506460F4614461D461EE0000083
:1026A0000008014068140020A25D000816620008BE
:1026B0000668000822782B4639463046FFF771FF3E
:1026C000284605EBD07106EB6101CEB2C5F1800062
:1026D000B04202DA0026B81CC7B2641C2078202859
:1026E00002DB20787E28E5DDF0BD10B50246012032
:1026F00000E050430B1EA1F10104E1B2F9D110BD7D
:102700002DE9F04F06468A4691461F46099C002552
:102710002CE0781B401EC1B20A20FFF7E6FFB9FB90
:10272000F0F00A21B0FBF1F201FB1208B8F1000F42
:102730000CD1A34604EBDB71491001FB0561C8B263
:10274000234630225146FFF72CFF0DE0A34604EB51
:10275000DB71491001FB0561C8B208F13001CAB252
:1027600023465146FFF71DFF681CC5B2BD42D0DBB2
:10277000BDE8F08F2DE9FF4F0746884691461C467D
:102780004FF0000B0297CDF804802046E11704EBD0
:102790005171C1F3C701009160E009FB04F0C1175A
:1027A00000EB51710BEBE101CEB20BF1010000F037
:1027B000FF0B002550E0102C05D1BE4800EB0610A1
:1027C000405D03901BE0182C07D106EBC600BA4908
:1027D00001EBC000405D039011E0202C05D1B7480B
:1027E00000EBC610405D039009E0402C05D1B448D1
:1027F00000EB4620405D039001E0BDE8FF8F4FF005
:10280000000A17E0039800F0010020B14146384665
:10281000FFF731FE03E041463846FFF747FE0398D5
:102820004010039008F1010000F0FF080AF10100D8
:1028300000F0FF0ABAF1080FE4DB781CC7B2029877
:10284000381AA04204D1029F01980830C0B201900A
:10285000DDF80480681CC5B2A542ACDB0098411EBF
:10286000C9B20091002898D100BFC6E780468946CA
:102870000026002749E03FB9102332461821802066
:10288000FFF778FF701CC6B2464522D14FF0000A10
:102890001AE0002410E000250AE08A4800EBC4009A
:1028A000415D601E874A02EBC0004155681CC5B2FD
:1028B000082DF2DB601CC4B2902CECDBFFF7A3FD0B
:1028C0000AF1010000F0FF0A4FEA09105045E0DC70
:1028D0000026781CC7B2102F00D10027002410E07A
:1028E00000250AE0774800EBC400415D601E754A90
:1028F00002EBC0004155681CC5B2082DF2DB601C1C
:10290000C4B2902CECDBFFF77EFDB4E770B5044653
:102910000D4605F1B001C8B20021FFF718FD1021E6
:1029200041EA14100021FFF712FD04F00F0141F0FD
:1029300001000021FFF70BFD70BD2DE9F05F05469A
:102940000E4617469846DDF828B04FF00009CA46F3
:102950000024E11704EB5171C910A4EBC10101B9C6
:1029600001E0601CC4B2344614E021462846FFF75B
:10297000CDFFAA460AE01BF809000121FFF7E7FC9A
:1029800009F101090AF1010000F0FF0ABA45F2DB82
:10299000601CC4B24445E8DBBDE8F09F08B50121E6
:1029A0000420FEF7EBF9C020ADF8000010208DF8F0
:1029B000030003208DF8020069464348FDF722FF1B
:1029C000C0214148FDF7CBFFC820FFF78AFB00215B
:1029D000AE20FFF7BCFC00210846FFF7B8FC002141
:1029E0001020FFF7B4FC00214020FFF7B0FC0021CD
:1029F0008120FFF7ACFC0021CF20FFF7A8FC0021CD
:102A0000A120FFF7A4FC0021C820FFF7A0FC0021B3
:102A1000A620FFF79CFC0021A820FFF798FC0021CE
:102A20003F20FFF794FC0021D320FFF790FC00210A
:102A30000846FFF78CFC0021D520FFF788FC002119
:102A40008020FFF784FC0021D920FFF780FC0021C3
:102A5000F120FFF77CFC0021DA20FFF778FC002151
:102A60001220FFF774FC0021DB20FFF770FC00212F
:102A70004020FFF76CFC00212020FFF768FC0021BC
:102A80000220FFF764FC00218D20FFF760FC00218D
:102A90001420FFF75CFC0021A420FFF758FC002164
:102AA000A620FFF754FC0021AF20FFF750FCFFF7F2
:102AB000CDFC08BD62750008320000200A0100202C
:102AC0000A03002068140020000801402DE9F041AD
:102AD00005460C46FE480168204603F073F8074699
:102AE000FC480168384602F065FF0646FA4801686E
:102AF000304602F0B3FDF8490860F8484168F848EC
:102B0000006803F05FF80646F4488168304603F039
:102B100059F8F4490860F148C06880F00040486006
:102B2000EE48C06880F000408860EF480068C860E8
:102B30000868E849096802F03DFF0646E748016871
:102B4000304602F08BFDE5490860E6494868E149F6
:102B5000096802F02FFF0646E0484168304602F05F
:102B60007DFDDE494860DF498868DA49096802F07E
:102B700021FF0646D9488168304602F06FFDD749EB
:102B80008860D849C868D349096802F013FF06462F
:102B9000D248C168304602F061FDD049C860CE48D5
:102BA0000168284603F00EF8D0490860D048007844
:102BB00002F0B8FE0646C9480168304602F0FAFE47
:102BC000CC490860CA48007802F0ACFE0646C3480B
:102BD0008168304602F0EEFEC7490860C4480078BC
:102BE00002F0A0FE0746C3480168384602F0E2FE44
:102BF0000646C2480168304602F030FDC049086010
:102C000008460168BB48006802F096FDBD490860AF
:102C1000BB480168B848006802F08EFDBA490860F8
:102C2000B4480068B9490860B148007802F07AFEFB
:102C30000646AA484168304602F0BCFEB449086026
:102C4000B2480168AF48006802F0B4FE0646A348E7
:102C50000168304602F0ABFFA0490860AC4801684B
:102C6000A848006802F0A6FE06469C484168304627
:102C700002F09DFF99494860A4480168A248006895
:102C800002F098FE064695488168304602F08FFFB4
:102C9000924988609E4801689B48006802F08AFE5D
:102CA00006468E48C168304602F081FF8B49C860F5
:102CB0008E4801689348006802F07CFE064686480C
:102CC0000168304602F0CAFC834908608748016801
:102CD0008D48006802F06EFE06467D480168304669
:102CE00002F0BCFC7A49086008460168204602F000
:102CF00069FF88490860BDE8F0812DE9F04105468B
:102D00000C4673480168204602F05CFF0746714894
:102D10000168384602F04EFE06467F48016830469C
:102D200002F09CFC7C4908606C4841686C48006873
:102D300002F048FF064669488168304602F042FFCB
:102D4000684908606548C06880F000404860634892
:102D5000C06880F00040886063480068C860086808
:102D60005C49096802F026FE06465C480168304668
:102D700002F074FC594908605A4948685549096885
:102D800002F018FE064655484168304602F066FCDF
:102D900052494860534988684E49096802F00AFE62
:102DA00006464E488168304602F058FC4B49886020
:102DB0004C49C8684749096802F0FCFD0646474887
:102DC000C168304602F04AFC4449C860484800786F
:102DD00002F0A8FD064641480168304602F0EAFDCF
:102DE000444908604248007802F09CFD06463B4892
:102DF0008168304602F0DEFD3F4908603C480078BB
:102E000002F090FD07463B480168384602F0D2FDCB
:102E100006463A480168304602F020FC384908600E
:102E2000084601683348006802F086FC35490860AE
:102E3000334801683048006802F07EFC324908607F
:102E40002C480068314908602948007802F06AFD82
:102E5000064622484168304602F0ACFD2C49086025
:102E60002A4801682748006802F0A4FD06461B486E
:102E70000168304602F09BFE18490860244801684A
:102E80002048006802F096FD064614484168304626
:102E900002F08DFE114948601C4801681A4800681C
:102EA00002F088FD06460D488168304602F07FFE3C
:102EB0000A498860164801681348006802F07AFDE4
:102EC00006460648C168304602F071FE034925E017
:102ED0005813002050130020401300207C130020C2
:102EE00044130020E8180020481300205C13002041
:102EF0005413002060130020641300204C130020A2
:102F0000681300206C13002070130020741300203D
:102F1000781300202C1300203C130020C860E048E8
:102F20000168284602F04EFEDE4908600846016846
:102F3000DD48006802F03EFD0646D948016830468B
:102F400002F08CFBD6490860D6480168D748006873
:102F500002F030FD0646D6480168304602F07EFB9E
:102F6000D349086008460168204602F02BFED1498B
:102F70000860BDE8F0812DE9FF5FCF4ACF49D04816
:102F800000F0F7FBCF4AD049D04800F0CAFB00F070
:102F90009DFBCF490880CA48B0F9000002F0AAFCA6
:102FA000CC490860C548B0F9000002F0A3FCCA494A
:102FB0000860C148B0F9000002F09CFCC7490860F5
:102FC000C248B0F9000002F095FCBA490860BE485A
:102FD000B0F9000002F08EFCC1490860B948B0F9B0
:102FE000000002F087FCBF490860BF49B94800688B
:102FF00002F0ACFC07D24FF08D41B648006802F0F9
:103000009BFB81460FE0B949B248006802F0DAFD47
:1030100006464FF08D4102F08FFB05464FF07E5182
:1030200002F0C5FD8146B049AB48006802F08EFC55
:1030300007D24FF08D41A848006802F07DFB824620
:103040000FE0AA49A448006802F0BCFD06464FF014
:103050008D4102F071FB05464FF07E5102F0A7FD55
:103060008246A1499D48006802F070FC07D24FF0EB
:103070008D419A48006802F05FFB04460AE09B49D4
:103080009648006802F09EFD05464FF08D4102F023
:1030900053FB04462146504602F04EFB834602F0A5
:1030A000B1FA074601F042FD05460022904B02F0BE
:1030B000B5F8904A904BCDE9000101F03FFFCDE912
:1030C000020101F059FE8D4908602146484602F090
:1030D00033FB834602F096FA074601F027FD0546CA
:1030E0000022834B02F09AF8824A834BCDE900011B
:1030F00001F024FFCDE9020101F03EFE80490860A5
:1031000079497448006802F021FC03D27C480068C9
:103110007B49086074496F48006802F017FD05D2CA
:103120007748006880F00040754908606E496A4839
:10313000006802F00BFC03D2704800686F49086019
:1031400069496548006802F001FD05D26B480068D6
:1031500080F00040694908604FF08E415548006892
:1031600002F0F4FB10D25348006802F04BFA074615
:103170004FF06632634B01F0E1FE81F000410546FD
:1031800001F0FAFD4B4908604FF08E414948006854
:1031900002F0DCFC12D2474801685B4802F012FDE5
:1031A000834602F02FFA07464FF06632554B01F086
:1031B000C5FE054601F0E0FD3E4908604FF08E4136
:1031C0004748006802F0C2FB10D24548006802F090
:1031D00019FA05464FF066324A4B01F0AFFE81F016
:1031E0000041074601F0C8FD3D4908604FF08E419F
:1031F0003B48006802F0AAFC12D2394801684248F4
:1032000002F0E0FC834602F0FDF907464FF066321B
:103210003C4B01F093FE054601F0AEFD30490860DD
:103220004FF08E412F48006802F090FB10D22D48DD
:10323000006802F0E7F905464FF06632314B01F0C5
:103240007DFE81F00041074601F096FD25490860AA
:103250004FF08E412348006802F078FC12D22148DA
:103260000168294802F0AEFC834602F0CBF905461E
:103270004FF06632234B01F061FE074601F07CFD02
:10328000184908600B4801681C480068FFF735FDC5
:10329000134801681A480068FFF718FCBDE8FF9F53
:1032A0003C1300205C1300206C13002070130020DE
:1032B0005813002028130020101300200E130020A4
:1032C0000C130020161300201413002012130020EA
:1032D000181300201C1300202013002024130020AA
:1032E0002C1300203013002000F8FF460000404758
:1032F000008066401F85EB51B81E09403413002042
:10330000381300206666304000FF7F477FB50546D2
:103310000C4601210420FDF73EFDADF80850ADF844
:1033200004400020ADF80A00ADF8060001A91848D5
:10333000FDF75CFE012211461548FEF7CEF91E206E
:103340008DF8000000208DF8010003208DF80200A8
:1033500001208DF803006846FDF78BF901210C4828
:10336000FEF7A0F97FBD10B501210948FEF763FC07
:1033700068B101210648FEF76FFCFFF7FCFD054828
:10338000006808B9012000E000200249086010BD73
:1033900000080040B401224210B50220FEF77DFE75
:1033A00010BD08B501210820FDF7E8FCC020ADF8EC
:1033B000000010208DF8030003208DF802006946FC
:1033C0008548FDF71FFAC0218348FDF7C8FA08BDFC
:1033D00010B58148006820F070407F4908600846B9
:1033E000006840F04050086001207C4908607C493A
:1033F000C1F89801FFF7D0FF002078490860FFF777
:10340000CBFF00207649C1F8980110BD10B5724875
:10341000006820F07040704908600846006840F07D
:103420004050086000206D49091F08606C49C1F8D0
:103430009C01FFF7B1FF01206849091F0860684936
:10344000C1F89C01FFF7A8FF10BD10B50024624829
:10345000006820F07040604908600846006840F04D
:103460000040086001205D490860FFF795FF0120DA
:103470005B49C1F89801FFF78FFF07E0601CC4B2F9
:10348000FA2C03DDFFF7C2FF012010BD534880383E
:1034900000680028F2D15149091F086000BFF4E715
:1034A00010B500204D49091F08604B48006820F006
:1034B0007040494908600846006840F04050086084
:1034C00000204749C1F89C01FFF766FF01204349EE
:1034D000091F0860FFF760FF00204149C1F898010B
:1034E00010BD10B500203D49091F08603A4800682A
:1034F00020F07040384908600846006840F04050AD
:10350000086001203649C1F89C01FFF745FF012002
:103510003249091F0860FFF73FFF00203049C1F81A
:10352000980110BD70B504462B48006820F070402B
:10353000294908600846006840F0405008600020B3
:103540002649091F0860002512E0E00923490860A8
:103550006006040E01202249C1F89801FFF71CFF04
:1035600000201E49091F0860FFF716FF681CC5B23E
:10357000082DEADB70BD70B50546002416480068CA
:1035800020F07040144908600846006840F0004090
:103590000860002615E000201049091F0860FFF7A9
:1035A000FBFE01200E49C1F898016006040E0B488D
:1035B0008038006808B1601CC4B2FFF7EDFE701CD3
:1035C000C6B2082EE7DB15B9FFF78BFF01E0FFF766
:1035D00067FF204670BD0000000C01409C81214225
:1035E0000080214270B505460C46FFF7F1FED02061
:1035F000FFF798FFFFF729FF18B1FFF707FF01203A
:1036000070BD2846FFF78EFFFFF71FFF2046FFF72C
:1036100089FFFFF71AFF18B1FFF7F8FE0120EFE767
:10362000FFF7F4FE0020EBE710B5FFF7BAFE00212C
:103630006B20FFF7D7FF07211920FFF7D3FF0621E3
:103640001A20FFF7CFFF18211B20FFF7CBFF012126
:103650001C20FFF7C7FF10BD2DE9F04106460F46BD
:1036600014461D46FFF7B4FE002141EA4601C8B2E8
:10367000FFF758FFFFF7E9FE20B1FFF7C7FE012073
:10368000BDE8F0813846FFF74DFFFFF7DEFEFFF79C
:103690009FFE012101EB4601C8B2FFF743FFFFF790
:1036A000D4FE0DE0012C04D10020FFF764FF287048
:1036B00003E00120FFF75FFF2870601EC4B26D1C9D
:1036C000002CEFD1FFF7A2FE0020D9E72DE9F84F3B
:1036D0006B46022241216820FFF7BEFF9DF80100E2
:1036E0009DF8001040EA01200FFA80FA504601F0E0
:1036F0007DFD80460022594B01F020FC0646584AC9
:10370000584B01F06BFB044601F036FB83465649EB
:10371000584602F04FF9044602F0D0F800B2BDE876
:10372000F88F2DE9FC4104460D4616466B460622ED
:1037300043216820FFF790FF0746BFB99DF80100BD
:103740009DF8001040EA012000B220809DF803009F
:103750009DF8021040EA012000B228809DF8050083
:103760009DF8041040EA012000B230803846BDE8E0
:10377000FC812DE9FC4104460D4616466B460622A7
:103780003B216820FFF768FF0746BFB99DF801009D
:103790009DF8001040EA012000B220809DF803004F
:1037A0009DF8021040EA012000B228809DF8050033
:1037B0009DF8041040EA012000B230803846BDE890
:1037C000FC812DE9F04105460E4617469846FFF765
:1037D000FFFD002141EA4501C8B2FFF7A3FEFFF754
:1037E00034FE20B1FFF712FE0120BDE8F081304623
:1037F000FFF798FEFFF729FE00240CE018F80400FC
:10380000FFF790FEFFF721FE18B1FFF7FFFD012043
:10381000EBE7601CC4B2BC42F0DBFFF7F7FD002011
:10382000E3E770B50446FFF7D3FDD020FFF77AFE3B
:10383000FFF70BFE2046FFF775FEFFF706FEFFF7CA
:10384000C7FDD120FFF76EFEFFF7FFFD0020FFF759
:1038500092FE0546FFF7DAFD284670BD0040754030
:10386000A4703D0AD74342400000C84270470000A0
:103870000FB4044910B503AA029800F08FFB10BCE6
:103880005DF814FB2C0000200FB41CB5074B06AAF2
:103890007B4469460090059800F067FB002069466C
:1038A00000F076FB1CBC5DF814FB0000FD06000078
:1038B00070B5044685690068C10601D5302600E070
:1038C0002026C00707D070BDD4E9012130469047BB
:1038D000206A401C20626D1EF6D570BD70B504468E
:1038E00085690078C00707D170BDD4E90121202087
:1038F0009047206A401C20626D1EF6D570BD000006
:103900002DE9F0410646002410687529314616A5B8
:1039100010D0AFF30080002802DA404213A507E080
:1039200031688A0701D512A502E0490704D511A51F
:10393000012401E0AFF3008000210A2206F12407F0
:1039400009E0B0FBF2FCB0FBF2F302FB1C003030EC
:1039500078541846491C0028F3D123462A4630469D
:10396000BDE8F04100F093B8000000002D00000019
:103970002B000000200000002DE9F0474FF0000A66
:1039800089460446C0F820A02046E1688847002800
:1039900076D0252806D0D4E901219047206A401C22
:1039A0002062F1E7E168204600258847C4F81CA0A2
:1039B00006460027C4F818A02A2E09D0304601F088
:1039C000ADF838B304EB8708303EC8F8186019E04A
:1039D00059F8041B204604EB87029161E16888478F
:1039E000012F064618D1E069002820DA25F02005CD
:1039F0001DE0D8F8180000EB800006EB40003038DE
:103A0000C8F818002046E1688847064601F086F8A5
:103A10000028EED1012F0AD02E2E08D12046E168D1
:103A200088477F1C0646022F45F02005C4DBA069AD
:103A3000002803DA404245F00105A061E80701D003
:103A400025F01005B6B1A6F14100192802D820369C
:103A500045F400654A463146204625604D46FCF750
:103A60009FFB58B1012806D0ED1D25F0070000F19D
:103A7000080989E704E005F1040985E730468AE78B
:103A8000206ABDE8F08770477047704770472DE99E
:103A9000F0470D4699469246044600F12408016815
:103AA000880604D5E06921F01001216000E00120C2
:103AB000A84201DD471B00E00027A1697A1902EB4B
:103AC0000900081AA0612078C00602D42046FFF73A
:103AD000EFFE002608E0D4E901211AF8060090471D
:103AE000206A401C761C20624E45F4DB2078C0061C
:103AF0000AD52046FFF7DCFE06E0D4E9012130209C
:103B00009047206A401C2062381EA7F10107F4DCB0
:103B100007E0D4E9012118F805009047206A401C0D
:103B20002062281EA5F10105F3DC2046FFF7D6FE32
:103B30002078000602D50220BDE8F0870120FBE7CF
:103B400070472DE9FF4F0C461E464FF0FF378BB0F4
:103B5000D2E90001DDF860800A908A46C1F30A5577
:103B600005B93D46002108464FF00000BAF1000FAC
:103B700000F4400005DA00EB80004FF4400101EA58
:103B800050004FEA9059B9F1010F00DDB9460A988B
:103B900050EA4A000ED044F61050A5F2FF354543D6
:103BA0002F14B8F1000F1ED07542291E1EDDC9F179
:103BB00000021CE0B8F1010F4FF0000001D03021ED
:103BC00003E0F24305E02154401CB042FBDB3046E9
:103BD0000022002121540B99C1F80880C1E900207E
:103BE0000FB0BDE8F08FBD1B6D1CDEE74A4600DA62
:103BF000694206A800F06EFA06AB93E8070003AB33
:103C000083E8070050460A9900F04CFB8DE8070056
:103C1000A0F500501F3800900398002D0ADD42F2F5
:103C20001F014A460844002303A90390684600F098
:103C3000B5FD09E0A0F500504A461F38002303A94E
:103C40000390684600F0BFFD8DE807000004000CFB
:103C500003D04FF0FF30410800E01046B8F1000FEC
:103C600003D00022009215461EE0751E05D400F018
:103C7000ABF9303262556D1EF9D5B34601220843C7
:103C800002D000227F1C04E02078302801D10022DD
:103C90007F1E002A099784D01DE0112D07DA00F05D
:103CA00093F9303262556D1C50EA0102F5D1084398
:103CB00002D00098C8B10EE00021681E05E0235C28
:103CC000625C63542254401E491C8142F7DBAB46C0
:103CD000A81B401E0990002004F80B000B98099ABD
:103CE000C0F80880C0E9002B7AE711264FF00008E1
:103CF00057E72DE9F04F88460446D21D22F0070110
:103D000091B0D1E90001CDE90A0100F093FE02462D
:103D10000B98C00F01D02D2007E02068810701D546
:103D20002B2002E0202101EAC000032A099001D0E3
:103D3000072A05DB03464146204600F08BF90BE1DC
:103D40002078800601D5E06900E00620B8F1650F13
:103D5000814606D0B8F1660F18D0B8F1670F70D160
:103D600031E00020B9F1110F009001DB112301E0D7
:103D700009F101030AAA01A90CA8FFF7E2FEDDE997
:103D80000C70002609F10105834647E001204B46EF
:103D900000904FF000470AAA01A90CA8FFF7D1FE36
:103DA000DDE90DB00C995D46002610B909F101005E
:103DB0000D18B9EB050003D4C0F1FF3609F1010578
:103DC000A5EB09002BE0B9F1010F01DA4FF0010971
:103DD0000020B9F1110F0090484601DD112300E0E9
:103DE00003460AAA01A90CA8FFF7ABFEDDE90C7097
:103DF0004D4600268346207800070AD4AB4500DAFA
:103E00005D4601A8012D04DD411911F8011C30297E
:103E100007D04F4502DA17F1040F04DA0120824679
:103E20000FE06D1EEEE7002F02DCED1B3E4403E0C9
:103E3000781CA84200DD7D1CB81B00F1010A4FF080
:103E400000472078000703D4AA4501DB4FF0FF3A72
:103E50000021B7F1004F0DF143088DF8431024D035
:103E600002202B23002F01DA7F422D230A21021E7C
:103E7000A0F1010000DC5FB197FBF1FC97FBF1F2D0
:103E800001FB1C7C17460CF1300C08F801CDEEE765
:103E9000A8F1010003702188090501D5452100E042
:103EA0006521A0F1010800F8011C09980FA9A1EBF8
:103EB0000807FF1D00B10120411901EBEA70A1695B
:103EC0003844081A401EA0612078C00602D420465B
:103ED000FFF7EEFC099828B1D4E901219047206A48
:103EE000401C20622078C00622D52046FFF7E0FC67
:103EF0001EE0002E04DBB34502DD01A8805D00E07A
:103F00003020D4E901219047206A401C2062761CB1
:103F1000AAF101005FEA000A0AD100F051F8C06876
:103F20000168405CD4E901219047206A401C20626E
:103F3000281EA5F10105DCDC07E0D4E9012118F811
:103F4000010B9047206A401C2062381EA7F1010730
:103F5000F3DC2046FFF7C2FC032011B041E600006D
:103F600001694A1C02610878704700B58FB0CDE93D
:103F700001310021059105497944CDE9031011462D
:103F80006846FFF7F9FC0FB000BD0000E5FFFFFF3A
:103F90000A6802F8010B0A6070470000074B70B511
:103FA0000D467B44FFF7E1FF0446284600F004F984
:103FB00010B14FF0FF3070BD204670BD9DE1FFFF96
:103FC000004870471819002030B5B0F10A024FEAD6
:103FD000900E71F100034EEA817EB0EB0E0061EBB2
:103FE00091014FEA101E4EEA017E10EB0E0041EBEC
:103FF00011114FEA102E4EEA016E10EB0E0041EB4C
:1040000011214FEA104E4EEA014E10EB0E0041EB2B
:104010001141401841F100014FEAD00040EA4170DF
:104020004FEAD10110EB80054FEA810444EA907415
:1040300044EB01046D1944EB0404521BA3414FF0FF
:10404000000348BF0A3200D530BD401C41F10001D9
:1040500030BD00002DE9F0411F46044603260168EB
:10406000072A01F4006004DB08B116A505E016A5D7
:1040700003E008B115A500E015A521F010002060AF
:10408000A069C01EA0610FB1401EA0612046FFF7CD
:104090000FFC4FB1D4E9012138469047206A401CFB
:1040A0002062C01C206206E0206AFAE7D4E9012100
:1040B00015F8010B9047761EF8D22046FFF70EFC4C
:1040C000BDE8F0814E414E006E616E00494E4600E3
:1040D000696E66002DE9F047814616468AB035487C
:1040E00078440DC88DE80D0032487844801C03AC3C
:1040F0000DC884E80D0041F69B300844372190FB41
:10410000F1F290FBF1F5A5F1800501FB12041B3CD7
:1041100002D56442012000E00020DFF898A080462C
:104120000027FA44AAF1BE0A0EE0E0070AD03246A0
:10413000684607EB470101230AEB810100F043FBCE
:104140008DE8070064107F1C002CEED1194F7F44CE
:10415000AE3F19E0E80715D007EB04100DF1180A7F
:1041600090E80E008AE80E00C068F04201D198196C
:1041700008903246012306A903A800F024FB03ABF4
:1041800083E807006D10641C002DE3D14FF001039C
:1041900032466946B8F1000F03A802D000F0FEFADB
:1041A00001E000F010FBC9E90001C9F808200AB0DD
:1041B000BDE8F08758380000007B00F080007047B1
:1041C00000487047F81800207546FFF7F9FFAE4623
:1041D00005006946534620F00700854618B020B513
:1041E000FCF730FABDE820404FF000064FF0000722
:1041F0004FF000084FF0000B21F00701AC46ACE88F
:10420000C009ACE8C009ACE8C009ACE8C0098D46FB
:10421000704710B50446AFF300802046BDE810405B
:10422000FBF7DBBF4FF0013C50F8042B51F8043B87
:104230009A4221D1A2EB0C03934313EACC1317D17A
:1042400050F8042B51F8043B9A4215D1A2EB0C0311
:10425000934313EACC130BD150F8042B51F8043BD1
:104260009A4209D1A2EB0C03934313EACC13DBD09F
:104270004FF00000704700BFD01A01BAB1FA81F1C7
:1042800001F0180122FA01F0CB40C1F12001DBB2AC
:10429000C0B2C01A2CFA01F3D11A914311EAC3112A
:1042A000E6D170475FEA400C08BF91F0000F4FEA7B
:1042B0008C234FEAC12243EA51514FEA1C5018BFE8
:1042C00000F5F0404FEA300018BF41F000415FEACE
:1042D0006C5C00F02980BCF1FF3F08BF40F08040DB
:1042E0007047130C06BF12044FF0100C4FF0000C77
:1042F000130E04BF12020CF1080C130F04BF1201BD
:104300000CF1040C930F04BF92000CF1020CD30FBC
:1043100004BF52000CF1010C11464FF00002A0F155
:104320001F00A0EB0C00704711F0004F08BF704752
:1043300031F000413FF4D5AF0B0C06BF09044FF03C
:10434000100C4FF0000C0B0E04BF09020CF1080C0E
:104350000B0F04BF09010CF1040C8B0F04BF890083
:104360000CF1020CCB0F04BF49000CF1010CCCF195
:104370002003A0EB0C0022FA03F302FA0CF241EA4C
:10438000030100F10100704720F07F4C80EA030038
:1043900023F07F47ACEB070303F57C5300F00040AC
:1043A00003F1FF032DE980494FEA154B09B44FEAA9
:1043B000144325EA0B4E24EA03480FF2042606EBC9
:1043C000132749083E785FEA320203FB0667C7F508
:1043D000000707FB06F64FEA54374FEAD64606F1C8
:1043E000020607FB066CCCF1005C4FEA1C472CEA86
:1043F000074C07FB06F40CFB06F504EB15464FEAE9
:10440000961634BF00204FF000404FEAD13706FB2C
:1044100007FC4FEA1C4C0CFB0BF7D21B03FB0CF701
:1044200061EB07010CFB0EF7B0EB074072EB174294
:104430000CFB08F734BFA2EB0742B2EB074261EB7B
:1044400017414FEA0C444FEA910706FB07FC4FEA7D
:104450001C4C0CFB0BF7B0EBC74072EB573203FB65
:104460000CF734BFA2EBC742B2EBC74261EB573146
:104470000CFB0EF7B0EBC70072EB57720CFB08F7A2
:1044800034BFA2EBC702B2EBC70261EB5771039FC7
:104490004FEA816141EA921104EBCC044FEAD13733
:1044A0004FEA826206FB07FC42EA90124FEA806004
:1044B0004FEA1C4C0CFB0BF7D21B03FB0CF761EB18
:1044C00007010CFB0EF7B0EB074072EB17420CFB39
:1044D00008F734BFA2EB0742B2EB074261EB17418A
:1044E0004FEA8C554FEA910704EB9C2406FB07FC2E
:1044F0004FEA1C4C0CFB0BF7B0EBC74072EB57328A
:1045000003FB0CF734BFA2EBC742B2EBC74261EB2F
:1045100057310CFB0EF7B0EBC70072EB57720CFB78
:1045200008F734BFA2EBC702B2EBC70261EB5771C9
:1045300015EB4C254FEA816141EA92114FEA826204
:104540004FEAD13742EA901206FB07FC44F100041F
:104550004FEA80604FEA1C4C0CFB0BF7D21B03FBAD
:104560000CF761EB07010CFB0EF7B0EB074072EBA9
:1045700017420CFB08F734BFA2EB0742B2EB07422D
:1045800061EB174115EB1C154FEA813141EA92416D
:104590004FEA823242EA90424FEA80304FEA0C768C
:1045A00044F1000448EA03434EEA0B484FF0000E82
:1045B000B2EB080C71EB030724BF624639464EEBA1
:1045C0000E0E4FF0000B0018524149414BEB0B0B04
:1045D000B2EB080C71EB03077BF1000B24BF6246C2
:1045E00039464EEB0E0E4FF0000B00185241494178
:1045F0004BEB0B0BB2EB080C71EB03077BF1000BE1
:1046000024BF624639464EEB0E0E51EA020718BF30
:1046100046F0010616EB0E7655F1000254F100014A
:1046200003D5BDE88901BDE80088BDE88901BDE882
:104630000048B619524141EB0101A3F10103704753
:1046400080807F7E7D7C7B7A7978777676757473CF
:10465000727171706F6E6E6D6C6C6B6A6A6968688E
:10466000676666656464636362616160605F5F5E24
:104670005E5D5D5C5C5B5B5A5A595958585757569A
:1046800056555555545453535252525151505050FF
:104690004F4F4F4E4E4D4D4D4C4C4C4B4B4B4A4A51
:1046A0004A49494948484847474747464646454595
:1046B00045444444444343434342424242414141CE
:1046C000002B9C4630D477002BD01CB54FEA37071F
:1046D00003B44FF010004FF01001BAF1000F06D0F4
:1046E000BCF1000FDCBF40F0080040F008014FF0C3
:1046F00000000FBCBDE810400BF1010BBBF1010F36
:1047000008BF5FEA170722BF12F1010211F1010190
:104710004FF0004143F1000300F0004043EA000085
:104720007047F9D35708D0E746EA064613F1400F21
:104730004FEA16461FDD13F1200FDFBF16430A466E
:10474000002120335B42BED0C3F1200746EA064673
:1047500002FA07F74FEA164646EA0706C3F12007B2
:1047600022FA03F201FA07F721FA03F14FF00003EE
:1047700042EA0702A7E746EA020646EA06464FEA89
:10478000164646EA0106BCBF46EA0646360C4FF01E
:1047900000034FF000024FF0000194E72DE9804C38
:1047A0009A46934670B491E8380007C831EA400C45
:1047B00048BF34EA430C03D5FFF7E6FDFFF780FF5F
:1047C000F0BCBDE8008C2DE9804C9A46934670B44D
:1047D00091E8380007C810F0804F08BF13F0804FF1
:1047E00003D100F005F8FFF76BFFF0BCBDE8008CCB
:1047F00020F07F4780EA030023F07F4C07EB0C0397
:10480000A3F57C5300F00040A3F1FE0392F0000FEB
:1048100000F0B38095F0000F00F077802DE901499A
:104820004FEA11404FEA144621EA004800FB06FC1B
:1048300024EA064708FB06F607FB08F800FB07F723
:1048400018EB06484CEB164C4FEA124B18EB074896
:104850004FEA15464CEB174022EA0B4E0BFB06FCC9
:1048600025EA06470EFB06F607FB0EFE0BFB07F7D5
:104870001EEB064E4CEB164C4FF000061EEB074E9F
:104880004CEB174B18EB0B0840F1000018EB0E0B2C
:1048900058EB000840F100008F1A4FF000013CBFB8
:1048A000C943661B14BFB5EB040C00213CBFC943D0
:1048B000F61B4FEA17444EEA8E0E27EA04454FEAEC
:1048C0001C4704FB07622CEA074C05FB07F70CFBAF
:1048D00005F604FB0CFC16EB074642EB174216EB01
:1048E0000C4642EB1C421BEB060658EB0202414110
:1048F00046EA9E0601D5BDE80189B619524141EB51
:104900000101A3F10103BDE801894FEA14454FEA13
:10491000114724EA054621EA074C05FB07F406FB8C
:1049200007F70CFB06F105FB0CFC11EB074144EB10
:1049300017444FEA124711EB0C4144EB1C4422EAA6
:10494000074C05FB07F206FB07F70CFB06F605FB19
:104950000CFC16EB074642EB174216EB0C4642EBFB
:104960001C456A1854F1000148BF7047B6195241FE
:1049700041EB0101A3F10103704795F0000F37D01F
:104980004FEA11424FEA144721EA024624EA074C53
:1049900002FB07F106FB07F70CFB06F402FB0CFC1D
:1049A00014EB074441EB17414FEA154714EB0C4455
:1049B00041EB1C4125EA074C02FB07F506FB07F714
:1049C0000CFB06F602FB0CFC16EB074645EB174505
:1049D00016EB0C4645EB1C42121951F1000148BF81
:1049E0007047B619524141EB0101A3F10103704731
:1049F0004FEA14454FEA114724EA054621EA074CDD
:104A000005FB07F106FB07F70CFB06F24FF000066B
:104A100005FB0CFC12EB074241EB174112EB0C4279
:104A200051EB1C4148BF7047921841EB0101A3F1C3
:104A300001037047490050EAC12018BF04204A0D05
:104A400018BF40F0010040F2FF72B2EB515F08BFA7
:104A500040F00200012808BF052070472DE9F04111
:104A60004F1E00EBC7010446D1E9000115461E4662
:104A700037F006020DD02A46334600F0CFFB7F1EEA
:104A800004EBC703D3E9002300F0A8F937F00602CE
:104A9000F1D1022F25D0042F13D0062F18BFBDE867
:104AA000F0812A46334600F0B9FBD4E90A2300F02E
:104AB00095F92A46334600F0B1FBD4E9082300F00B
:104AC0008DF92A46334600F0A9FBD4E9062300F00D
:104AD00085F92A46334600F0A1FBD4E9042300F00F
:104AE0007DF92A46334600F099FBD4E9022300F011
:104AF00075F92A46334600F091FBD4E90023BDE85E
:104B0000F04100F06BB9012201F005B9024A002022
:104B1000110701F000B9000001FDFFFF30380A283D
:104B200001D2012070470020704700002DE9F84FA6
:104B300004460D4621F0004000917349814211DC8A
:104B40007249884201DC06D12CB120462946BDE8D5
:104B5000F84FFFF7D8BF6E48002DCCBF6D496E49A6
:104B6000BDE8F88F6D49814211DD6D498142D8BFA2
:104B70004FF0FF366DDD20462946FFF75BFF042826
:104B800008BFFFF7C3FF20462946BDE8F88F6549F7
:104B9000654F25F00045814233DD6449814219DDCE
:104BA000002632464FF080432046294600F016F991
:104BB00080468A4601222046294601F0ACF80022B0
:104BC0003B4600F035FC4246534600F0B7F9044638
:104BD0000D463EE001260022BA463B4620462946C5
:104BE00000F0FCF880460F46002253462046294636
:104BF00000F01EFC42463B4600F0A0F904460D467C
:104C000027E04B4981421BDDDFF828A10226002264
:104C100053462046294600F001FB00223B4600F0A7
:104C2000DDF880460F46002253462046294600F014
:104C3000FFFB42463B4600F081F904460D4608E082
:104C4000032622462B4600203B4900F077F9044614
:104C50000D4622462B461046194600F0DFFA8B46D9
:104C6000824602460B4600F0D9FA07460246334810
:104C700088460B4606217844FFF7F0FE52465B4615
:104C800000F0CCFA82462E488B463A464346052130
:104C90007844FFF7E3FE3A46434600F0BFFA024687
:104CA0000B46002E504659460CDA00F097F8224683
:104CB0002B4600F0B3FA01B022462B46BDE8F04F78
:104CC00000F0AABB00F08AF822462B4600F0A6FAB4
:104CD0001C4A7A4402EBC603D3E9002300F0A8FB88
:104CE00022462B4600F0A4FB174A7A4402EBC60387
:104CF000D3E9002300F090FB009A002AB8BF81F0AE
:104D00000041BDE8F88F0000000010440000F07F73
:104D1000182D4454FB21F93FFB21F9BF0000DC3F73
:104D20000000203E0000F33F0000F03F0000E63F9F
:104D3000008003400000F83F0000F0BF162C000088
:104D4000D42B0000722B00003A2B000010B5002974
:104D50000AD00878002807D005487844FFF762FA9F
:104D6000002801D0002010BD0248784410BD00008A
:104D7000722C00006A2C000021F00042A2F1605267
:104D8000B2F5801F01F0004328BFD2F17F6C0BD930
:104D90005FEA001C43EAC20242EB507018BF704742
:104DA00028BF20F001007047B2F5801FBCBF184635
:104DB00070474FEA410C1CF5001F02D2084600F074
:104DC000C0BE70B500F0D4FA00000089FFF7F6BF4E
:104DD0004FF00040A0F580007047000010B591EA48
:104DE000030F48BF83F0004300F12A83841A71EB5C
:104DF000030C05D2121943EB0C03001B61EB0C01F1
:104E0000DFF824E14FEA1154A4EB135C1EEA430FD0
:104E100018BF9EEA445F73D023EA0E03DCF1200E34
:104E200021EA045143F4801332D322FA0CFE10EB32
:104E30000E0023FA0CFE41EB0E01CCF1200E03FA1A
:104E40000EFE10EB0E0051F10001B1F5801FCCF108
:104E5000200E32D201EB045112FA0EF2BDE81040DE
:104E600058BF7047401C38BF5FEA420218BF704706
:104E7000002814BF20F0010041F100014FEA410376
:104E800013F5001F38BF7047A1F1C04100F0BEBA52
:104E9000012A43EB0302ACF1200CDCF11F0E32BF00
:104EA0004FF0000E23FA0CF310EB030041EB04511A
:104EB000B4EB115FD0D0A1EB045101F5801149088A
:104EC0005FEA300001EB04510ED350F1000038BF0F
:104ED00012FA0EFE08D1BDE81040C9E7401C38BFE9
:104EE0005FEA4202CAD1C3E7BDE810404FEA41037E
:104EF00013F5001F38BF7047A1F1C04100F086BA1A
:104F00009EEA445F08D011EA5E0FBDE8104004BF7E
:104F100001F0004100207047BDE8104070B500F07E
:104F200027FA00BF64FBBE3E0000E0FF02494FF0DD
:104F3000000000F0BEBE00BF0000F87F2DE9C041B8
:104F400030B4DFF8A0C23CEA111418BF3CEA1314D5
:104F500000F0EC8081EA03051CEA111444EAD574E0
:104F600018BF1CEA131500F0C780A4EB05044FF02E
:104F7000004545EAC12145EAC32341EA505143EACD
:104F8000525304F17F74994204F500344FEAC02073
:104F90004FEAC22208BF904200F09C804FEA13659E
:104FA0000FF24016765D4FEA134506FB05F7C7F191
:104FB000807706FB07F74FEAD737A7FB03687642EF
:104FC000C8F58038A7FB06CE38BFA8F1010807FB5B
:104FD00008E64FF0000EA6FB028CE6FB03CEDCF1E8
:104FE000000CCEF1004E38BFAEF1010EA6FB0C58FE
:104FF0004FF000074FF00005E6FB0E87A1FB08C647
:10500000A0FB07CE16EB0E0645F10005E1FB076598
:1050100015F1E04E7EBFA4F580345FEA46066D418F
:1050200016F1800745F100054FEA17274FEA06669B
:1050300047EA0567A6F1DE46B6F1805F4FEA15251F
:105040001FD9384624F0010C05EBC471BCF1FE6F8A
:1050500001EB0C1102D8F0BCBDE8008124425CBF1A
:1050600001F5801E9EEAC47F02D4F0BCBDE8008139
:10507000244238D4F0BCA1F1C041BDE8004100F0A9
:10508000C5B94FEAD22242EA43524FEAD323A7FBE3
:1050900002864FEAD02040EA415007FB03661EEA31
:1050A0000E0F4FEAD12105FB026658BFA6EB005652
:1050B000B6EB00564FEA520E4EEAC37E18EB0E0EC8
:1050C00056EB530EBDD518EB02085E417F1C55F11F
:1050D0000005B6E74FF480154FF000074FF00006CB
:1050E0004FF00008ADE7F0BC4FF0000001F1C04107
:1050F00001F00041BDE8008111EA0C1F0CEA131514
:1051000000D00CE013EA0C1F00F025804FF00000E7
:10511000F0BC81EA030101F00041BDE80081F0BC70
:10512000BDE8004181EA030100F070B9F0BCBDE8C0
:10513000004170B500F01CF9097EFC3E00F007B894
:1051400081EA03014FF0000001F00041704781EA5D
:10515000030100F05BB9F0BCBDE800414FF0000076
:1051600021497047FFFDFBF9F7F5F4F2F0EEEDEBA6
:10517000E9E8E6E4E3E1E0DEDDDBDAD8D7D5D4D355
:10518000D1D0CFCDCCCBCAC8C7C6C5C4C2C1C0BFA1
:10519000BEBDBCBBBAB9B8B7B6B5B4B3B2B1B0AFA7
:1051A000AEADACABAAA9A8A8A7A6A5A4A3A3A2A18B
:1051B000A09F9F9E9D9C9C9B9A9999989797969546
:1051C00095949393929191908F8F8E8E8D8C8C8BE2
:1051D0008B8A89898888878786858584848383826A
:1051E000828181800000FF070000F87F10F00042FC
:1051F00048BF4042B0FA80F310FA03F10AD0C3F17D
:105200001D0303F580634FEA415002EB035202EBAA
:10521000D12170474FF0000070470000DFF848C10F
:1052200070B51CEA111E1EBF1CEA13159EEA0C0F76
:1052300095EA0C0F00F06F8081EA030423EA4C1317
:105240004EEAD47E21EA4C1141F4801143F48013DC
:10525000AE44A1FB024CA0FB0365AEF17F7E361984
:1052600055EB0C05A1FB034C4CF10003A0FB021C09
:1052700016EB0C06654153F10003094218BF46F0D6
:10528000010613F4007F0BD14FEA03314FEA0530DA
:10529000340341EA155140EA16506FF003020AE068
:1052A0004FEAC3214FEAC520F40241EA555140EAD2
:1052B00056506FF0020202EB2E4201EB025585EAD6
:1052C000CE710AD05FEA440C18BF24F0004450F1BC
:1052D000000041F1000120EAD47040F2FE7C6245FA
:1052E00000D270BDA84214BF4FF080444FF040443C
:1052F000002E08BF0024BEF1806FA8BFA1F1C041FD
:10530000BDE8704080F282804FF0000001F1C041A2
:1053100001F0004170479EEA0C0F0CEA131518BF0C
:1053200095EA0C0F06D04FF0000081EA030E0EF054
:10533000004170BD00F01CF88900013E00F007B884
:1053400000F009B84FEA430C5FEA5C5C08D081EAE0
:10535000030100F05BB84FEA410C5FEA5C5CF6D1F8
:105360004FF00000014970470000FF070000F87F80
:105370000EF1020E2EF0030E5EF8046B364205D4D9
:10538000012A43EB030515F5001F12D8012841EB54
:10539000010C1CF5001F0CD80ED14FEAD17C15F57D
:1053A000001F0CEB4C0C0CF1020C08BF4CEBD37C37
:1053B00004E04FF0080C01E04FEAD37C0CEB4C0505
:1053C00026FA05F606F00706B6F1040C06D20EEB37
:1053D000860CBDE870404CF0010C6047DFE80CF033
:1053E000090B02024FF000414FF00000A1F500212F
:1053F00070BD19461046012851EB010418BFD4F5C1
:10540000001484BF002001F0004170BD0808A0F521
:1054100000114FEA3101704791EA030F10B581F096
:1054200000413FF5E3AC83F0004300F009B8000011
:1054300010B591EA030F48BF83F000433FF5D6ACA7
:10544000841A71EB030C07D212198CF0004C43EB59
:105450000C03001B61EB0C01DFF8A4E14FEA1154CF
:10546000A4EB135C1EEA430F18BF9EEA445F00F0F2
:10547000B08023EA6E03524221EA0451C3EB6E036B
:1054800038BF5B1EDCF1200E25D322FA0CFE10EB98
:105490000E0043FA0CFE41EB0E01CCF1200E03FA94
:1054A0000EFE10EB0E0051F10001CCF1200E29D4BC
:1054B00012FA0EF201EB0451BDE8104058BF7047DC
:1054C000401C1CBFB2F1004F704700280CBF491CA4
:1054D00020F00100704712EB020E43EB030218BFED
:1054E0004FF0010E4EEA4202ACF1200CDCF11E0E30
:1054F00054D943FA0CFE10EB0E0051F1FF31CCF100
:105500001E0ED5D50EF1010E12FA0EFE404141EBF2
:10551000010101EB445C5FEA5C5C10D910EBDE70CA
:1055200001EB045138BFBEF1004FBDE8104018BF79
:10553000704700280CBF491C20F00100704730D292
:105540004FEAD42C11F5001124F400641BD0B1FAF9
:1055500081F20B3AA41AA41ED2F12003914030FA32
:1055600003F31943904001EBCC71002C01EB045183
:10557000BDE81040A8BF704701F1C0414FF00000E6
:1055800001F000417047B0FA80F310FA03F100D146
:1055900010BDE41A173C4805C90AE4E701EB0451C1
:1055A00010BD491001EB0451BDE810404FEA300036
:1055B00002E04FF0000170474A0008BF0042F8D0F7
:1055C000B2F5001F28BF704701F000414FF0000006
:1055D00070479EEA445F07D011EA5E0FBDE81040B5
:1055E00004BF002100207047BDE8104070B5FFF7F0
:1055F000BFFE00BF40DFF63E83F00041104670471B
:105600000000E0FF43004FEAD30C4FEA3C0C43405C
:105610001FBF40070CF1605113F0FE4F70471CF0A4
:10562000006F03D100200CF0004170470CF00043E4
:1056300043EA507010B540EACC0000F03CFA00BFDD
:10564000000000924FEA0001FFF7E0BE4FF000417A
:105650004FF00000A1F500217047000090EA010F13
:1056600048BF81F0004100F1B482421A3CBF801A69
:1056700089184FEAD0524FF07F4C1CEA410FA2EB41
:10568000D15318BF9CEA026F00F03B804FF0004CF2
:105690004CEA00204CEA012121FA03FC10EB0C0C2F
:1056A0001ED202F1FF325FEA1C2040EBC25038BF2D
:1056B00070471CF07F0F4FEA400C18BFBCF17F4FC2
:1056C00038BF7047C3F12003994008BF20F00100A4
:1056D000BCF17F4F38BF7047A0F1C04000F031BA35
:1056E0004FEA3C00000A40EBC25028BF1CF0FF0FFD
:1056F0004FEA400CE6D018BFBCF17F4F38BF70476F
:10570000EAE79CEA026F05D010EA5C0F08BF00F0E0
:105710000040704710B500F0CEF900BF64FBBE3EFC
:10572000401058BFC0F14040491058BFC1F140413E
:105730008142EFF3008070474FF47F0C1CEAD012D7
:105740001EBF1CEAD11392EA0C0F93EA0C0F00F073
:10575000858090EA010F48BF42F4807240F4000C4B
:1057600041F400002CF07F4120F07F4000B58142E1
:10577000A2EB03020FF2081CACEB504EC0F100008C
:105780009EF800E04FEA4E0E00FB0EFC38BF4900C9
:105790004FEA2C1C02F5FA020CFB0EF34FEACE1E68
:1057A0004FEA112C4FEAC1210EEB635E42EB22421D
:1057B0000EFB0CFC4FEA1C5300FB03114FEA112CAB
:1057C0004FEA01310EFB0CFC4FEADC4C00FB0C11E4
:1057D000C14228BF09184CEB03335DF804EB10EB12
:1057E000410143EBC250B2F57C0F38BF704729D559
:1057F00012F0F00F1CBF00F1C04000F000407047F5
:10580000008182838485868788898B8C8D8E8F9199
:105810009293959697999A9C9D9FA0A2A3A5A7A8BD
:10582000AAACAEB0B2B3B5B7B9BCBEC0C2C5C7C9E9
:10583000CCCED1D4D7D9DCDFE2E6E9ECF0F3F7FA4D
:10584000FE0000004FEA400C0CF1807CBCF17E4F62
:1058500028BF7047B0F1C04000F073B990EA010F63
:105860000CEAD11348BF42F48072624538BF6345E9
:1058700007D213F47F0F16D080EA010000F0004039
:10588000704710B500F017F9097EFC3E00F005B82E
:1058900080EA010000F00040704780EA010000F05B
:1058A000004000F04EB912F47F0F04BF0248704769
:1058B00080EA010000F045B90000C07F41000B0EF6
:1058C000D3F19E0208D950F400034FEA032323FAD0
:1058D00002F048BF4042704710B500F0ECF800BF3E
:1058E00049922480002070476FF0004282EA200035
:1058F0007047000010F0004148BF4042B0FA80F30A
:1059000010FA03F2C3F19D030BD051EAC35101EB2E
:105910001220530638BF704700F1010008BF20F085
:1059200001007047B0FA80F310FA03F2C3F19D034F
:105930000AD0D90501EB1220530638BF704700F199
:10594000010008BF20F001007047000050EA010C80
:1059500000F113801CF5000F58BFBCF5000F01D4F7
:105960008842704707D710F5000F58BF11F5000F98
:1059700015D488427047894270471CF5000F04D542
:10598000BCF5000FF7D5814270474FF0807C1CEBCF
:10599000400F38BF1CEB410F01D28142704710B558
:1059A00000F089F8922449004FF000504FF08051E8
:1059B000FFF7B6BE4FF47F0C1CEAD0121EBF1CEAE4
:1059C000D11392EA0C0F93EA0C0F00F0478090EA93
:1059D000010F48BF42F480724FF0004C4CEA0020A7
:1059E0004CEA012102EB0302A0FB0113A2F5000225
:1059F000002918BF43F001035B0028BF4FEA3303BF
:105A000042EB22425FEA132C4CEBC2502EBFBCEBA0
:105A1000436FB2F57C0F70474FEA036CBCF1004F47
:105A200008BF20F00100B2F57C0F38BF70470BD5DE
:105A300082F0FF0212F5803FC8BF704700F1C040FE
:105A4000D8BF00F00040704700F5000C5FEA4C0C36
:105A500048BF7047B0F1C04000F073B890EA010F42
:105A60000CEAD11348BF42F48072624538BF6345E7
:105A700004D280EA010000F00040704710B500F049
:105A80001AF800BF8900013E00F007B800F009B81D
:105A90005FEA410C5FEA1C6C08D080EA010000F06C
:105AA00050B85FEA400C5FEA1C6CF6D14FF0004042
:105AB000A0F5800070470EF1020E2EF0030E5EF886
:105AC000044B244204D44FEA4102B2F17F4F11D873
:105AD0004FEA4003B3F17F4F0CD80ED14FEAD07C90
