:020000040800F2
:10000000180B0020E95100085D0200085F0200089B
:1000100063020008670200086B020008000000008D
:100020000000000000000000000000006F02000857
:100030007102000800000000730200087502000849
:10004000035200080352000803520008035200083C
:10005000035200080352000803520008035200082C
:10006000035200080352000803520008035200081C
:10007000035200080352000803520008035200080C
:1000800003520008035200080352000803520008FC
:10009000035200080352000803520008DB4900081D
:1000A00003520008035200080352000803520008DC
:1000B000E94D000803520008014E000803520008F1
:1000C00003520008035200080352000803520008BC
:1000D000035200082506000803520008E3500008F8
:1000E00003520008035200080352000800F002F80F
:1000F00000F062F80AA090E8000C82448344AAF160
:100100000107DA4501D100F057F8AFF2090EBAE85D
:100110000F0013F0010F18BFFB1A43F0010318473B
:10012000D8A30000F8A300000A444FF0000C10F818
:10013000013B13F0070408BF10F8014B1D1108BF65
:1001400010F8015B641E05D010F8016B641E01F805
:10015000016BF9D113F0080F1EBF10F8014BAD1C55
:100160000C1B09D16D1E58BF01F801CBFAD505E073
:1001700014F8016B01F8016B6D1EF9D59142D6D3CD
:10018000704700000023002400250026103A28BFF5
:1001900078C1FBD8520728BF30C148BF0B607047F9
:1001A000642906F02986782906F0608600207047C9
:1001B0001FB51FBD10B510BD07F0D2F81146FFF7EF
:1001C000F7FF00F009F807F0F0F803B4FFF7F2FFCB
:1001D00003BC00F0DBF9000008B500F03DF900F0C9
:1001E000A5F94FF4E13000F0DFF94FF4165004F0B8
:1001F00037FF13A004F0DAFF04F0A3FA03F029FE9E
:1002000000F001FC02F00CFD04F00CFE04F030FDE7
:1002100004F07DFD04F02EFE41F61F41002004F0A5
:10022000C9FE0CE00C48006808F058FA04460320A8
:1002300022460B4600210090084603F071FFF1E7CB
:1002400041542B4E414D452068635F30355F7378D4
:10025000776C200D0A00000014000020704700BFDA
:10026000FEE700BFFEE700BFFEE700BFFEE7704706
:1002700070477047704700000CB500200190009057
:100280006C48006840F480306A49086000BF6948E3
:10029000006800F4003000900198401C0190009824
:1002A00018B90198B0F5A06FF1D16248006800F468
:1002B000003010B10120009001E000200090009873
:1002C000012843D15C48006840F010005A4908609A
:1002D0000846006820F0030008600846006840F007
:1002E0000200086053484068524948600846406828
:1002F00048600846406840F48060486008464068AE
:1003000020F47C1048600846406840F4E8104860DB
:100310000846006840F08070086000BF45480068EB
:1003200000F000700028F9D04248406820F0030037
:10033000404948600846406840F00200486000BFFD
:100340003C48406800F00C000828F9D10CBD10B5FD
:10035000FFF792FF10BD10B53648006840F001006D
:1003600034490860084640683449084031494860CB
:1003700008460068324908402E490860084600686F
:1003800020F4802008600846406820F4FE004860A1
:100390004FF41F008860FFF7DAFF4FF00060294933
:1003A000086010BD10B5002100200022214B5B68C1
:1003B00003F00C0121B1042906D0082928D107E057
:1003C000214B224C236027E01F4B204C236023E06D
:1003D000184B5B6803F47010164B5B6803F48032B3
:1003E000022303EB904022B9194B4343174C23607F
:1003F0000DE0104B5B6803F4003323B1144B43430F
:10040000124C236003E0104B4343104C236003E085
:100410000D4B0E4C236000BF00BF064B5B68C3F35F
:1004200003130C4CE15C094B1B68CB40074C236069
:1004300010BD000000100240002002400000FFF844
:10044000FFFFF6FE08ED00E000127A003000002009
:1004500000093D003400002010B56FF0040004F0E6
:1004600032FF2E4800682E49B0FBF1F02D4908708C
:100470000846007800EB4001C1EBC0104FF6FF7159
:1004800001EAC0002849088010BD0146254A1278BB
:100490004A434FF0E0235A6100229A611A461269DA
:1004A00042F001021A6100BF4FF0E022106900F033
:1004B00001021AB100F48032002AF5D04FF0E02298
:1004C000126922F001024FF0E0231A6100229A61C2
:1004D00070470146144A12884A434FF0E0235A619C
:1004E00000229A611A46126942F001021A6100BFA5
:1004F0004FF0E022106900F001021AB100F48032DE
:10050000002AF5D04FF0E022126922F001024FF0EC
:10051000E0231A6100229A61704700003000002039
:1005200000127A00440000204600002008B54FF475
:10053000A06004F079FE17208DF8000001208DF8EE
:10054000030000208DF801008DF80200684604F0D9
:1005500070FE25208DF8000001208DF80300022098
:100560008DF801008DF80200684604F062FE272035
:100570008DF8000001208DF8030002208DF80100A5
:100580008DF80200684604F054FE08BD00BF7047B5
:1005900000BF434A128802F04002002AF9D0C2B2DA
:1005A0003F4B1B1D1A80704710B586B004460121D1
:1005B00044F2050005F050FA4FF40070ADF8140055
:1005C00003208DF8160018208DF8170005A935486E
:1005D00004F086FF4FF48060ADF8140004208DF81D
:1005E000170005A92F4804F07BFF01940020ADF807
:1005F0000800ADF80A00ADF80C00ADF810000C20B2
:10060000ADF80E0001A9264806F0DBF9012240F200
:100610002551234806F06DFA0121214806F05DFAC4
:1006200006B010BD10B540F225511D4806F046FB3E
:1006300010B31B4806F0C2FAC4B21B48007800F0A1
:100640008000C8B91848007800F0400060B10A2C5A
:1006500003D000201449087020E01348007840F0CF
:1006600080001149087019E00D2C06D10E48007861
:1006700040F040000C49087010E00B48007800F092
:100680003F000A490C5408480078401C064908708D
:10069000084600783F2801DD0020087010BD0000EA
:1006A00000380140000801404C0000206804002090
:1006B00010B50220FFF7E9FE10BD08B501210820A2
:1006C00005F0CAF91820ADF8000010208DF80300DD
:1006D00003208DF802006946834804F001FF08BD3D
:1006E00010B58148006820F470407F4908600846D2
:1006F000006840F44050086001207C4908607C4953
:10070000C1F89001FFF7D4FF002078490860FFF797
:10071000CFFF00207649C1F8900110BD10B5724896
:10072000006820F47040704908600846006840F492
:100730004050086000206D49091D08606C49C1F8EF
:100740008C01FFF7B5FF01206849091D0860684961
:10075000C1F88C01FFF7ACFF10BD10B50024624852
:10076000006820F47040604908600846006840F462
:100770000040086001205D490860FFF799FF0120F3
:100780005B49C1F89001FFF793FF07E0601CC4B21A
:10079000FA2C03DDFFF7C2FF012010BD534880385B
:1007A00000680028F2D15149091D086000BFF4E734
:1007B00010B500204D49091D08604B48006820F421
:1007C0007040494908600846006840F4405008609D
:1007D00000204749C1F88C01FFF76AFF0120434917
:1007E000091D0860FFF764FF00204149C1F890012E
:1007F00010BD10B500203D49091D08603A48006849
:1008000020F47040384908600846006840F44050C1
:10081000086001203649C1F88C01FFF749FF01202B
:100820003249091D0860FFF743FF00203049C1F835
:10083000900110BD70B504462B48006820F470404C
:10084000294908600846006840F4405008600020CC
:100850002649091D0860002512E0E00923490860C7
:100860006006040E01202249C1F89001FFF720FF25
:1008700000201E49091D0860FFF71AFF681CC5B259
:10088000082DEADB70BD70B50546002416480068E7
:1008900020F47040144908600846006840F40040A5
:1008A0000860002615E000201049091D0860FFF7C8
:1008B000FFFE01200E49C1F890016006040E0B48AE
:1008C0008038006808B1601CC4B2FFF7F1FE701CEC
:1008D000C6B2082EE7DB15B9FFF78BFF01E0FFF783
:1008E00067FF204670BD0000000C01408C81214252
:1008F0000080214270B505460C46FFF7F1FED0207E
:10090000FFF798FFFFF729FF18B1FFF707FF012056
:1009100070BD2846FFF78EFFFFF71FFF2046FFF749
:1009200089FFFFF71AFF18B1FFF7F8FE0120EFE784
:10093000FFF7F4FE0020EBE770B504460025BC2C61
:1009400001DB012510E0622C01DB02250CE02A2CE2
:1009500001DB032508E0142C01DB042504E00A2C4C
:1009600001DB052500E0062529461A20FFF7C2FF16
:1009700070BD70B50446B4F57A7F01DD4FF47A742A
:10098000042C00DA04244FF47A7090FBF4F0401E3B
:10099000C5B229461920FFF7ADFF0546264604EBF0
:1009A000D671C1F34F00FFF7C7FF70BD70B50446A5
:1009B000FFF796FED020FFF73DFFFFF7CEFE204663
:1009C000FFF738FFFFF7C9FEFFF78AFED120FFF7D8
:1009D00031FFFFF7C2FE0020FFF755FF0546FFF786
:1009E0009DFE284670BD10B50446E006010E1C2091
:1009F000FFF780FF10BD10B50446E006010E1B2076
:100A0000FFF778FF10BD10B5FFF757FE80216B2070
:100A1000FFF770FF6420FFF75CFD00216B20FFF7FC
:100A200069FF0320FFF7E7FF0020FFF7DCFFC82086
:100A3000FFF79FFF00213820FFF75CFF00216A20AD
:100A4000FFF758FF00212320FFF754FF80213720B4
:100A5000FFF750FF7520FFF7A9FF0446682C0BD164
:100A600001216B20FFF746FF00216C20FFF742FFBA
:100A70006420FFF77EFF01E0012010BD0020FCE7AD
:100A80002DE9F04106460F4614461D46FFF728FEA5
:100A9000002141EA4601C8B2FFF7CCFEFFF75DFE38
:100AA00020B1FFF73BFE0120BDE8F0813846FFF79B
:100AB000C1FEFFF752FEFFF713FE012101EB4601D5
:100AC000C8B2FFF7B7FEFFF748FE0DE0012C04D1D6
:100AD0000020FFF7D8FE287003E00120FFF7D3FEC7
:100AE0002870601EC4B26D1C002CEFD1FFF716FEFB
:100AF0000020D9E72DE9F84F6B46022241216820FA
:100B0000FFF7BEFF9DF801009DF8001040EA0120AC
:100B10000FFA80FA504607F0A0FA804600224B4BAD
:100B200007F0E6F806464A4A4A4B07F025F804461D
:100B300006F0F0FF83464849584607F0FBFF04469D
:100B400007F05CFF00B2BDE8F88F2DE9FC410446D8
:100B50000D4616466B46062243216820FFF790FF9C
:100B60000746BFB99DF801009DF8001040EA01203A
:100B700000B220809DF803009DF8021040EA012099
:100B800000B228809DF805009DF8041040EA01207D
:100B900000B230803846BDE8FC812DE9FC410446B6
:100BA0000D4616466B4606223B216820FFF768FF7C
:100BB0000746BFB99DF801009DF8001040EA0120EA
:100BC00000B220809DF803009DF8021040EA012049
:100BD00000B228809DF805009DF8041040EA01202D
:100BE00000B230803846BDE8FC812DE9F041054671
:100BF0000E4617469846FFF773FD002141EA45016E
:100C0000C8B2FFF717FEFFF7A8FD20B1FFF786FD7A
:100C10000120BDE8F0813046FFF70CFEFFF79DFD97
:100C200000240CE018F80400FFF704FEFFF795FD20
:100C300018B1FFF773FD0120EBE7601CC4B2BC42A2
:100C4000F0DBFFF76BFD0020E3E70000004075409C
:100C5000A4703D0AD74342400000C84238B504465C
:100C6000F74890F82400C0B114B10220009001E0D0
:100C700000200090F24A1268D17BF14A5268107845
:100C80006B460122FFF7B1FF10B14FF0FF3038BDC6
:100C90009DF80010EA48417423E0E948807A10B9D1
:100CA0004FF0FF30F3E724B1E548407C08B1002065
:100CB000EDE714B10120009001E000200090E04A2F
:100CC0001268D17BDE4A526810786B460122FFF72A
:100CD0008CFF10B14FF0FF30D9E79DF80010D848D5
:100CE00041740020D3E738B500241FE0D4480068E1
:100CF000C07AA04204D0D2480068407DA04200D112
:100D000012E0CF49496808786B4601222146FFF777
:100D1000B7FE10B14FF0FF3038BD9DF800202146DE
:100D2000C8A006F035F800BF601CC4B2C4484068D3
:100D30000079A042DADC0020EEE770B504460D46EB
:100D4000BF480068C07AA04204D0BD480068407D1A
:100D5000A04202D14FF0FF3070BDB9484068007921
:100D6000A04202DC4FF0FF30F6E7B5494968087849
:100D70002B4601222146FFF783FEEDE738B50446F6
:100D8000AF4890F82300A04201D1002038BD14B133
:100D90003020009001E000200090A948807C20B124
:100DA0009DF8000040F002000090A54890F8220055
:100DB00020B19DF8000040F080000090A04A126829
:100DC000117D9F4A526810786B460122FFF70DFF94
:100DD00010B14FF0FF30D9E7994880F82340002048
:100DE000D4E738B5044604F0700010B1012000903B
:100DF00005E014B10020009001E040200090904AEE
:100E00001268917C8E4A526810786B460122FFF777
:100E1000ECFE20B100218A488172481E38BD9DF841
:100E2000000020F04001864801730020009004F08B
:100E3000400020B99DF8000040F00400009004F04C
:100E4000200020B99DF8000040F00200009004F05E
:100E5000100020B99DF8000040F00100009004F05F
:100E6000080020B99DF8000040F038000090744A56
:100E70001268D17C724A526810786B460122FFF7E3
:100E8000B4FE20B100216E488172481EC6E724B12D
:100E9000082C02D00020FFF771FF694884720021FE
:100EA00001753220FFF715FB0020B7E738B504467F
:100EB0006348807CA04201D1002038BD002C46D080
:100EC0005F4A126811795E4A526810786B460122B7
:100ED000FFF7D6FD10B14FF0FF30EEE79DF80000B0
:100EE00020F020000090564A12681179544A526846
:100EF00010786B460122FFF778FE10B14FF0FF30FB
:100F0000DBE70320FFF7E5FA022000904C4890F859
:100F1000220020B19DF8000040F080000090484879
:100F200090F8230020B19DF8000040F030000090C0
:100F3000434A1268117D424A526810786B4601227A
:100F4000FFF753FE002851D04FF0FF30B5E73C4A81
:100F5000126811793A4A526810786B460122FFF7FD
:100F60008FFD10B14FF0FF30A7E73548807A00F0D1
:100F7000010028B19DF8000040F02000009004E03E
:100F80009DF8000020F0200000902D4A1268117991
:100F90002B4A526810786B460122FFF726FE10B1EB
:100FA0004FF0FF3089E70320FFF793FA244890F8C9
:100FB000220010B18020009001E000200090204825
:100FC00090F8230020B19DF8000040F03000009020
:100FD0001B4A1268117D1A4A526810786B4601222A
:100FE000FFF703FE10B14FF0FF3066E7144884743A
:100FF000002062E708B51248807A10B94FF0FF3040
:1010000008BD002000900E4A1268D17B0C4A52683D
:1010100010786B460122FFF7E8FD10B14FF0FF306A
:10102000EEE7074A12685179054A526810786B4614
:101030000122FFF7DAFD68B14FF0FF30E0E7000072
:1010400050000020252335783A20252335780D0AD5
:1010500000000000F84A12681179F74A52681078C7
:101060006B460122FFF7C1FD10B14FF0FF30C7E71B
:10107000F14890F82400002853D00C200090EE4A4C
:1010800012681179EC4A526810786B460122FFF71A
:10109000ACFD10B14FF0FF30B2E73220FFF719FA84
:1010A000C0200090E448807A00F0010020B19DF853
:1010B000000040F020000090DF4A12681179DE4AFB
:1010C000526810786B460122FFF78FFD10B14FF088
:1010D000FF3095E7D848407C10B10220009001E035
:1010E00000200090D44A1268D17BD34A526810780D
:1010F0006B460122FFF779FD10B14FF0FF307FE71B
:1011000000200090CC4A12685179CB4A526810787E
:101110006B460122FFF769FD002855D04FF0FF30E4
:101120006EE704200090C44A12681179C24A5268DE
:1011300010786B460122FFF758FD10B14FF0FF30D9
:101140005EE7BD48807C20B9BB48807A00F0010092
:1011500010B94020009001E060200090B64A12686B
:101160001179B54A526810786B460122FFF73DFDB0
:1011700010B14FF0FF3043E73220FFF7AAF9AE4835
:10118000407C10B10120009001E000200090AA4AAC
:101190001268D17BA84A526810786B460122FFF78B
:1011A00024FD10B14FF0FF302AE7A34A12685179AD
:1011B000A14A52681078A04B10330122FFF715FDA9
:1011C00010B14FF0FF301BE7002019E770B504465F
:1011D000002624F00104984890F8240008B100206B
:1011E00070BD9548807A10B94FF0FF30F8E792480B
:1011F000057C807A2040904908740846007CA04213
:1012000002D04FF0FF3600E0002614B98A48007D76
:1012100018B10120FFF722FD02E00020FFF71EFDBC
:101220003CB1FFF7E7FE20B1834805744FF0FF3073
:10123000D6E73046D4E738B504467F48807A10B9FF
:101240004FF0FF3038BDBC2C02DB0120009015E0D0
:10125000622C02DB0220009010E02A2C02DB03202B
:1012600000900BE0142C02DB0420009006E00A2C16
:1012700002DB0520009001E0062000906E48C07A55
:101280009DF80010884201D10020DBE76A4A12680D
:101290009178694A526810786B460122FFF7A5FCE5
:1012A00010B14FF0FF30CDE79DF800106248C172D9
:1012B0000020C7E738B50446282C02DD4FF0FF3088
:1012C00038BDDCB90020FFF759FD00208DF8000083
:1012D00007208DF80100584A1268917C564A5268DE
:1012E00010786B460222FFF780FC10B14FF0FF3000
:1012F000E6E70021504801750020E1E70120FFF7F3
:101300003DFD20208DF80000012C06D100208DF835
:1013100001000520FFF78FFF17E0052C06DC0120F8
:101320008DF801000520FFF786FF0EE0142C06DC87
:1013300002208DF801000A20FFF77DFF05E0032061
:101340008DF801001420FFF776FF9DF801000721BA
:1013500001EB8010C0B28DF80100374A1268917C11
:10136000354A526810786B460222FFF73EFC10B1F6
:101370004FF0FF30A4E708212F488172002101734C
:10138000012101750020FFF721FF002098E738B503
:1013900004462948807A10B94FF0FF3038BD2648FE
:1013A00090F8240010B14FF0FF30F7E72248007D9D
:1013B00050B134B1282C04DCE0B2FFF77BFF0020F1
:1013C000ECE70020FFF776FF042C01DA042404E0A8
:1013D000B4F57A7F01DD4FF47A744FF47A7090FBA4
:1013E000F4F0401EC0B20090134A12685178124ABD
:1013F000526810786B460122FFF7F7FB10B14FF0EF
:10140000FF30CBE79DF80000401C4FF47A7191FB50
:10141000F0F081B20848C1810146C9894810FFF740
:101420000AFF0020BAE738B504460348807A28B995
:101430004FF0FF3038BD000050000020022C06D0D5
:10144000042C07D0082C08D0102C0CD108E0002068
:1014500000900BE00820009008E01020009005E0CC
:101460001820009002E04FF0FF30E3E700BFF9489A
:10147000407A9DF80010B0EBE10F01D10020D9E7D0
:10148000F44A1268D179F34A526810786B46012207
:10149000FFF7ABFB10B14FF0FF30CBE79DF800003A
:1014A000C110EC4841720020C4E738B50446E94851
:1014B000807A10B94FF0FF3038BDFA2C09D0B4F55E
:1014C000FA7F09D0B4F57A7F09D0B4F5FA6F0CD160
:1014D00008E0002000900BE00820009008E01020B9
:1014E000009005E01820009002E04FF0FF30E3E7A5
:1014F00000BFD848007A9DF80010B0EBE10F01D191
:101500000020D9E7D34A12689179D24A52681078FC
:101510006B460122FFF769FB10B14FF0FF30CBE7BC
:101520009DF80000C010CB4908720020C4E71CB52C
:1015300080208DF80000C74A1268917CC54A526825
:1015400010786B460122FFF750FB10B14FF0FF30CF
:101550001CBD6420FEF7BDFF00208DF80000BD4AD1
:101560001268917CBB4A526810786B460122FFF7E3
:101570003CFB10B14FF0FF30EAE7B64A1268917DAC
:10158000B44A526810786B460622FFF779FA10B118
:101590004FF0FF30DCE79DF80500C007400F9DF8D5
:1015A000031001F0010140EA41009DF8011001F033
:1015B000010140EA010494B1012C03D10121A548A5
:1015C000C17431E0022C03D10021A248C1742BE088
:1015D0002146A1A005F0DCFB4FF0FF30B8E79D4AA3
:1015E0001268D1789B4A526810786B460122FFF747
:1015F00047FA10B14FF0FF30AAE79DF8000000F065
:101600000F042CB99E4805F0C3FB4FF0FF309FE755
:10161000042C06D19BA005F0BBFB01218D48C174B1
:1016200002E000218B48C174FF218A488172FF20AB
:1016300088490872FF2187484172C1724FF6FF71D5
:10164000C181FF21017481740121017380F822108E
:10165000002180F82310417501751630016041604A
:101660008160163880F8241080F82510C1844FF46A
:10167000FA60FFF71AFF10B14FF0FF3068E7022061
:10168000FFF7D1FE10B14FF0FF3061E72A20FFF7DE
:10169000D2FD10B14FF0FF305AE73220FFF777FE4E
:1016A00010B14FF0FF3053E70020FFF78FFD10B16E
:1016B0004FF0FF304CE70020FFF7F8FB10B14FF080
:1016C000FF3045E70020FFF78CFB002040E7704724
:1016D0007CB504460D465F48807A00F0700010B972
:1016E0004FF0FF307CBD5B4A1268117B594A52684B
:1016F00010786B460622FFF7C3F910B14FF0FF30A8
:10170000F0E79DF801009DF8001040EA012000B2CA
:1017100020809DF803009DF8021040EA012000B2ED
:1017200060809DF805009DF8041040EA012000B299
:10173000A08015B12846FFF7CAFF0020D2E77CB58C
:1017400004460D464348807A00F0080010B94FF077
:10175000FF307CBD3F4A1268517B3E4A5268107888
:101760006B460622FFF78CF910B14FF0FF30F0E71F
:101770009DF801009DF8001040EA012000B2208091
:101780009DF803009DF8021040EA012000B260803D
:101790009DF805009DF8041040EA012000B2A080E9
:1017A00015B12846FFF793FF0020D2E72DE9FE4F41
:1017B00005460C462748807A18B94FF0FF30BDE83F
:1017C000FE8F244A1268917B224A5268107802AB3D
:1017D0000222FFF755F910B14FF0FF30EFE79DF807
:1017E00009009DF8081040EA012006B214B1204615
:1017F000FFF76DFF17494968C88807F053F9154985
:1018000001904968B1F9080007F034F98346304681
:1018100007F030F95946009007F094FA8246019992
:1018200006F0F6FF81461F4906F084FF80464FF020
:101830008F4107F07FF9074607F0E0F828600020A5
:10184000BDE710B588B004461CB94FF0FF3008B0B2
:1018500010BD29E050000020556E737570706F72D6
:1018600074656420736F6674776172652070726F3F
:1018700064756374207265762025642E0A0000006A
:10188000A8A4000848616C662073656E736974696A
:1018900076697479207061727420666F756E642E3B
:1018A0000A00000000000C42206830B9606820B9CE
:1018B000A06810B9002008B010BDFA49496808783E
:1018C00006AB03221146FFF7DBF810B14FF0FF30F3
:1018D000F1E79DF81800082101EB201000F00F003F
:1018E000ADF800009DF8190001EB201000F00F008A
:1018F000ADF802009DF81A0001EB201000F00F0077
:10190000ADF8040020684100BDF90000403091FBB3
:10191000F0F000B2ADF8100060684100BDF90200BF
:10192000403091FBF0F000B2ADF81200A068410029
:10193000BDF90400403091FBF0F000B2ADF81400A6
:10194000D8494968087806AB06221146FFF798F88F
:1019500010B14FF0FF30AEE79DF819009DF8181058
:1019600040EA012000B2ADF808009DF81B009DF888
:101970001A1040EA012000B2ADF80A009DF81D00DF
:101980009DF81C1040EA012000B2ADF80C00BDF833
:101990001000BDF80810084400B2ADF81000BDF802
:1019A0001200BDF80A10084400B2ADF81200BDF8EC
:1019B0001400BDF80C10084400B2ADF81400BDF8D6
:1019C0001000000A8DF81800BDF81000C0B28DF8A4
:1019D0001900BDF81200000A8DF81A00BDF81200B7
:1019E000C0B28DF81B00BDF81400000A8DF81C0071
:1019F000BDF81400C0B28DF81D00AA4949680878E6
:101A000006AB06221146FFF7F0F810B14FF0FF3099
:101A100051E700204FE70146A248007A30B1012883
:101A200007D0022809D003280FD10AE0FA20088045
:101A30000EE04FF4FA7008800AE04FF47A700880E4
:101A400006E04FF4FA60088002E00020088000BF42
:101A500000BF0020704701469248407A30B101280B
:101A600007D0022808D003280CD108E00220087013
:101A70000BE00420087008E00820087005E0102042
:101A8000087002E04FF0FF30704700BF8548C07C0F
:101A900018B108784006000E08700020F4E70146EF
:101AA0008048C07A082817D2DFE800F01704070A38
:101AB0000D101318BC20088013E06220088010E08D
:101AC0002A2008800DE0142008800AE00A200880FF
:101AD00007E00520088004E000BF00BF0020088068
:101AE00000BF00BF0020704701466E4890F82400F8
:101AF00010B14FF0FF3070476A48C089088000205D
:101B0000F9E7014600200880401E704701464FF06B
:101B1000FF30704701466348007A30B1012807D092
:101B2000022808D003280CD108E05F4808600BE0C9
:101B30005E48086008E05E48086005E05D480860AF
:101B400002E04FF0FF30704700BF0020FBE7014686
:101B50005448407A30B1012808D002280AD003281E
:101B600010D10BE04FF4804008800EE041F69C70ED
:101B700008800AE04FF48050088006E04FF40060CF
:101B8000088002E04FF0FF30704700BF4548C07C3E
:101B900010B10888401008800020F5E70146414850
:101BA000007C08700020704701463E48807A10B1E2
:101BB0000120087001E0002008700020704738B54F
:101BC00004463848807A10B94FF0FF3038BD354AA6
:101BD0001268117C334A526810786B460222FEF775
:101BE0004FFF10B14FF0FF30F0E79DF801009DF876
:101BF000001040EA012000B220800020E6E72DE935
:101C0000FE4F0746884692461D46DDF830B0002656
:101C10000024244890F8240010B1601EBDE8FE8F17
:101C2000002028701F48807A10B94FF0FF30F5E788
:101C30001C48007C10B94FF0FF30EFE71948007CDA
:101C400000F0400008B1B01CC6B21648007C00F09D
:101C5000200008B1B01CC6B21248007C00F0100091
:101C600008B1B01CC6B20F48007C00F0080008B1F3
:101C7000B01DC6B20B4A1268917A0A4A52681078AF
:101C80006B460222FEF7FCFE10B14FF0FF30C5E7B5
:101C90009DF801009DF8001040EA0129B1450BDADA
:101CA0000020BBE7500000200000034300008342F7
:101CB0003333034233338341FC4840684088B9EBF7
:101CC000600F17DDF94A1268517CF84A52681078A3
:101CD0006B460122FEF7D4FE10B14FF0FF309DE7B6
:101CE0009DF8000000F0100020B1FFF783F96FF0BD
:101CF000010093E75046FFF7EAFCEC4A1268D17AFC
:101D0000EA4A526810786B463246FEF7B9FE10B1C7
:101D10004FF0FF3082E799FBF6F0401E8BF8000091
:101D200000202870B4422AD0E048007C00F008006F
:101D300028B3601C1DF800001DF8041040EA0120C3
:101D400000B2A8F80000E01C1DF80010A01C1DF84F
:101D5000000041EA002000B2A8F80200601D1DF852
:101D60000010201D1DF8000041EA002000B2A8F874
:101D70000400287840F008002870A01D84B2B44206
:101D800013D0CA48007C00F0400070B1601C1DF800
:101D900000001DF8041040EA012000B238802878C5
:101DA00040F040002870A01C84B2B44213D0BF4859
:101DB000007C00F0200070B1601C1DF800001DF8D0
:101DC000041040EA012000B27880287840F020001A
:101DD0002870A01C84B2B44213D0B448007C00F038
:101DE000100070B1601C1DF800001DF8041040EADE
:101DF000012000B2B880287840F010002870A01CA4
:101E000084B200200AE7F8B504460F461646A748F4
:101E100090F8240010B94FF0FF30F8BDA348807A45
:101E200010B94FF0FF30F8E7A04A1268917A9F4A44
:101E3000526810786B460222FEF722FE10B14FF076
:101E4000FF30EAE79DF801009DF8001040EA012507
:101E5000A54203DA00203070401EDEE79348406858
:101E60004088B5EB600F17DD904A1268517C8F4AAD
:101E7000526810786B460122FEF702FE10B14FF057
:101E8000FF30CAE79DF8000000F0100020B1FFF716
:101E9000B1F86FF00100C0E7E2B2844B1B68D97A59
:101EA000824B5B6818783B46FEF7EAFD10B14FF0B5
:101EB000FF30B2E795FBF4F0401E30700020ACE735
:101EC00001467A4880F82210002070477CB505460C
:101ED00076494968087801AB04220D21FEF7D0FD50
:101EE00008B107207CBD9DF80700C0F301109DF8E4
:101EF000041001F0E00140EAE1008DF800009DF8D7
:101F00000700C0F381009DF8051001F0E00140EAF0
:101F1000E1008DF801009DF8070000F003009DF836
:101F2000061001F0E00140EAE1008DF80200002413
:101F30001CE01DF8040018B9002045F8240013E047
:101F40005B4845F8240006E055F82400594906F09E
:101F5000F1FD45F824001DF80400401EC0B20DF844
:101F600004000028F0D100BF601CC4B2032CE0DBE9
:101F70000020B7E72DE9FE4F06460F4600256846CC
:101F8000FFF7A4FF002442E056F8240057F824107D
:101F9000A0EB010ABAF1000F01DB514601E0CAF1E2
:101FA0000001084606F066FD83464FF08F4106F0BB
:101FB0002FFC80465DF82400002106F0EBFC16D0D3
:101FC0005DF82410404606F023FC82464FF07E5117
:101FD00006F0B8FE814629F0004A3748416A50466B
:101FE00006F074FE12D20120A04005430EE03248F4
:101FF000C169404606F06AFD05D32F48016A404694
:1020000006F064FE02D20120A0400543641C032CAC
:10201000BADB2846BDE8FE8F2DE9FC5F06460F4679
:10202000002522494968087801AB03220D21FEF7FB
:1020300027FD10B10720BDE8FC9F9DF8040000F0CB
:102040001F008DF804009DF8050000F01F008DF8BA
:1020500005009DF8060000F01F008DF80600002422
:1020600062E056F8240057F82410A0EB010BBBF1F6
:10207000000F01DB594601E0CBF10001084606F0F4
:10208000F9FC4FF08F41009006F0C2FB814601A899
:10209000005DC0B30849086806F004FD8346594650
:1020A000064806F0B5FB80460FE000005000002017
:1020B0007B14AE3E1D5A843F488F000800B04C454B
:1020C000FE49404606F036FD804601A8005D401EF0
:1020D000C0B201A908550028F2D14146484606F091
:1020E00097FB83464FF07E5106F02CFE82462AF085
:1020F000004BF3488169584606F0E8FD13D20120F1
:10210000A04005430FE0FFE7ED480169484606F0AF
:10211000DDFC05D3EA484169484606F0D7FD02D206
:102120000120A0400543641C032C9ADB284682E76B
:102130002DE9F04F87B005460C46914601208DF8F9
:10214000100000208DF81100DE4A1268917CDD4AF3
:102150005268107804AB0222FEF747FD20B14FF021
:10216000FF3007B0BDE8F08FC820FEF7B2F90020BD
:102170008DF81000D34A1268D17BD24A5268107889
:1021800004AB0122FEF731FD10B14FF0FF30E8E75C
:10219000CC4A12685179CB4A5268107804AB0122BC
:1021A000FEF723FD10B14FF0FF30DAE7C54A1268A1
:1021B000917CC44A5268107804AB0122FEF715FDE9
:1021C00010B14FF0FF30CCE7BE4A1268D17DBD4A56
:1021D0005268107804AB0122FEF707FD10B14FF0F2
:1021E000FF30BEE7B74A12681179B64A52681078D4
:1021F00004AB0122FEF7F9FC10B14FF0FF30B0E75D
:102200000C208DF81000AF4A12681179AD4A52685F
:10221000107804AB0122FEF7E8FC10B14FF0FF305C
:102220009FE70F20FEF755F9A648806A407A8DF89F
:102230001000A44A12689178A24A5268107804AB40
:102240000122FEF7D2FC10B14FF0FF3089E79D4824
:10225000806A007A8DF810009A4A12685178994A7B
:102260005268107804AB0122FEF7BFFC10B14FF0AA
:10227000FF3076E7B9F1000F07D09248806A807A84
:1022800040F0E0008DF8100004E08E48806A807A0B
:102290008DF810008B4A126891798A4A526810783A
:1022A00004AB0122FEF7A1FC10B14FF0FF3058E75C
:1022B000B9F1000F07D08348806AC07A40F0E0008F
:1022C0008DF8100003E07E48C07A8DF810007D4A3A
:1022D0001268D1797B4A5268107804AB0122FEF76C
:1022E00084FC10B14FF0FF303BE7B9F1000F02D092
:1022F000C820FEF7EEF840208DF81000714A1268F1
:102300001179704A5268107804AB0122FEF76DFC17
:1023100010B14FF0FF3024E778208DF81000694AA3
:1023200012685179674A5268107804AB0122FEF7AF
:102330005CFC10B14FF0FF3013E761498889FEF76C
:10234000C8F800208DF810005E4A126851795D4A85
:102350005268107804AB0122FEF747FC10B14FF031
:10236000FF30FEE6574A1268917A564A5268107852
:1023700004AB0222FEF784FB10B14FF0FF30F0E611
:102380009DF811009DF8101040EA012B0C209BFBDA
:10239000F0F0C6B20020A86068602860A0606060AD
:1023A0002060824665E0474A1268D17A454A526801
:1023B000107804AB0C22FEF763FB10B14FF0FF3036
:1023C000CFE69DF811009DF8101040EA012000B200
:1023D000ADF808009DF813009DF8121040EA0120A6
:1023E00000B2ADF80A009DF815009DF8141040EAFF
:1023F000012000B2ADF80C00BDF9081020680844B7
:102400002060BDF90A10606808446060BDF90C10D6
:10241000A0680844A0609DF817009DF8161040EAD7
:10242000012000B2ADF800009DF819009DF81810C9
:1024300040EA012000B2ADF802009DF81B009DF8B3
:102440001A1040EA012000B2ADF80400BDF90010F6
:10245000286808442860BDF902106868084468606C
:10246000BDF90410A8680844A8600AF1010000F052
:10247000FF0AB24597DB1248D0F800C02868C117A0
:10248000090441EA1041070462460023384604F07B
:102490005AFC32460023CDE9020104F054FC2860C6
:1024A0000748D0F800C06868C117090441EA104124
:1024B000070462460023384606E0000054E3853FE7
:1024C000488F00085000002004F03DFC32460023F5
:1024D000CDE9020104F037FC6860FE48D0F800C086
:1024E000A868C117090441EA1041070462460023A5
:1024F000384604F028FC32460023CDE9020104F0FE
:1025000022FCA860F348D0F804C02168C817000472
:1025100040EA11480F04624600233846414604F061
:1025200012FC32460023CDE9020104F00CFC2060CD
:10253000E848D0F804C06068C117090441EA1041B6
:10254000070462460023384604F0FDFB32460023B0
:10255000CDE9020104F0F7FB6060DE48D0F804C06A
:10256000A068C117090441EA10410704624600232C
:10257000384604F0E8FB32460023CDE9020104F0BE
:10258000E2FBA060A068002804DDA068A0F5803010
:10259000A06003E0A06800F58030A0600020E0E5C6
:1025A00038B50446CC4890F82400A04201D1002060
:1025B00038BD24B3C84890F8250010B94FF0FF305B
:1025C000F6E70020FEF74AFB0020FEF76FFCC24949
:1025D000C88CFEF7DCFE00200090BF4949680878EF
:1025E0006B4601222321FEF700FB0121BA4880F847
:1025F00024100120FEF732FBFEF7FCFC13E0002064
:10260000FEF72CFBB448007C0090B3494968087879
:102610006B4601222321FEF7E8FA0021AE4880F83C
:102620002410FEF7E7FC0020C2E72DE9F04F8DB043
:1026300083460F4602200C90A74890F8240020B152
:102640000020FFF7ADFF012600E0002603A8FFF7FA
:10265000E2F905A8FFF7FFF901A8FFF720FA02A8A1
:10266000FFF742FA9C4890F80AA004A8FFF796FAF0
:10267000002407E0002239465846FFF759FD00B90B
:1026800002E0641C022CF5DB00BF022C01D1002506
:1026900028E0002407E0012206A909A8FFF748FD69
:1026A00000B902E0641C022CF5DB00BF022C01D152
:1026B000002517E006A93846FFF75CFC00F0FF088C
:1026C00009A95846FFF7A8FC00F0FF090025B9F159
:1026D000000F01D145F00105B8F1000F01D145F01F
:1026E000020500BFFF207C490872FF217A48417231
:1026F000C1724FF6FF71C181FF2181720174012106
:102700000173BDF80C00FEF7D0FE9DF81400FEF733
:102710008AFEBDF80400FEF78EFDBDF80800FEF746
:1027200036FE5046FEF75DFB9DF81000FEF74EFDAD
:1027300016B10120FFF734FF28460DB0BDE8F08F39
:10274000F8B504460D46164616B94FF0FF30F8BDF1
:102750006148807A10B94FF0FF30F8E720128DF809
:102760000000E0B28DF801009DF8010028445A49AC
:1027700049684989884202DD4FF0FF30E7E7564A51
:102780001268117E544A526810786B460222FEF796
:102790002CFA10B14FF0FF30D9E7EAB24E4B1B686C
:1027A000597D4D4B5B6818783346FEF71EFA10B121
:1027B0004FF0FF30CBE70020C9E7F8B504460D46DF
:1027C000164616B94FF0FF30F8BD4348807A10B96D
:1027D0004FF0FF30F8E720128DF80000E0B28DF8DE
:1027E00001009DF8010028443B4949684989884215
:1027F00002DD4FF0FF30E7E7374A1268117E364AB4
:10280000526810786B460222FEF7EFF910B14FF0D4
:10281000FF30D9E7EAB2304B1B68597D2E4B5B681D
:1028200018783346FEF72CF910B14FF0FF30CBE7A4
:102830000020C9E72DE9F04385B005460E469046D5
:102840009946254890F8250020B14FF0FF3005B09B
:10285000BDE8F08316B94FF0FF30F8E7002423E01D
:10286000281B102801DD102000E0281B87B2321938
:1028700039462046FFF764FF10B14FF0FF30E6E71E
:1028800001AA39462046FFF798FF10B14FF0FF30FC
:10289000DDE730193A4601A904F0B0FB10B16FF042
:1028A0000100D4E7E01984B2AC42D9DB4FEA28201A
:1028B0008DF8000008F0FF008DF80100064A12684C
:1028C000917E054A526810786B460222FEF78DF918
:1028D00038B103E0488F0008500000204FF0FF306F
:1028E000B5E70121FE4880F82510A0F826900020C9
:1028F000ADE70146FA4890F82400087000207047C0
:102900004FF0FF30704702464FF0FF3070470146EE
:102910004FF0FF307047F8B505460F461446002CBF
:1029200070D0B5F5FF5F01DDFF2605E0202D01DA4F
:10293000012601E0C5F3471607B90127282C02DD5F
:102940004FF0FF30F8BDE648407D28BBE44890F8E2
:10295000240038B10020FFF723FE0121E04880F871
:10296000201003E00021DE4880F82010DC481630FB
:10297000FFF751F8DA481830FFF76DF8D8481A30E9
:10298000FFF78DF8D6481C30FFF7AEF8D448817AAF
:1029900081771F30FFF702F90020FEF75FF9002072
:1029A000FEF788FC00208DF80000CD4A126891786F
:1029B000CB4A526810786B460122FEF716F910B127
:1029C0004FF0FF30BEE740208DF80000C44A126887
:1029D000D17BC34A526810786B460122FEF705F995
:1029E00000B165E08DF800608DF80170BC4A126896
:1029F000117ABB4A526810786B460222FEF7F5F84E
:102A000008B155E047E00520FDF763FDB448407A82
:102A1000072101EBC000C0B28DF80000B04A126877
:102A2000D179AF4A526810786B460122FEF7DDF883
:102A300000B13DE020208DF80000012C03D10020E2
:102A40008DF801000EE0052C03DC01208DF801005B
:102A500008E0142C03DC02208DF8010002E00320C2
:102A60008DF801009DF80100072101EB8010C0B234
:102A70008DF801009A4A1268917C994A5268107840
:102A80006B460222FEF7B1F800B111E00121944833
:102A90004175002056E7924A1632002103E0505C4F
:102AA00000B105E0491C0C29F9D34FF0FF3049E78C
:102AB000FF208B490872FF2189484172C1724FF68D
:102AC000FF71C181FF2181720174012101730146EF
:102AD000887FFEF786F98249C88AFEF7E6FC8049BE
:102AE000087EFEF7A0FC7E49488BFEF7A4FB7C49DC
:102AF000888BFEF74CFC7A49C87FFEF767FB784865
:102B000090F8200010B10120FFF74AFD0021744821
:102B10004175002016E770B588B002A905A8FFF737
:102B200084FD0446072C3ED101A8FEF7F3FF05986B
:102B300005F0A0FF0646019905F0FCFF054605F0EB
:102B40005DFF0590069805F095FF0646019905F092
:102B5000F1FF054605F052FF0690079805F08AFF41
:102B60000646019905F0E6FF054605F047FF079088
:102B700005A800F052FA6846FEF7E9FFBDF800101C
:102B8000029848430290BDF8001003984843039010
:102B9000BDF8001004984843049002A800F0D0FA51
:102BA000002008B070BD0120FBE7014691F900202C
:102BB000002A01DD00201EE091F90020002A01DA40
:102BC000042018E091F90120002A01DD012012E023
:102BD00091F90120002A01DA05200CE091F9022088
:102BE000002A01DD022006E091F90220002A01DA24
:102BF000062000E00720704710B504462046FFF786
:102C0000D4FF0346E01CFFF7D0FF43EAC00083B2C5
:102C1000A01DFFF7CAFF43EA801083B2184610BD1B
:102C200070B50024FDF749FDFEF781FC00283DD179
:102C30007820FEF7D6F8C4B20CB1012070BD782020
:102C4000FEF7C4FAC4B20CB10220F7E76420FEF725
:102C50009EFBC4B20CB10320F0E700F043F9C4B20C
:102C60000CB10420EAE71F48FFF7C6FF054600F055
:102C700043F9C4B20CB10520E0E740F2731000F054
:102C80007CFDC4B20CB10620D8E7642000F0EEFA57
:102C9000C4B20CB10720D1E7FFF73DFF0446012085
:102CA000FFF77EFCC4B21CB10920C7E70A20C5E7C4
:102CB0000020C3E72DE9F04F99B004460D461646B3
:102CC0004FF07E574FF000084FF000094FF0000A18
:102CD00012A813A918AB0EAACDE9001014A903E09D
:102CE000500000207C00002016A800F0A5FE18B1BE
:102CF000012019B0BDE8F08FBDF84C0000F48070E1
:102D000000287CD00E9805F0B5FE83464FF09D411B
:102D100005F07EFD07460F9805F0ACFE83464FF0A8
:102D20009D4105F075FD8046109805F0A3FE834691
:102D30004FF09D4105F06CFD8146119805F09AFE1B
:102D400083464FF09D4105F063FD824639464FF0C2
:102D5000804005F0EFFE4946059005F0EBFE414648
:102D600007904FF0404005F0E5FE5146059005F014
:102D7000E1FE0690079905F0DDFC834605F0AEFC08
:102D8000CDE9080104F090FB4FF06632544BCDE9D9
:102D90000A0105F0C9F9CDE90C0104F0BBFE206081
:102DA00049464FF0804005F0C5FE4946029005F0C7
:102DB000C1FE414604904FF0404005F0BBFE414645
:102DC000029005F0B7FE0390049905F0BBFF83461F
:102DD0004FF07E5105F0AEFC059005F07FFCCDE98B
:102DE000080139464FF0804005F0A4FE41460390AB
:102DF00005F0A0FE494604904FF0804000E06AE0F4
:102E000005F098FE5146039005F094FE8346049920
:102E100005F090FC059005F061FCCDE90601DDE9C7
:102E2000082304F091FD4FF066322D4BCDE90A01E5
:102E300005F07AF9CDE90C0104F06CFE28605146EA
:102E4000504605F077FE49460490484605F072FE6C
:102E500041460390404605F06DFE394601903846E4
:102E600005F068FE0090019905F064FC029003995A
:102E700005F068FF8346049905F064FF059005F0AE
:102E80002DFCCDE908015146384605F053FE494670
:102E90000490404605F04EFE0390049905F04AFC6C
:102EA0004FF08041059005F045FE834605F016FC85
:102EB000CDE90601DDE9082304F046FD4FF0663256
:102EC000074BCDE90A0105F02FF9CDE90C0104F01B
:102ED00021FE306001E002200BE7002009E700003E
:102EE00066A64C4010B5C8234FF48062F74940F6FF
:102EF000F630FFF79FFC10BD10B586B00446F4A075
:102F000000680390F3A000680290F3A000680190AD
:102F1000F2A00068009004F0030003A9085C8DF89B
:102F2000140003A8C4F3C101405C8DF8150003A888
:102F3000C4F38111405C8DF8160004F0030002A96F
:102F4000085C8DF8100002A8C4F3C101405C8DF844
:102F5000110002A8C4F38111405C8DF8120005AA8B
:102F6000032140F22640FFF7EBFB18B14FF0FF3092
:102F700006B010BD04AA032140F22A40FFF7E0FB8F
:102F800010B14FF0FF30F3E70198059000980490DE
:102F900004F0040058B19DF8140040F001008DF8D1
:102FA00014009DF8100040F001008DF8100004F0AE
:102FB000200058B19DF8150040F001008DF8150073
:102FC0009DF8110040F001008DF8110004F48070AC
:102FD00058B19DF8160040F001008DF816009DF8DC
:102FE000120040F001008DF8120005AA03214FF4F1
:102FF0008860FFF7A5FB10B14FF0FF30B8E704AAD7
:10300000032140F23140FFF79BFB10B14FF0FF303E
:10301000AEE7B34804810020AAE71FB50446B048D4
:10302000007A00F0030054F820000190AC48007AC8
:1030300000F0040010B1019840420190A848007AC5
:10304000C0F3C10054F820000290A548007A00F0B7
:10305000200010B1029840420290A148007AC0F3CB
:10306000811054F8200003909D48008900F480707E
:1030700010B10398404203909A49019880FB0101E6
:10308000800F40EA810001909649029880FB011070
:10309000820042EA917002909249039880FB0110ED
:1030A000820042EA917003900198000E8DF80000B2
:1030B0000198000C8DF801000198000A8DF80200BB
:1030C0000198C0B28DF803006A4604214FF4747071
:1030D000FFF736FB18B14FF0FF3004B010BD029877
:1030E000000E8DF800000298000C8DF80100029887
:1030F000000A8DF802000298C0B28DF803006A46FB
:1031000004214FF47570FFF71BFB10B14FF0FF3037
:10311000E3E70398000E8DF800000398000C8DF88B
:1031200001000398000A8DF802000398C0B28DF8E0
:1031300003006A4604214FF47670FFF701FBCCE7E9
:1031400070B588B0064601A8FEF701FDBDF8040081
:103150000021C90341EA5045C4036148007A00F0E8
:10316000030056F8200005905D48007A00F0040046
:1031700010B10598404205905948007AC0F3C1004B
:1031800056F8200006905648007A00F0200010B152
:103190000698404206905248007AC0F3811056F8D3
:1031A000200007904E48008900F4807010B1079805
:1031B000404207900598C117A0FB042301FB04318E
:1031C00000FB0510810041EA927005900698C11736
:1031D000A0FB042301FB043100FB0510810041EA40
:1031E000927006900798C117A0FB042301FB0431DD
:1031F00000FB0510810041EA927007900598000ECF
:103200008DF808000598000C8DF809000598000A53
:103210008DF80A000598C0B28DF80B000698000ED4
:103220008DF80C000698000C8DF80D000698000A29
:103230008DF80E000698C0B28DF80F000798000EAA
:103240008DF810000798000C8DF811000798000AFF
:103250008DF812000798C0B28DF8130002AA0C2155
:103260004FF42570FFF76CFA08B070BD30B585B02B
:1032700004461DA207CA02AB07C3C82C03DD4FF0EA
:10328000FF3005B030BDC82090FBF4F0401E85B281
:10329000280A8DF80000E8B28DF801006A46022184
:1032A00040F21620FFF74CFA10B14FF0FF30E8E77C
:1032B00002AA0C2140F6C120FFF742FA10B14FF0EC
:1032C000FF30DEE7064884810020DAE7708F0008CF
:1032D0004CCD6C000CC92C00365676002646660094
:1032E000A804002009E3CA02FEF2ABC4AAF1DFDFA2
:1032F000BBAFDFDF0146FC488089088000207047B3
:103300002DE9FC4706460F4606F0070010B1B7F559
:10331000C86F03DD4FF0FF30BDE8FC87384605F08D
:10332000C1FB8146F14905F073FA80466846FEF715
:1033300092FB9DF80000022806D0042816D0082829
:1033400026D0102848D135E04FF08D41404605F099
:10335000F1FB814605F06EFB84B2E549404605F07D
:10336000E9FB814605F066FB85B238E04FF08C4101
:10337000404605F0DFFB814605F05CFB84B2DD4989
:10338000404605F0D7FB814605F054FB85B226E0A8
:103390004FF08B41404605F0CDFB814605F04AFBDE
:1033A00084B2D549404605F0C5FB814605F042FB95
:1033B00085B214E04FF08A41404605F0BBFB8146E0
:1033C00005F038FB84B2CD49404605F0B3FB814699
:1033D00005F030FB85B202E04FF0FF309CE700BF04
:1033E00020128DF80400E0B28DF8050028128DF847
:1033F0000600E8B28DF8070006F00100A0B101AAAE
:1034000002214FF4EA70FFF79BF910B14FF0FF3043
:1034100082E70DF1060202214FF49270FFF790F956
:1034200010B14FF0FF3077E706F00200A0B101AA1B
:1034300002214FF4EC70FFF783F910B14FF0FF3029
:103440006AE70DF1060202214FF49470FFF778F954
:1034500010B14FF0FF305FE706F00400A0B101AA01
:1034600002214FF4EE70FFF76BF910B14FF0FF300F
:1034700052E70DF1060202214FF49670FFF760F952
:1034800010B14FF0FF3047E7002045E738B504465C
:103490000020009004F0010020B19DF8000040F0F1
:1034A0003000009004F0020020B19DF8000040F0D0
:1034B0000C00009004F0040020B19DF8000040F0E2
:1034C000030000906A4601214FF4A470FFF738F919
:1034D00038BD38B50446012C01DA012402E0042C81
:1034E00000DD0424601EC0B200906A46012140F253
:1034F0004F10FFF725F938BD38B50446052094FB79
:10350000F0F085B228128DF80000E8B28DF80100C5
:103510006A4602214FF4EF70FFF712F938BD38B553
:103520000446052094FBF0F085B228128DF80000C7
:10353000E8B28DF801006A4602214FF4ED70FFF702
:10354000FFF838BDF8B505460E464FF47A7095FB86
:10355000F0F000FB06F4200E8DF80000200C8DF832
:103560000100200A8DF80200E0B28DF803006A46DF
:1035700004214FF4AE70FFF7E3F8F8BD38B5044608
:10358000052094FBF0F084B220128DF80000E0B228
:103590008DF801006A4602214FF4AD70FFF7D0F8B4
:1035A00038BD38B50446052094FBF0F084B22012F3
:1035B0008DF80000E0B28DF801006A4602214FF458
:1035C000AC70FFF7BDF838BD38B5044614B94FF0FC
:1035D000FF3038BD6A4604214FF45870FFF7EDF80C
:1035E00010B14FF0FF30F4E79DF8000000069DF8A1
:1035F000011040EA01409DF8021040EA01209DF8C8
:103600000310084320600020E3E738B50446200E8D
:103610008DF80000200C8DF80100200A8DF80200C2
:10362000E0B28DF803006A4604214FF45870FFF7AA
:1036300087F838BD38B5044614B94FF0FF3038BDAF
:103640006A4604214FF47170FFF7B7F810B14FF0DC
:10365000FF30F4E79DF8000000069DF8011040EAF5
:1036600001409DF8021040EA01209DF80310084334
:1036700000EB8000800020600020E0E738B50446C1
:103680001420B4FBF0F4200E8DF80000200C8DF80F
:103690000100200A8DF80200E0B28DF803006A46AE
:1036A00004214FF47170FFF74BF838BD38B504466C
:1036B00064B120208DF8000028208DF80100302012
:1036C0008DF8020038208DF8030004E0A3220421C5
:1036D000684603F0DEFC6A46042140F69E20FFF7B0
:1036E0002FF8FDF787FC38BDA804002000004843F0
:1036F000000040460000C045000040450000C044B6
:1037000038B5044664B1C0208DF80000C2208DF8A1
:103710000100C4208DF80200C6208DF8030004E0EB
:103720008B220421684603F0B4FC6A46042140F66B
:103730009820FFF705F8FDF75DFC38BD3EB504465F
:103740006CB1FDA1D1E900208968CDE9002002918A
:103750006A4609214FF49760FEF7F2FF3EBDF9A2D9
:10376000D2E900109268CDE9010200916A46092170
:103770004FF49760FEF7E4FFF0E73EB50446022001
:103780008DF80000CA208DF80100E3208DF80200BA
:1037900009208DF803006A4604216820FEF7D0FF57
:1037A000A3208DF8000004F0400048B1C0208DF83F
:1037B0000100C8208DF80200C2208DF8030006E049
:1037C000A3208DF801008DF802008DF8030004F4A9
:1037D000C07048B1C4208DF80400CC208DF80500DD
:1037E000C6208DF8060006E0A3208DF804008DF8B1
:1037F00005008DF80600A3208DF807008DF808005D
:103800008DF809006A460A2140F6A720FEF798FFC6
:1038100004F0030018B120208DF8000002E0D82049
:103820008DF800006A46012140F6B620FEF788FFB9
:1038300004F0200018B10120FFF780FF02E0002013
:10384000FFF77CFF04F4C07008B304F4807060B12B
:10385000B2208DF800008B208DF80100B6208DF885
:1038600002009B208DF803000BE0B0208DF80000D3
:1038700080208DF80100B4208DF8020090208DF892
:1038800003006A46042140F6A220FEF759FF04F027
:10389000010020B3F8208DF800006A4601214FF4A2
:1038A0000B60FEF74DFFFA210720FFF729FD0720E7
:1038B000FFF7ECFD0120FFF70CFE6420FFF71CFE74
:1038C0004FF4FA70FFF72BFEC821A148FFF73AFE2C
:1038D0002820FFF753FE0A20FFF763FE08E0D820F8
:1038E0008DF800006A4601214FF40B60FEF728FFB7
:1038F00004F0020018B1D9208DF8000002E0D820B1
:103900008DF800006A46012140F23D70FEF718FF75
:1039100004F0040018B10120FFF7F2FE02E00020DD
:10392000FFF7EEFE04F0100018B10120FFF7BEFE15
:1039300002E00020FFF7BAFE44F008008549488104
:10394000FDF758FB00208349887304F0400018B14C
:103950000846807B801D887304F4C07020B17D48C8
:10396000807B801D7B49887304F0140020B1794866
:10397000807B10307749887304F0030020B17548CC
:10398000807B001D7349887300203EBD014671484D
:1039900040890880002070472DE9F0410446E07816
:1039A00000F0C006E07800F03F05607800F001000C
:1039B00098B1EF102846E91705EB5171C910A5EB36
:1039C000C101491C01F0FF086248006820B161484C
:1039D000414602683846904700BF607800F0080012
:1039E00030B15C48406818B1B0115A4A51688847F4
:1039F0000020BDE8F08110B586B0044656A207CA83
:103A000003AB07C357A207CA8DE80700012C09D0F2
:103A1000022C0ED103AA0B2140F68220FEF790FE65
:103A200006B010BD6A460B2140F68220FEF788FEE4
:103A3000F6E74FF0FF30F3E72DE9F04F8DB0074682
:103A4000884615469946DDE9166B00240020308033
:103A50004049887B5A4605A9FEF7D5F918B1601E82
:103A60000DB0BDE8F08F3B48807A00F014000028CC
:103A700061D09DF8140000069DF8151040EA014041
:103A80009DF8161040EA01209DF8171008432860A1
:103A90009DF8180000069DF8191040EA01409DF8B5
:103AA0001A1040EA01209DF81B10084368609DF839
:103AB0001C0000069DF81D1040EA01409DF81E10F4
:103AC00040EA01209DF81F100843A8609DF82000DF
:103AD00000069DF8211040EA01409DF8221040EABE
:103AE00001209DF823100843E86004F11000C4B2DF
:103AF000286800140190686800140290A8680014F7
:103B00000390E8680014049001984043029901FB77
:103B10000100039901FB0100049901FB010ABAF1BC
:103B2000706F02DBBAF1885F22DDFDF763FA0020D7
:103B30003080401E94E721E0B8AAB38DB4980D35CB
:103B40005D000000B8AAAAAAB088C3C5C7000000DB
:103B500009E3CA02A8040020D8B1B9F38BA391B637
:103B600009B4D900DAB1B9F38BA391B6DAB4DA00AB
:103B7000B6F9000040F48070308000BF3448807A8D
:103B800000F0400020B305A9601C085C095D40EA14
:103B9000012000B2A8F8000005A9E01C095C05AAF4
:103BA000A01C105C41EA002000B2A8F8020005A9A0
:103BB000601D095C201D105C41EA002000B2A8F8DD
:103BC0000400A01DC4B2B6F9000040F00800308027
:103BD0001F48408900F4C07008B305A9601C085C48
:103BE000095D40EA012000B2388005A9E01C095CAB
:103BF00005AAA01C105C41EA002000B2788005A94B
:103C0000601D095C201D105C41EA002000B2B880F4
:103C1000A01DC4B2B6F9000040F0700030800C481E
:103C2000807A00F0030018B105A90819FFF7B4FE67
:103C30004846FDF74CFD002012E7014604480160AC
:103C40000020704701460248416000207047000094
:103C5000A804002010B54FF48071F84801F0EDFC85
:103C60004FF40071F54801F0E8FC4FF40071F3489F
:103C700001F0E5FC4FF48071F04801F0E0FC10BD6C
:103C800010B54FF48071ED4801F0D7FC4FF400718E
:103C9000EA4801F0D4FC4FF40071E84801F0CDFC93
:103CA00010BD10B54FF48071E44801F0C6FC4FF42C
:103CB0008071E24801F0C3FC10BD2DE9F0410546DA
:103CC0002C464FF48071DD4801F0B9FC00261CE061
:103CD000274607F08007802F04D1B900D74801F0AC
:103CE000ACFC04E04FF40071D44801F0A8FC60067D
:103CF000040E4FF48071D14801F09FFC4FF48071A5
:103D0000CE4801F09CFC701CC6B2082EE0DBBDE87A
:103D1000F08110B50446FFF79DFF7820FFF7CDFF37
:103D2000FFF7BFFF0020FFF7C8FFFFF7BAFF2046ED
:103D3000FFF7C3FFFFF7B5FFFFF7A2FF10BD10B5F8
:103D40000446FFF787FF7820FFF7B7FFFFF7A9FFCB
:103D50004020FFF7B2FFFFF7A4FF2046FFF7ADFFBB
:103D6000FFF79FFFFFF78CFF10BD70B504460D46AF
:103D70001DB1E0B2FFF7E3FF02E0E0B2FFF7C9FFD9
:103D800070BD70B50646002418E004F1B0000021B3
:103D9000FFF7EBFF00210846FFF7E7FF00211020A7
:103DA000FFF7E3FF002505E001213046FFF7DDFFC7
:103DB000681CC5B2802DF7DB601CC4B2082CE4DBA4
:103DC00070BD06E041F6650100E0491E0029FCD106
:103DD000401E0028F6D17047014605E0002001E0B2
:103DE000421CD0B27B28FBDB0A00A1F10101F5D116
:103DF000704770B504460D4605F1B0000021FFF78D
:103E0000B4FF102141EA14100021FFF7AEFF04F0C7
:103E10000F000021FFF7A9FF70BD10B500218D2014
:103E2000FFF7A3FF00211420FFF79FFF0021AF2021
:103E3000FFF79BFF10BD10B500218D20FFF795FF08
:103E400000211020FFF791FF0021AE20FFF78DFF2A
:103E500010BD70B5002418E004F1B0000021FFF798
:103E600084FF00210846FFF780FF00211020FFF7A4
:103E70007CFF002505E001210020FFF776FF681C8C
:103E8000C5B2802DF7DB601CC4B2082CE4DB70BD2A
:103E900070B5002418E004F1B0000021FFF765FFC1
:103EA00000210846FFF761FF00211020FFF75DFFAA
:103EB000002505E001210846FFF757FF681CC5B241
:103EC000802DF7DB601CC4B2082CE4DB70BD2DE94B
:103ED000F04707460E469046994600250024A8F173
:103EE0002000C5B27F2F02DD0027B01CC6B2B9F199
:103EF000100F24D131463846FFF77BFF002408E03D
:103F000004EB05114E4A505C0121FFF72EFF601CA7
:103F1000C4B2082CF4DB701CC1B23846FFF769FF4D
:103F2000002409E004EB05110831454A505C0121E9
:103F3000FFF71BFF601CC4B2082CF3DB12E0314614
:103F40003846FFF756FF00240AE005EB45013D4ADD
:103F500002EB4101085D0121FFF707FF601CC4B2BD
:103F6000062CF2DBBDE8F08710B50246012000E028
:103F700050430B00A1F10104E1B2F9D110BD2DE9CC
:103F8000FF5F074691461E460E9D4FF0000A002433
:103F900035E0301B401EC1B20A20FFF7E5FFB9FB38
:103FA000F0F00A21B0FBF1F201FB1208BAF1000FA8
:103FB00014D1701EA04211DDB8F1000F0CD1AB4638
:103FC00005EBDB71491001FB0471C8B22B462022BE
:103FD0000199FFF77CFF10E04FF0010AAB4605EBBB
:103FE000DB71491001FB0471C8B208F13001CAB29B
:103FF0002B460199FFF76BFF00BF601CC4B2B442AF
:10400000C7DBBDE8FF9F2DE9F04105460E4614468B
:104010001F460EE022783B4631462846FFF757FF01
:1040200005F10800C5B2782D02DD0025B01CC6B22E
:10403000641C20780028EDD1BDE8F081000C01401F
:104040008E9D0008669B00082DE9F04180460E46D3
:104050001546002731464046FFF7CBFE00240AE014
:10406000F74A02EB8511085D0121FFF77EFE781CFF
:10407000C7B2601CC4B2102CF2DB701CC1B2404647
:10408000FFF7B7FE00240CE06900491CEC4A02EB84
:104090004111085D0121FFF768FE781CC7B2601C62
:1040A000C4B2102CF0DBBDE8F0812DE9F05F0646CC
:1040B0000F4690461C46DDF828A04FF0000BE11794
:1040C00004EB5171C910A4EBC10131B92046E117CD
:1040D00004EB5171C1F3C70506E02046E11704EB7C
:1040E0005171C910491CCDB23D4615E029463046F4
:1040F000FFF77FFEB1460BE059460BF1010B1AF8B2
:1041000001000121FFF731FE09F1010000F0FF0974
:10411000C145F1DB681CC5B2A542E7DBBDE8F09FF5
:104120002DE9FF5F86B014461D464FF0010A0020BE
:104130000390049005904FF00109002600BF8346CC
:10414000002213462046294603F0B2FF09D285F02B
:104150000040CDE900402046019903F021FF0646CA
:1041600004E02046294603F01BFF0646304603F0D4
:1041700074FF22462B46CDE9000104F0D3F8074630
:1041800088460022AF4B3846414603F0CDFFCDE9CB
:10419000000103F035FF834607E009EB89004FEA91
:1041A00040090AF1010000F0FF0A0A2096FBF0F036
:1041B00090FBF9F00028F0D142F2107096FBF0F07D
:1041C0000A2190FBF1F201FB1200C0B28DF80C0045
:1041D0004FF47A7096FBF0F090FBF1F201FB1200C5
:1041E000C0B28DF80D00642096FBF0F090FBF1F268
:1041F00001FB1200C0B28DF80E000A2096FBF0F011
:1042000090FBF1F201FB1200C0B28DF80F000A2002
:1042100096FBF0F100FB1160C0B28DF810002E206B
:104220008DF811004FF47A70BBFBF0F00A21B0FB5F
:10423000F1F201FB12008DF812006420BBFBF0F0DC
:10424000B0FBF1F201FB12008DF813000A20BBFB5A
:10425000F0F0B0FBF1F201FB12008DF814000A201F
:10426000BBFBF0F100FB11B08DF815000021149894
:10427000801D03AA1154894608E003A810F809001C
:10428000303003A901F8090009F10109B9F10A0F59
:10429000F3DB002213462046294603F009FF08D22B
:1042A0000AF1010000F0FF0A2D20CAF1050103AA5E
:1042B00050542E208DF8110000211498801D03AA5F
:1042C0001154CAF1050003A942180C23DDE90610B8
:1042D000FFF799FE0AB0BDE8F09F2DE9F04F89B0D5
:1042E0008246894617469846DDF84CB00120079073
:1042F00000200490059006900124002500BF0026B0
:104300004FEAC9604FEA10693846414603F048FE5B
:104310000546284603F0B8FE3A464346CDE900017B
:1043200004F000F8CDE902010022464BDDE902016C
:1043300003F0FAFECDE9000103F062FE064606E056
:1043400004EB840044000798401CC0B207900A2088
:10435000B5FBF0F0B0FBF4F00028F1D142F21070A0
:10436000B5FBF0F00A21B0FBF1F201FB12008DF871
:1043700010004FF47A70B5FBF0F0B0FBF1F201FBE6
:1043800012008DF811006420B5FBF0F0B0FBF1F2E3
:1043900001FB12008DF812000A20B5FBF0F0B0FB13
:1043A000F1F201FB12008DF813002E208DF815009C
:1043B0004FF47A70B6FBF0F0B0FBF1F201FB1200A3
:1043C0008DF816006420B6FBF0F0B0FBF1F201FBB3
:1043D00012008DF817000A20B6FBF0F0B0FBF1F2E6
:1043E00001FB12008DF818000A20B6FBF0F100FB6B
:1043F00011608DF8190000210BF1060004AA115478
:10440000002405E004A8005D303004A90855641CB0
:104410000A2CF7DB2E208DF8150000210BF1060089
:1044200004AA11541298C0F1050004A942180C23E3
:1044300051464846FFF7E7FD09B0BDE8F08F0000A0
:10444000850000200088C3402DE9F04105460F4655
:10445000164600BF05EB45014906080E3946FFF731
:10446000C8FC00240BE006F1100101EB4101FB4AFE
:1044700002EB4101085D0121FFF777FC641C062C6B
:10448000F1DBBDE8F0812DE9F04105460F46164607
:1044900000BF05EB45014906080E3946FFF7A9FCA8
:1044A000002409E006EB4601EC4A02EB4101085DFD
:1044B0000121FFF75AFC641C062CF3DBBDE8F081F8
:1044C0002DE9F0470546894616463446002C22DA87
:1044D0006442642094FBF0F100FB11400A2190FB40
:1044E000F1F0C7B20A2094FBF0F100FB114000F09C
:1044F000FF080D2249462846FFF7C5FF691CC8B2D0
:104500003A464946FFF7A0FFA91CC8B242464946B1
:10451000FFF79AFF20E0642094FBF0F100FB1140CC
:104520000A2190FBF1F0C7B20A2094FBF0F100FBE6
:10453000114000F0FF080B2249462846FFF7A3FF71
:10454000691CC8B23A464946FFF77EFFA91CC8B2AB
:1045500042464946FFF778FFBDE8F0872DE9F0476E
:1045600005468A4616463446002C2DDA64420D2252
:1045700051462846FFF787FF0A2094FBF0F100FB25
:104580001140C7B20A2094FBF0F00A2190FBF1F22F
:1045900001FB120000F0FF08642094FBF0F000F033
:1045A000FF09E91CC8B23A465146FFF74DFFA91C66
:1045B000C8B242465146FFF747FF691CC8B24A4697
:1045C0005146FFF741FF2BE00B2251462846FFF7EB
:1045D0005AFF0A2094FBF0F100FB1140C7B20A20F9
:1045E00094FBF0F00A2190FBF1F201FB120000F0C5
:1045F000FF08642094FBF0F000F0FF09E91CC8B24A
:104600003A465146FFF720FFA91CC8B24246514620
:10461000FFF71AFF691CC8B24A465146FFF714FF5C
:10462000BDE8F0872DE9F05F05468B461646344617
:10463000002C00DA64424FF47A7094FBF0F0C7B2B9
:104640004FF47A7094FBF0F100FB1140642190FB71
:10465000F1F000F0FF08642094FBF0F100FB114042
:104660000A2190FBF1F000F0FF090A2094FBF0F121
:1046700000FB114000F0FF0A3A4659462846FFF772
:10468000E3FE691CC8B242465946FFF7DDFEA91C8D
:10469000C8B24A465946FFF7D7FEE91CC8B252468F
:1046A0005946FFF7D1FEBDE8F09F2DE9F05F0546C2
:1046B0000E46144642F21070B4FBF0F0C7B242F25C
:1046C0001070B4FBF0F100FB11404FF47A71B0FBB5
:1046D000F1F000F0FF080846B4FBF0F100FB1140D8
:1046E0006421B0FBF1F000F0FF096420B4FBF0F1AD
:1046F00000FB11400A21B0FBF1FA0A20B4FBF0F1F3
:1047000000FB114B3A4631462846FFF79DFE691CD7
:10471000C8B242463146FFF797FEA91CC8B24A46C6
:104720003146FFF791FEE91CC8B252463146FFF709
:104730008BFE291DC8B25A463146FFF785FEBDE8FB
:10474000F09F08B50121092001F086F901214448B4
:1047500000F097FF4FF44070ADF8000010208DF886
:10476000030003208DF8020069463E4800F0B8FEC1
:104770004FF440713B4800F060FF4FF44870FBF786
:10478000A8FE0021AE20FFF7F0FA00210846FFF74F
:10479000ECFA00211020FFF7E8FA00214020FFF793
:1047A000E4FA0021B020FFF7E0FA00218120FFF7B2
:1047B000DCFA0021FF20FFF7D8FA0021A120FFF743
:1047C000D4FA0021A620FFF7D0FA0021A820FFF795
:1047D000CCFA00213F20FFF7C8FA0021C820FFF7DC
:1047E000C4FA0021D320FFF7C0FA00210846FFF7E2
:1047F000BCFA0021D520FFF7B8FA00218020FFF78E
:10480000B4FA0021D820FFF7B0FA00210520FFF705
:10481000ACFA0021D920FFF7A8FA0021F120FFF718
:10482000A4FA0021DA20FFF7A0FA00211220FFF7F6
:104830009CFA0021DB20FFF798FA00213020FFF7D7
:1048400094FA00218D20FFF790FA00211420FFF741
:104850008CFA0021AF20FFF788FA08BD669B00089C
:1048600000023000000C01402DE9F04705460C46DF
:10487000204604F0FFF88246D2480168504604F012
:1048800059F98046284604F0F5F88246CE4801687A
:10489000504604F04FF98146414603F04BFF07466E
:1048A00004F0ACF806463046BDE8F0872DE9F05F2D
:1048B00005460E4614460021204604F043FA83467E
:1048C000C2480168584604F035F981463146284609
:1048D00004F02DFA8346BE480168584604F02AF9D0
:1048E0008246494603F026FF804604F087F80746D3
:1048F0003846BDE8F09F2DE9F84F04460D461646B0
:10490000B44FA819001BB4490860B448006804F00B
:10491000B1F88346394604F00DF98146AE48006887
:1049200004F0A8F8834639464FF07E5004F00AFAA6
:104930005946009004F0FEF88246494603F0FAFE1C
:10494000804604F05BF8A649086008460068A34961
:104950000860A4480068A24909680844A1490860A1
:104960000846006842F21071884201DD084608E0FE
:104970009C4800689C49884201DA084601E0994851
:1049800000689849086099480078012803D1002000
:104990000860964908709348006804F06BF88346F5
:1049A00093480168584604F0C5F881468C48006871
:1049B00004F060F883468F480168584604F0BAF85E
:1049C0008246494603F0B6FE804604F017F88A494D
:1049D000086008460068BDE8F88F2DE9F041202006
:1049E00000F004FD00287DD084480068002879D1BB
:1049F000202000F00CFD022000F0D6F94042804952
:104A00000860042000F0D0F97E4908607E4A7F49A2
:104A10007F48FEF74FF97F4A7F498048FCF795F8B9
:104A20007F4A80498048FCF7B8F88048007828B968
:104A30007F48007810B900207E4908607B480078E4
:104A4000012807D14FF07E517A48006803F072FECA
:104A50007849086076480078012807D14FF07E51E8
:104A60007448006804F06EF9724908607249714830
:104A7000006804F02BF901D26F4809E06F496D48D6
:104A8000006804F023F801D26C4801E0694800682E
:104A9000684908606A48007828B96A48007810B9FF
:104AA00000206949086066480078012807D14FF066
:104AB0007E516548006803F03DFE63490860614827
:104AC0000078012807D14FF07E515F48006804F05C
:104AD00039F95D4908605D495B48006804F0F6F803
:104AE00003D200E06BE0594809E059495648006894
:104AF00003F0ECFF01D2564801E0534800685249E8
:104B000008604F48007830B94E48007818B95148CD
:104B10002D4908600AE04A480078012803D0494836
:104B20000078012802D10020274908604148006828
:104B300003F064FF0546334802683148016828469F
:104B4000FFF7D9FE444908603448B0F9000003F08B
:104B500091FF06464048006803F08CFF07463F4837
:104B60000168384603F0E6FD0546324627480168ED
:104B70002846FFF79BFE3A4908603348006803F077
:104B80003DFF054629462348B0F90000FFF76CFEBB
:104B9000344908603248046808460068201A3249DF
:104BA0000860304800682044304908602E4800F012
:104BB00075F92E4801682C48006800F098F9BDE8A6
:104BC000F0810000280400202404002018040020A4
:104BD000140400203333333F3C04002048040020F9
:104BE0004404002040040020F0D8FFFF4D040020C2
:104BF000200400201C0400203804002014812142DD
:104C0000280000202C0000201800002014000020A4
:104C100010000020200000201E0000201C000020AA
:104C20002600002024000020220000204E04002046
:104C30004F0400200C04002000007042000070C2ED
:104C40005004002051040020100400200000A04265
:104C50000000A0C29A9919BF300400200804002067
:104C60002C04002034040020080000200C00002048
:104C700000B587B00121084600F0FBFE01210520A8
:104C800000F0EAFE04208DF80F000320ADF80C00C0
:104C90008DF80E0003A9604800F022FC04A801F082
:104CA0003FFB0020ADF81600ADF812004FF6FF7084
:104CB000ADF814000020ADF8100004A94FF08040BA
:104CC00001F002F800231A4603214FF0804001F062
:104CD0000AFC684601F037FB0A20ADF80800694677
:104CE000400701F084FA0121880701F00FFE01223C
:104CF0001146900701F05FFB00214FF0804001F06A
:104D0000D3FD0121880701F03BFB07B000BD00B5D2
:104D100087B00121042000F0ACFE0121092000F041
:104D20009BFE04208DF80F00C020ADF80C0003207E
:104D30008DF80E0003A9394800F0D2FB04A801F059
:104D4000EFFA0020ADF81600ADF812004FF6FF7034
:104D5000ADF814000020ADF8100004A9304800F0B0
:104D6000B3FF00231A4603212D4801F0BCFB68461F
:104D700001F0E9FA0A20ADF808006946284801F078
:104D800036FA0121264801F0C1FD012211462448CE
:104D900001F011FB0021224801F086FD012120488D
:104DA00001F0EEFA07B000BD70B50546022D02D045
:104DB000042D14D10AE04FF0804001F098FD04B2B8
:104DC00000214FF0804001F06FFD0AE0144801F02F
:104DD0008EFD04B20021124801F066FD01E00024BE
:104DE00000BF00BF204670BD10B50121880701F04B
:104DF00090FD012803D10121800701F09BFD10BD2A
:104E000010B50121064801F084FD012803D10121DC
:104E1000034801F08FFD10BD00080140000C014067
:104E2000000800400EB50121092000F015FE4820C1
:104E30008DF803002020ADF8000003208DF802005B
:104E400069460B4800F04CFB0521012000F05EFC98
:104E50002020019001208DF80A0000208DF8080024
:104E60000C208DF8090001A800F05AFA0EBD0000D0
:104E7000000C014008B50121082000F0EDFD1020D4
:104E80008DF803004FF47040ADF8000003208DF85A
:104E9000020069463F4800F023FB08BD3E4B026814
:104EA0001B689A4202DD3C4A126802603B4B026872
:104EB0001B689A4202DA394A12680260364B0A6865
:104EC0001B689A4202DD344A12680A60334B0A6852
:104ED0001B689A4202DA314A12680A60704701463A
:104EE000002901DD0A4600E04A421046704770B5CD
:104EF00005460C46002D07DD0120294908600020E9
:104F00002849C1F8BC0106E00020254908600120BD
:104F10002449C1F8BC012846FFF7E1FF86B23146BB
:104F2000214801F0C5FC002C08DD01201C49091FA7
:104F3000086000201B49C1F8B00107E000201849B3
:104F4000091F086001201749C1F8B0012046FFF78A
:104F5000C6FF86B23146144801F0B0FC70BD2DE9A1
:104F6000F04104460D462168286803F0EBFE074631
:104F700003F044FD0646FFF7B2FF3C2807DD0B486F
:104F800001780078FFF7B3FF012009490870BDE8F8
:104F9000F0810000000C014000000020040000200F
:104FA000B881214200802142002C01404C040020A5
:104FB0004D04002030B589B004460D46012140F66D
:104FC000050000F049FD18208DF823004FF4106013
:104FD000ADF8200003208DF8220008A91E4800F03B
:104FE0007FFA05A801F09CF90020ADF81A00ADF891
:104FF0001600ADF81850ADF8144005A9174800F098
:1050000063FE6020ADF804000020ADF80C00012024
:10501000ADF806000020ADF80A0001A90F4800F025
:1050200090FE01A90D4800F066FF01210B4801F038
:10503000B3F90821094801F0D3FA0821074801F023
:10504000EEFA0121054801F09BFA0121034801F025
:1050500097F909B030BD000000080140002C014064
:1050600010B586B004460121082000F002FD0121A0
:10507000880400F0FEFC4FF48060ADF814000320BB
:105080008DF8160018208DF8170005A9504800F07B
:1050900027FA4FF40060ADF8140004208DF81700D3
:1050A00005A94B4800F01CFA01940020ADF8080057
:1050B000ADF80A00ADF80C00ADF810000C20ADF80A
:1050C0000E0001A9434801F07CFC012240F2255169
:1050D000404801F00EFD01213E4801F0FEFC06B003
:1050E00010BD10B540F225513A4801F0E7FD002807
:1050F0004DD0384801F062FD04464CB900203649D5
:1051000008703649087036490870364908703EE024
:10511000012C0AD101203049087000202F49087065
:105120002F4908702F49087031E0052C0BD1002061
:105130002949087001202949087000202849087071
:105140002849087023E0032C0BD100202249087065
:105150002249087001202249087000202149087066
:1051600015E0072C0AD100201B4908701B49087064
:105170001B49087001201B49087008E000201649EF
:10518000087016490870164908701649087010BD55
:1051900010B5044621460F4801F00CFD00BF402128
:1051A0000C4801F075FD0028F9D010BD70B504461B
:1051B000204601F04FFF86B2002505E014F8010BF0
:1051C000FFF7E6FF681C85B2B542F7DB70BD000053
:1051D000000C0140004800404E0400204F04002015
:1051E0005004002051040020094880470948004726
:1051F000FEE7FEE7FEE7FEE7FEE7FEE7FEE7FEE787
:10520000FEE7FEE704480549054A064B70470000E3
:1052100057030008ED00000818050020180B0020B7
:10522000180700201807002031490143314A116056
:10523000704770B5002100230F22C47804B32D4CB1
:10524000246804F4E064C4F5E064210AC1F10403B5
:10525000CA40447804FA03F18478144021430901D8
:10526000254C0678A155047804F01F050124AC40B4
:1052700005786D11AD0005F1E025C5F8004109E0A4
:10528000047804F01F050124AC401C4D067876110B
:1052900045F8264070BD1A4A0A400243154B1B1FB1
:1052A0001A60704739B1134A121D12680243114B3C
:1052B0001B1D1A6006E00F4A121D126882430D4B37
:1052C0001B1D1A607047042808D14FF0E0210969BE
:1052D00041F004014FF0E022116107E04FF0E021BE
:1052E000096921F004014FF0E022116170470000CC
:1052F0000000FA050CED00E000E400E080E100E0D1
:1053000080FFFF1F002044490860091D0860091D37
:105310000860091D086041483F4914310860704722
:1053200000213D498279002A3AD00A461268036872
:105330009A430B461A600A1D126803689A430B1DB4
:105340001A60027911440A6803681A430A60324AF3
:105350000832126803689A432F4B08331A601A1DEB
:10536000126803689A432C4B0C331A604279102A56
:105370000ED11A1F126803681A43274B08331A60AC
:105380001A1D126803681A43234B0C331A600DE090
:105390002149427911440A6803681A430A6005E00A
:1053A000027911440A6803689A430A607047002131
:1053B000016001710C214171002181717047164912
:1053C000103109680143144A1032116070470146D8
:1053D0000020114A143212680A400AB1012000E08C
:1053E000002070470C4914310860704701460020C6
:1053F0000022094B1B6803EA0102074B14331B68A8
:105400000B4013B10AB1012000E0002070470249AF
:10541000143108607047000000040140FFFF0F00D6
:1054200010B50446CC48844208D10121042000F084
:105430002DFB0021042000F029FB46E0C7488442F0
:1054400008D10121082000F021FB0021082000F0F4
:105450001DFB3AE0C248844208D10121102000F02F
:1054600015FB0021102000F011FB2EE0BD48844206
:1054700008D10121202000F009FB0021202000F0AC
:1054800005FB22E0B848844208D10121402000F009
:10549000FDFA0021402000F0F9FA16E0B3488442FA
:1054A00008D10121802000F0F1FA0021802000F0D5
:1054B000EDFA0AE0AE48844207D10121801500F0E0
:1054C000E5FA0021A01500F0E1FA10BD10B50121A8
:1054D000084600F0DBFA0021012000F0D7FA10BDE9
:1054E0002DE9F0410246002500260020002300247B
:1054F000002791F803C00CF00F0591F803C00CF0E1
:10550000100CBCF1000F03D091F802C04CEA050565
:1055100091F800C0BCF1000F31D0146800202BE0DE
:105520004FF0010C0CFA00F3B1F800C00CEA0306CE
:105530009E4220D183004FF00F0C0CFA03F7BC43BE
:1055400005FA03FC4CEA040491F803C0BCF1280FEF
:1055500006D14FF0010C0CFA00FCC2F814C00AE0AE
:1055600091F803C0BCF1480F05D14FF0010C0CFAC3
:1055700000FCC2F810C0401C0828D1D31460B1F858
:1055800000C0BCF1FF0F34DD546800202EE000F1B4
:10559000080C4FF0010808FA0CF3B1F800C00CEA4F
:1055A00003069E4221D183004FF00F0C0CFA03F743
:1055B000BC4305FA03FC4CEA040491F803C0BCF1B7
:1055C000280F05D100F1080C08FA0CF8C2F8148075
:1055D00091F803C0BCF1480F07D100F1080C4FF05F
:1055E000010808FA0CF8C2F81080401C0828CED335
:1055F0005460BDE8F0814FF6FF7101800221817097
:105600000421C17070470246002093680B400BB123
:10561000012000E0002070470146886880B2704792
:1056200002460020D3680B400BB1012000E00020AF
:1056300070470146C86880B2704701617047416198
:1056400070470AB1016100E041617047C160704775
:105650004FF480320A43826181618261826982698A
:10566000704702460020434B18684FF6807318407D
:1056700040EA021008433F4B186070473E49C8613A
:105680007047F0B50A46002300240021002500F0F1
:105690000046B6F1004F02D1364EF16901E0354EB9
:1056A0007168C0F3034583B200F44016B6F5401F9D
:1056B00008D121F070612F4E766826F070662D4F6C
:1056C0007E6012E000F48016B6F5801F06D1032636
:1056D00006FA05F4A14341F0706106E0460D36017B
:1056E00003FA06F6B14341F0706122B1460D36016E
:1056F00003FA06F6314300F00046B6F1004F02D13E
:105700001C4EF16101E01B4E7160F0BD30B500220E
:105710008B071C0F0F2303FA04F2164B08338C106F
:1057200053F824309343134C08348D1044F825303B
:1057300023468C1053F824308C07240F00FA04F40D
:1057400023430C4C08348D1044F8253030BD0A49F1
:10575000DC3108607047000000080140000C014087
:10576000001001400014014000180140001C0140DD
:10577000002001400000014000002042DF48006896
:1057800040F00100DD49086008464068DC490840F7
:10579000DA49486008460068DA490840D749086095
:1057A0000846006820F4802008600846406820F41D
:1057B000FE0048604FF41F0088607047CF490968B9
:1057C00021F48031CD4A11601146096821F480210D
:1057D0001160B0F5803F03D0B0F5802F0ED106E008
:1057E000C649096841F48031C44A116007E0C349E1
:1057F000096841F4A021C14A116000E000BF00BF68
:10580000704710B501460022002300204A11012AEA
:1058100002D1BA4C236806E0022A02D1B74C236AAF
:1058200001E0B64C636A01F01F02012494401C4061
:105830000CB1012000E0002010BD38B50020009020
:105840000024002500BF3120FFF7DBFF054600984C
:10585000401C00900098B0F5A06F01D0002DF2D050
:105860003120FFF7CEFF08B1012400E000242046DC
:1058700038BD01460020A14A106820F0F80040EA37
:10588000C10010607047A0490860704702460020C0
:105890009A4B586820F47C1042EA01031843974B56
:1058A0005860704798490866704701460020934A3F
:1058B000506820F003000843506070478F484068EC
:1058C00000F00C007047014600208C4A506820F020
:1058D000F00008435060704701460020874A506836
:1058E00020F4E06008435060704701460020834A7E
:1058F000506820F4605040EAC1005060704729B100
:105900007E4A527A02437D4B5A7204E07B4A527AB5
:1059100082437A4B5A7270477B49D831086070478E
:1059200001460020754A506820F44040084350600A
:1059300070470021714A20321170704A82F820109D
:10594000012802D004280AD104E001216B4A203248
:10595000117005E00521694A2032117000E000BF96
:1059600000BF70476949086070476449096A01438C
:10597000624A11627047654944390860704730B522
:1059800000210022002400235C4D6D6805F00C010D
:1059900021B1042905D0082923D105E05C4D05601B
:1059A00022E05B4D05601FE0544D6D6805F47012F8
:1059B000524D6D6805F48034022505EB92421CB906
:1059C000544D554305600BE04C4D6D6805F40035B2
:1059D0001DB1504D5543056002E04D4D55430560E6
:1059E00002E04B4D056000BF00BF444D6D6805F0FF
:1059F000F0010909484D6B5C0568DD4045603F4D8D
:105A00006D6805F4E061090A434D6B5C4568DD4053
:105A100085603A4D6D6805F46051C90A3E4D6B5C76
:105A20004568DD40C560354D6D6805F44041890B22
:105A30003A4D6B5CC568B5FBF3F5056130BD29B126
:105A40002E4A526902432D4B5A6104E02B4A526997
:105A500082432A4B5A61704729B1284A926902430E
:105A6000264B9A6104E0254A92698243234B9A614E
:105A7000704729B1214AD2690243204BDA6104E020
:105A80001E4AD26982431D4BDA61704729B11B4A15
:105A9000D2680243194BDA6004E0184AD2688243A4
:105AA000164BDA60704729B1144A12690243134B4E
:105AB0001A6104E0114A12698243104B1A6170475F
:105AC00012494039086070470F49C86470470B4954
:105AD000C87170470948406A40F0807007494862C1
