:020000040800F2
:1000000038050020050100088D160008811200083F
:10001000191600089D0100082B1B000800000000B5
:10002000000000000000000000000000BD170008F4
:100030009F01000800000000BB170008BF17000860
:100040001F0100081F0100081F0100081F01000810
:100050001F0100081F0100081F0100081F01000800
:100060001F0100081F010008A90100081F01000866
:100070001F0100081F0100081F0100081F010008E0
:100080001F0100081F0100081F0100081F010008D0
:100090001F0100081F0100081F0100081F010008C0
:1000A0001F0100081F0100081F0100081F010008B0
:1000B000211800081F0100082D1800081F01000862
:1000C0001F0100081F0100081F0100081F01000890
:1000D0001F0100081F0100081F0100081F01000880
:1000E000A10100081F0100081F010008DFF810D05F
:1000F00000F042F800480047B91D0008AFF3008047
:10010000380500200648804706480047FEE7FEE71E
:10011000FEE7FEE7FEE7FEE7FEE7FEE7FEE7FEE7B7
:100120001F180008ED000008D2B201E000F8012B12
:10013000491EFBD270470022F6E710B513460A4667
:1001400004461946FFF7F0FF204610BD30B50B46B8
:10015000014600202022012409E021FA02F59D42F7
:1001600005D303FA02F5491B04FA02F52844151ECB
:10017000A2F10102F1DC30BD064C074D06E0E0685B
:1001800040F0010394E8070098471034AC42F6D3DE
:10019000FFF7B0FF941E0008B41E0008FEE770478A
:1001A0004FF4805000F026B8102000F023B872B64B
:1001B000FEE7000070B5044600F01CF90546601C1F
:1001C00002D004480078044400F014F9401BA04217
:1001D000FAD370BD04000020054A4FF400511028E6
:1001E00002D0B0F5805F02D1104600F0F5B870473C
:1001F00000100140044910B50A68024202D00860AC
:10020000FFF7EAFF10BD0000140401402DE9F84F8C
:10021000DFF8A491002409F1040A0AF1040B234633
:100220004FF00F080BF1040EBEE00127A7403A4043
:10023000BA4272D1DFF884C14D68A5EB0C06654562
:100240002BD00DDC032D34D005DC35B3012D19D0B6
:10025000022D2FD11BE0112D16D0122D2AD119E01D
:10026000B6F5881F19D006DCB6F5803F15D0B6F577
:10027000801F1FD111E0B6F5001F0ED0B6F5041F88
:1002800018D10AE0CB6815E0CB681B1D12E0CB68E3
:1002900008330FE0CB680C330CE08B682BB1012BDB
:1002A0004FF0080303D0476104E0042302E0076134
:1002B00000E00023FF2A01D8064601E000F1040611
:1002C0004FEA840501D9A5F12005376808FA05FC35
:1002D00027EA0C0703FA05F547EA050737604D687A
:1002E000ED0060D5364DAE6946F00106AE61AD69F0
:1002F00024F0030605F001050095324D7719BE681C
:10030000A5072D0F08FA05FC26EA0C06DFF8B8C091
:10031000604503D14FF0000C17E044E0DFF8ACC0BB
:10032000604502D14FF0010C0FE0DFF8A4C060453A
:1003300002D14FF0020C08E0DFF898C0604502D10E
:100340004FF0030C01E04FF0040C0CFA05FC4CEAF2
:10035000060CC7F808C04D68D9F80060ED034D469B
:1003600001D5164300E096432E604D68DAF8006030
:10037000AD03554601D5164300E096432E604D6807
:10038000DBF80060ED025D4601D5164300E09643C0
:100390002E604D68DEF80060AD02754601D516434B
:1003A00000E096432E60641C0A6832FA04F57FF47C
:1003B0003CAFBDE8F88F00000004014000001110C0
:1003C000001002400000014000080140000C014004
:1003D0000010014000140140C26821EA02030A40F3
:1003E00043EA0241016170470AB1016170470904A3
:1003F000FBE700000148806870470000040000200F
:10040000024881680278114481607047040000202E
:10041000074810B5016841F010010160032000F0A9
:1004200075F80F2000F006F800F024F8002010BD49
:100430000020024070B50D4D04464FF47A712878C3
:10044000B1FBF0F00A490968B1FBF0F000F0EEFAF8
:1004500048B9102C07D200222146501E00F036F871
:1004600000206C6070BD012070BD00000400002001
:10047000100000200C4808B5816941F0010181613C
:10048000816901F001010091C16941F08051C161B0
:10049000C069064900F080500090486820F0E06094
:1004A00040F00070486008BD0010024000000140AC
:1004B000002809DB00F01F02012191404009800063
:1004C00000F1E020C0F8001170470000F0B40E4BBE
:1004D0001B68C3F30223C3F10704042C00D90424CE
:1004E0001D1D072D01D2002300E0DB1E012606FAA8
:1004F00004F56D1E0D409D409E40761E164045EA57
:100500000601F0BC01F082BB0CED00E0064A00F0F1
:10051000070110684FF6FF03184040EA0120034925
:1005200008431060704700000CED00E00000FA0581
:100530002DE9F0470D46040067D0DFF81881D8F8A0
:10054000000000F00700A8420CD2D8F8001021F0FB
:1005500007012943C8F80010D8F8000000F0070090
:10056000A84252D120683C4E810712D5400703D5DE
:10057000706840F4E06070602078000703D5706810
:1005800040F4605070607068A16820F0F00008438B
:1005900070602078C00727D06068012810D03168CB
:1005A000022810D0890700292FDA716821F0030191
:1005B00001437160FFF71EFF074641F288390CE0E6
:1005C00031688903EFE78901EDE7FFF713FFC11BEE
:1005D000494502D90320BDE8F0877068616800F0E2
:1005E0000C00B0EB810FF0D1D8F80010404601F0BC
:1005F0000701A9420BD9016821F0070129430160D5
:10060000006800F00700A84201D00120E3E720784D
:10061000400705D57068E16820F4E0600843706029
:100620002078000706D57068216920F4605040EA00
:10063000C100706000F038F87168084AC1F3031116
:10064000515CC8400649086006480068FFF7F2FEA2
:100650000020C0E700200240001002407C1E00087D
:10066000100000200800002004480549006849687F
:10067000044AC1F30221515CC840704710000020B9
:10068000001002408C1E00080448054900684968B3
:10069000044AC1F3C221515CC840704710000020D9
:1006A000001002408C1E000812A085B00FC88DE813
:1006B0000F0014A0144B006804905968134801F00F
:1006C0000C02042A10D0082A0ED1C1F38342C903B8
:1006D0001DF802000AD5596804AAC1F34041515CD3
:1006E0000A4A5043B0FBF1F005B07047084948434F
:1006F000FAE7000002030405060708090A0B0C0DBF
:100700000E0F1010010200000010024000127A00CB
:1007100000093D002DE9F84F04006FD02078BE4D50
:10072000C00747D06868C0F38100012807D0686817
:10073000C0F38100022809D16868C00306D5286883
:10074000800337D560680028E7D033E06068B0F5F3
:10075000803F0BD010B1B0F5A02F11D0286820F445
:1007600080302860286820F4802002E0286840F467
:1007700080302860606888B1FFF73CFE064609E0DB
:10078000286840F480202860F0E7FFF733FE801BE4
:10079000642873D828688003F7D50BE0FFF72AFE9A
:1007A000064604E0FFF726FE801B6428F1D828687F
:1007B0008003F7D42078DFF8648280074FF0010AC5
:1007C0004FF0000939D5686810F00C0F07D0686841
:1007D000C0F38100022809D16868C00306D42868E4
:1007E000800714D52069012808D110E02069B0B134
:1007F000C8F800A0FFF7FEFD064605E007E1FFF799
:10080000F9FD801B0228C4D828688007F7D528681E
:10081000616920F0F80040EAC10028600DE0C8F8E6
:100820000090FFF7E7FD064604E0FFF7E3FD801BBD
:10083000022823D828688007F7D4207800072CD511
:100840007748A169D9B1C0F800A0FFF7D3FD0646EB
:1008500004E0FFF7CFFD801B02280FD8686A8007ED
:10086000F7D570484FF4FA510068B0FBF1F00090F2
:1008700000BF0098411E0091FAD20EE07CE0C0F863
:100880000090FFF7B7FD064604E0FFF7B3FD801BBD
:10089000022871D8686A8007F7D4207840075BD5B2
:1008A000E8690027C00008D4E86940F08050E8619A
:1008B000E869012700F0805000905B480168C90595
:1008C00011D40168834641F480710160FFF792FD05
:1008D000064604E0FFF78EFD801B64284CD8DBF849
:1008E0000000C005F6D5E06801280AD008B1052847
:1008F00013D0286A20F001002862286A20F0040042
:1009000002E0286A40F001002862E06841F2883B7A
:1009100088B1FFF76FFD064609E0286A40F0040041
:100920002862EEE7FFF766FD811B59455BD8286A10
:100930008007F7D50BE0FFF75DFD064604E0FFF703
:1009400059FD811B59454ED8286A8007F7D41FB13D
:10095000E86920F08050E861E069A8B36968C1F3F4
:100960008101022946D00228484606D0C8F8600016
:10097000FFF740FD044639E035E04746C8F860001F
:10098000FFF738FD064604E0FFF734FD801B022820
:1009900029D828688001F7D4206AB0F5803F05D1B6
:1009A0006868A16820F4003008436860D4E9080151
:1009B0000843696821F4741108436860C7F860A0AF
:1009C000FFF718FD044605E023E0FFF713FD001BC9
:1009D000022808D828688001F7D51AE0FFF70AFD39
:1009E000001B022802D90320BDE8F88F2868800187
:1009F000F4D40EE00128F7D06868226A00F4803150
:100A0000914204D1616A00F47010884201D0012043
:100A1000EAE70020E8E70000001002400000424240
:100A200080044242100000200070004010B5401EBB
:100A3000B0F1807F01D3012010BD4FF0E024606150
:100A40000F21601701F0E2F80020A061072020616B
:100A5000002010BD7047704710B590F83C20012A67
:100A600022D0012280F83C20CA688C6822F44072AF
:100A700022434C6822F4806222430C6822F4006214
:100A800022430C6922F4805222434C6922F4005222
:100A90002243C969002322F480420A4301684A6460
:100AA00080F83C30002010BD022010BD70B590F8D9
:100AB0003C20012A26D0012580F83C50022280F8F3
:100AC0003D2002685368946823F070060B68334336
:100AD00053600D4B02689A4208D0B2F1804F05D0A6
:100AE0000A4B9A4202D00A4B9A4204D1496824F038
:100AF00080031943916080F83D50002180F83C103C
:100B0000084670BD022070BD002C0140000400406A
:100B10000008004090F83D10012901D001207047E5
:100B2000022180F83D100168CA6842F00102CA60E3
:100B300000680B49884208D0B0F1804F05D00949C0
:100B4000884202D00849884204D1816801F0070137
:100B5000062903D0016841F00101016000207047BF
:100B6000002C014000040040000800402DE9F04145
:100B70000D46040003D094F83D0018B108E00120B0
:100B8000BDE8F081002084F83C00204600F040F8E9
:100B9000022084F83D002068816844F207029143F6
:100BA0008160211D206800F047FE2068816882690D
:100BB000066A2B68AF690B4340F203318A4342EA6D
:100BC0000722A968EF6911434FF6FC429143EA6896
:100BD00041EA07210A4329692F6A090141EA0731DD
:100BE00011436A686D6926F0220646EA05152A4314
:100BF00083602068816154F8460B0262012004F88A
:100C00001F09E0752076E0762077A0750020B7E711
:100C100000B585B000210091019102910391016816
:100C200023480122B1F1804F23D0224B99421ED19B
:100C3000C16941F00401C161C16901F0040104917D
:100C4000816941F0080181618069694600F008000E
:100C50000490C020009002921748FFF7D7FA0022B4
:100C600011461E20FFF732FC1E20FFF721FC05B0C5
:100C700000BDC16941F00101C161C16901F001011B
:100C80000491816941F0040181618069694600F045
:100C9000040004900320009002920848FFF7B6FA7F
:100CA000002211461C20FFF711FC1C20DDE700008C
:100CB0000010024000080040000C01400008014004
:100CC00070B590F83E50044690F83F3090F84220BE
:100CD00090F84300022621B104290BD0012D16D132
:100CE0000FE0012D13D1012A11D184F83E6084F860
:100CF000426016E0012B0AD1012808D184F83F6038
:100D00000DE0012B03D1012A01D1012801D00120DE
:100D100070BD84F83E6084F83F6084F8426084F8D7
:100D2000436091B1042904D001220021206800F021
:100D3000B9FD01220421206800F0B4FD206801689B
:100D400041F001010160002070BD012200212068F6
:100D5000F2E7704770B50446006801694FF000057E
:100D6000C943890715D4C168C943890711D4E91E4D
:100D7000016101202077206880698007204602D029
:100D8000FFF7E7FF04E000F0BFF8204600F062F94B
:100D9000257720680169C943490717D4C168C94349
:100DA000490713D46FF00401016102202077206805
:100DB000806910F4407F204602D0FFF7CAFF04E0AC
:100DC00000F0A2F8204600F045F925772068016977
:100DD000C943090716D4C168C943090712D46FF083
:100DE00008010161042020772068C069800720463F
:100DF00002D0FFF7AEFF04E000F086F8204600F0D6
:100E000029F9257720680169C943C90617D4C16843
:100E1000C943C90613D46FF010010161082020777F
:100E20002068C06910F4407F204602D0FFF791FF90
:100E300004E000F069F8204600F00CF925772068FE
:100E40000169C943C90708D1C168C943C90704D1A9
:100E5000891E0161204600F04FF920680169C943ED
:100E6000090609D4C168C943090605D46FF0800199
:100E700001612046FFF7EEFD20680169C94349067C
:100E800009D4C168C943490605D46FF04001016126
:100E9000204600F032F920680169C94389060BD465
:100EA000C168C943890607D46FF02001016120465B
:100EB000BDE87040FFF7CFBD70BD000000B585B044
:100EC0000021009101910291039100680B49884231
:100ED00012D10B48816941F0040181618069694642
:100EE00000F0040004904FF4106000900220019084
:100EF00003900448FFF78AF905B000BD002C0140BB
:100F00000010024000080140704770B5044690F898
:100F10003C000D4601280AD0012084F83C0042B173
:100F2000042A18D0082A2AD00C2A4DD139E00220F0
:100F300070BD206800F0C4FC2068816941F00801A0
:100F400081612068816921F00401816120688169E3
:100F50002A69114311E0206800F0DEFC20688169F5
:100F600041F4006181612068816921F480618161BF
:100F7000206881692A6941EA0221816124E02068B0
:100F800000F0F8FC2068C16941F00801C1612068E7
:100F9000C16921F00401C1612068C1692A69114356
:100FA00011E0206800F012FD2068C16941F4006181
:100FB000C1612068C16921F48061C1612068C16993
:100FC0002A6941EA0221C161002084F83C0070BD19
:100FD00010B5040003D094F83D0010B107E00120E3
:100FE00010BD002084F83C00204600F01FF80220CD
:100FF00084F83D00211D206800F01EFC012084F8CB
:10100000460084F83E0084F83F0084F8400084F8ED
:10101000410084F8420084F8430084F8440084F8D6
:10102000450084F83D00002010BD000008B50068B0
:101030000649884208D10648816941F4006181610E
:10104000806900F40060009008BD0000002C0140A1
:10105000001002407047000010B5044649B1042951
:101060000AD008290BD094F8410001280AD00120A9
:1010700010BD94F83E00F8E794F83F00F5E794F8C7
:101080004000F2E7022041B3042929D008292AD0E0
:1010900084F841000122206800F004FC1349206814
:1010A000884203D1426C42F4004242642068884284
:1010B00008D0B0F1804F05D00D49884202D00D49CB
:1010C000884204D1816801F00701062903D0016834
:1010D00041F001010160002010BD84F83E00D9E715
:1010E00084F83F00D6E784F84000D3E7002C0140A5
:1010F00000040040000800407047704770B50400CD
:1011000004D094F83D00002510B106E0012070BD28
:1011100084F83C50204600F023F8242084F83D0059
:101120002068C16821F40051C160204600F070FCC5
:101130002068016921F4904101612068416921F032
:101140002A0141612068C16841F40051C1602564F1
:10115000202084F83D0084F83E00002070BD00008F
:1011600030B585B000240094019402940394006883
:101170001449884224D11448816941F48041816135
:10118000816901F480410491816941F00401816128
:1011900080690E4D00F0040004904FF40070009040
:1011A000022001900320039069462846FFF72EF89D
:1011B0002815CDE90004694628460294FFF726F871
:1011C00005B030BD00380140001002400008014069
:1011D0002DE9F843044690F83D001F4615460E469B
:1011E00020284BD1C6B1BDB194F83C00012845D0B0
:1011F000012084F83C004FF00008C4F84080212012
:1012000084F83D00FFF7F6F8A5848146E584A068E0
:10121000B0F5805F03D004E00120BDE8F8832069C9
:1012200020B13546002684F83C800EE00025FAE720
:101230008021204600F048FCA0B9ADB115F8010BA3
:1012400021684860E08C401EE084E08C4B464FF003
:10125000000200970028EBD14FF04001204600F03B
:1012600033FC30B10320D8E736F8020BC0F3080096
:10127000E6E7202084F83D000020CEE70220CCE7FE
:10128000FEE700002DE9F04101220C4DD403214678
:101290002846FFF7A9F80122094F160331463846C0
:1012A000FFF7A2F8002231463846FFF79DF82146A5
:1012B0002846BDE8F0410022FFF796B8000801403B
:1012C000000C014070B50122D1030948FFF78CF8EA
:1012D000084D4FF48054002221462846FFF784F839
:1012E00021462846BDE870400122FFF77DB8000086
:1012F00000080140000C014070B50122064DD403E6
:1013000021462846FFF770F821462846BDE8704080
:101310000022FFF769B80000000801402DE9F04FF6
:1013200085B0002445480094019402940394816997
:1013300041F010018161816901F01001049181691E
:1013400041F020018161816901F0200104918169EE
:1013500041F004018161816901F004010491816916
:1013600041F0080181618069DFF8D4A000F0080035
:101370004FF400550490002229465046FFF734F8F8
:101380000122170339462F48FFF72EF842F20808CA
:10139000002241462B48FFF727F8DFF8ACB04FF4A6
:1013A0000049012249465846FFF71EF800950226DB
:1013B00001250396CDE9015469465046FEF726FF04
:1013C000CDE90075CDE9025669461E48FEF71EFFBD
:1013D000CDF800800396CDE9015469461948FEF71F
:1013E00015FF1A480097CDE9010569465846FEF7F2
:1013F0000DFFCDE90095CDE9025669465846FEF746
:1014000005FF102000901248CDE9010669460D48FD
:10141000FEF7FCFE002211460A20FFF757F80A20CB
:10142000FFF746F8002211462820FFF74FF8282042
:10143000FFF73EF805B0BDE8F08F00000010024055
:1014400000100140000C0140000801400000211084
:101450000000111010B592B000240F941C216846B2
:101460001094FEF768FE202107A8FEF764FE2548C9
:101470002349016040F29F51C0E901146321C0E992
:10148000031444618461FFF7A3FD08B1FEF78FFEEA
:101490000F940FA91B481094FFF708FB08B1FEF743
:1014A00086FE602000903220CDE90104039404946C
:1014B00005940022694613480694FFF726FD08B1FB
:1014C000FEF775FE0C2269460E48FFF71EFD08B1B7
:1014D000FEF76DFE0794089409944FF400500A94A7
:1014E000CDE90B4007A907480E94FFF7B5FA08B1FC
:1014F000FEF75DFE0348FFF7E1FC12B010BD0000EF
:10150000002C01401800002010B58CB02421684642
:10151000FEF711FE0024164809944FF080410A940A
:10152000C0E900144FF6FF71C0E902410461846113
:101530000320CDE900040120CDE902040621049135
:10154000CDE90540CDE9074169460948FFF70EFBA3
:1015500008B1FEF72CFE099409A905480A94FFF783
:10156000A5FA002801D0FEF722FE0CB010BD000045
:101570006000002010B58CB024216846FEF7DBFD2A
:1015800000241648099414490A94C0E900144FF63F
:10159000FF71C0E90241046184610320CDE90004C8
:1015A0000120CDE9020406210491CDE90540CDE9F1
:1015B000074169460948FFF7D9FA08B1FEF7F7FD78
:1015C000099409A905480A94FFF770FA002801D088
:1015D000FEF7EDFD0CB010BD00080040A800002093
:1015E0000C4810B50A4901604FF4E1314160002117
:1015F00081600C22C160C0E904128161C161FFF702
:101600007DFD002803D0BDE81040FEF7D0BD10BD21
:1016100000380140F0000020FEE7000070B5194ED0
:101620000C46050001D5012200E0002208213046C9
:10163000FEF7DAFE4FF40051002C01DA012200E03F
:1016400000223046FEF7D0FE0F486FF06201002DF9
:1016500005DA8D4200DA0D466435026803E0632D39
:1016600000DD632502685563002C05DA8C4200DA40
:101670000C460068643403E0632C00DD63240068DA
:10168000046470BD000C014018000020FEE770B536
:101690000025002105F1B00000F089F8002108467E
:1016A00000F085F80021102000F081F800240121CD
:1016B000002000F07CF8641CE4B2802CF7D36D1C91
:1016C000EDB2082DE5D370BD10B54FF44870FEF7AC
:1016D00071FD0021AE2000F06AF80021084600F0FC
:1016E00066F80021102000F062F80021402000F090
:1016F0005EF80021B02000F05AF80021812000F0AF
:1017000056F80021FF2000F052F80021A12000F03F
:101710004EF80021A62000F04AF80021A82000F091
:1017200046F800213F2000F042F80021C82000F0D8
:101730003EF80021D32000F03AF80021084600F0DE
:1017400036F80021D52000F032F80021802000F08A
:101750002EF80021D82000F02AF80021052000F002
:1017600026F80021D92000F022F80021F12000F015
:101770001EF80021DA2000F01AF80021122000F0F3
:1017800016F80021DB2000F012F80021302000F0D4
:101790000EF800218D2000F00AF80021142000F03E
:1017A00006F80021BDE81040AF20AFF30080C0B2C2
:1017B00009B100F004BA00F0EBB970477047FEF7CA
:1017C0001FBE30B58FB028216846FEF7B4FC142147
:1017D0000AA8FEF7B0FC0120010400248DE81300E4
:1017E00004904FF4E010CDE90810022507956846F3
:1017F000FEF790FF08B172B6FEE70F20CDE90A05AB
:101800004FF48060CDE90C4002210AA80E94FEF747
:101810008FFE002801D072B6FEE70FB030BD7047D2
:101820000148FFF797BA0000600000200148FFF769
:1018300091BA0000A8000020F0B50268164C174DC0
:10184000174E4FF08047A04205D0B84203D0A842BF
:1018500001D0B04203D122F070034A681A43A0427B
:1018600005D0B84203D0A84201D0B04203D122F43F
:101870004073CA681A434B6922F080021A4302601F
:101880008A68C2620A688262A04201D10969016362
:1018900001214161F0BD0000002C01400004004026
:1018A0000008004010B501F01F010123046A8B40BD
:1018B0009C430462036A8A401343036210BD000024
:1018C00030B5026A22F001020262036A426884694A
:1018D00024F073050C682C4323F002058B682B431E
:1018E0000C4DA84206D123F00805CB6843EA050356
:1018F00023F0040307D14D6922F4407245EA020542
:101900008A6942EA05024260846149684163036270
:1019100030BD0000002C014030B5026A22F01002F8
:101920000262026A436884690D6824F4E64444EA6A
:1019300005248D6822F0200242EA05120C4DA842CF
:1019400006D1CD6822F0800242EA051222F0400260
:1019500007D14D6923F4406343EA85038D6943EA67
:1019600085034360846149688163026230BD000081
:10197000002C014030B5026A22F480720262036AD0
:101980004268C46923F4007324F073050C682C4387
:101990008D6843EA05230C4DA84206D1CD6823F497
:1019A000006343EA052323F4806307D14D6922F4E1
:1019B000405242EA05128D6942EA05124260C46152
:1019C0004968C163036230BD002C014030B5026A32
:1019D00022F480520262036A4268C4690D6824F4EA
:1019E000E64444EA05248D6823F4005343EA0533B2
:1019F000064DA84204D14D6922F4804242EA851284
:101A00004260C46149680164036230BD002C01403A
:101A100070B5044600680169E26821F44051114341
:101A20000161A16820690143606901432068C268BF
:101A300041F20C639A430A43C26020684169A2697B
:101A400021F44071114341611E492068884202D14E
:101A5000FEF71AFE01E0FEF707FE00EBC00101EB06
:101A60000011606864228000B1FBF0F3B3FBF2F375
:101A70006FF018067343B1FBF0F5B1FBF0F605EB20
:101A80008305322303EB0515B5FBF2F5B6FBF2F641
:101A900005F0F00505EB0615B1FBF0F6B1FBF0F033
:101AA000B0FBF2F06FF01801484306EB800003EB47
:101AB0000010B0FBF2F0216800F00F0028448860AD
:101AC00070BD0000003801402DE9F0411E46174668
:101AD00088460446069D1CE0681C1AD025B1FEF716
:101AE00089FC801BA84214D92068C16821F4D071F8
:101AF000C1602068416921F001014161202084F822
:101B00003D0084F83E00002084F83C000320BDE83E
:101B1000F0812068016838EA010004D00020B84252
:101B2000DAD00020F3E70120F9E7FEE72DE9F047DE
:101B3000154F04464FF40046002231463846FEF762
:101B400053FCDFF8489000254FF4805804F08000E3
:101B5000802816D0002241464846FEF745FC600624
:101B6000040E012231463846FEF73EFC0022314683
:101B70003846FEF739FC6D1CEDB2082DE6D3BDE802
:101B8000F0870122E7E7000000080140000C014057
:101B900010B50446FFF776FB7820FFF7C7FFFFF785
:101BA000ABFB0020FFF7C2FFFFF7A6FB2046FFF7C5
:101BB000BDFFFFF7A1FBBDE81040FFF783BB10B5E9
:101BC0000446FFF75FFB7820FFF7B0FFFFF794FBB9
:101BD0004020FFF7ABFFFFF78FFB2046FFF7A6FF84
:101BE000FFF78AFBBDE81040FFF76CBB0FB4054B55
:101BF00010B503A9044A029800F028F810BC5DF85B
:101C000014FB0000A11D0008140000200907090EA4
:101C1000002804DB00F1E02080F80014704700F099
:101C20000F0000F1E02080F8141D704702E008C8A2
:101C3000121F08C1002AFAD170477047002001E046
:101C400001C1121F002AFBD1704700002DE9FF4F90
:101C500089B09B460446002506E025280BD05A464D
:101C60000B999047641C6D1C20780028F5D10DB0AD
:101C70002846BDE8F08F0027B8460122474900E01A
:101C8000074314F8013F203B02FA03F00842F7D162
:101C900020782E2819D114F8010F47F004072A28BC
:101CA0000ED06FF02F022078A0F1300109290CD856
:101CB00008EB880102EB410100EB0108641CF2E72C
:101CC0000A98641C50F8048B0A9020780028CED023
:101CD000642808D0692806D075281ED05A460B996A
:101CE00090476D1C58E00A994FF00A0901C90A9102
:101CF000002802DA40422D2102E0390504D52B21CB
:101D00008DF82010012103E0F90704D02021F7E726
:101D10008A4608AE0DE00021FAE70A994FF00A0959
:101D200001C90A91F7E74946FEF710FA303106F883
:101D3000011D0028F7D1ADEB060000F1200978075E
:101D400001D44FF00108C84502DDA8EB090000E00E
:101D500000208046002706E008A85A46C05D0B997F
:101D600090476D1C7F1C5745F6DB04E030205A4637
:101D70000B9990476D1CB8F10001A8F10108F5DC42
:101D800005E016F8010B5A460B9990476D1CB9F106
:101D90000001A9F10109F4DC641C65E709280100D0
:101DA00013B54FF6FF73012269460248FFF710FA98
:101DB00000981CBDF0000020FEF72AFBFFF701FD94
:101DC000FFF7ACFAFFF70CFCFFF744FBFFF79CFBB7
:101DD000FFF7D0FBFFF778FCFFF759FC002119480B
:101DE000FFF73AF90C211748FFF736F93C2116485E
:101DF000FEF766FF3C211548FEF762FF1248FEF72A
:101E000089FE1248FEF786FE0F4E104F104C00253B
:101E100000210846FFF702FC3868416A09B22180B8
:101E20003268526A628045623068456209A0FFF7F5
:101E3000DDFEB4F902100CA0FFF7D8FE0220FEF779
:101E4000B9F9E5E71800002060000020A800002094
:101E500000000020456E636F646531436F756E74DA
:101E60003A25640D0A000000456E636F64653243D5
:101E70006F756E743A25640D0A00000000000000C2
:101E8000000000000102030406070809000000002A
:101E900001020304B41E0008000000201800000026
:101EA0002C1C0008CC1E0008180000202005000093
:101EB0003C1C0008000000000100000010000000B1
:0C1EC000000000000024F40000000000FE
:04000005080000ED02
:00000001FF
